S01900006275696C642F75636D696E692F6D61696E2E7372656373
S11300000C94A5010C94C4010C94C4010C94C40177
S11300100C94C4010C94C4010C94C4010C94C40148
S11300200C94C4010C94950A0C94C4010C94C4015E
S11300300C94C4010C94C4010C94C4010C94C40128
S11300400C946B060C944D060C9457060C946106A4
S11300500C942A060C94C4010C94C4010C94C4019D
S11300600C94C4010C941C040C94C4010C94F4046A
S11300700C94C4010C94C4010C94C4010C94C401E8
S11300800C94C4010C94C4010C94C4010C94C401D8
S11300900C940D060C94C4010C941F060C94C4011A
S11300A00C94C4010C94C4010C94C4010C94C401B8
S11300B00C94C4010C94C4010C94C4010C94C401A8
S11300C00C94C4010C94C4010C94C4010C94C40198
S11300D00C94C4010C94C4010C94C4010C94C40188
S11300E00C94C4010C94B40F0C94C4010C94E20F4E
S11300F00C942A0F0C94860F0C94C4010C94580F82
S11301000C94FC0E0C94C90E0C94A0080C94DC08FE
S11301100C948F080C94C4010C94C4010C94C40175
S11301201D122812351217133F1341134F13761360
S1130130B41315124F146714A414B4142215A9157A
S113014005163A1600002110422063308440A55061
S1130150C660E770088129914AA16BB18CC1ADD109
S1130160CEE1EFF13112100273325222B5529442B1
S1130170F772D662399318837BB35AA3BDD39CC359
S1130180FFF3DEE36224433420040114E664C774FD
S1130190A44485546AA54BB528850995EEE5CFF5A9
S11301A0ACC58DD55336722611163006D776F66651
S11301B09556B4465BB77AA719973887DFF7FEE7F9
S11301C09DD7BCC7C448E5588668A778400861181D
S11301D002282338CCC9EDD98EE9AFF94889699949
S11301E00AA92BB9F55AD44AB77A966A711A500AF1
S11301F0333A122AFDDBDCCBBFFB9EEB799B588B99
S11302003BBB1AABA66C877CE44CC55C222C033C3C
S1130210600C411CAEED8FFDECCDCDDD2AAD0BBDE8
S1130220688D499D977EB66ED55EF44E133E322E90
S1130230511E700E9FFFBEEFDDDFFCCF1BBF3AAF38
S1130240599F788F8891A981CAB1EBA10CD12DC196
S11302504EF16FE18010A100C230E320045025402C
S113026046706760B9839893FBA3DAB33DC31CD38C
S11302707FE35EF3B1029012F322D232354214527C
S113028077625672EAB5CBA5A89589856EF54FE5D8
S11302902CD50DC5E234C324A014810466744764CC
S11302A024540544DBA7FAB79987B8975FE77EF72C
S11302B01DC73CD7D326F2369106B016576676761C
S11302C0154634564CD96DC90EF92FE9C899E989F8
S11302D08AB9ABA94458654806782768C018E1086C
S11302E08238A3287DCB5CDB3FEB1EFBF98BD89BCC
S11302F0BBAB9ABB754A545A376A167AF10AD01ABC
S1130300B32A923A2EFD0FED6CDD4DCDAABD8BAD17
S1130310E89DC98D267C076C645C454CA23C832C0B
S1130320E01CC10C1FEF3EFF5DCF7CDF9BAFBABF6B
S1130330D98FF89F176E367E554E745E932EB23E5B
S1130340D10EF01E00020E060C0411241FBECFEFC6
S1130350D1E4DEBFCDBF12E0A0E0B2E0E6EFF5E30A
S113036000E00BBF02C007900D92A231B107D9F78C
S113037014E0A2E1B2E001C01D92A135B107E1F79A
S11303800E94BF160C94FA1A0C9400008FB7F894CC
S1130390992708958FBF0895282F9FB7F894E82FC1
S11303A0FF27EC5CFD4F80818F3F81F4E0911404C2
S11303B0E21771F40BC02093750304C0FF27EC5CB3
S11303C0FD4F20832093140420E007C025E005C0DE
S11303D0809175038F3F91F7EECF892F99278FBFB7
S11303E0822F9927089521E030E002C0220F331FA5
S11303F08A95E2F780919F02822B80939F02EBE61D
S1130400F0E08081282B2083E8E6F0E080818160A1
S1130410808380E090E0089521E030E002C0220F64
S1130420331F8A95E2F7922F909580919F0289233A
S113043080939F02EBE6F0E08081282B2083E8E69E
S1130440F0E080818160808380E090E00895E4E4BE
S1130450F1E06927660FF11DE60FF11DC895982F8D
S1130460802D3196C89590250895982F80911E026D
S1130470882389F5992379F531E030931E02809120
S1130480020280931F0220911302822F81708093B5
S11304903102809107029091080290932102809387
S11304A02002809114028093220232273170267E2A
S11304B0E32FFF27EE0FFF1FED5FFD4F808191813A
S11304C09093080280930702232B2093130287E062
S11304D00E94CC0108958091130280FF02C08B7F9B
S11304E001C08D7F8093130208951F931FB7F89462
S11304F080910D04882341F482E00E94CC0188237A
S113050019F481E080930D04812F99278FBF1F91E7
S113051008959FB7F89480914F038A3011F020E03A
S113052006C020E080915202843009F421E0892F32
S113053099278FBF222349F084E00E94CC018FB712
S1130540F89499271092120206C08FB7F89499274D
S113055021E0209312028FBF08950F931F93082F59
S1130560162F809152028130D9F0813038F08230D8
S113057009F44AC0833009F028C159C0002309F4A2
S113058058C110925E0310925D03109255031092AD
S11305907003109256021092DE021092DD0239C1ED
S11305A0002309F046C18091DD029091DE020E9491
S11305B027029093DE028093DD0282E08093520250
S11305C010937003143409F000C125C186958695F3
S11305D003C0809113028695817009F0F6C0809162
S11305E01302992311F0846001C082608093130286
S11305F080911302877E8860809313021092140204
S11306008FEF8093020215C1002309F0DEC06093CE
S113061056028091DD029091DE020E94270290939F
S1130620DE028093DD0283E08093520202C1809156
S113063055038F3F09F4C9C0002309F461C0823017
S113064008F4C3C0E0915D03EE2309F4EBC04E2F20
S11306504150E42FFF27E35AFC4F82819927382F1A
S11306602227442311F4E2E002C0E42FE150FF27E3
S1130670E35AFC4F82819927282B392B8091DD0284
S11306809091DE022817390709F09FC080E00E948C
S11306903502309156028091D0022091D102982FD8
S11306A09F5F963008F090E0921771F0E82FFF27D3
S11306B0E053FD4F32838F5F8093D002863010F079
S11306C01092D0020E94750210925E0310925D0394
S11306D094E090935202109255031092700310927A
S11306E056021092DE021092DD02809123028D7F69
S11306F08093230280911202882309F49AC084C053
S1130700823008F44EC0E0915E03FF27E35AFC4FA9
S11307108281482F5527342F20911302822F8695EA
S113072086958695837099278130910519F00297F3
S1130730F9F40EC0277E206120931302442311F4A0
S113074085E001C080E0809314023093020210C05F
S1130750809114028F3260F4E0910702F091080254
S1130760E80FF11D4083809114028F5F809314027F
S113077080915E03E82FFF27E35AFC4F62818F5F6D
S113078080935E03833010F010925E03772780918C
S1130790DD029091DE020E9427029093DE02809394
S11307A0DD0280915D03E82FFF27E35AFC4F12839B
S11307B08F5F80935D03833010F010925D0380910E
S11307C055038F5F8093550334C010925E031092DB
S11307D05D0314E0109352021092550310927003BB
S11307E0109256021092DE021092DD0280912302D2
S11307F08D7F8093230281E00E9435028091120252
S1130800882329F0109352020E94890212C0002307
S113081081F081E009CF80911302982F917080FDBF
S1130820D5CED7CE809161039927382F222742E075
S11308301CCF1F910F9108951F920F920FB60F9224
S113084011242F933F934F935F936F937F938F93D1
S11308509F93AF93BF93EF93FF938091C00087FF63
S113086042C06091C600E091DF02F091E00230974F
S113087019F180910B0490910C04E80FF91F608327
S1130880019690930C0480930B04209119043091E9
S11308901A048217930738F11092E0021092DF02D3
S11308A080914E038330F9F08091C1008F7780935B
S11308B0C10010924E0317C06E3719F460E081E056
S11308C010C0809123026D3721F48260809323024B
S11308D00AC081FF05C08D7F8093230280E26827D0
S11308E080E00E94AD02FF91EF91BF91AF919F9183
S11308F08F917F916F915F914F913F912F910F90C5
S11309000FBE0F901F9018952FB7F894332780933C
S1130910C600E0ECF0E08081806480832FBF0895FE
S1130920FC016115710519F481E090E0089580914E
S1130930970290919802892B19F085E090E0089530
S11309407093650360936403F0939802E0939702B5
S1130950109254021092530281E0809355028091C8
S1130960C00080648093C0008091C1008064809343
S1130970C100808121E030E030935402209353027F
S11309800E94840480E090E00895982F8D5782306F
S113099068F48091230281608093230280E2892796
S11309A0809354038DE78093460202C090934602DD
S11309B061E070E086E492E00E9490049927089533
S11309C08FB7F8949927209123022E7F2093230236
S11309D02EE7209346028FBF61E070E086E492E048
S11309E00E9490049927089578941F920F920FB64D
S11309F00F921124FF920F931F932F933F934F93C2
S1130A005F936F937F938F939F93AF93BF93CF9392
S1130A10DF93EF93FF93209153023091540280911E
S1130A206403909165032817390780F4E0919702D5
S1130A30F0919802E20FF31F80812F5F3F4F3093B4
S1130A405402209353020E948404D1C0109298024D
S1130A5010929702109255028091C1008F7B80936F
S1130A60C100FFB6F8948091230280FF0EC08E7FF0
S1130A7080932302809154038093460261E070E0E6
S1130A8086E492E00E949004AFC080914F038430CA
S1130A9009F48CC0853040F4823021F18330B8F5FC
S1130AA0813009F09CC00DC0863009F48DC08630B9
S1130AB008F483C0873009F48EC0883009F08FC0F1
S1130AC091C0809163020E94C504082F83E0809343
S1130AD04F036091630280911704909118040E945F
S1130AE0270210C0809179030E94C504082F83E077
S1130AF080934F03609179038091170490911804B7
S1130B000E942702909318048093170466C0E09112
S1130B10E202FF27EE0FFF1FE456FD4F80810E9483
S1130B20C504082F1091E202C12FDD27FE01EE0F4C
S1130B30FF1FE456FD4F60818091170490911804C3
S1130B400E942702909318048093170420915D0259
S1130B502F5F20935D02113039F580911A02E091E4
S1130B601502F0911602E80FF11DE0818F5F80936A
S1130B701A0290911902981730F482E080939D0232
S1130B8040E050E002C04E2F5527DE01AA0FBB1FE4
S1130B90FD01E556FD4F8081823031F02F3F21F079
S1130BA0A456BD4F4C9319C084E012C08091170421
S1130BB00E94C504082F85E00BC0809118040E9490
S1130BC0C504082F86E004C00E94E004082F87E0D3
S1130BD080934F0302C088E003C0002329F089E01A
S1130BE080934F030E9475028F2D99278FBFFF9129
S1130BF0EF91DF91CF91BF91AF919F918F917F91B1
S1130C006F915F914F913F912F911F910F91FF90A1
S1130C100F900FBE0F901F9018951F920F920FB652
S1130C200F9211248F938091C80087FF02C0809196
S1130C30CE008F910F900FBE0F901F90189578944F
S1130C401F920F920FB60F9211240F900FBE0F90A8
S1130C501F9018951F920F920FB60F9211248F9325
S1130C609F9380917C038F5F80937C0380915B02D0
S1130C7090915C02019690935C0280935B02892BB5
S1130C8029F48091DC028F5F8093DC029F918F9125
S1130C900F900FBE0F901F9018951F920F920FB6D2
S1130CA00F9211240F900FBE0F901F9018951F9252
S1130CB00F920FB60F9211240F900FBE0F901F903A
S1130CC018951F920F920FB60F9211240F900FBE1A
S1130CD00F901F9018951F920F920FB60F92112428
S1130CE00F900FBE0F901F9018954FB7F89455278B
S1130CF02091E100622F2091E200722F2091E30005
S1130D00822F2091E400922F4FBF08950F931F93D9
S1130D100FB7F89410915E020E9475069B01AC0116
S1130D208091E00083FF05C01F5F0E9475069B0150
S1130D30AC01802F99278FBF612F772788279927A8
S1130D40FAE1660F771F881F991FFA95D1F7E6E03D
S1130D505695479537952795EA95D1F7622B732BCE
S1130D60842B952B1F910F9108950B960895FC01E8
S1130D7082819927982F882721813327822B932BCF
S1130D80A5E096958795AA95E1F7817090700895EE
S1130D90EF92FF920F931F93CF93DF937B018C010C
S1130DA08FB7F894C82FDD270E9475069B01AC010C
S1130DB0C801B701623071058105910520F462E034
S1130DC070E080E090E0260F371F481F591FDA01BA
S1130DD0C901B093F800A093F7009093F600209314
S1130DE0F50081E08093E0008091DF0081608093D2
S1130DF0DF008FEF80930902CFBFDF91CF911F9166
S1130E000F91FF90EF900895FB0121E030E002C0C4
S1130E10220F331F8A95E2F7209584A5822384A7A5
S1130E200895CF93DF93EC010E94B706882339F12C
S1130E308A8129819927982F88273327822B932BFE
S1130E4087749C7C81549848D1F48F814E812FB74C
S1130E50F894332760910B0270910C022FBF20E0AD
S1130E609927982F88275527842B952B8617970722
S1130E7009F021E081E02827822F992702C080E031
S1130E8090E0DF91CF910895FB0121E030E002C0B2
S1130E90220F331F8A95E2F784A5822399270895A8
S1130EA021E020939A0220934A030E94C8060895E1
S1130EB0EF92FF920F931F937C018FB7F8949927B9
S1130EC000915203109153030F5E1E4F109353036E
S1130ED000935203015111408FBF8FE00E94CC0157
S1130EE0C801B7010E945E1A44961F910F91FF90AA
S1130EF0EF900895AF92BF92CF92DF92EF92FF925C
S1130F000F931F930E9486067B018C01209164023B
S1130F1030916502409166025091670280915F02B0
S1130F2090916002A0916102B0916202820F931FBE
S1130F30A41FB51FE216F3060407150730F0821745
S1130F409307A407B50758F005C082179307A407B1
S1130F50B507E0F5E816F9060A071B07B8F59C0182
S1130F60AD012E193F09400B510B213060E03607CB
S1130F7060E0460762E0560768F180E090E0A0E098
S1130F80B2E0E80EF91E0A1F1B1FE0926402F09201
S1130F906502009366021093670280E090E0A0E08F
S1130FA0BEEFE80EF91E0A1F1B1F205030404040C0
S1130FB0524020935F023093600240936102509349
S1130FC0620220E030E040E052E014C020E030E073
S1130FD040E050E08093640290936502A09366021F
S1130FE0B093670210925F02109260021092610245
S1130FF01092620259016A0166E0AA0CBB1CCC1C67
S1131000DD1C6A95D1F756E0EE0CFF1C001F111F82
S11310105A95D1F70E9475069B01AC012E5F3F4F94
S11310204F4F5F4FDA01C9018E199F09A00BB10B15
S11310308A159B05AC05BD0530F4A80197012A0D5E
S11310403B1D4C1D5D1D5093F4004093F300309301
S1131050F2002093F10082E08093E0008091DF00B1
S113106082608093DF008FEF809309021F910F91BC
S1131070FF90EF90DF90CF90BF90AF9008950F93C3
S11310801F930FB7F894112760936402709365025D
S1131090809366029093670220935F02309360020C
S11310A040936102509362020E947A070FBF1F911E
S11310B00F9108959FB7F89480915202882319F4F0
S11310C084E080935202892F99278FBF9FB7F894A9
S11310D080914F03882319F48AE080934F03892F6A
S11310E099278FBF0E94890280E090E008958FB70E
S11310F0F894282F3327922F80914F038A3041F0A0
S113110080915202843021F02FBF89E090E008954D
S11311109FBF83E00E94CC0180E090E008951F927D
S11311200F920FB60F9211248F9380915E028F5FFE
S113113080935E028F910F900FBE0F901F901895B1
S11311401F920F920FB60F9211242F933F934F9338
S11311505F936F937F938F939F93AF93BF93EF931B
S1131160FF938091DF008D7F8093DF008FEF80936A
S1131170090280915F0290916002A0916102B09196
S113118062020097A105B10521F480E10E94CC011F
S113119002C00E947A07FF91EF91BF91AF919F9196
S11311A08F917F916F915F914F913F912F910F900C
S11311B00FBE0F901F9018951F920F920FB60F92AB
S11311C011240F900FBE0F901F9018952F923F92ED
S11311D04F925F926F927F928F929F92AF92BF9243
S11311E0CF92DF92EF92FF920F931F93CF93DF93EF
S11311F02C0180914702882309F01EC18091A0022E
S1131200853009F019C180915603882309F014C16F
S1131210B20182E00E944407882311F490E003C0E5
S1131220F20196A59F708091E102981729F090939E
S1131230E102906C9093450112010894211C311C29
S1131240F1018181F201218140E09927982F8827BB
S11312503327822B932B87749C7C8154984809F400
S113126041E04423A9F08091460199278F71907041
S113127020917A0340913002240F312D311D43E037
S1131280359527954A95E1F7281739070CF4D4C00A
S113129089E080934201B20184E00E9444078823DC
S11312A019F4C0E0D0E006C0D2018C918550E2016F
S11312B0C80FD11DF20180819927282F80938001C6
S11312C0809141018F71893021F086E08093420141
S11312D0B3C00EEFF02EF20E0FB7F89411270E9450
S11312E075063B014C0182E0809342010FBF8BE005
S11312F090E0A0E0B0E0680E791E8A1E9B1E6F2D60
S11313007727209709F47EC02881E9808A81AB8001
S11313109927AA27BB27BA2FA92F982F88273327C5
S113132044275527522F442733272227FF240027F9
S113133011278701FF24EE242E293F29402B512B0E
S1131340BB24CC24DD242A293B294C295D29822B6A
S1131350932BA42BB52B86199709A809B9098B835C
S1131360292F3A2F4B2F55272A839D014427552790
S113137029838B2F9927AA27BB278883AB01B10127
S113138081E891E00E94EA1A86E080934201288174
S1131390E9808A81AB809927AA27BB27BA2FA92F76
S11313A0982F8827332744275527522F442733273C
S11313B02227FF24002711278701FF24EE242E294A
S11313C03F29402B512BBB24CC24DD242A293B2943
S11313D04C295D29822B932BA42BB52B860D971DAD
S11313E0A81DB91D8B83292F3A2F4B2F55272A83EC
S11313F09D014427552729838B2F9927AA27BB278B
S1131400888309C0AB01B10181E891E00E94EA1A26
S113141086E080934201F20184A5826084A760A6DD
S113142071A682A693A686E08093A00284E08093AE
S1131430470280E090E002C085E090E0DF91CF9128
S11314401F910F91FF90EF90DF90CF90BF90AF90DE
S11314509F908F907F906F905F904F903F902F90D0
S113146008951F93982F1FB7F89480912602823015
S113147099F580911002891779F580910E0220E088
S113148030E08F3F11F421E030E0232BF1F49FEFA3
S1131490909310028F3F19F42FEF30E00DC0282FE6
S11314A03327F901E35BFD4F808180930E028F3F68
S11314B011F490930F02908320934A0281E0809369
S11314C026028BE00E94CC0105C08FEF80931002AE
S11314D01092260221E001C020E0812F99278FBFBE
S11314E090E0213009F491E081E09827892F992731
S11314F01F91089580914D031D9B0CC08823A1F476
S113150081E080934D0380E00E94CC0185E00E943D
S1131510F3010895882341F010924D0381E00E9465
S1131520CC0185E00E940C0208951F920F920FB621
S11315300F9211242F933F934F935F936F937F9355
S11315408F939F93AF93BF93EF93FF9320916B007F
S113155093B180919F028927822385FF02C00E9454
S11315607A0AFF91EF91BF91AF919F918F917F91F3
S11315706F915F914F913F912F910F900FBE0F90FC
S11315801F90189580915002823031F481E080934D
S113159050028DE00E94CC01089580937D0388233E
S11315A011F484E001C081E0809350028DE00E9438
S11315B0CC0108958F929F92AF92BF92CF92DF9207
S11315C0EF92FF920F931F93CF93DF938091560373
S11315D0882309F4F5C02FB7F89433278091E900E4
S11315E0882E8091EA00982E8091EB00A82E80919D
S11315F0EC00B82E00915603109256032FBF07FF3C
S11316000DC080914702833011F0873039F485E0B2
S11316108093A00288E08093470252C080914702E1
S1131620843009F04DC001FF4BC085E08093A002D7
S11316301092470280913202833019F410923202E0
S11316403FC0C0911504D0911604CE010E94B70684
S1131650882379F18A8129819927982F882733272C
S1131660822B932B87749C7C8154984811F58F812D
S11316702E819927982F88273327822B932B8F5FCE
S11316809F4FB9F090E080914A03882309F491E0D8
S1131690992379F012E010939A0281E080934A032F
S11316A06EE370E080E090E00E94C806109332027E
S11316B007C0109232021092510280E00E94CD0ABB
S11316C0C02FDD27C5FF41C080914702863019F441
S11316D01092470202C08823C1F5E0914A04F091B8
S11316E04B04003219F5F09046012FE1F22280916B
S11316F03002982F969596952F2D291B820F809353
S1131700300284A5826084A780A691A6A2A6B3A66F
S113171000914A0410914B04B80182E00E9404072E
S1131720F80184A5886084A7F6A60BC0BF0181E0F8
S11317300E94040760914A0470914B0483E00E9464
S1131740040785E08093470204C0809147028530F6
S113175089F4C4FF0FC020917A03809146018F71F0
S1131760922F96959695891B280F20937A0389E0EA
S113177080934702C0FF0CC08091A002823041F4E4
S1131780809147028250823018F483E08093A00253
S1131790C3FF16C080914702863091F480915501B1
S11317A08F778093550110924702809141019927C8
S11317B087709070892B09F425C28091410122C25F
S11317C090914702992309F41DC2993009F09EC1F2
S11317D040917B018091460187FF5EC0433008F44D
S11317E05BC0842F99278A970CF056C0E0914A0475
S11317F0F0914B0441934250552760E871E0CF01CA
S11318000E94EA1AE0914A04F0914B04818190E02D
S11318108770823009F491E0992349F020E030E0A8
S113182080913202823081F421E030E00DC08FB724
S1131830F894282F332790E080915703833008F4DD
S113184091E02FBF292F3327232B31F1E0917B0126
S1131850FF27E058FE4F8081E0914A04F0914B0449
S113186085A785E08093A00210924702E0904A0485
S1131870F0904B0467010894C11CD11CF7018181CD
S113188090E0282F3327277030702230310509F477
S113189091E0992339F42EC085E08093A002109240
S11318A04702ACC180913202823009F02AC1F701AB
S11318B09381E0911504F09116048381981709F03F
S11318C020C12230310509F01CC18091DF008E7FD8
S11318D08093DF008FEF8093090210924A0384A55E
S11318E0816084A7109232021092510280E00E941B
S11318F0CD0A07C1809132028823D1F4C7010E9426
S113190011078823A9F085E08093A10282E08093E7
S1131910A2021092A302F60182818093A40281EABA
S113192092E00E94E608882319F483E0809332024F
S11319300E9475068B01C7010E941107882311F0CC
S11319400A5C1F4F1093D9020093D8020E947506B7
S1131950061B170BB80110161106BCF48091510236
S1131960882381F490E080914A03882309F491E06C
S1131970992359F0882777FD8095982F0E94500766
S113198080E801C0806880935102F6018085278138
S11319909927582F44273327422B532B8091330206
S11319A0282F3327F901EE0FFF1FEA59FC4F8081DE
S11319B0918170914B038417950769F4F901E15FF4
S11319C0FB4F8081871709F467C0872F8F5F80934F
S11319D04B0380831DC000E010E080E090E0C6E689
S11319E0D3E0EFE0F4E0DF01682F9C018881998166
S11319F08417950779F42093330290914B038C91CB
S1131A00891709F449C0892F8F5F80934B038C9306
S1131A1000E829C08081972F981B091710F4092F1B
S1131A20122F6F5FC9010196119622963196853067
S1131A309105D1F66530B9F410933302A12FBB2779
S1131A40FD01EE0FFF1FEA59FC4F51834083809143
S1131A504B038F5F80934B03FD01E15FFB4F80835A
S1131A60A45BBB4F1C9290914B03892F8F778F37C8
S1131A7079F40F3768F0EFE0F4E0292F20788081C3
S1131A808F6789132083319684E0E431F807B9F72E
S1131A9080913302282F3327F6019281A22FBB278E
S1131AA0FD01E45BFB4F808180FF07C0FD01E85A24
S1131AB0FC4F8081981729F102C081608083A85A65
S1131AC0BC4F9C93DFB6F894809157038330B0F4F5
S1131AD0E0917803E80FE33008F0E350FF27EE0FBE
S1131AE0FF1FE85DFD4F00811181F182E0828F5F6D
S1131AF0809357038EE00E94CC0178018D2D9927A5
S1131B008FBFF0924B04E0924A046FC0292F2150FA
S1131B10233008F057C0892F8250823098F4809186
S1131B20A002813079F49FEF90934F0180E8809375
S1131B304E01809139018D7F809339019093090280
S1131B4082E010C0933089F48091A002833069F45C
S1131B508DE580934E018FEF8093090286E0809398
S1131B60420184E08093A00210C0223070F480917E
S1131B70A002853051F493E09093420110924E01FB
S1131B808FEF809309029093A002909147029130C5
S1131B9069F48091A002833009F04EC0809139012C
S1131BA08260809339019093A0021BC09230E9F4C3
S1131BB08091A002833011F510924E018FEF809333
S1131BC009020FC0973089F480910E0480648093D9
S1131BD048018091A002853021F484E08093A00222
S1131BE004C088E08093470204C080914702883093
S1131BF029F4109247028CE00E94CC0180914702A4
S1131C008823D1F48091A0028530B1F480915603E9
S1131C10882391F480913202882371F480915102D7
S1131C20882351F490E080914A03882309F491E0D9
S1131C30992311F00E94C20A80914A03823009F06C
S1131C4077C010924A03F0909A02F1E0FF1629F04F
S1131C5022E0F21609F06CC064C0C091D802D091A1
S1131C60D9020E94750620915102203829F410925D
S1131C7051020E94C20A5CC08E01061B170B27FF8B
S1131C8003C010161106ECF0C0914E02D0914F0221
S1131C90809132028823A9F4CE010E94E608992794
S1131CA0882351F4BE010E940407F0923202D093BB
S1131CB01604C093150431C09927F82E882369F1BE
S1131CC002C065E0F62E20915102822F99278F776A
S1131CD0019779F420782260209351028CE890E0F7
S1131CE00E945807AA27BB27BC01CD010E945007B8
S1131CF01FC027FF0EC0101611065CF480E8809305
S1131D005102B801882777FD8095982F0E945007CB
S1131D1002C0109251028F2D09C083E080935102BA
S1131D2007C0109232021092510280E00E94CD0A44
S1131D308FB7F894282F332780914902813029F0F6
S1131D4081E0809349022FBF41CC109249022FBFFA
S1131D50DF91CF911F910F91FF90EF90DF90CF9083
S1131D60BF90AF909F908F9008958FB7F894282FCD
S1131D70332780914902882329F08068809349029F
S1131D802FBF089581E0809349022FBF0E94DA0A91
S1131D9008951F920F920FB60F9211242F933F9321
S1131DA04F935F936F937F938F939F93AF93BF935F
S1131DB0EF93FF938091DF008E7F8093DF008FEF9E
S1131DC08093090280914A03813019F482E0809360
S1131DD04A030E94B50EFF91EF91BF91AF919F917D
S1131DE08F917F916F915F914F913F912F910F90C0
S1131DF00FBE0F901F90189578941F920F920FB6F4
S1131E000F9211242F933F934F935F936F937F937C
S1131E108F939F93AF93BF93EF93FF932FB7F89450
S1131E203327809156038160809356032FBF0E940D
S1131E30B50EFF91EF91BF91AF919F918F917F91DB
S1131E406F915F914F913F912F910F900FBE0F9023
S1131E501F90189578941F920F920FB60F92112429
S1131E602F933F934F935F936F937F938F939F939E
S1131E70AF93BF93EF93FF932FB7F89433278091D9
S1131E8056038061809356032FBF0E94B50EFF91C5
S1131E90EF91BF91AF919F918F917F916F915F91DE
S1131EA04F913F912F910F900FBE0F901F90189557
S1131EB078941F920F920FB60F9211242F933F9391
S1131EC04F935F936F937F938F939F93AF93BF933E
S1131ED0EF93FF932FB7F8943327809156038260D2
S1131EE0809356032FBF0E94B50EFF91EF91BF91CF
S1131EF0AF919F918F917F916F915F914F913F919E
S1131F002F910F900FBE0F901F90189578941F92E9
S1131F100F920FB60F9211242F933F934F935F9319
S1131F206F937F938F939F93AF93BF93EF93FF939D
S1131F302FB7F89433278091560388608093560313
S1131F402FBF0E94B50EFF91EF91BF91AF919F916A
S1131F508F917F916F915F914F913F912F910F904E
S1131F600FBE0F901F90189578941F920F920FB682
S1131F700F9211242F933F934F935F936F937F930B
S1131F808F939F93AF93BF93EF93FF932FB7F894DF
S1131F903327809156038068809356032FBF0E9495
S1131FA0B50EFF91EF91BF91AF919F918F917F916A
S1131FB06F915F914F913F912F910F900FBE0F90B2
S1131FC01F90189578941F920F920FB60F921124B8
S1131FD02F933F934F935F936F937F938F939F932D
S1131FE0AF93BF93EF93FF932FB7F8943327809168
S1131FF056038062809356032FBF0E94B50EFF9153
S1132000EF91BF91AF919F918F917F916F915F916C
S11320104F913F912F910F900FBE0F901F901895E5
S11320208FB7F894282F33278091490281508093E9
S11320304902803811F02FBF089581E0809349024E
S11320402FBF0E94DA0A08951F938FB7F894992737
S1132050209149022F5F209349028FBF8091500243
S1132060882311F015E018C080914702882389F471
S11320708091A002853019F489E090E00CC083E0DF
S1132080809347020E94B50E85E08093500210E0D1
S113209003C085E090E0182F0E941010812F99272B
S11320A01F9108951F93FC018FE38287809127027B
S11320B08F5F8093270283832FB7F894332780910F
S11320C049028F5F809349022FBF80915002882379
S11320D011F015E00DC0F0935103E093500381E03B
S11320E08093500210924C038DE00E94CC0110E0CA
S11320F00E941010812F99271F910895FF920F932A
S11321001F93CF93DF93F82E8B01EA01622F2D31B9
S113211018F086E090E092C0FA013196818129811D
S113212070E09927582F44273327422B532BCA0199
S113213087749C7C8154984809F471E0772349F4AE
S1132140CA0180739070816498688983892F992764
S11321508183635F68832FB7F894332780910B02E0
S113216090910C022FBF8887892F992789872FB7D1
S1132170F894332780910D022FBF99278C831D82F9
S1132180CE010E94B506FC01F0820E83812F9927AF
S11321908F838FB7F894282F3327809126028823C2
S11321A071F482E080932602109210022FBFCE01B8
S11321B00E9452109927182F882399F00FC02FBF1F
S11321C0D0934C02C0934B028FB7F894C82FDD27ED
S11321D02C2F80912602882399F406C080E00E9467
S11321E0310A812F99272AC081E080932602109218
S11321F04A028BE00E94CC01CFBF80E090E01EC079
S113220080914D028F3F89F4E0910F02EE2369F033
S113221010C010920E0204C0FF27E35BFD4F108232
S113222010920F0280E090E002C085E090E02FBFA2
S113223005C080910E028F3F79F7EBCFDF91CF91EC
S11322401F910F91FF900895EF92FF920F931F93A8
S1132250CF93DF9310920A02C091DA02D091DB028D
S1132260209721F080917B0380FF08C081E0809358
S11322700A021CC08AE00E94CC0118C0E88083EFE7
S1132280E80EFF240F811127102F00278E81992734
S1132290082B192BCE010E94B506FC012E2DAE0190
S11322A0B80180810E947E10882321F7DF91CF91AD
S11322B01F910F91FF90EF900895EF92FF920F936B
S11322C01F93E091EB02E1FF80C02091E302309183
S11322D0E4024091E5025091E602E090E702F090BA
S11322E0E8020091E9021091EA02621B730B840B6D
S11322F0950B6E157F058007910708F466C0E0FF13
S113230004C0ED7FE093EB020CC02E0D3F1D401F77
S1132310511F2093E3023093E4024093E50250936B
S1132320E60220912402309125022F5F3F4F309323
S113233025022093240280919902882309F045C044
S113234020937502832F9927809374028FEF8093D3
S11323506E0280936F0208E612E0C8010E94B5067F
S1132360FC0186E080838091DA029091DB02892B64
S113237061F51093DB020093DA028FE08093680228
S113238080910A028823F1F0808160916F0277279F
S1132390762F662720916E023327622B732B1092BF
S11323A00A0222E0A8010E947E109927282F882380
S11323B049F081E080930A021092DB021092DA0263
S11323C0222319F481E08093990281E10E94CC01D7
S11323D01F910F91FF90EF9008952F923F924F928B
S11323E05F926F927F928F929F92AF92BF92CF92A1
S11323F0DF92EF92FF920F931F93CF93DF93CDB7AA
S1132400DEB729970FB6F894DEBF0FBECDBFE82F15
S1132410FF27E231F10508F07CC4E057FF4FEE0FCF
S1132420FF1F0590F491E02D099480917B0388238C
S113243009F46FC440E051E00FC20E947708992765
S1132440882309F466C4893009F463C480E00AC0AF
S11324500E945A089927882309F45BC4893009F437
S113246058C481E00E94CC0154C48FB7F8941092F0
S11324700D0420914F0340E0283009F441E030E09E
S1132480293009F431E0442311F4332351F010923C
S11324904F03E091E202FF27EE0FFF1FE556FD4FC9
S11324A0108299278FBF442311F4332331F19FB74E
S11324B0F894809179038F5F80937903809163020C
S11324C0833479F42091D1028091D002821779F07B
S11324D0822F8F5F8093D102863048F01092D10210
S11324E006C0A0E0442309F4A1E071E002C0A0E02A
S11324F070E0892F99278FBF06C0222311F010E0C6
S11325006CC0A0E070E08FB7F89499272091120274
S11325108FBF222341F08FB7F89499272AE02093A4
S11325204F038FBF42C08FB7F894992760919B02E5
S113253040919D028FBF8FB7F894282F332750E026
S11325409091D0028091D102981709F451E02FBFE5
S1132550552341F5662331F55FB7F89482E0809303
S11325609B028FB7F894282F332740E09091D00234
S11325708091D102981709F441E02FBF442311F050
S113258080E006C0E091D102FF27E053FD4F828135
S113259080939C0283E4809363021092E202852F6D
S11325A099270EC04150423010F010E00BC08FB795
S11325B0F894992725E42093630221E02093E20212
S11325C08FBF11E0772349F08FB7F8949927A09330
S11325D01B028FBF86E00E94CC018FB7F894E82ECF
S11325E0FF2480914F038A3021F40E948902EFBEB8
S11325F090C3EFBE112309F48CC32FB7F89433278B
S1132600109218041092170410925D0281E08093D6
S11326104F032FBF0E94E004882309F47AC38FB7C5
S1132620F894992729E020934F038FBFEAC0809143
S1132630C1008F7B8093C1008091C1008F7780930C
S1132640C10010924E03109255028091C10088601F
S11326508093C1008091C10080618093C1008FEF9D
S1132660809309028091C10080688093C1008FB774
S1132670F894992710924F0310925202C5C285E034
S1132680F1CE8091C100877F8093C1008091C10009
S11326908F7E8093C1008FEF809309023AC310921A
S11326A01802109217028FB7F894992720911B02F1
S11326B08FBF80911C02811123E080911D02882329
S11326C009F427C3823709F024C3222309F01CC369
S11326D08FB7F89488E190E029E00FB6F894A895B4
S11326E0809360000FBE20936000FFCF8FB7F894F3
S11326F0992720911F02E0902002F090210230914E
S11327002202109131028FBF2223B1F02237A1F4AB
S1132710333091F4D7018C91823571F4F7018181C2
S1132720833551F48281843539F4F0922F02E0929A
S11327302E0288E00E94CC018FB7F894E12FFF2786
S1132740EE0FFF1FED5FFD4FF182E0822091130237
S1132750112311F02B7F01C02D7F209313021092BF
S11327601E0299278FBFD5C2E0912E02F0912F024D
S11327708AE5808382E4818380E5828340912E020E
S113278050912F028091170290911802892B09F021
S1132790BBC22FB7F894332710921A0210921B026F
S11327A0509316024093150282E090E09093180231
S11327B08093170242E740931D0210921C0283E0AB
S11327C0809319022FBF8FB7F894282F3327809155
S11327D04F038A3011F42FBF17C02FBF9FB7F8944F
S11327E080919D02882311F020E006C081E080934F
S11327F09D0240939E0221E0892F99278FBF2223B7
S113280019F00E94750285C21092180210921702E4
S11328107BC20E9486066093E3027093E402809375
S1132820E5029093E6028AEF90E0A0E0B0E08093A6
S1132830E7029093E802A093E902B093EA02809140
S1132840EB028E7F82608093EB0281E10BCE2FBF7F
S113285060C2C801B7010BC290917B03852F892305
S1132860C1F0E42FFF27EE0FFF1FE652FD4F20813A
S1132870318111821082852F8095982390937B0358
S1132880442339F42856324009F040C21092990288
S11328903DC24F5F483008F03CC2550FDDCF109168
S11328A00A02E12FFF27EE0FFF1FE652FD4FE080E3
S11328B0F180118210820E942411112309F029C28F
S11328C028E6E21622E0F20609F023C2B8C02FB7C8
S11328D0F894332780914A028093100282E0809317
S11328E026022FBF80911002882309F012C2809122
S11328F04B0290914C020E945210882309F409C2A1
S113290080E00E94310A00914B0210914C02C801F0
S11329100E94B50680910A02882309F0FAC1E0906A
S1132920DA02F090DB02E016F10609F0F2C110922F
S1132930DB021092DA020E94241138E6E31632E038
S1132940F30609F0E6C17BC0809150021092500258
S1132950853009F45ECF863009F4DBC1873009F491
S1132960D8C180935002D5C12FB7F89433278091F2
S113297049028F5F809349022FBF4091500241303A
S1132980A1F580914C038F5F80934C03863068F5EA
S11329902091500330915103809151028823E1F436
S11329A090E080914A03882309F491E09923A1F0EF
S11329B030934F0220934E024093510286E391E0FC
S11329C00E945807AA27BB27BC01CD010E945007CB
S11329D010927D0383E004C085E080937D0382E050
S11329E0809350020E94101094C1109250020E94D1
S11329F01010E0905003F0905103F70182858F335B
S1132A0009F087C180E00E94310AC7010E94B5061F
S1132A1080910A02882309F07CC10091DA021091A6
S1132A20DB020E151F0509F074C11092DB0210922F
S1132A30DA020E9424110856124009F06AC1109269
S1132A40990267C18FB7F894282F332780915703D1
S1132A50882309F4FCCEE0917803FF27EE0FFF1FD3
S1132A60E85DFD4FE080F1802FBFF701828517817B
S1132A7006818F33C1F5C7010E94B506FC01E081D0
S1132A80D7016C91812F9927582F4427802F99279C
S1132A90482B592B8FB7F894992720910B0230912A
S1132AA00C028FBF4217530721F04F5F5F4F09F0AD
S1132AB034C0E63091F56F3081F5D7011D96F701EA
S1132AC0858580FF02C0729801C0729A8C9181FF43
S1132AD002C0739801C0739A8C9182FF02C07498EB
S1132AE01CC0749A1AC0812F9927582F4427802F0D
S1132AF09927482B592B8FB7F894992720910B02CB
S1132B0030910C028FBF4217530719F04F5F5F4F8C
S1132B1021F48FB7F89499278FBF9FB7F8948091C9
S1132B207803E82FFF27EE0FFF1FE85DFD4FF182CA
S1132B30E0828F5F80937803833010F010927803E3
S1132B4080915703815080935703892F99278FBF12
S1132B5079CF2FB72983F8942090570230905802E8
S1132B604090590250905A02662477248824EEE457
S1132B70AE2E73E8B72ECC24DD24EE24FF2400E02F
S1132B8010E0222D332D442D552D662D772D882DC3
S1132B9090E00E94DD182A833B834C835D836E831F
S1132BA07F8388879987822E932EA42EB52E2401A5
S1132BB0350100E20E94DB19A22EB32EC42ED52EBD
S1132BC0A301920156954795379527952A0D3B1DEC
S1132BD04C1D5D1D57FF05C05F772F5F3F4F4F4F63
S1132BE05F4F2093570230935802409359025093F9
S1132BF05A026981862F99278FBF8FB7F894992736
S1132C003093530320935203ADCD8091480288231F
S1132C1061F52091710330917203409173035091D7
S1132C207403EFB7F894FF27609164027091650212
S1132C308091660290916702E0905F02F0906002DA
S1132C4000916102109162026E0D7F1D801F911F21
S1132C50EFBF209371033093720340937303509337
S1132C607403109248020E943F080E9486060E9444
S1132C705D114FC00E9486067B018C018091DF00AC
S1132C808D7F8093DF008FEF809309028091EB02A8
S1132C9081FF3FC08091E3029091E402A091E5029C
S1132CA0B091E602A8019701281B390B4A0B5B0B74
S1132CB0DA01C9012091E7023091E8024091E9026A
S1132CC05091EA02281B390B4A0B5B0B2F3F6FEF25
S1132CD036076FEF46076FE75607D9F0121613064B
S1132CE0140615060CF0B5CD2093710330937203CE
S1132CF0409373035093740381E080934802C801A6
S1132D00B7010E943F0805C088E0ACCB550F41E0F5
S1132D10A3CD29960FB6F894DEBF0FBECDBFDF91C9
S1132D20CF911F910F91FF90EF90DF90CF90BF90C4
S1132D30AF909F908F907F906F905F904F903F9057
S1132D402F900895809175038F3FB1F0282F33277A
S1132D50F901EC5CFD4F8081809375038F3F11F482
S1132D60809314048FEF80832F3F31F0822F0E94D1
S1132D70ED1181E090E0089580E090E00895EF92F5
S1132D80FF920F931F93EFB6F89414BE88E10FB629
S1132D90F89480936000109260000FBE42E150E00E
S1132DA06FEF70E084E392E00E94F31A8FEF809358
S1132DB07503809314048BE194E090934B04809307
S1132DC04A0410927A038AE5809330028091350197
S1132DD08061809335018091340180618093340156
S1132DE0809133018061809333018091320180614D
S1132DF08093320185B7806885BF85B7806885BFB9
S1132E0080E8809361008FE08093610091E090936B
S1132E10810080E28093B6009093B100AEEFE0E0D1
S1132E20F0E06FEF7FEFB0E08091B2008823E1F72C
S1132E3040918400509185008091B2008034E1F784
S1132E402091840030918500241B350B6217730791
S1132E5008F4B9012E173F0708F4F901CF01861BC6
S1132E60970B029730F0B0E06FEF7FEFE0E0F0E017
S1132E7003C0BF5FB23310F4A150B1F630937703AF
S1132E80209376031092B1008091B1008093810069
S1132E90809181008093B6008091B6009927837059
S1132EA09070892BC9F78091DF008D7F8093DF00BC
S1132EB08091DC008D7F8093DC008091DF008E7F29
S1132EC08093DF008091DC008E7F8093DC0080E2C1
S1132ED08093B6008091DC008F7C80638093DC005B
S1132EE08FEF809309028091DF0088608093DF0078
S1132EF0809180008C7F8093800080918100807E0F
S1132F0082608093810080916F00816080936F0064
S1132F10569A5E9A6A9A6B9A6C9A6D9A729A739A96
S1132F20749A759A0E94A2168823E1F787EC80931D
S1132F30490180EC809345011092E1028BE080937B
S1132F400E04809144018062809344018BE4809359
S1132F504801809139018260809339018091DC00BD
S1132F60877F88608093DC0071E0F72EF092A002E6
S1132F7020910002309101022F5F3F4FC901AA271F
S1132F80BB27215030408093570290935802A0935E
S1132F905902B0935A028EE793E0909329028093EA
S1132FA028028F9690932B0280932A028CED93E053
S1132FB090932D0280932C028FEF9FEF90936703E1
S1132FC080936603909369038093680390936B03E3
S1132FD080936A0390936D0380936C0390936F03C3
S1132FE080936E032295207F209327028FEF809396
S1132FF04D0212E006E06091760370917703882712
S1133000992728E037E040E050E00E94721A2150EE
S113301030402093C400832F99278093C5001093D8
S1133020C0000093C2001092C1002093CC00809392
S1133030CD001093C8000093CA001092C9001092EA
S11330409B0210929D028AE080934F0310925D02CE
S113305010926302109279031092180410921704CC
S113306010920D041092E20210925E0310925D031E
S113307084E08093520210925503109270031092D0
S113308056021092DE021092DD021092D1021092CA
S1133090D0021D9B09C0F0924D0380E00E94CC0138
S11330A085E00E94F30108C010924D0381E00E9464
S11330B0CC0185E00E940C020E94A2168823E1F74D
S11330C08E2D99278FBF78940E9424108FB7F8947F
S11330D0A82FBB2757C08091090287FF4AC080915F
S11330E04E0187FF03C042E050E002C045E050E0DB
S11330F08091DC0085FF03C063E070E002C065E0FE
S113310070E080916F008E7219F020E030E002C010
S113311025E030E08091C10083FD0FC08091C100A3
S113312084FD0BC08091C90083FD07C08091C90054
S113313084FD03C0E5E0F0E002C0E0E0F0E0862FAB
S1133140461708F4842F9927821708F4282F822F12
S113315099278E1708F4E82FFF27E093090283B715
S1133160FF27E7FDF095EC5BFC4FE491807F8E2B0D
S113317083BF83B7816083BF78948895F89483B7BD
S11331808E7F83BF809175038F3F09F4A4CF282FCE
S11331903327F901EC5CFD4F8081809375038F3FE9
S11331A011F4809314048FEF80832F3F09F493CF9D
S11331B0AFBF822F0E94ED1189CFACE2B0E0E3EE05
S11331C0F8E10C94B31A222E332E442E552E662E7B
S11331D0772E882E992EFE013196A8E01192AA9599
S11331E0E9F729823A824B825C826D827E828F82E9
S11331F09886FE013996B8E01192BA95E9F7A98646
S1133200BA86CB86DC86ED86FE860F87188B89818D
S11332109A81AB81BC8189A79AA7ABA7BCA77C0183
S11332208D018FEF9FEFA0E0B0E0E822F9220A239E
S11332301B2389A59AA5ABA5BCA51D01442455242F
S113324089859A85AB85BC858DA39EA3AFA3B8A7BA
S11332505C016D018FEF9FEFA0E0B0E0A822B922DE
S1133260CA22DB228DA19EA1AFA1B8A53D0188246D
S11332709924C801B701A60195010E94941A69A373
S11332807AA38BA39CA3C801B701A40193010E9454
S1133290941A7B018C01C201B101A60195010E941F
S11332A0941A5B016C01C201B101A40193010E9453
S11332B0941A3B014C01EA0CFB1C0C1D1D1D89A139
S11332C09AA1ABA1BCA19D01442755272E0D3F1DFA
S11332D0401F511F2A153B054C055D0540F480E055
S11332E090E0A1E0B0E0680E791E8A1E9B1ECA0120
S11332F0AA27BB27860D971DA81DB91D8D8F9E8FEC
S1133300AF8FB8A3A9013327222789A19AA1ABA122
S1133310BCA1A070B070280F391F4A1F5B1F298FF2
S11333203A8F4B8F5C8FA98CBA8CCB8CDC8CED8C58
S1133330FE8C0F8D18A1FE01719698E011929A955A
S1133340E9F7ED8AFE8A0F8B188F2D813E814F811C
S113335058856DA17EA18FA198A50E94941A3B0166
S11333604C012D853E854F85588969A57AA58BA585
S11333709CA50E94941A2D893E894F89588D260F49
S1133380371F481F591F260D371D481D591D2D8BEA
S11333903E8B4F8B588F6D887E888F88988C2A2D12
S11333A03B2D4C2D5D2D662D772D882D992DE2E139
S11333B0AC960C94CF1AA0E1B0E0E1EEF9E10C94E4
S11333C0B31A222E332E442E552E662E772E882E97
S11333D0992E002309F466C088E0FE01319611920B
S11333E08A95E9F729833A834B835C836D837E83D3
S11333F08F829887E0E2E01B1E16CCF52D813E817A
S11334004F815885602F772767FD7095DA01C901D0
S1133410062E04C0B695A795979587950A94D2F77A
S11334208D879E87AF87B88B04C0220F331F441F3C
S1133430551FEA95D2F789819A81AB81BC8104C07A
S1133440B695A795979587956A95D2F7282B392B2A
S11334504A2B5B2B29873A874B875C8729843A84DC
S11334604B845C846D847E848F8498881BC01D8605
S11334701E861F86188A2E2F332727FD30953095F8
S113348021953F4F8D819E81AF81B88504C0B6954B
S1133490A795979587952A95D2F789879A87AB87B9
S11334A0BC87DCCF222D332D442D552D662D772D51
S11334B0882D992DE2E160960C94CF1AAA1BBB1BB0
S11334C051E107C0AA1FBB1FA617B70710F0A61B20
S11334D0B70B881F991F5A95A9F780959095BC0141
S11334E0CD010895A1E21A2EAA1BBB1BFD010DC03C
S11334F0AA1FBB1FEE1FFF1FA217B307E407F507A0
S113350020F0A21BB30BE40BF50B661F771F881F7B
S1133510991F1A9469F760957095809590959B0111
S1133520AC01BD01CF010895629FD001739FF001EA
S1133530829FE00DF11D649FE00DF11D929FF00D3F
S1133540839FF00D749FF00D659FF00D9927729F76
S1133550B00DE11DF91F639FB00DE11DF91FBD0101
S1133560CF01112408952F923F924F925F926F9250
S11335707F928F929F92AF92BF92CF92DF92EF92FF
S1133580FF920F931F93CF93DF93CDB7DEB7CA1B80
S1133590DB0B0FB6F894DEBF0FBECDBF09942A88AB
S11335A0398848885F846E847D848C849B84AA8453
S11335B0B984C884DF80EE80FD800C811B81AA81E0
S11335C0B981CE0FD11D0FB6F894DEBF0FBECDBFAB
S11335D0ED010895FB01DC0102C001900D92415000
S11335E05040D8F70895DC0101C06D93415050401C
S10935F0E0F70895FFCF8F
S11335F60100FFEC021B03EC02FF01010022FFFFA6
S1053606FF00BF
S9030000FC
