S01900006275696C642F75636D696E692F6D61696E2E7372656373
S11300000C9493010C94B2010C94B2010C94B201BF
S11300100C94B2010C94B2010C94B2010C94B20190
S11300200C94B2010C949E090C94B2010C94B2018C
S11300300C94B2010C94B2010C94B2010C94B20170
S11300400C94EB080C94CD080C94D7080C94E1089C
S11300500C94AF080C94B2010C94B2010C94B2014C
S11300600C94B2010C9488050C94B2010C946006B3
S11300700C94B2010C94B2010C94B2010C94B20130
S11300800C94B2010C94B2010C94B2010C94B20120
S11300900C9479070C94B2010C948B070C946311A3
S11300A00C94B2010C94B2010C94B2010C94B20100
S11300B00C94B2010C94B2010C94B2010C94B201F0
S11300C00C94B2010C94B2010C94B2010C94B201E0
S11300D00C94B2010C94B2010C94B2010C94B201D0
S11300E00C94B2010C94B2010C94B2010C94B201C0
S11300F00C94B2010C94B2010C94B2010C94B201B0
S11301000C94B2010C940F030C944B030C94550300
S11301100C94BA010C94B2010C94B2010C94B20187
S113012000002110422063308440A550C660E7706F
S1130130088129914AA16BB18CC1ADD1CEE1EFF117
S11301403112100273325222B5529442F772D662BF
S1130150399318837BB35AA3BDD39CC3FFF3DEE367
S11301606224433420040114E664C774A44485540F
S11301706AA54BB528850995EEE5CFF5ACC58DD5B7
S11301805336722611163006D776F6669556B4465F
S11301905BB77AA719973887DFF7FEE79DD7BCC707
S11301A0C448E5588668A7784008611802282338AF
S11301B0CCC9EDD98EE9AFF9488969990AA92BB957
S11301C0F55AD44AB77A966A711A500A333A122AFF
S11301D0FDDBDCCBBFFB9EEB799B588B3BBB1AABA7
S11301E0A66C877CE44CC55C222C033C600C411C4F
S11301F0AEED8FFDECCDCDDD2AAD0BBD688D499DF7
S1130200977EB66ED55EF44E133E322E511E700E9E
S11302109FFFBEEFDDDFFCCF1BBF3AAF599F788F46
S11302208891A981CAB1EBA10CD12DC14EF16FE126
S11302308010A100C230E32004502540467067605E
S1130240B9839893FBA3DAB33DC31CD37FE35EF376
S1130250B1029012F322D2323542145277625672AE
S1130260EAB5CBA5A89589856EF54FE52CD50DC5C6
S1130270E234C324A01481046674476424540544FE
S1130280DBA7FAB79987B8975FE77EF71DC73CD716
S1130290D326F2369106B01657667676154634564E
S11302A04CD96DC90EF92FE9C899E9898AB9ABA966
S11302B04458654806782768C018E1088238A3289E
S11302C07DCB5CDB3FEB1EFBF98BD89BBBAB9ABBB6
S11302D0754A545A376A167AF10AD01AB32A923AEE
S11302E02EFD0FED6CDD4DCDAABD8BADE89DC98D06
S11302F0267C076C645C454CA23C832CE01CC10C3E
S11303001FEF3EFF5DCF7CDF9BAFBABFD98FF89F55
S1130310176E367E554E745E932EB23ED10EF01E8D
S113032000020E060C0411241FBECFEFD1E4DEBF81
S1130330CDBF12E0A0E0B2E0EAEBF5E200E00BBFD3
S113034002C007900D92A231B107D9F713E0A2E1E0
S1130350B2E001C01D92A731B107E1F70E949A0FE4
S11303600C94DC120C9400008FB7F894992708952C
S11303708FBF08951F920F920FB60F9211248F937F
S1130380809170028F5F809370028F910F900FBEE7
S11303900F901F901895282F9FB7F894E82FFF27E8
S11303A0EF5CFD4F80818F3F81F4E0911103E217F0
S11303B071F40BC02093080304C0FF27EF5CFD4FCA
S11303C020832093110320E007C025E005C080911D
S11303D008038F3F91F7EECF892F99278FBF822F84
S11303E099270895EF92FF920F931F937FB7F89484
S11303F0609170022091E100822F2091E200922FFF
S11304002091E300A22F2091E400B22F9C01AD01C2
S11304108091E00083FF0FC06F5F8091E100E82EC0
S11304208091E200F82E8091E300082F8091E4008F
S1130430182FA8019701872F99278FBF772788271F
S11304409927FAE1660F771F881F991FFA95D1F74C
S1130450E6E05695479537952795EA95D1F7622BAF
S1130460732B842B952B1F910F91FF90EF90089580
S11304706F927F928F929F92AF92BF92CF92DF92B0
S1130480EF92FF920F931F930E94F2017B018C0164
S113049020915C0230915D0240915E0250915F02B6
S11304A08091560290915702A0915802B09159023E
S11304B0820F931FA41FB51FE216F3060407150746
S11304C030F082179307A407B50758F005C08217C8
S11304D09307A407B507E0F5E816F9060A071B0712
S11304E0B8F59C01AD012E193F09400B510B213089
S11304F060E0360760E0460762E0560768F180E096
S113050090E0A0E0B2E0E80EF91E0A1F1B1FE09283
S11305105C02F0925D0200935E0210935F0280E041
S113052090E0A0E0BEEFE80EF91E0A1F1B1F20504A
S1130530304040405240209356023093570240933B
S113054058025093590220E030E040E052E014C0D9
S113055020E030E040E050E080935C0290935D0244
S1130560A0935E02B0935F0210925602109257025B
S1130570109258021092590239014A01B6E0660CF1
S1130580771C881C991CBA95D1F7A6E0EE0CFF1CC9
S1130590001F111FAA95D1F78091E100A82E809128
S11305A0E200B82E8091E300C82E8091E400D82E9A
S11305B0A60195012E5F3F4F4F4F5F4FDA01C901EE
S11305C08E199F09A00BB10B86159705A805B905CF
S11305D030F4A8019701260D371D481D591D50936D
S11305E0F8004093F7003093F6002093F50081E083
S11305F08093E0008091DF0081608093DF008FEFC3
S1130600809300021F910F91FF90EF90DF90CF90A5
S1130610BF90AF909F908F907F906F9008951F929E
S11306200F920FB60F9211242F933F934F935F9322
S11306306F937F938F939F93AF93BF93EF93FF93A6
S11306408091DF008E7F8093DF008FEF8093000224
S11306508091560290915702A0915802B09159028C
S11306600097A105B10521F480E00E94CB0102C0EE
S11306700E943802FF91EF91BF91AF919F918F91AA
S11306807F916F915F914F913F912F910F900FBE8A
S11306900F901F9018951F920F920FB60F9211246E
S11306A00F900FBE0F901F9018951F920F920FB6C8
S11306B00F9211240F900FBE0F901F90189521E0F8
S11306C030E002C0220F331F8A95E2F78091660260
S11306D0822B80936602EBE6F0E08081282B208356
S11306E0E8E6F0E080818160808380E090E0089516
S11306F021E030E002C0220F331F8A95E2F7922FE7
S1130700909580916602892380936602EBE6F0E07F
S11307108081282B2083E8E6F0E08081816080835B
S113072080E090E00895E0E2F1E06927660FF11DB2
S1130730E60FF11DC895982F802D3196C895902508
S11307400895982F80911E02882389F5992379F5BD
S113075031E030931E028091010280931F022091A8
S11307601302822F8170809330028091060290914F
S113077007029093210280932002809114028093B7
S1130780220232273170267EE32FFF27EE0FFF1F50
S1130790EE5FFD4F80819181909307028093060262
S11307A0232B2093130289E00E94CB0108958091AA
S11307B0130280FF02C08B7F01C08D7F80931302E0
S11307C008951F931FB7F89480911003882341F470
S11307D084E00E94CB01882319F481E08093100304
S11307E0812F99278FBF1F9108959FB7F894809107
S11307F0F2028A3011F020E006C020E080914A0223
S1130800843009F421E0892F99278FBF222349F0EE
S113081086E00E94CB018FB7F894992710921202B8
S113082006C08FB7F894992721E0209312028FBF56
S113083008950F931F93082F162F80914A02813039
S1130840D9F0813038F0823009F44AC0833009F09D
S113085028C159C0002309F458C11092FA02109219
S1130860F9021092F4021092030310924E021092B5
S113087072021092710239C1002309F046C18091BD
S11308807102909172020E9493039093720280937A
S1130890710282E080934A0210930303143409F036
S11308A000C125C18695869503C080911302869563
S11308B0817009F0F6C080911302992311F08460CD
S11308C001C082608093130280911302877E886046
S11308D080931302109214028FEF8093010215C1CA
S11308E0002309F0DEC060934E0280917102909162
S11308F072020E949303909372028093710283E0C8
S113090080934A0202C18091F4028F3F09F4C9C066
S1130910002309F461C0823008F4C3C0E091F902F5
S1130920EE2309F4EBC04E2F4150E42FFF27E7508C
S1130930FD4F82819927382F2227442311F4E2E0C6
S113094002C0E42FE150FF27E750FD4F8281992731
S1130950282B392B80917102909172022817390744
S113096009F09FC080E00E94A10330914E02809163
S1130970680220916902982F9F5F963008F090E0FA
S1130980921771F0E82FFF27E859FD4F32838F5FEC
S113099080936802863010F0109268020E94E1038E
S11309A01092FA021092F90294E090934A02109283
S11309B0F4021092030310924E02109272021092EB
S11309C07102809123028D7F809323028091120211
S11309D0882309F49AC084C0823008F44EC0E091A0
S11309E0FA02FF27E750FD4F8281482F5527342F05
S11309F020911302822F8695869586958370992778
S1130A008130910519F00297F9F40EC0277E206118
S1130A1020931302442311F485E001C080E0809305
S1130A2014023093010210C0809114028F3260F4DA
S1130A30E0910602F0910702E80FF11D40838091D6
S1130A4014028F5F809314028091FA02E82FFF272B
S1130A50E750FD4F62818F5F8093FA02833010F07C
S1130A601092FA02772780917102909172020E948B
S1130A70930390937202809371028091F902E82F9C
S1130A80FF27E750FD4F12838F5F8093F902833075
S1130A9010F01092F9028091F4028F5F8093F402B7
S1130AA034C01092FA021092F90214E010934A0230
S1130AB01092F4021092030310924E0210927202EA
S1130AC010927102809123028D7F8093230281E032
S1130AD00E94A10380911202882329F010934A02F4
S1130AE00E94F50312C0002381F081E009CF8091B8
S1130AF01302982F917080FDD5CED7CE8091FD0240
S1130B009927382F222742E01CCF1F910F91089577
S1130B101F920F920FB60F9211242F933F934F936E
S1130B205F936F937F938F939F93AF93BF93EF9351
S1130B30FF938091C00087FF42C06091C600E0919E
S1130B407302F0917402309719F180910E03909121
S1130B500F03E80FF91F6083019690930F038093AE
S1130B600E0320911503309116038217930738F171
S1130B7010927402109273028091F1028330F9F0A2
S1130B808091C1008F778093C1001092F10217C049
S1130B906E3719F460E081E010C0809123026D3754
S1130BA021F48260809323020AC081FF05C08D7FF7
S1130BB08093230280E2682780E00E941904FF9159
S1130BC0EF91BF91AF919F918F917F916F915F91C1
S1130BD04F913F912F910F900FBE0F901F9018953A
S1130BE02FB7F89433278093C600E0ECF0E08081BF
S1130BF0806480832FBF0895FC016115710519F489
S1130C0081E090E008958091600290916102892BC7
S1130C1019F085E090E00895709301036093000358
S1130C20F0936102E093600210924C0210924B0226
S1130C3081E080934D028091C00080648093C00065
S1130C408091C10080648093C100808121E030E004
S1130C5030934C0220934B020E94F00580E090E018
S1130C600895982F8D57823068F480912302816013
S1130C708093230280E289278093F3028DE7809397
S1130C80420202C09093420261E070E082E492E08A
S1130C900E94FC05992708958FB7F894992720910D
S1130CA023022E7F209323022EE7209342028FBF3C
S1130CB061E070E082E492E00E94FC0599270895C7
S1130CC078941F920F920FB60F921124FF920F93F4
S1130CD01F932F933F934F935F936F937F938F93C0
S1130CE09F93AF93BF93CF93DF93EF93FF932091A1
S1130CF04B0230914C02809100039091010328171C
S1130D00390780F4E0916002F0916102E20FF31F71
S1130D1080812F5F3F4F30934C0220934B020E94FF
S1130D20F005D1C0109261021092600210924D023F
S1130D308091C1008F7B8093C100FFB6F8948091AD
S1130D40230280FF0EC08E7F809323028091F302E2
S1130D508093420261E070E082E492E00E94FC052C
S1130D60AFC08091F202843009F48CC0853040F425
S1130D70823021F18330B8F5813009F09CC00DC078
S1130D80863009F48DC0863008F483C0873009F4B6
S1130D908EC0883009F08FC091C080915B020E94A0
S1130DA03106082F83E08093F20260915B02809108
S1130DB01303909114030E94930310C080910B03BA
S1130DC00E943106082F83E08093F20260910B03A6
S1130DD080911303909114030E949303909314033E
S1130DE08093130366C0E0917502FF27EE0FFF1F87
S1130DF0ED59FD4F80810E943106082F1091750234
S1130E00C12FDD27FE01EE0FFF1FED59FD4F60815D
S1130E1080911303909114030E94930390931403FD
S1130E2080931303209153022F5F209353021130B8
S1130E3039F580911A02E0911502F0911602E80F3B
S1130E40F11DE0818F5F80931A0290911902981727
S1130E5030F482E08093640240E050E002C04E2F00
S1130E605527DE01AA0FBB1FFD01EE59FD4F8081FE
S1130E70823031F02F3F21F0AD59BD4F4C9319C052
S1130E8084E012C0809113030E943106082F85E08C
S1130E900BC0809114030E943106082F86E004C021
S1130EA00E944C06082F87E08093F20202C088E07B
S1130EB003C0002329F089E08093F2020E94E10339
S1130EC08F2D99278FBFFF91EF91DF91CF91BF9124
S1130ED0AF919F918F917F916F915F914F913F91CE
S1130EE02F911F910F91FF900F900FBE0F901F90A5
S1130EF018951F920F920FB60F9211248F93809121
S1130F00C80087FF02C08091CE008F910F900FBE62
S1130F100F901F90189578941F920F920FB60F920E
S1130F2011240F900FBE0F901F901895EF920F93FE
S1130F301F93AE2D99E0899FF0011124EA58FD4FCB
S1130F4040835183628373830483158326833783A9
S1130F50A17080858E7F8A2B8260808781E00E94C9
S1130F60CB011F910F91EF9008958FB7F8949927B3
S1130F702091BC002093EF028FBF08959091EF025F
S1130F80882311F0946001C09B7F9093EF028FEF50
S1130F908093000208951F93CF93DF93982F8FB708
S1130FA0F894282F3327422F80912602882309F0B2
S1130FB046C011E0109326029093F7022FBF8FB71B
S1130FC0F894C82FDD27809127028823C9F4589A02
S1130FD0599A1092B90088E98093B8001092BA0027
S1130FE01092BC000E94B50781E00E94BE07809168
S1130FF0EF028E7F8093EF028093BC001093270250
S1131000CFBF8FB7F894C82FDD279C2F80910A0299
S1131010813099F480912602813021F48DE00E9480
S1131020CB0109C0823049F48091F70280930A020F
S113103083E080932602CFBF07C09FBF05C0809185
S1131040F702891721F42FBF80E090E021C0E92F37
S1131050FF27E75BFD4F80818F3F89F4E091090210
S1131060E91789F40CC09093080204C0FF27E75BDA
S1131070FD4F90839093090280E090E002C085E0E8
S113108090E04FBF05C0809108028F3F79F7EBCF06
S1131090DF91CF911F9108950F931F930FB7F89489
S11310A011270E94B5078091EF028E7F806980939B
S11310B0EF028093BC000FBF1F910F9108959FB75B
S11310C0F89480914A02882319F484E080934A02B8
S11310D0892F99278FBF9FB7F8948091F2028823B4
S11310E019F48AE08093F202892F99278FBF0E9416
S11310F0F50380E090E008958FB7F894282F332704
S1131100922F8091F2028A3041F080914A02843019
S113111021F02FBF89E090E008959FBF85E00E94F1
S1131120CB0180E090E008950F931F930FB7F894DC
S1131130112760935C0270935D0280935E0290932A
S11311405F02209356023093570240935802509303
S113115059020E9438020FBF1F910F9108951F92E8
S11311600F920FB60F9211248F939F938091540284
S11311709091550201969093550280935402892BC5
S113118029F4809152028F5F809352029F918F9134
S11311900F900FBE0F901F9018951F920F920FB6CD
S11311A00F9211240F900FBE0F901F9018951F924D
S11311B00F920FB60F9211240F900FBE0F901F9035
S11311C018951F920F920FB60F9211240F900FBE15
S11311D00F901F9018951F920F920FB60F92112423
S11311E00F900FBE0F901F901895AF92BF92CF92A1
S11311F0DF92EF920F931F938091F8028F5F809399
S1131200F8028130A1F4899AA090F502B090F60218
S1131210CC24DD240E94F201AB01BC01E1E0EE2EFE
S11312209601850182E00E94960781E808C0813812
S113123041F4809190028D7F8093900281E08093AD
S1131240F8021F910F91EF90DF90CF90BF90AF9075
S113125008951F93982F8FB7F894182F8091260222
S1131260833009F04BC080910A02891709F046C007
S11312708091080220E030E08F3F11F421E030E05B
S1131280232BF9F48F3F19F42FEF30E00EC0282FF1
S11312903327F901E75BFD4F8081809308028F3F7C
S11312A011F4809309028FEF80832093F7028FEF6C
S11312B080930A0281E0809326028DE00E94CB0194
S11312C019C081E080930A021092260280912702BD
S11312D0813081F40E94B50780E00E94BE078091AE
S11312E0EF028E768093EF028093BC005898599851
S11312F0109227021FBF80E090E003C01FBF81E06F
S113130090E01F9108958091F0021D9B0CC08823EA
S1131310A1F481E08093F00282E00E94CB0185E099
S11313200E945F030895882341F01092F00283E045
S11313300E94CB0185E00E94780308951F920F92CA
S11313400FB60F9211242F933F934F935F936F9394
S11313507F938F939F93AF93BF93EF93FF932091CA
S11313606B0093B1809166028927822385FF02C0B6
S11313700E948309FF91EF91BF91AF919F918F914B
S11313807F916F915F914F913F912F910F900FBE7D
S11313900F901F901895AF92BF92CF92DF92EF9269
S11313A0FF920F931F93CF93DF935B016C01C0E017
S11313B0D0E0E6E7F2E0608561FF3BC02081318147
S11313C042815381E480F58006811781D601C501ED
S11313D0821B930BA40BB50B8E159F05A007B107B9
S11313E040F160FF03C06D7F608708C02E0D3F1D74
S11313F0401F511F2083318342835383C130A9F09E
S1131400C230E9F48091F8028F778093F802882340
S113141021F489981092240212C080912402882316
S113142021F481E0809324020AC080E00E94CB076B
S113143006C021963996C330D10509F0BCCF81E0AE
S11314400E94CB01DF91CF911F910F91FF90EF90FC
S1131450DF90CF90BF90AF9008951F93182F0E94F4
S1131460B5078091EF028E7F8093EF0280E00E94A7
S1131470BE078091EF028093BC000E94B50781E013
S11314800E94BE078091EF028093BC0081E08093AC
S113149027028091280290910B02882319F0992346
S11314A089F40BC0992371F40E944C0880E00E94D7
S11314B02909112311F48CE003C0109367028BE017
S11314C00E94CB011F910895AF92BF92CF92DF92F9
S11314D0EF920F931F935B016C010E94F201AB0129
S11314E0BC01F1E0EF2E9601850181E00E94960790
S11314F01F910F91EF90DF90CF90BF90AF90089520
S1131500AF92BF92CF92DF92EF92FF920F931F930D
S1131510CF93DF93873009F4DDC1883098F48330AA
S113152009F4C1C0843038F4813009F457C08230E2
S113153008F0AEC020C0853009F4A2C1863008F09E
S1131540C7C1BCC08B3009F48BC28C3038F48930ED
S113155009F4F5C18A3008F02EC2CAC18D3009F4ED
S1131560AFC38D3008F492C38E3009F467C48F3052
S113157009F0B8C488C480914302882361F520919E
S11315800403309105034091060350910703EFB71C
S1131590F894FF2760915C0270915D0280915E0275
S11315A090915F02E0905602F09057020091580229
S11315B0109159026E0D7F1D801F911FEFBF209364
S11315C004033093050340930603509307031092DA
S11315D043020E9494080E94F20145C00E94F20155
S11315E07B018C018091DF008E7F8093DF008FEF81
S11315F0809300028FEFA82E8FEFB82E8FEFC82EA6
S11316008FE7D82E60E0E6E7F2E0808581FF1CC01A
S113161080819181A281B381A8019701281B390B94
S11316204A0B5B0BDA01C90124813581468157815C
S1131630281B390B4A0B5B0B2A153B054C055D0532
S11316401CF459016A0161E0399632E0E139F3078B
S1131650E1F6662309F446C41A141B041C041D0491
S11316602CF0C801B7010E94CB093CC4A09204032A
S1131670B0920503C0920603D092070381E08093E1
S11316804302A6019501C801B7010E9494082AC427
S11316900E947C089927882309F424C4893009F41A
S11316A021C482E01DC40E945F089927882309F49D
S11316B019C4893009F416C483E012C48FB7F894AE
S11316C0109210032091F20240E0283009F441E026
S11316D030E0293009F431E0442311F4332351F08C
S11316E01092F202E0917502FF27EE0FFF1FEE59F0
S11316F0FD4F108299278FBF442311F4332331F116
S11317009FB7F89480910B038F5F80930B038091B4
S11317105B02833479F42091690280916802821714
S113172079F0822F8F5F80936902863048F010929F
S1131730690206C0A0E0442309F4A1E071E002C0FC
S1131740A0E070E0892F99278FBF06C0222311F0F3
S113175010E06CC0A0E070E08FB7F8949927209156
S113176012028FBF222341F08FB7F89499272AE001
S11317702093F2028FBF42C08FB7F89499276091EB
S11317806202409164028FBF8FB7F894282F3327E9
S113179050E09091680280916902981709F451E031
S11317A02FBF552341F5662331F55FB7F89482E0E6
S11317B0809362028FB7F894282F332740E09091EA
S11317C0680280916902981709F441E02FBF44230D
S11317D011F080E006C0E0916902FF27E859FD4F4F
S11317E082818093630283E480935B02109275028A
S11317F0852F99270EC04150423010F010E00BC0E5
S11318008FB7F894992725E420935B0221E0209375
S113181075028FBF11E0772349F08FB7F8949927A9
S1131820A0931B028FBF88E00E94CB018FB7F8946E
S1131830C82FDD278091F2028A3021F40E94F5033B
S1131840CFBF50C3CFBF112309F44CC32FB7F894B3
S1131850332710921403109213031092530281E061
S11318608093F2022FBF0E944C06882309F43AC3E6
S11318708FB7F894992729E02093F2028FBFE8C02C
S11318808091C1008F7B8093C1008091C1008F77CC
S11318908093C1001092F10210924D028091C10018
S11318A088608093C1008091C10080618093C100F1
S11318B08FEF809300028091C10080688093C10003
S11318C08FB7F89499271092F20210924A0271C0CD
S11318D087E006C38091C100877F8093C100809117
S11318E0C1008F7E8093C1008FEF80930002FAC203
S11318F010921802109217028FB7F894992720912A
S11319001B028FBF80911C02811123E080911D0274
S1131910882309F4E7C2823709F0E4C2222309F0DC
S1131920DEC28FB7F89488E190E029E00FB6F8940E
S1131930A895809360000FBE20936000FFCF8FB7FF
S1131940F894992720911F02C0912002D09121027E
S113195030912202109130028FBF2223A1F022374E
S113196091F4333081F48881823569F48981833537
S113197051F48A81843539F4D0932F02C0932E0216
S11319808AE00E94CB018FB7F894E12FFF27EE0F76
S1131990FF1FEE5FFD4FD183C083209113021123FB
S11319A011F02B7F01C02D7F2093130210921E0291
S11319B099278FBF97C2E0912E02F0912F028AE5FA
S11319C0808382E4818380E5828340912E0250915A
S11319D02F028091170290911802892B09F07FC27F
S11319E02FB7F894332710921A0210921B025093C7
S11319F016024093150282E090E0909318028093BF
S1131A00170242E740931D0210921C0283E0809368
S1131A1019022FBF8FB7F894282F33278091F20231
S1131A208A3011F42FBF17C02FBF9FB7F89480914D
S1131A306402882311F020E006C081E080936402F0
S1131A404093650221E0892F99278FBF222319F043
S1131A500E94E10347C210921802109217023FC27B
S1131A60F090240280912502882359F045E0F41671
S1131A7011F483E001C085E08093240210922502D2
S1131A802EC081E0809324020E944C0880E00E94D2
S1131A9029098091F80281508093F8028823A9F4DF
S1131AA0A0904702B0904802CC24DD240E94F201A9
S1131AB0AB01BC01A1E0EA2E9601850182E00E94FF
S1131AC0960780E88093F8020AC0803841F4899828
S1131AD0809190028D7F809390021092F80253E0DF
S1131AE0F51609F03CC0909144028FB7F894182F72
S1131AF080912902833009F071C080910E02891708
S1131B0009F06CC080910C0220E030E08F3F11F4AA
S1131B1021E030E0232BE9F48F3F19F42FEF30E07C
S1131B200EC0282F3327F901E65AFD4F8081809398
S1131B300C028F3F11F480930D028FEF808320936A
S1131B404F028FEF80930E0281E0809329028EE092
S1131B503DC081E080930E02109229023FC085E0CF
S1131B60F81609F03CC090910C038FB7F894182F25
S1131B7080912A02833091F580911102891771F5C1
S1131B8080910F0220E030E08F3F11F421E030E03B
S1131B90232BF9F48F3F19F42FEF30E00EC0282FD8
S1131BA03327F901E35FFC4F808180930F028F3F5D
S1131BB011F4809310028FEF8083209341028FEF02
S1131BC08093110281E080932A028FE00E94CB016E
S1131BD005C081E08093110210922A021FBF8091F8
S1131BE02402853019F0833009F07CC18FB7F89452
S1131BF0282F332780910B02882319F02FBF81E00F
S1131C0042C02FBF8FB7F8949927509127025130C3
S1131C1089F542E0409327028FBF2FB7F89433270A
S1131C2080E490E090935102809350028CE292E021
S1131C30909346028093450240932B0283E0809365
S1131C40120310920203509328022FBF0E94B5077B
S1131C502FB7F89433278091EF028F7A816A8093AB
S1131C60EF0294E0909327028093BC002FBF109260
S1131C70670238C1552321F48FBF84E090E003C08C
S1131C808FBF85E090E080936702D6C080912402E4
S1131C90823021F0843009F025C108C083E08093AC
S1131CA0240265E570E080E090E007C085E0809361
S1131CB0240266E170E080E090E00E94640A12C1B0
S1131CC02FB7F89433278091F70280930A0283E0B8
S1131CD0809326022FBF20910A028FB7F894992788
S1131CE020930B028FBF222309F0FCC080912402B1
S1131CF0833061F0843020F4823009F04AC044C05B
S1131D00843009F443C0853009F043C08FB7F89498
S1131D10282F332780910B02882309F042C02FBF5C
S1131D208FB7F894992750912702513039F542E042
S1131D30409327028FBF2FB7F894332780E490E0B5
S1131D4090935102809350028CE292E09093460269
S1131D508093450240932B0283E0809312031092F8
S1131D600203509328022FBF0E94B5072FB7F8949F
S1131D7033278091EF028F7A816A45C0552311F48D
S1131D808FBF4FC08FBF51C083EF01C085EF8093D9
S1131D902C028FB7F894282F332780910B028823C5
S1131DA021F02FBF81E090E042C02FBF8FB7F8949D
S1131DB0282F332740912702413081F582E0809318
S1131DC027022FBF2FB7F894332780E490E0909335
S1131DD05102809350028CE292E0909346028093E9
S1131DE0450240932B024093120310920203109277
S1131DF028022FBF0E94B5072FB7F894332780918C
S1131E00EF028F7E816E8093EF0294E0909327021D
S1131E108093BC002FBF80E090E009C0442321F4EC
S1131E202FBF84E090E003C02FBF85E090E0809353
S1131E306702882309F456C08BE052C02FB7F89488
S1131E40332780914F0280930E0283E0809329020E
S1131E502FBF80910E02809344021091240280913E
S1131E602502882321F4812F8450823028F1812F88
S1131E7082508230B8F182E0809324020E94F508F7
S1131E80113081F528C02FB7F8943327809141028F
S1131E908093110283E080932A022FBF8091110264
S1131EA080930C031091240280912502882341F42D
S1131EB0812F8250823020F481E08093250212C069
S1131EC0812F8450823070F084E0809324020E9439
S1131ED0F508113039F480E00E94CB0703C08AE092
S1131EE00E94CB01DF91CF911F910F91FF90EF9052
S1131EF0DF90CF90BF90AF900895809108038F3FFB
S1131F00B1F0282F3327F901EF5CFD4F80818093D6
S1131F1008038F3F11F4809311038FEF80832F3FC9
S1131F2031F0822F0E94800A81E090E0089580E0E1
S1131F3090E00895FF920F931F93FFB6F89414BE98
S1131F4088E10FB6F89480936000109260000FBE91
S1131F5040E150E06FEF70E081E392E00E94D5121F
S1131F608FEF8093080380931103819A8091350148
S1131F7080618093350180913401806180933401C4
S1131F8080913301806180933301809132018061BB
S1131F908093320185B7806885BF85B7806885BF27
S1131FA080E8809361008FE08093610091E09093DA
S1131FB0810080E28093B6009093B100AEEFE0E040
S1131FC0F0E06FEF7FEFB0E08091B2008823E1F79B
S1131FD040918400509185008091B2008034E1F7F3
S1131FE02091840030918500241B350B6217730700
S1131FF008F4B9012E173F0708F4F901CF01861B35
S1132000970B029730F0B0E06FEF7FEFE0E0F0E085
S113201003C0BF5FB23310F4A150B1F630930A038A
S1132020209309031092B1008091B1008093810044
S1132030809181008093B6008091B60099278370C7
S11320409070892BC9F7809180008C7F80938000E9
S113205080918100807E82608093810080916F00F6
S1132060816080936F0080E28093B6008091DC00F1
S11320708F7C80638093DC008091DF008860809394
S1132080DF008091DF008E7F8093DF008FEF8093ED
S113209000028091DC008E7F8093DC008091390106
S11320A0826080933901569A5E9A6A9A6B9A6C9A06
S11320B06D9A729A739A749A759A0E947D0F882306
S11320C0E1F78FEF80930D0380935A0280934902C6
S11320D08091F5029091F6020F9730F48FE090E032
S11320E09093F6028093F502809147029091480202
S11320F00F9730F48FE090E090934802809347026A
S113210012E006E06091090370910A038827992779
S113211028E037E040E050E00E94B3122150304004
S11321202093C400832F99278093C5001093C00087
S11321300093C2001092C1002093CC008093CD0084
S11321401093C8000093CA001092C9001092620252
S1132150109264028AE08093F20210925302109269
S11321605B0210920B03109214031092130310924B
S11321701003109275021092FA021092F90284E090
S113218080934A021092F4021092030310924E02BA
S113219010927202109271021092690210926802F7
S11321A01D9B0AC081E08093F00282E00E94CB0173
S11321B085E00E945F0308C01092F00283E00E9451
S11321C0CB0185E00E9478030E947D0F8823E1F70C
S11321D08F2D99278FBF78948FB7F894A82FBB279A
S11321E057C08091000287FF4AC08091BC0082FFE3
S11321F003C040E050E002C045E050E080916F0031
S11322008E7219F060E070E002C065E070E08091C9
S1132210C10083FD0FC08091C10084FD0BC080917B
S1132220C90083FD07C08091C90084FD03C025E077
S113223030E002C020E030E08091DC0085FF03C084
S1132240E3E0F0E002C0E5E0F0E0862F461708F492
S1132250842F9927821708F4282F822F99278E1705
S113226008F4E82FFF27E093000283B7FF27E7FD78
S1132270F095E05EFC4FE491807F8E2B83BF83B7A3
S1132280816083BF78948895F89483B78E7F83BFE9
S1132290809108038F3F09F4A4CF282F3327F90135
S11322A0EF5CFD4F8081809308038F3F11F480938E
S11322B011038FEF80832F3F09F493CFAFBF822F99
S11322C00E94800A89CF1F920F920FB60F92112499
S11322D02F933F934F935F936F937F938F939F932A
S11322E0AF93BF93EF93FF930E94B50780912702AA
S11322F0843009F4FAC0863021F0833009F022C119
S11323006EC09091B900987F80912802813081F548
S1132310903409F062C083E0809327022091020385
S113232080912B02281708F473C09091EF02292F93
S11323302E7F2093EF028091120381FF09C08D7FCD
S11323408093120320612093EF028091B90003C0AF
S11323509E779093EF028091EF028093BC0081E01E
S11323608093270280910B02882309F0EBC086C07A
S1132370983199F583E0809327029091020380912C
S11323802B022091EF02981708F482C0922F9E7FAF
S11323909093EF028091120381FF07C08D7F809399
S11323A0120390619093EF0203C02E772093EF0203
S11323B08091EF028093BC0081E08093270280919A
S11323C00B02882309F0BEC00E944C0880E00E94E2
S11323D029098CE00E94CB01B5C084E09BC08091A8
S11323E0280290910203813009F04CC0E09145022B
S11323F0F0914602E90FF11D8091BB00808320918A
S113240002032F5F2093020380912B022817A0F46C
S11324103327992701972817390749F48091120324
S113242082FD05C08091EF028F7B8093EF02809143
S1132430EF028093BC0086C09091EF02292F2E7F7B
S11324402093EF028091120381FF09C08D7F809356
S1132450120320612093EF028091B90003C09E779C
S11324609093EF028091EF028093BC0081E080930F
S1132470270280910B02882309F064C0109267023E
S11324808BE0A8CF80912B022091EF02981778F46B
S1132490E0914502F0914602E90FF11D808180939D
S11324A0BB009F5F909302032093BC004BC0922F0C
S11324B09E7F9093EF028091120381FF07C08D7F6E
S11324C08093120390619093EF0203C02E772093C0
S11324D0EF028091EF028093BC0081E08093270299
S11324E080910B02882371F56FCF809112038E7F48
S11324F0809312039091EF029F7D9093EF0280915D
S1132500B900887F883049F08091B900887F803194
S113251021F081E00E942D0A15C0392F30643093D8
S1132520EF0290915002990F20E0809128028130AF
S113253009F421E0922B9093BB0086E0809327025C
S11325403093BC00FF91EF91BF91AF919F918F9118
S11325507F916F915F914F913F912F910F900FBE9B
S11325600F901F901895A1E21A2EAA1BBB1BFD0108
S11325700DC0AA1FBB1FEE1FFF1FA217B307E4075E
S1132580F50720F0A21BB30BE40BF50B661F771FB6
S1132590881F991F1A9469F7609570958095909596
S11325A09B01AC01BD01CF010895DC0101C06D9315
S10D25B041505040E0F70895FFCFBA
S11325BAFFFF9102C0029102FFFF01FFFFFF01FF2B
S10525CAFF010B
S9030000FC
