S01900006275696C642F75636D696E692F6D61696E2E7372656373
S11300000C94AD010C94CC010C94CC010C94CC0157
S11300100C94CC010C94CC010C94CC010C94CC0128
S11300200C94CC010C944A020C94CC010C94CC0199
S11300300C94CC010C94CC010C94CC010C94CC0108
S11300400C94BB060C949D060C94A7060C94B10664
S11300500C947A060C94CC010C94CC010C94CC0135
S11300600C94CC010C946C040C94CC010C944405B9
S11300700C94CC010C940A0D0C94CC010C94CC017E
S11300800C94CC010C94CC010C94CC010C94CC01B8
S11300900C945D060C94CC010C946F060C941D1EFC
S11300A00C94CC010C94CC010C94CC010C94CC0198
S11300B00C94CC010C94CC010C94CC010C94CC0188
S11300C00C94CC010C94CC010C94CC010C94CC0178
S11300D00C94CC010C94CC010C94CC010C94CC0168
S11300E00C94CC010C94CC010C94CC010C94CC0158
S11300F00C94CC010C94CC010C94CC010C94CC0148
S11301000C94CC010C94770C0C94B30C0C94BD0C93
S11301100C94660C0C94CC010C94CC010C94CC0182
S1130120EC11F9110912F2121A131C132B13681390
S1130130B713CE13011455147514A2140715101512
S1130140BB15DB15C51801194C192E1A491A701A5A
S1130150E111C81A00002110422063308440A550E8
S1130160C660E770088129914AA16BB18CC1ADD1F9
S1130170CEE1EFF13112100273325222B5529442A1
S1130180F772D662399318837BB35AA3BDD39CC349
S1130190FFF3DEE36224433420040114E664C774ED
S11301A0A44485546AA54BB528850995EEE5CFF599
S11301B0ACC58DD55336722611163006D776F66641
S11301C09556B4465BB77AA719973887DFF7FEE7E9
S11301D09DD7BCC7C448E5588668A778400861180D
S11301E002282338CCC9EDD98EE9AFF94889699939
S11301F00AA92BB9F55AD44AB77A966A711A500AE1
S1130200333A122AFDDBDCCBBFFB9EEB799B588B88
S11302103BBB1AABA66C877CE44CC55C222C033C2C
S1130220600C411CAEED8FFDECCDCDDD2AAD0BBDD8
S1130230688D499D977EB66ED55EF44E133E322E80
S1130240511E700E9FFFBEEFDDDFFCCF1BBF3AAF28
S1130250599F788F8891A981CAB1EBA10CD12DC186
S11302604EF16FE18010A100C230E320045025401C
S113027046706760B9839893FBA3DAB33DC31CD37C
S11302807FE35EF3B1029012F322D232354214526C
S113029077625672EAB5CBA5A89589856EF54FE5C8
S11302A02CD50DC5E234C324A014810466744764BC
S11302B024540544DBA7FAB79987B8975FE77EF71C
S11302C01DC73CD7D326F2369106B016576676760C
S11302D0154634564CD96DC90EF92FE9C899E989E8
S11302E08AB9ABA94458654806782768C018E1085C
S11302F08238A3287DCB5CDB3FEB1EFBF98BD89BBC
S1130300BBAB9ABB754A545A376A167AF10AD01AAB
S1130310B32A923A2EFD0FED6CDD4DCDAABD8BAD07
S1130320E89DC98D267C076C645C454CA23C832CFB
S1130330E01CC10C1FEF3EFF5DCF7CDF9BAFBABF5B
S1130340D98FF89F176E367E554E745E932EB23E4B
S1130350D10EF01E00020E060C0411241FBECFEFB6
S1130360D1E4DEBFCDBF12E0A0E0B2E0EAEDF5E4F7
S113037000E00BBF02C007900D92AC31B107D9F772
S113038013E0ACE1B2E001C01D92AE3EB107E1F76B
S11303900E940B1B0C94EC220C9400008FB7F89471
S11303A0992708958FBF0895282F9FB7F894E82FB1
S11303B0FF27E558FD4F80818F3F81F4E091E303EF
S11303C0E21771F40BC02093D10304C0FF27E55852
S11303D0FD4F20832093E30320E007C025E005C000
S11303E08091D1038F3F91F7EECF892F99278FBF4B
S11303F0822F9927089521E030E002C0220F331F95
S11304008A95E2F78091D302822B8093D302EBE6A4
S1130410F0E08081282B2083E8E6F0E08081816091
S1130420808380E090E0089521E030E002C0220F54
S1130430331F8A95E2F7922F90958091D3028923F6
S11304408093D302EBE6F0E08081282B2083E8E65A
S1130450F0E080818160808380E090E00895809165
S1130460A6031D9B0CC08823A1F481E08093A603FE
S113047080E00E94D40185E00E94FB010895882356
S113048041F01092A60381E00E94D40185E00E940D
S1130490140208951F920F920FB60F9211242F93F6
S11304A03F934F935F936F937F938F939F93AF93F8
S11304B0BF93EF93FF9320916B0093B18091D3028C
S11304C08927822385FF02C00E942F02FF91EF91AA
S11304D0BF91AF919F918F917F916F915F914F9158
S11304E03F912F910F900FBE0F901F901895E4E548
S11304F0F1E06927660FF11DE60FF11DC895982FED
S1130500802D3196C89590250895982F80912802C2
S1130510882389F5992379F531E030932802809175
S113052001028093290220911D02822F8170809301
S11305307A02809106029091070290932B02809395
S11305402A0280911E0280932C0232273170267E6B
S1130550E32FFF27EE0FFF1FEE5FFD4F8081918198
S11305609093070280930602232B20931D0287E0B9
S11305700E94D401089580911D0280FF02C08B7FE8
S113058001C08D7F80931D0208951F931FB7F894B7
S11305908091E203882341F482E00E94D4018823FD
S11305A019F481E08093E203812F99278FBF1F9173
S11305B008959FB7F8948091AC038A3011F020E03D
S11305C006C020E08091A702843009F421E0892F3D
S11305D099278FBF222349F084E00E94D4018FB76A
S11305E0F894992710921C0206C08FB7F8949927A3
S11305F021E020931C028FBF08950F931F93082FAF
S1130600162F8091A7028130D9F0813038F08230E2
S113061009F44AC0833009F028C159C0002309F401
S113062058C11092C3031092C2031092AF031092E8
S1130630CC031092AB02109214031092130339C12D
S1130640002309F046C180911303909114030E9482
S11306507702909314038093130382E08093A7029C
S11306601093CC03143409F000C125C186958695F6
S113067003C080911D028695817009F0F6C08091B7
S11306801D02992311F0846001C0826080931D02D1
S113069080911D02877E886080931D0210921E0245
S11306A08FEF8093010215C1002309F0DEC060932F
S11306B0AB0280911303909114030E9477029093EC
S11306C014038093130383E08093A70202C18091F3
S11306D0AF038F3F09F4C9C0002309F461C082301D
S11306E008F4C3C0E091C203EE2309F4EBC04E2F1B
S11306F04150E42FFF27EE53FC4F82819927382F76
S11307002227442311F4E2E002C0E42FE150FF2742
S1130710EE53FC4F82819927282B392B80911303A8
S1130720909114032817390709F09FC080E00E94B4
S113073085023091AB028091D7022091D802982F84
S11307409F5F963008F090E0921771F0E82FFF2732
S1130750E952FD4F32838F5F8093D702863010F0C9
S11307601092D7020E94C5021092C3031092C203D2
S113077094E09093A7021092AF031092CC031092CE
S1130780AB02109214031092130380912D028D7FFB
S113079080932D0280911C02882309F49AC084C09E
S11307A0823008F44EC0E091C303FF27EE53FC4FA0
S11307B08281482F5527342F20911D02822F869540
S11307C086958695837099278130910519F0029753
S11307D0F9F40EC0277E206120931D02442311F4F6
S11307E085E001C080E080931E023093010210C0B6
S11307F080911E028F3260F4E0910602F0910702AC
S1130800E80FF11D408380911E028F5F80931E02CA
S11308108091C303E82FFF27EE53FC4F62818F5F63
S11308208093C303833010F01092C3037727809121
S11308301303909114030E947702909314038093FE
S113084013038091C203E82FFF27EE53FC4F12835A
S11308508F5F8093C203833010F01092C2038091A3
S1130860AF038F5F8093AF0334C01092C303109221
S1130870C20314E01093A7021092AF031092CC03AA
S11308801092AB02109214031092130380912D0264
S11308908D7F80932D0281E00E94850280911C024D
S11308A0882329F01093A7020E94D90212C00023C2
S11308B081F081E009CF80911D02982F917080FD15
S11308C0D5CED7CE8091C6039927382F222742E070
S11308D01CCF1F910F9108951F920F920FB60F9284
S11308E011242F933F934F935F936F937F938F9331
S11308F09F93AF93BF93EF93FF938091C00087FFC3
S113090042C06091C600E0911503F0911603309740
S113091019F18091E0039091E103E80FF91F6083DE
S113092001969093E1038093E0032091EC033091CE
S1130930ED038217930738F11092160310921503F2
S11309408091A7038330F9F08091C1008F77809361
S1130950C1001092A70317C06E3719F460E081E05C
S113096010C080912D026D3721F4826080932D0296
S11309700AC081FF05C08D7F80932D0280E2682725
S113098080E00E94FD02FF91EF91BF91AF919F9192
S11309908F917F916F915F914F913F912F910F9024
S11309A00FBE0F901F9018952FB7F894332780939C
S11309B0C600E0ECF0E08081806480832FBF08955E
S11309C0FC016115710519F481E090E008958091AE
S11309D0CB029091CC02892B19F085E090E0089528
S11309E07093CA036093C903F093CC02E093CB02E3
S11309F01092A9021092A80281E08093AA02809129
S1130A00C00080648093C0008091C10080648093A2
S1130A10C100808121E030E03093A9022093A80234
S1130A200E94D40480E090E00895982F8D5782307E
S1130A3068F480912D02816080932D0280E28927E1
S1130A408093AE038DE78093960202C09093960242
S1130A5061E070E086E992E00E94E004992708953D
S1130A608FB7F894992720912D022E7F20932D0281
S1130A702EE7209396028FBF61E070E086E992E052
S1130A800E94E0049927089578941F920F920FB65C
S1130A900F921124FF920F931F932F933F934F9321
S1130AA05F936F937F938F939F93AF93BF93CF93F2
S1130AB0DF93EF93FF932091A8023091A9028091D4
S1130AC0C9039091CA032817390780F4E091CB0237
S1130AD0F091CC02E20FF31F80812F5F3F4F3093E0
S1130AE0A9022093A8020E94D404D1C01092CC027F
S1130AF01092CB021092AA028091C1008F7B809346
S1130B00C100FFB6F89480912D0280FF0EC08E7F45
S1130B1080932D028091AE038093960261E070E091
S1130B2086E992E00E94E004AFC08091AC03843077
S1130B3009F48CC0853040F4823021F18330B8F55B
S1130B40813009F09CC00DC0863009F48DC0863018
S1130B5008F483C0873009F48EC0883009F08FC050
S1130B6091C08091C6020E941505082F83E08093EE
S1130B70AC036091C6028091EA039091EB030E945A
S1130B80770210C08091D5030E941505082F83E0D9
S1130B908093AC036091D5038091EA039091EB03B9
S1130BA00E9477029093EB038093EA0366C0E0917E
S1130BB01703FF27EE0FFF1FE253FD4F80810E94B2
S1130BC01505082F10911703C12FDD27FE01EE0F25
S1130BD0FF1FE253FD4F60818091EA039091EB0384
S1130BE00E9477029093EB038093EA032091BF0263
S1130BF02F5F2093BF02113039F580912402E091D8
S1130C001F02F0912002E80FF11DE0818F5F8093B5
S1130C10240290912302981730F482E08093CF024B
S1130C2040E050E002C04E2F5527DE01AA0FBB1F43
S1130C30FD01E353FD4F8081823031F02F3F21F0DD
S1130C40A253BD4F4C9319C084E012C08091EA03B3
S1130C500E941505082F85E00BC08091EB030E94CC
S1130C601505082F86E004C00E943005082F87E090
S1130C708093AC0302C088E003C0002329F089E01C
S1130C808093AC030E94C5028F2D99278FBFFF91DB
S1130C90EF91DF91CF91BF91AF919F918F917F9110
S1130CA06F915F914F913F912F911F910F91FF9001
S1130CB00F900FBE0F901F9018951F920F920FB6B2
S1130CC00F9211248F938091C80087FF02C08091F6
S1130CD0CE008F910F900FBE0F901F9018957894AF
S1130CE01F920F920FB60F9211240F900FBE0F9008
S1130CF01F9018951F920F920FB60F9211248F9385
S1130D009F938091DF038F5F8093DF038091BD0207
S1130D109091BE0201969093BE028093BD02892BEE
S1130D2029F4809112038F5F809312039F918F9116
S1130D300F900FBE0F901F9018951F920F920FB631
S1130D400F9211240F900FBE0F901F9018951F92B1
S1130D500F920FB60F9211240F900FBE0F901F9099
S1130D6018951F920F920FB60F9211240F900FBE79
S1130D700F901F9018951F920F920FB60F92112487
S1130D800F900FBE0F901F901895EF92FF920F9344
S1130D901F937FB7F8946091C0022091E100822FE5
S1130DA02091E200922F2091E300A22F2091E400F1
S1130DB0B22F9C01AD018091E00083FF0FC06F5FF3
S1130DC08091E100E82E8091E200F82E8091E3000A
S1130DD0082F8091E400182FA8019701872F9927E5
S1130DE08FBF772788279927FAE1660F771F881F17
S1130DF0991FFA95D1F7E6E05695479537952795CB
S1130E00EA95D1F7622B732B842B952B1F910F91AD
S1130E10FF90EF900895582F809121029091220223
S1130E20892B19F085E090E008952FB7F8945523A5
S1130E3009F446C0109224021092250270932002F5
S1130E4060931F0282E090E090932202809321023B
S1130E505093270210922602523709F040E080E0B6
S1130E60840F80932302822F99278FBF8FB7F89422
S1130E70282F33278091AC038A3011F42FBF19C077
S1130E802FBF9FB7F8948091CF02882311F020E000
S1130E9006C081E08093CF025093D00221E0892FD5
S1130EA099278FBF222329F00E94C50280E090E099
S1130EB00895109222021092210281E090E0089598
S1130EC085E080932402109225027093200260939F
S1130ED01F0282E090E090932202809321021092FC
S1130EE027021092260285E0495FBACFCF93DF93A1
S1130EF0382FDA012D3118F082E090E00FC0FA01AA
S1130F0035966183872F9927EA018D83368324835D
S1130F10422FBD0180E00E940B079927DF91CF91FA
S1130F2008958FB7F89499272091BC002093A503C6
S1130F308FBF08959091A503882311F0946001C098
S1130F409B7F9093A5038FEF8093080208951F93CE
S1130F50CF93DF93982F8FB7F894282F3327422FFE
S1130F6080913102882309F043C011E010933102CB
S1130F709093AC022FBF8FB7F894C82FDD278091D0
S1130F8032028823C9F4589A599A1092B90088E910
S1130F908093B8001092BA001092BC000E9491078E
S1130FA081E00E949A078091A5038E7F8093A50318
S1130FB08093BC0010933202CFBF8FB7F894C82F30
S1130FC0DD272C2F90910C029330B1F480913102E3
S1130FD0813021F48FE00E94D40108C0823061F492
S1130FE08091AC0280930C0290933102CFBF05C074
S1130FF08091AC02891721F42FBF80E090E021C0DA
S1131000E92FFF27EE55FD4F80818F3F89F4E09152
S11310100B02E91789F40CC090930A0204C0FF275D
S1131020EE55FD4F908390930B0280E090E002C058
S113103085E090E04FBF05C080910A028F3F79F7A9
S1131040EBCFDF91CF911F9108950F931F930FB7AB
S1131050F89411270E9491078091A5038E7F8069DF
S11310608093A5038093BC000FBF1F910F91089537
S1131070EF92FF920F931F93E62EF22E9FB7F894F0
S1131080292F332790910D02981721F02FBF81E06B
S113109090E061C02FBF8FB7F894282F3327609159
S11310A03202613039F582E0809332022FBF8FB76C
S11310B0F89499275093B0024093AF0210939E0284
S11310C000939D02F0923D02E092E9031092CB035B
S11310D0609333028FBF0E9491079FB7F8942091C9
S11310E0A50321682F7A2093A5036E2D772760FD31
S11310F00BC00FC0662321F42FBF84E090E02BC007
S11311002FBF85E090E027C020622093A50384E0F0
S11311100BC081E08F1520F0FF2061F062FF07C053
S113112020642093A50383E0809332020BC081E006
S1131130F816C9F361FF06C085E08093320220618E
S11311402093A5038091A5038093BC00892F992740
S11311508FBF80E090E01F910F91FF90EF90089572
S11311601F93982F8FB7F894182F809137028330EC
S1131170B1F580911302891791F58091110220E055
S113118030E08F3F11F421E030E0232BF9F48F3F5E
S113119019F42FEF30E00EC0282F3327F901E8525D
S11311A0FC4F8081809311028F3F11F480931202CF
S11311B08FEF8083209318038FEF8093130281E0D5
S11311C08093370283E10E94D40105C086E08093B6
S11311D01302109237021FBF80E090E003C01FBFCC
S11311E081E090E01F910895FC016683672F7727C3
S11311F065830895CF93DF93582FDB01823018F075
S113120081E090E038C0C82FDD27CC0FDD1FC1522C
S1131210DD4F88819981892B19F085E090E02BC0FE
S1131220798368839B012B5F3F4FF901448380914D
S11312301A02823018F480E090E01DC0F901868122
S1131240FB0165817727762F6627F90121813327F2
S1131250622B732B50931A02242FAD010E94760740
S11312609927282F882329F082E080931A02198273
S11312701882822F9927DF91CF910895FF920F93BF
S11312801F938B01F42EBC01C8010E94F4088BE06B
S1131290F80183874F2DB80181E00E94FA0899274D
S11312A01F910F91FF900895882349F4E091D10292
S11312B0F091D2026583872F9927848308952FB7ED
S11312C0F894332785B1805885B92FBF08952F929C
S11312D03F924F925F926F927F928F929F92AF92C2
S11312E0BF92CF92DF92EF92FF920F931F938823C6
S11312F081F5DB01CA01BB0F880B982FDC011A01B1
S11313002B01682E2091C0033091C10340E050E0CE
S113131060E070E080E0A22EB32EC42ED52EE62E1F
S1131320F72E082F10E0222D332D442D552D662D38
S1131330762D862D962D0E94B91F07E10E94BD21AE
S1131340A22EB32E80ED97E0A80EB91EB50180E061
S113135002C060E070E00E9454091F910F91FF9059
S1131360EF90DF90CF90BF90AF909F908F907F9041
S11313706F905F904F903F902F9008958823A1F431
S1131380E091D102F091D2024383BB27A72F962F7D
S1131390852F8283CB01AA27BB278183872F992797
S11313A0AA27BB27808308952FB7F894332785B1E4
S11313B0805885B92FBF0895982F96959695969540
S11313C0E9E1F3E0E90FF11D877021E030E002C0AC
S11313D0220F331F8A95E2F780818223992708958B
S11313E080917C0090917B008F7199270895909152
S11313F07C00907E282F2F71922B90937C0085FF88
S113140004C080917B00886003C080917B00877F4B
S113141080937B000895ECE7F0E090818295880F3B
S1131420880F807C9F73982B90830895DF92EF92AE
S1131430FF920F931F938091D603882309F480C0F1
S1131440813019F458E0F52E0AC0882311F4FF24E2
S113145079C0813019F08FE1FF2402C0FF248EE1AE
S1131460EE24082FDFB6F89480919B028E7F809340
S11314709B0210917C000E94F009282F129516956A
S113148016951370E11619F080E090E00AC0802FE1
S11314908850863120F480E090E0021711F481E056
S11314A090E0982F9170990F80919B028170202F6A
S11314B0220F220F892B822B80939B02802F0E9464
S11314C0F70980917C008F7D80937C008E2D0E9493
S11314D00B0A20919B02217038E0F316B9F5809134
S11314E0D2039091D30331E68038930718F087E054
S11314F090E024C030E3803C930718F086E090E04D
S11315001DC038E18034930718F085E090E016C0E0
S11315103CE08030930718F084E090E00FC036E0A0
S11315208030930718F083E090E008C08050934027
S113153018F082E090E002C080E090E0F82E06C04F
S113154048E0F42E33E0E32E89E28BCF87E0F822E3
S1131550187F1F2918612295220F207E1F7D122BD0
S1131560106C812F992780937A008D2D99278FBF36
S11315701F910F91FF90EF90DF9008950F931F93A9
S1131580CF93DF93182F8FB7F894282F3327022F88
S113159080912F02882309F032C081E080932F02CA
S11315A01093B4032FBF2FB7F894332780917A0098
S11315B0806880937A008FEF809308022FBF8FB7E3
S11315C0F894C82FDD279C2F809109028230A9F45A
S11315D080912F02813021F48BE00E94D40109C054
S11315E0823059F48091B4038093090283E080939C
S11315F02F02CFBF80E090E025C09FBFFBCF80913A
S1131600B403811711F42FBFF5CF812F0E94DC0999
S1131610882319F085E090E014C0E12FE695E69563
S1131620E695FF27E75EFC4F177081E090E002C06B
S1131630880F991F1A95E2F72081282B208380E0D8
S113164090E00FBFDF91CF911F910F9108956F929A
S11316507F928F929F92AF92BF92CF92DF92EF923E
S1131660FF920F931F930E94C5067B018C0120916A
S1131670C7023091C8024091C9025091CA028091B8
S1131680C1029091C202A091C302B091C402820F20
S1131690931FA41FB51FE216F3060407150730F0C5
S11316A082179307A407B50758F005C0821793075C
S11316B0A407B507E0F5E816F9060A071B07B8F50D
S11316C09C01AD012E193F09400B510B213060E004
S11316D0360760E0460762E0560768F180E090E074
S11316E0A0E0B2E0E80EF91E0A1F1B1FE092C70239
S11316F0F092C8020093C9021093CA0280E090E0FD
S1131700A0E0BEEFE80EF91E0A1F1B1F2050304058
S1131710404052402093C1023093C2024093C3021E
S11317205093C40220E030E040E052E014C020E0D6
S113173030E040E050E08093C7029093C802A09349
S1131740C902B093CA021092C1021092C20210924E
S1131750C3021092C40239014A0176E0660C771C78
S1131760881C991C7A95D1F766E0EE0CFF1C001FCB
S1131770111F6A95D1F78091E100A82E8091E200B3
S1131780B82E8091E300C82E8091E400D82EA601E3
S113179095012E5F3F4F4F4F5F4FDA01C9018E19FC
S11317A09F09A00BB10B86159705A805B90530F460
S11317B0A8019701260D371D481D591D5093F800A7
S11317C04093F7003093F6002093F50081E0809376
S11317D0E0008091DF0081608093DF008FEF8093D1
S11317E008021F910F91FF90EF90DF90CF90BF9070
S11317F0AF909F908F907F906F9008950F931F9359
S11318000FB7F89411276093C7027093C8028093AE
S1131810C9029093CA022093C1023093C20240933A
S1131820C3025093C4020E94270B0FBF1F910F9154
S113183008959FB7F8948091A702882319F484E04F
S11318408093A702892F99278FBF9FB7F89480911F
S1131850AC03882319F48AE08093AC03892F992779
S11318608FBF0E94D90280E090E008958FB7F8946A
S1131870282F3327922F8091AC038A3041F0809136
S1131880A702843021F02FBF89E090E008959FBF24
S113189083E00E94D40180E090E008959C0180914F
S11318A0B2039091B3038217930720F43093B303E8
S11318B02093B20380919F029091A002861797070C
S11318C020F47093A00260939F0208951F920F92D8
S11318D00FB60F9211248F938091C0028F5F809373
S11318E0C0028F910F900FBE0F901F9018951F92FA
S11318F00F920FB60F9211242F933F934F935F9340
S11319006F937F938F939F93AF93BF93EF93FF93C3
S11319108091DF008E7F8093DF008FEF8093080239
S11319208091C1029091C202A091C302B091C402FD
S11319300097A105B10521F489E00E94D40102C0F9
S11319400E94270BFF91EF91BF91AF919F918F91CF
S11319507F916F915F914F913F912F910F900FBEA7
S11319600F901F9018951F920F920FB60F9211248B
S11319700F900FBE0F901F9018951F920F920FB6E5
S11319800F9211240F900FBE0F901F901895809105
S1131990DF032091840030918500B09B05C08F5FE8
S11319A020918400309185009927992786959795F1
S11319B0882736952795822B932B0895FF920F93B2
S11319C01F93CF93DF93EC01FFB6F8940E94C70CEA
S11319D08C0180E8C130D80768F0C050D0480E941C
S11319E0C70C801B910BC817D907C8F70C0F1D1F14
S11319F0C0E0D0E80E94C70C801B910BC817D90720
S1131A00C8F78F2D99278FBFDF91CF911F910F9129
S1131A10FF9008951F920F920FB60F9211240F9307
S1131A201F932F933F934F935F936F937F938F9362
S1131A309F93AF93BF93EF93FF934091780050919E
S1131A40790078948FB7F894992720919B02322FCC
S1131A503695317021708FBF222319F580917A0059
S1131A60877F80937A008091D402813021F0823084
S1131A7009F047C00AC0332351F05093AB0340939D
S1131A80AA038CE00E94D4013CC0332339F48DE7CF
S1131A9090E00E94DE0C0E94160A33C01092D40219
S1131AA030C00FB7F894112780917C000E94F00990
S1131AB00FBF2FB7F894332780917A00582F5770AF
S1131AC0482F4072087D042B052B8074077B082B5C
S1131AD000610F77802F992780937A00087D042B6B
S1131AE0052B07730061802F992780937A00087D66
S1131AF0042B052B077B0069802F992780937A009C
S1131B002FBFFF91EF91BF91AF919F918F917F91E3
S1131B106F915F914F913F912F911F910F910F9072
S1131B200FBE0F901F901895EF920F931F93AE2D39
S1131B3099E0899FF0011124E65EFC4F40835183B4
S1131B40628373830483158326833783A17080851E
S1131B508E7F8A2B826080878AE00E94D4011F9145
S1131B600F91EF900895AF92BF92CF92DF92EF92D0
S1131B70FF920F931F93F82E5A016B010E94C50622
S1131B80AB01BC01A1E0EA2E960185018F2D0E94D4
S1131B90940D1F910F91FF90EF90DF90CF90BF9025
S1131BA0AF9008958091B50381508093B503882345
S1131BB069F440919F025091A0026627772782E042
S1131BC00E94B30D80E88093B5030895803841F4F2
S1131BD08998809134038D7F809334031092B503E8
S1131BE008958091B5038F5F8093B503813071F4BC
S1131BF0899A4091B2035091B3036627772782E014
S1131C000E94B30D81E88093B5030895813841F4AF
S1131C10809134038D7F8093340381E08093B503F6
S1131C2008951F939C0110913502123018F085E03D
S1131C3090E010C086E0809335023093A90320938E
S1131C40A8030E94F10D113019F481E00E94A70746
S1131C5080E090E01F910895EF920F931F93CF932C
S1131C60DF93082FE82FFF27EE0FFF1FE152FD4FF0
S1131C701182108280911A029927019662E070E025
S1131C800E944622682F80931A0210E0462F55279F
S1131C90FA01EE0FFF1FE152FD4FA081B1811097B1
S1131CA099F0E62FE695E695E695FF27E252FC4F7C
S1131CB0808199279A012770307002C09595879585
S1131CC02A95E2F780FF0DC0CA01019662E070E038
S1131CD00E944622682F1F5F1230C1F610931A0229
S1131CE01AC060931A026230B0F4FD013596248163
S1131CF03327ED016D817727762F66278181992718
S1131D00682B792BAD0186810E947607882319F010
S1131D1089E10E94D401013081F48091000288237A
S1131D2061F00E94C506AB01BC01EE2400E014E0A2
S1131D3020E030E080E00E94940DDF91CF911F916C
S1131D400F91EF900895CF93DF93982F8FB7F89466
S1131D50282F3327422F80913702882321F581E0F1
S1131D6080933702909318032FBF8FB7F894C82F2E
S1131D70DD279C2F80911302863099F480913702DD
S1131D80813021F483E10E94D40109C0823049F4F6
S1131D90809118038093130283E080933702CFBFAE
S1131DA007C09FBF05C080911803891721F42FBF76
S1131DB080E090E021C0E92FFF27E852FC4F8081AA
S1131DC08F3F89F4E0911202E91789F40CC09093D3
S1131DD0110204C0FF27E852FC4F90839093120233
S1131DE080E090E002C085E090E04FBF05C08091A4
S1131DF011028F3F79F7EBCFDF91CF910895282F10
S1131E00882379F440936D0250936E0260936F02BD
S1131E107093700282E00E94A30E9927282F8823D2
S1131E2039F040E050E060E070E0822F0E94BE098B
S1131E3008951F93282F8FB7F894182F909131028B
S1131E40933009F04AC080910C02821709F045C012
S1131E5080910A0220E030E08F3F11F421E030E06D
S1131E60232BF9F48F3F19F42FEF30E00EC0282F05
S1131E703327F901EE55FD4F808180930A028F3F8D
S1131E8011F480930B028FEF80832093AC028FEFC9
S1131E9080930C0281E0809331028FE00E94D40190
S1131EA018C090930C02109231028091320281305A
S1131EB081F40E94910780E00E949A078091A50313
S1131EC08E768093A5038093BC00589859981092FD
S1131ED032021FBF80E090E003C01FBF81E090E0AA
S1131EE01F910895EF92FF920F931F93CF93DF9367
S1131EF0982F8FB7F894E82E80912F02833009F041
S1131F0045C080910902891709F040C080911903E6
S1131F10882309F04DC03EC0EF2DE695E695E69581
S1131F20FF274F2D5527E75EFC4F9A01277030702D
S1131F3081E090E002C0880F991F2A95E2F780950E
S1131F40208128232083C0932E0211C02196C23001
S1131F50D10511F4C0E0D0E0FC2E8C2F0E94DC09E6
S1131F608823D1F6C017D10789F74FEF50E040938B
S1131F70B4038FEF8093090281E080932F028BE0FA
S1131F800E94D401EFBE80E090E018C0EFBE81E073
S1131F9090E014C082E08093090210922F02809195
S1131FA07A008F7780937A008FEF80930802EACFCC
S1131FB080912E02082F1127E801C8CFDF91CF911D
S1131FC01F910F91FF90EF900895AF92BF92CF921F
S1131FD0DF92EF92FF920F931F93CF93DF935B01F6
S1131FE06C01C0E0D0E0EAE1F3E0608561FF81C00C
S1131FF02081318142815381E480F58006811781FB
S1132000D601C501821B930BA40BB50B8E159F053E
S1132010A007B10708F46DC060FF03C06D7F60873F
S113202008C02E0D3F1D401F511F20833183428362
S11320305383C23049F1C33030F4CC2359F0C1305A
S113204009F05DC04AC0C33009F44DC0C43009F082
S113205056C04BC080910002882381F46FEF7FEF5C
S11320608EE392E00E94F4088AE08093490240E102
S11320706EE372E080E00E94FA0802C0109200024F
S113208080E00E94BE0A3BC08091B5038F778093A5
S1132090B503882341F489981092380210923502CE
S11320A0109230022CC080913802882321F481E000
S11320B08093380203C082E00E94A7078091350212
S11320C0882321F481E08093350203C081E00E94DB
S11320D0A70780913002823011F480E007C081E0CC
S11320E0809330020CC081E001C082E00E94A70707
S11320F006C021963996C530D10509F076CF8AE01D
S11321000E94D401DF91CF911F910F91FF90EF9026
S1132110DF90CF90BF90AF9008951F931091350238
S1132120123018F085E090E00CC082E08093350214
S11321300E94F10D113019F481E00E94A70780E09C
S113214090E01F9108951F93182F0E94250882E0A4
S11321500E94190F112311F485E103C01093D502D5
S113216084E10E94D4011F9108950F931F93882343
S113217041F08093A1020E94250881E00E94190F7A
S113218030C080913502843079F0853028F4823073
S113219059F0833039F40FC0853069F08C3010F475
S11321A022E00AC020E008C00E94250881E00E94C5
S11321B0190F82E117C023E008E912E047E750E075
S11321C063E081E00E94380899278093A102882364
S11321D059F00E94250881E00E94190F81E0809344
S11321E0A10281E10E94D4011F910F910895EF9201
S11321F0FF920F931F93F62EE22E9FB7F894292F88
S1132200332790910D02981711F02FBFA6C02FBF4E
S11322108FB7F894282F332780913202813041F50B
S113222082E0809332022FBF8FB7F894992750939E
S1132230B0024093AF0210939E0200939D02E0927D
S11322403D026093E9031092CB03109233028FBFD7
S11322500E9491078FB7F894182F9091A503916C61
S11322609F7E9093A5036F2D772760FD0BC011C04F
S1132270882321F42FBF84E090E079C02FBF85E04C
S113228090E075C090629093A50384E0809332023D
S113229067C0EE2009F453C083E08093320220919A
S11322A0CB0340913D02241778F4E0919D02F09114
S11322B09E02E20FF11D80818093BB002F5F20936B
S11322C0CB039093BC0050C0292F2E7F2093A503ED
S11322D08091E90381FF07C08D7F8093E90320612A
S11322E02093A50303C09E779093A5038091A50333
S11322F08093BC0081E08093320220919D02309152
S11323009E026091AF027091B00280910D02813003
S113231071F0813018F0823039F50DC00E94250823
S113232080E00E94190F8EE00E94D4011DC080E05D
S11323300E94B51019C080E00E94A31015C061FF6F
S113234008C085E0809332029F7B90619093A5033F
S113235007C081E0809332021FBF81E090E007C094
S11323608091A5038093BC001FBF80E090E01F9183
S11323700F91FF90EF9008956F927F928F929F92AA
S1132380AF92BF92CF92DF92EF92FF920F931F937F
S1132390CF93DF93CDB7DEB7A8970FB6F894DEBF1F
S11323A00FBECDBFE82FFF27EA31F10510F00C94E2
S11323B0D91AE057FF4FEE0FFF1F0590F491E02D5F
S11323C009948091DE03882311F40C94D91A20E037
S11323D0E1E0FE2E0C949E1A0E94360C9927882365
S11323E011F40C94D91A893011F40C94D91A80E0A0
S11323F00CC00E94190C9927882311F40C94D91A43
S1132400893011F40C94D91A81E00E94D4010C94FF
S1132410D91A8FB7F8941092E2032091AC0340E0EC
S1132420283009F441E030E0293009F431E0442354
S113243011F4332351F01092AC03E0911703FF27FA
S1132440EE0FFF1FE353FD4F108299278FBF4423E4
S113245011F4332331F19FB7F8948091D5038F5F42
S11324608093D5038091C602833479F42091D802F5
S11324708091D702821779F0822F8F5F8093D802E0
S1132480863048F01092D80206C0A0E0442309F434
S1132490A1E071E002C0A0E070E0892F99278FBF0E
S11324A006C0222311F0FF246DC0A0E070E08FB7B6
S11324B0F894992720911C028FBF222341F08FB7F3
S11324C0F89499272AE02093AC038FBF42C08FB7BA
S11324D0F89499276091CD024091CF028FBF8FB7B6
S11324E0F894282F332750E09091D7028091D80296
S11324F0981709F451E02FBF552341F5662331F5B0
S11325005FB7F89482E08093CD028FB7F894282FB8
S1132510332740E09091D7028091D802981709F4AC
S113252041E02FBF442311F080E006C0E091D802BF
S1132530FF27E952FD4F82818093CE0283E480938A
S1132540C60210921703852F99270EC041504230BE
S113255010F0FF240CC08FB7F894992725E420933A
S1132560C60221E0209317038FBF61E0F62E772384
S113257049F08FB7F8949927A09325028FBF86E07E
S11325800E94D4018FB7F894082F11278091AC03CF
S11325908A3029F40E94D9020FBF0C94D91A0FBFB4
S11325A0FF2011F40C94D91A2FB7F8943327109202
S11325B0EB031092EA031092BF0281E08093AC0314
S11325C02FBF0E943005882311F40C94D91A8FB7B9
S11325D0F894992729E02093AC038FBF0E94C50289
S11325E00C94D91A8091C1008F7B8093C100809193
S11325F0C1008F778093C1001092A7031092AA02A2
S11326008091C10088608093C1008091C100806185
S11326108093C1008FEF809308028091C10080688D
S11326208093C1008FB7F89499271092AC0310924D
S1132630A7029BC085E0E9CE8091C100877F80938B
S1132640C1008091C1008F7E8093C1008FEF809381
S113265008020C94D91A10922202109221028FB708
S1132660F8949927409125028FBF80912602811109
S113267043E020911F023091200280912702882399
S113268021F0823709F095C712C080911A02823076
S113269008F08FC7E82FFF27EE0FFF1FE152FD4F11
S11326A0608171816217730709F083C77CC7442373
S11326B009F072C08FB7F89488E190E029E00FB672
S11326C0F894A895809360000FBE20936000FFCF1C
S11326D08FB7F894992720912902E0902A02F0906C
S11326E02B0230912C0210917A028FBF222321F009
S11326F0223791F0222319F5F70183858B30F9F401
S1132700809100028823D9F44CE063EE72E08FEFED
S11327109FEF0E943E0913C0333089F4F701808192
S1132720823569F48181833551F48281843539F4A9
S1132730F0927502E092740288E00E94D4018FB78F
S1132740F894E12FFF27EE0FFF1FEE5FFD4FF1829C
S1132750E08220911D02112311F02B7F01C02D7FF7
S113276020931D021092280299278FBF22C7E0915F
S11327707402F09175028AE5808382E4818380E5A6
S11327808283609174027091750243E082E70E9433
S11327900B07882309F40DC788E037CE8091970290
S11327A0882361F52091CD033091CE034091CF036E
S11327B05091D003EFB7F894FF276091C70270914E
S11327C0C8028091C9029091CA02E090C102F090BF
S11327D0C2020091C3021091C4026E0D7F1D801FBE
S11327E0911FEFBF2093CD033093CE034093CF03CB
S11327F05093D003109297020E94FE0B0E94C506CC
S113280041C00E94C5065B016C018091DF008E7F90
S11328108093DF008FEF809308022FEF3FEF4FEF9D
S11328205FE760E0EAE1F3E0808581FF1CC080811E
S11328309181A281B38186017501E81AF90A0A0B14
S11328401B0BD801C701E480F58006811781E81AC3
S1132850F90A0A0B1B0BE216F306040715071CF40E
S1132860A801970161E0399603E0E734F007E1F647
S1132870662309F49EC612161306140615062CF0D8
S1132880C601B5010E94E50F94C62093CD03309391
S1132890CE034093CF035093D00381E080939702FB
S11328A0C601B5010E94FE0B84C68FB7F894992720
S11328B02091B4032093090223E020932F028FBFB9
S11328C080910902882321F0813009F072C606C084
S11328D081E08093D4021092D60304C08093D40282
S11328E08093D6030E94160A64C61092D402009103
S11328F0AA031091AB038091D603882319F0813089
S113290049F404C080E00E94720F0AC081E00E9472
S1132910720F0FC0882321F0813009F04AC609C024
S1132920E091D102F091D2020587812F9927848703
S113293040C6E091D102F091D2020787812F9927F6
S1132940868737C611E0F12EF09230020E94D20D34
S1132950D090B003C090B103E090770200919C0244
S11329608FB7F894182F80913402833089F58091C1
S11329701002801769F580910E0220E030E08F3F4D
S113298011F421E030E0232BF9F48F3F19F42FEFF9
S113299030E00EC0282F3327F901EB53FD4F80811F
S11329A080930E028F3F11F480930F028FEF808388
S11329B0209395028FEF8093100281E0809334027C
S11329C080E10E94D40104C0F092100210923402FB
S11329D01FBF002309F0EDC5EE2089F48D2D992742
S11329E0982F88272C2D3327822B932BE091D1020B
S11329F0F091D2028387892F99278287DAC52FB76E
S1132A00F894332785B1805885B92FBFD2C583E0A8
S1132A108093300244EB50E060E070E081E036C522
S1132A202FB7F89433278091AC0280930C0283E093
S1132A30809331022FBF20910C028FB7F89499270D
S1132A4020930D028FBF213071F1213020F022300C
S1132A5009F0AFC564C080913002823069F480E22D
S1132A608093B00300EB13E021E043E250E063E025
S1132A7080E00E94F71009C000EB13E022E043E27B
S1132A8050E063E080E00E943808809377028091F0
S1132A907702882309F48DC50E94250880E00E94EE
S1132AA0190F8DE0B2CC80913502843069F0853005
S1132AB028F4823071F0833029F415C0853099F000
S1132AC08630A1F060E016C0909136029F7088E4D1
S1132AD005C09091360292959F7088E5891B80937A
S1132AE0980263E007C01092980203C082EA8093C0
S1132AF0980261E008E912E021E047E750E081E054
S1132B000E94F71099278093A102882309F451C5E4
S1132B100E94250881E00E94190F81E176CC809102
S1132B203802833049F0843018F48230A1F40EC0A6
S1132B30843071F0853079F402E712E022E040E459
S1132B4050E063E082E00E9438080EC083EF01C0C9
S1132B5085EF8093720202E712E021E040E450E046
S1132B6061E082E00E94F71099278093D5028823C0
S1132B7009F41FC570C42FB7F894332780919502C8
S1132B808093100283E0809334022FBF809110025F
S1132B9080939C0210913002812F8250823008F47D
S1132BA008C582E0809330020E94F10D113009F0D3
S1132BB000C580E0C0C480913502863038F484308A
S1132BC008F047C0823008F4F4C46CC28D3008F0B9
S1132BD0F0C481E0809335020E94D20D1091A102CD
S1132BE08091D6028430B9F0853041F1813009F00A
S1132BF0E0C40E94B008112341F480E00E94A30EB7
S1132C009927182F882309F4D4C440E050E060E0E9
S1132C1070E0812F86C284E00E94B008112341F441
S1132C2083E00E94A30E9927182F882309F4C1C4B6
S1132C3040E050E060E070E0812F92C285E00E94A5
S1132C40B0084CE063EE72E08FEF9FEF0E943E0904
S1132C50B0C4C0909802B0909902E0909A0281E0CA
S1132C60809335020E94D20DD090A1028091AD03D1
S1132C70823009F09EC40E94B008DD2031F040E0AB
S1132C8050E060E070E08D2D0AC280916D02909159
S1132C906E02A0916F02B09170023C014D01990C3B
S1132CA06608762C430189839A83AB83BC836D8247
S1132CB06E826F826886FF2400271127102F0F2D44
S1132CC0FE2CEE242C2D332744275527522F44273E
S1132CD0332722278B2D9927AA27BB27DC01992785
S1132CE08827282B392B4A2B5B2B2E293F29402B55
S1132CF0512B232F342F452F552729873A874B876C
S1132D005C871D861E861F86188A8091B102909169
S1132D10B202AA27BB27DC0199278827898B9A8BC3
S1132D20AB8BBC8B1D8A1E8A1F8A188E2091B5021C
S1132D303091B60240E050E060E070E080E0A22E06
S1132D40B32EC42ED52EE62EF72E082F10E029819F
S1132D503A814B815C81662D762D862D962D0E94BD
S1132D60B91F07E00E94BD21822E932EA42EB52EFA
S1132D70C62ED72EE82EF92E2989280DB1E01989FF
S1132D80211708F0B0E03A89390DA1E0EA893E172D
S1132D9008F0A0E0EB2FE30FF1E0E31708F0F0E018
S1132DA0AF2B3E2F4B894A0DB1E0FB894F1708F03A
S1132DB0B0E0EA2FE40FF1E0E41708F0F0E0BF2BF5
S1132DC04E2F5C895B0DA1E00C89501708F0A0E040
S1132DD0EB2FE50FF1E0E51708F0F0E0AF2B5E2FE5
S1132DE06D896C0DB1E01D89611708F0B0E0EA2F20
S1132DF0E60FF1E0E61708F0F0E0BF2B6E2F7E89B6
S1132E007D0DA1E0EE897E1708F0A0E0EB2FE70F1F
S1132E10F1E0E71708F0F0E0AF2B7E2F8F898E0DDD
S1132E20B1E0FF898F1708F0B0E0EA2FE80F11E056
S1132E30E81708F010E01B2B988D9F0D190FA22E98
S1132E40B32EC42ED52EE62EF72E0E2F29853A85C5
S1132E504B855C856D857E858F8598890E94B91F19
S1132E6005E10E94B720298F3A8F4B8F5C8F6D8FBD
S1132E707E8F8F8F98A38090B3029090B402AA247F
S1132E80BB24CC24DD24EE24FF2401E1282D392D9C
S1132E904A2D5B2D6C2D7D2D8E2D90E00E943A21C4
S1132EA029A33AA34BA35CA36DA37EA38FA398A7E6
S1132EB02091B7023091B80280E0A22EB32E082FE1
S1132EC010E029813A814B815C816D817E818F8103
S1132ED098850E94B91F06E00E94BD21A22EB32E40
S1132EE0C42ED52EE62EF72E082F192F29A12A0D30
S1132EF0B1E0E9A12E1708F0B0E03AA13B0DA1E042
S1132F00FAA13F1708F0A0E0EB2FE30FF1E0E3177D
S1132F1008F0F0E0AF2B3E2F4BA14C0DB1E0EBA13C
S1132F204E1708F0B0E0EA2FE40FF1E0E41708F0E0
S1132F30F0E0BF2B4E2F5CA15D0DA1E0FCA15F175B
S1132F4008F0A0E0EB2FE50FF1E0E51708F0F0E062
S1132F50AF2B5E2F6DA16E0DB1E0EDA16E1708F0E1
S1132F60B0E0EA2FE60FF1E0E61708F0F0E0BF2B3F
S1132F706E2F7EA17F0DA1E0FEA17F1708F0A0E0D7
S1132F80EB2FE70FF1E0E71708F0F0E0AF2B7E2F0F
S1132F908FA1800FB1E0EFA18E1708F0B0E0EA2F07
S1132FA0E80FA1E0E81708F0A0E0BA2B8E2F98A54F
S1132FB0910F9B0F898C821AB1E0F98DF81508F0F6
S1132FC0B0E09A8C931AA1E00A8D091508F0A0E0EC
S1132FD0E92DEB1BF1E09E1608F0F0E0AF2B9E2EDE
S1132FE0AB8CA41AB1E01B8D1A1508F0B0E0EA2DE1
S1132FF0EA1BF1E0AE1608F0F0E0BF2BAE2EBC8C5D
S1133000B51AA1E0EC8DEB1508F0A0E0EB2DEB1B5D
S1133010F1E0BE1608F0F0E0AF2BBE2ECD8CC61A40
S1133020B1E0FD8DFC1508F0B0E0EC2DEA1BF1E0F9
S1133030CE1608F0F0E0BF2BCE2EDE8CD71AA1E01E
S11330400E8D0D1508F0A0E0ED2DEB1BF1E0DE1662
S113305008F0F0E0AF2BDE2EEF8CE81AB1E01F8D04
S11330601E1508F0B0E0EE2DEA1BA1E0EE1608F004
S1133070A0E0BA2BF8A0F91A9F2D9B1B0FE0282D76
S1133080392D4A2D5B2D6C2D7D2D8E2F0E94B7205E
S1133090A22EB32EC42ED52EB601A50180E00E9427
S11330A0BE0987C2E0909A02FF2400271127102F3F
S11330B00F2DFE2CEE242091980233274427552708
S11330C0522F442733272227809199029927AA2730
S11330D0BB27DC0199278827282B392B4A2B5B2B0C
S11330E02E293F29402B512BE32EF42E052F112797
S11330F081E0809335020E94D20DD090A10280918C
S1133100D703882321F0833009F053C21FC080E025
S11331100E94B008DD2041F040E050E060E070E043
S11331208D2D0E94FF0E45C28091B9029091BA0282
S1133130AA27BB27BA2FA92F982F8827E81AF90A9C
S11331400A0B1B0BB801A70180E0EBCF83E00E94C0
S1133150B008DD2041F040E050E060E070E08D2DEB
S11331600E94670926C28091BE039091BF03AA27DB
S1133170BB27BA2FA92F982F8827E81AF90A0A0B18
S11331801B0BB801A70180E0EBCF90913602809130
S11331903502823039F483E080933502892F829599
S11331A08F7005C085E080933502892F8F7084303D
S11331B0C1F0853030F4882351F0823009F0F9C130
S11331C00BC0863099F0883009F0F3C114C04AE08E
S11331D050E060E070E013C045E050E060E070E073
S11331E00EC043E050E060E070E009C042E050E00F
S11331F060E070E004C041E050E060E070E083E033
S113320045C12FB7F8943327809118038093130294
S113321083E0809337022FBF209113022230C1F044
S1133220233030F4222361F0213009F0C2C10BC0F5
S1133230243021F12430E8F0253009F0BAC123C04C
S11332401092D70318C08091E7039091E8031FC040
S11332502093AD0310913502123008F0AAC184E026
S1133260809335020E94F10D113009F0A2C181E072
S113327062C18093D7030E948D109BC18091AD02DF
S11332809091AE0204C08091E4039091E5032093F1
S1133290D6020E94110E8DC1809172029927D82EF8
S11332A0CC24809173028C7FC80ED11C10913802FB
S11332B080913902882351F0153011F483E001C064
S11332C085E080933802109239020AC081E080932D
S11332D038020E94250882E00E94190F0E94D20D34
S11332E0133009F04DC0F090D5020091E6038FB77A
S11332F0F894182F80913A02833091F58091160248
S1133300801771F58091140220E030E08F3F11F4B2
S113331021E030E0232BF9F48F3F19F42FEF30E054
S11333200EC0282F3327F901EB55FD4F8081809380
S113333014028F3F11F4809315028FEF8083209342
S113334071028FEF8093160281E080933A0286E146
S11333500E94D40105C081E08093160210923A02C3
S11333601FBF002309F061C0FF2009F057C0E0919E
S1133370D102F091D202C7828D2D9927868355C040
S1133380153009F052C0F090D5020091D4038FB7E4
S1133390F894182F80913B02833091F580911902A3
S11333A0801771F58091170220E030E08F3F11F40F
S11333B021E030E0232BF9F48F3F19F42FEF30E0B4
S11333C00EC0282F3327F901EA58FD4F80818093DE
S11333D017028F3F11F4809318028FEF808320939C
S11333E03C028FEF8093190281E080933B0287E1D6
S11333F00E94D40105C081E08093190210923B021F
S11334001FBF002391F4FF2049F4E091D102F09111
S1133410D202C1868D2D9927808707C02FB7F894D3
S1133420332785B1805885B92FBF80913802853004
S113343019F0833009F0BDC002E712E022E040E455
S113344050E063E082E00E94380899278093D50217
S1133450882309F4AEC084E10C94051280913802EB
S1133460823021F0843009F0A4C008C083E0809346
S1133470380245E550E060E070E007C085E08093E5
S1133480380246E150E060E070E084E00E94B30D51
S113349090C02FB7F894332780917102809316025D
S11334A083E080933A022FBF809116028093E60353
S11334B01091380280913902882321F4812F84509D
S11334C0823038F1812F8250823008F472C082E059
S11334D0809338020E94F10D113009F06AC02AC0AD
S11334E02FB7F894332780913C028093190283E02C
S11334F080933B022FBF809119028093D4031091D3
S1133500380280913902882341F4812F825082301D
S113351020F481E0809339024CC0812F84508230A2
S113352008F447C084E0809338020E94F10D113002
S113353009F03FC082E00E94A7073BC09091DE03E0
S11335408F2D892301F1E22FFF27EE0FFF1FE15298
S1133550FD4F118210828F2D809598239093DE0366
S1133560213089F480910002882301F10E94C5066C
S1133570AB01BC01EE2400E014E020E030E080E088
S11335800E94940D13C02F5F283098F4FF0CD6CFFF
S113359080911A02E82FFF27EE0FFF1FE152FD4F23
S11335A06081718141E00E942C0E03C0FF0C22E077
S11335B0C5CFA8960FB6F894DEBF0FBECDBFDF917E
S11335C0CF911F910F91FF90EF90DF90CF90BF901C
S11335D0AF909F908F907F906F9008958091D103CA
S11335E08F3FB1F0282F3327F901E558FD4F808133
S11335F08093D1038F3F11F48093E3038FEF808393
S11336002F3F31F0822F0E94BC1181E090E0089599
S113361080E090E00895FF920F931F93FFB6F89413
S113362014BE88E10FB6F894809360001092600095
S11336300FBE4AE150E06FEF70E08BE792E00E942A
S1133640E5228FEF8093D1038093E303819A8091E5
S113365035018061809335018091340180618093CC
S11336603401809133018061809333018091320170
S113367080618093320185B7806885BF85B7806893
S113368085BF80E8809361008FE08093610091E0C2
S11336909093810080E28093B6009093B100AEEFE6
S11336A0E0E0F0E06FEF7FEFB0E08091B2008823BC
S11336B0E1F740918400509185008091B2008034FC
S11336C0E1F72091840030918500241B350B6217AB
S11336D0730708F4B9012E173F0708F4F901CF0165
S11336E0861B970B029730F0B0E06FEF7FEFE0E0BE
S11336F0F0E003C0BF5FB23310F4A150B1F63093D1
S1133700D3032093D2031092B1008091B10080932F
S11337108100809181008093B6008091B600992742
S113372083709070892BC9F780E28093B6008091F2
S1133730DC008F7C80638093DC008091DF008860F4
S11337408093DF008091DF008E7F8093DF008FEF16
S1133750809308028091DC008E7F8093DC0080914E
S113376080008C7F8093800080918100807E8260C5
S11337708093810080916F00816080936F0010922C
S11337807A0080913901826080933901569A5E9A59
S1133790269A279A269A279A2E982F982E982F9809
S11337A00E94EE1A8823E1F71FEF1093760210931C
S11337B0A5026FE070E08FE090E00E944E0C46E0BE
S11337C050E06FEF70E088ED93E00E94E52263E043
S11337D070E083E090E00E944E0C1093C50243E039
S11337E050E06FEF70E082EA92E00E94E5226BE025
S11337F070E08BE090E00E944E0C1092190312E0EE
S113380006E06091D2037091D3038827992728E0BA
S113381037E040E050E00E9459222150304020938C
S1133820C400832F99278093C5001093C000009390
S1133830C2001092C1002093CC008093CD0010935D
S1133840C8000093CA001092C9001092CD021092D1
S1133850CF028AE08093AC031092BF021092C6029A
S11338601092D5031092EB031092EA031092E20334
S1133870109217031092C3031092C20384E0809342
S1133880A7021092AF031092CC031092AB021092D5
S11338901403109213031092D8021092D7021D9BA6
S11338A00AC081E08093A60380E00E94D40185E0F1
S11338B00E94FB0108C01092A60381E00E94D4017B
S11338C085E00E9414020E94EE1A8823E1F78F2DEE
S11338D099278FBF78940E94360C2FEE32E03093F4
S11338E07902209378028AE492E09093D202809342
S11338F0D1023093E5032093E40385E00E94A30EF4
S11339008FB7F894082F112767C08091080287FFAA
S11339105AC08091BC0082FF03C040E050E002C066
S113392045E050E080917A0087FF03C0A1E0B0E059
S113393002C0A5E0B0E08091DC0085FF03C063E035
S113394070E002C065E070E080916F008E7219F043
S113395020E030E002C025E030E08091C10083FD2A
S11339600FC08091C10084FD0BC08091C90083FD0C
S113397007C08091C90084FD03C0E5E0F0E002C007
S1133980E0E0F0E0322F262F8A2F4A1708F4842F24
S11339909927821708F4282F822F9927831708F470
S11339A0382F832F99278E1708F4E82FFF27E093E9
S11339B0080283B7FF27E7FDF095EC5AFC4FE4912A
S11339C0807F8E2B83BF83B7816083BF7894889573
S11339D0F89483B78E7F83BF8091D1038F3F09F41E
S11339E094CF282F3327F901E558FD4F8081809328
S11339F0D1038F3F11F48093E3038FEF80832F3F34
S1133A0009F483CF0FBF822F0E94BC1179CF0F938B
S1133A101F93CF93DF93E9018093A102882309F0D8
S1133A209DC0809135028730F1F1883048F48530AB
S1133A3009F494C0863020F5833009F081C08EC02B
S1133A40893009F456C0893008F440C08A3009F43A
S1133A5063C08B3009F074C00E94250881E00E9485
S1133A60190FE091A803F091A90388819927982F51
S1133A70882729813327822B932B9387828773C0CE
S1133A80E091A803F091A90388819927982F8827AA
S1133A9029813327822B932B9183808387E0809322
S1133AA0350284EA4BC0E091A803F091A903888110
S1133AB09927982F882729813327822B932B938347
S1133AC0828388E08093350286EA38C0E091A803B7
S1133AD0F091A90388819927982F88272981332772
S1133AE0822B932B9583848389E08093350288EA23
S1133AF025C0E091A803F091A90388819927982F04
S1133B00882729813327822B932B978386838AE006
S1133B10809335028AEA12C0E091A803F091A903C8
S1133B2088819927982F882729813327822B932BE3
S1133B30918780878BE0809335028CEA809398028A
S1133B4008E912E021E047E750E061E081E00E94EB
S1133B50F71099278093A102882341F00E94250839
S1133B6081E00E94190F81E10E94D401DF91CF917D
S1133B701F910F9108951F93182F0E949107809110
S1133B80A5038E7F8093A50380E00E949A0780910D
S1133B90A5038093BC000E94910781E00E949A07CC
S1133BA08091A5038093BC0081E0809332028091D0
S1133BB0330220919D0230919E0240913D0260911A
S1133BC0AF027091B00290910D028823C9F0913038
S1133BD069F0913018F0923071F50CC010937702AF
S1133BE00E94250880E00E94190F1AC0812F0E94AC
S1133BF0071D21C01093D50284E10E94D4011BC08B
S1133C00913091F0913018F09230A9F411C00E94D3
S1133C10250880E00E94190F112321F010937702E8
S1133C208DE0EBCF8EE0E9CF812F0E94B51003C069
S1133C30812F0E94A3101F9108951F920F920FB617
S1133C400F9211242F933F934F935F936F937F931E
S1133C508F939F93AF93BF93EF93FF930E9491072A
S1133C6080913202843009F446C1863021F08330D9
S1133C7009F06EC188C09091B900987F8091330299
S1133C80813009F043C0903409F07BC083E0809315
S1133C9032022091CB0340913D02241708F48CC0DA
S1133CA02091A503322F3E7F3093A5038091E90331
S1133CB081FF09C08D7F8093E90330613093A503B0
S1133CC08091B90003C02E772093A5038091A503AA
S1133CD08093BC0081E08093320220919D02309158
S1133CE09E026091AF027091B00280910D0281300A
S1133CF009F4AFC0813008F4A3C0823009F028C1B0
S1133D001092D50284E10E94D40122C19831C9F5F0
S1133D1083E0809332029091CB0340913D02209145
S1133D20A503941708F49FC0922F9E7F9093A50338
S1133D308091E90381FF07C08D7F8093E90390613F
S1133D409093A50303C02E772093A5038091A50328
S1133D508093BC0081E08093320220919D023091D7
S1133D609E026091AF027091B00280910D02813089
S1133D7009F4B9C0813008F4AFC0823009F0E8C05A
S1133D80B6C084E0CDC0809133029091CB038130E2
S1133D9009F063C0E0919D02F0919E02E90FF11DCC
S1133DA08091BB0080832091CB032F5F2093CB03B2
S1133DB040913D022417A8F43327842F99270197B3
S1133DC02817390749F48091E90382FD05C08091E1
S1133DD0A5038F7B8093A5038091A5038093BC00EA
S1133DE0B7C02091A503322F3E7F3093A503809165
S1133DF0E90381FF09C08D7F8093E903306130932B
S1133E00A5038091B90003C02E772093A503809168
S1133E10A5038093BC0081E08093320220919D022F
S1133E2030919E026091AF027091B00280910D02B8
S1133E30813079F0813020F0823009F089C060CF80
S1133E40109277020E94250880E00E94190F8DE0ED
S1133E505ACF80E00E94071D7BC040913D02209113
S1133E60A503941778F4E0919D02F0919E02E90F66
S1133E70F11D80818093BB009F5F9093CB032093BF
S1133E80BC0066C0922F9E7F9093A5038091E903A6
S1133E9081FF07C08D7F8093E90390619093A50310
S1133EA003C02E772093A5038091A5038093BC00C3
S1133EB081E08093320220919D0230919E026091B4
S1133EC0AF027091B00280910D02813061F08130B7
S1133ED018F08230E9F50BC00E94250880E00E94AA
S1133EE0190F8EE010CF80E00E94B51031C080E041
S1133EF00E94A3102DC08091E9038E7F8093E90373
S1133F009091A5039F7D9093A5038091B900887F2C
S1133F10883049F08091B900887F803121F081E0B8
S1133F200E94BB1D15C0392F30643093A5039091B6
S1133F30AF02990F20E080913302813009F421E02F
S1133F40922B9093BB0086E0809332023093BC00A6
S1133F50FF91EF91BF91AF919F918F917F916F915D
S1133F605F914F913F912F910F900FBE0F901F9033
S1133F701895ACE2B0E0EFEBFFE10C94AE22222EF8
S1133F80332E442E552E662E772E882E992EFE0122
S1133F903196A8E01192AA95E9F729823A824B82D8
S1133FA05C826D827E828F829886FE013996B8E0AB
S1133FB01192BA95E9F7A986BA86CB86DC86ED8696
S1133FC0FE860F87188B89819A81AB81BC8189A772
S1133FD09AA7ABA7BCA77C018D018FEF9FEFA0E050
S1133FE0B0E0E822F9220A231B2389A59AA5ABA5F0
S1133FF0BCA51D014424552489859A85AB85BC85BF
S11340008DA39EA3AFA3B8A75C016D018FEF9FEFB3
S1134010A0E0B0E0A822B922CA22DB228DA19EA191
S1134020AFA1B8A53D0188249924C801B701A60110
S113403095010E947B2269A37AA38BA39CA3C80148
S1134040B701A40193010E947B227B018C01C20170
S1134050B101A60195010E947B225B016C01C201A2
S1134060B101A40193010E947B223B014C01EA0CA3
S1134070FB1C0C1D1D1D89A19AA1ABA1BCA19D0116
S1134080442755272E0D3F1D401F511F2A153B0560
S11340904C055D0540F480E090E0A1E0B0E0680EDE
S11340A0791E8A1E9B1ECA01AA27BB27860D971D4F
S11340B0A81DB91D8D8F9E8FAF8FB8A3A90133277B
S11340C0222789A19AA1ABA1BCA1A070B070280F2E
S11340D0391F4A1F5B1F298F3A8F4B8F5C8FA98C26
S11340E0BA8CCB8CDC8CED8CFE8C0F8D18A1FE0170
S11340F0719698E011929A95E9F7ED8AFE8A0F8BF2
S1134100188F2D813E814F8158856DA17EA18FA18D
S113411098A50E947B223B014C012D853E854F854D
S1134120588969A57AA58BA59CA50E947B222D8917
S11341303E894F89588D260F371F481F591F260D5A
S1134140371D481D591D2D8B3E8B4F8B588F6D8805
S11341507E888F88988C2A2D3B2D4C2D5D2D662DC5
S1134160772D882D992DE2E1AC960C94CA22A0E11A
S1134170B0E0EDEBF0E20C94AE22222E332E442E6E
S1134180552E662E772E882E992E002309F466C0AC
S113419088E0FE01319611928A95E9F729833A83E2
S11341A04B835C836D837E838F829887E0E2E01B80
S11341B01E16CCF52D813E814F815885602F7727BF
S11341C067FD7095DA01C901062E04C0B695A7955E
S11341D0979587950A94D2F78D879E87AF87B88B7A
S11341E004C0220F331F441F551FEA95D2F789815B
S11341F09A81AB81BC8104C0B695A79597958795A4
S11342006A95D2F7282B392B4A2B5B2B29873A87BF
S11342104B875C8729843A844B845C846D847E84D8
S11342208F8498881BC01D861E861F86188A2E2F91
S1134230332727FD3095309521953F4F8D819E8101
S1134240AF81B88504C0B695A795979587952A95AB
S1134250D2F789879A87AB87BC87DCCF222D332D91
S1134260442D552D662D772D882D992DE2E16096EC
S11342700C94CA22A0E1B0E0E0E4F1E20C94AE2296
S1134280222E332E442E552E662E772E882E992ECE
S1134290002309F466C088E0FE01319611928A95E4
S11342A0E9F729833A834B835C836D837E838F8212
S11342B09887E0E2E01B1E16CCF529813A814B81F8
S11342C05C81602F772767FD7095DA01C901062E9E
S11342D004C0880F991FAA1FBB1F0A94D2F78987AD
S11342E09A87AB87BC8704C0569547953795279521
S11342F0EA95D2F78D819E81AF81B88504C0880F7D
S1134300991FAA1FBB1F6A95D2F7282B392B4A2B5A
S11343105B2B2D873E874F87588B29843A844B84A7
S11343205C846D847E848F8498881BC019861A8669
S11343301B861C862E2F332727FD3095309521951B
S11343403F4F89819A81AB81BC8104C0880F991F3A
S1134350AA1FBB1F2A95D2F78D879E87AF87B88B7C
S1134360DCCF222D332D442D552D662D772D882D10
S1134370992DE2E160960C94CA22A0E1B0E0E3EC4E
S1134380F1E20C94AE22222E332E442E552E662EAC
S1134390772E882E992E002309F46CC088E0FE0144
S11343A0319611928A95E9F729833A834B835C838A
S11343B06D837E838F829887E0E2E01B1E16CCF526
S11343C02D813E814F815885602F772767FD709539
S11343D0DA01C901062E04C0B595A795979587956E
S11343E00A94D2F78D879E87AF87B88B04C0220FBB
S11343F0331F441F551FEA95D2F789819A81AB81F7
S1134400BC8104C0B695A795979587956A95D2F710
S1134410282B392B4A2B5B2B29873A874B875C87C0
S113442029843A844B845C846D847E848F84988848
S113443021C08D819E81AF81B8859C01AD01550F4E
S1134440220B322FA9012D873E874F87588B2E2FA1
S1134450332727FD3095309521953F4F04C0B595FE
S1134460A795979587952A95D2F789879A87AB87D9
S1134470BC87D6CF222D332D442D552D662D772D77
S1134480882D992DE2E160960C94CA2297FB092E9F
S113449007260AD077FD04D04DD006D000201AF4A8
S11344A0709561957F4F0895F6F7909581959F4F8C
S11344B00895A1E21A2EAA1BBB1BFD010DC0AA1F61
S11344C0BB1FEE1FFF1FA217B307E407F50720F079
S11344D0A21BB30BE40BF50B661F771F881F991FF4
S11344E01A9469F760957095809590959B01AC013D
S11344F0BD01CF010895629FD001739FF001829F97
S1134500E00DF11D649FE00DF11D929FF00D839F5E
S1134510F00D749FF00D659FF00D9927729FB00DFB
S1134520E11DF91F639FB00DE11DF91FBD01CF010E
S113453011240895AA1BBB1B51E107C0AA1FBB1F6E
S1134540A617B70710F0A61BB70B881F991F5A951B
S1134550A9F780959095BC01CD0108952F923F92C3
S11345604F925F926F927F928F929F92AF92BF927F
S1134570CF92DF92EF92FF920F931F93CF93DF932B
S1134580CDB7DEB7CA1BDB0B0FB6F894DEBF0FBE88
S1134590CDBF09942A88398848885F846E847D84D5
S11345A08C849B84AA84B984C884DF80EE80FD80D7
S11345B00C811B81AA81B981CE0FD11D0FB6F8944D
S11345C0DEBF0FBECDBFED010895DC0101C06D93C8
S10D45D041505040E0F70895FFCF7A
S11345DA01FF470376034703FF02FFFF03FFFFFFC1
S10F45EA01FFFF06FFFF01FFFF010200BC
S9030000FC
