:100000000C94A8010C94C7010C94C7010C94C7016F
:100010000C94C7010C94C7010C94C7010C94C70140
:100020000C94C7010C9410130C94C7010C94C701D5
:100030000C94C7010C94C7010C94C7010C94C70120
:100040000C946E060C9450060C945A060C9464069C
:100050000C942D060C94C7010C94C7010C94C70195
:100060000C94C7010C941F040C94C7010C94F70462
:100070000C94C7010C94C7010C94C7010C94C701E0
:100080000C94C7010C94C7010C94C7010C94C701D0
:100090000C9410060C94C7010C9422060C944F1C6F
:1000A0000C94C7010C94C7010C94C7010C94C701B0
:1000B0000C94C7010C94C7010C94C7010C94C701A0
:1000C0000C94C7010C94C7010C94C7010C94C70190
:1000D0000C94C7010C94C7010C94C7010C94C70180
:1000E0000C94C7010C9480100C94C7010C94DC1084
:1000F0000C94AE100C9424100C94C7010C94F60FC1
:100100000C9452100C94C30F0C948B090C94C709D7
:100110000C947A090C94C7010C94C7010C94C70184
:10012000A413AF13BA139C14C414C614D414FB1430
:1001300038158D15BE15DF15411602175E1791177C
:10014000E5178F18B6189C13911900002110422052
:1001500063308440A550C660E770088129914AA1A8
:100160006BB18CC1ADD1CEE1EFF13112100273321F
:100170005222B5529442F772D662399318837BB3F8
:100180005AA3BDD39CC3FFF3DEE3622443342004AF
:100190000114E664C774A44485546AA54BB5288548
:1001A0000995EEE5CFF5ACC58DD5533672261116FF
:1001B0003006D776F6669556B4465BB77AA7199798
:1001C0003887DFF7FEE79DD7BCC7C448E558866887
:1001D000A7784008611802282338CCC9EDD98EE9E8
:1001E000AFF9488969990AA92BB9F55AD44AB77A5F
:1001F000966A711A500A333A122AFDDBDCCBBFFB38
:100200009EEB799B588B3BBB1AABA66C877CE44C6E
:10021000C55C222C033C600C411CAEED8FFDECCD87
:10022000CDDD2AAD0BBD688D499D977EB66ED55E3E
:10023000F44E133E322E511E700E9FFFBEEFDDDFD7
:10024000FCCF1BBF3AAF599F788F8891A981CAB163
:10025000EBA10CD12DC14EF16FE18010A100C23095
:10026000E3200450254046706760B9839893FBA350
:10027000DAB33DC31CD37FE35EF3B1029012F322E5
:10028000D2323542145277625672EAB5CBA5A895A0
:1002900089856EF54FE52CD50DC5E234C324A01435
:1002A00081046674476424540544DBA7FAB7998730
:1002B000B8975FE77EF71DC73CD7D326F236910685
:1002C000B01657667676154634564CD96DC90EF978
:1002D0002FE9C899E9898AB9ABA9445865480678D5
:1002E0002768C018E1088238A3287DCB5CDB3FEB90
:1002F0001EFBF98BD89BBBAB9ABB754A545A376A25
:10030000167AF10AD01AB32A923A2EFD0FED6CDD5F
:100310004DCDAABD8BADE89DC98D267C076C645C74
:10032000454CA23C832CE01CC10C1FEF3EFF5DCF6F
:100330007CDF9BAFBABFD98FF89F176E367E554EC4
:10034000745E932EB23ED10EF01E00020E060C0417
:1003500011241FBECFEFD1E4DEBFCDBF12E0A0E07D
:10036000B2E0EAE7FFE300E00BBF02C007900D92A6
:10037000A631B107D9F714E0A6E1B2E001C01D92A1
:10038000A339B107E1F70E94DA190C94BC1F0C9451
:1003900000008FB7F894992708958FBF0895282FEC
:1003A0009FB7F894E82FFF27E25CFD4F80818F3FD5
:1003B00081F4E0915504E21771F40BC02093B5036A
:1003C00004C0FF27E25CFD4F20832093550420E00A
:1003D00007C025E005C08091B5038F3F91F7EECFB0
:1003E000892F99278FBF822F9927089521E030E028
:1003F00002C0220F331F8A95E2F78091B402822B4C
:100400008093B402EBE6F0E08081282B2083E8E6BD
:10041000F0E080818160808380E090E0089521E0B9
:1004200030E002C0220F331F8A95E2F7922F909599
:100430008091B40289238093B402EBE6F0E08081DE
:10044000282B2083E8E6F0E080818160808380E0D3
:1004500090E00895EAE4F1E06927660FF11DE60FE8
:10046000F11DC895982F802D3196C8959025089537
:10047000982F80912202882389F5992379F531E01C
:10048000309322028091020280932302209117026E
:10049000822F817080933B02809107029091080225
:1004A0009093250280932402809118028093260263
:1004B00032273170267EE32FFF27EE0FFF1FED5FFF
:1004C000FD4F808191819093080280930702232B36
:1004D0002093170287E00E94CF01089580911702B0
:1004E00080FF02C08B7F01C08D7F8093170208952B
:1004F0001F931FB7F89480914D04882341F482E044
:100500000E94CF01882319F481E080934D04812F4C
:1005100099278FBF1F9108959FB7F8948091780312
:100520008A3011F020E006C020E0809192028430F1
:1005300009F421E0892F99278FBF222349F084E015
:100540000E94CF018FB7F89499271092160206C027
:100550008FB7F894992721E0209316028FBF089552
:100560000F931F93082F162F809192028130D9F09C
:10057000813038F0823009F44AC0833009F028C154
:1005800059C0002309F458C110929D0310929C0396
:1005900010927E031092B003109297021092F40210
:1005A0001092F30239C1002309F046C18091F30291
:1005B0009091F4020E942A029093F4028093F30235
:1005C00082E0809392021093B003143409F000C1CA
:1005D00025C18695869503C0809117028695817006
:1005E00009F0F6C080911702992311F0846001C0D0
:1005F00082608093170280911702877E88608093C3
:100600001702109218028FEF8093020215C1002387
:1006100009F0DEC0609397028091F3029091F4029A
:100620000E942A029093F4028093F30283E0809365
:10063000920202C180917E038F3F09F4C9C000235A
:1006400009F461C0823008F4C3C0E0919C03EE233A
:1006500009F4EBC04E2F4150E42FFF27E456FC4F26
:1006600082819927382F2227442311F4E2E002C027
:10067000E42FE150FF27E456FC4F82819927282B75
:10068000392B8091F3029091F4022817390709F071
:100690009FC080E00E943802309197028091E6026C
:1006A0002091E702982F9F5F963008F090E0921714
:1006B00071F0E82FFF27EA51FD4F32838F5F80935F
:1006C000E602863010F01092E6020E947802109244
:1006D0009D0310929C0394E09093920210927E03EB
:1006E0001092B003109297021092F4021092F3024B
:1006F000809127028D7F80932702809116028823A4
:1007000009F49AC084C0823008F44EC0E0919D0381
:10071000FF27E456FC4F8281482F5527342F209124
:100720001702822F8695869586958370992781304A
:10073000910519F00297F9F40EC0277E20612093ED
:100740001702442311F485E001C080E08093180271
:100750003093020210C0809118028F3260F4E09151
:100760000702F0910802E80FF11D40838091180202
:100770008F5F8093180280919D03E82FFF27E45636
:10078000FC4F62818F5F80939D03833010F0109245
:100790009D0377278091F3029091F4020E942A0230
:1007A0009093F4028093F30280919C03E82FFF273B
:1007B000E456FC4F12838F5F80939C03833010F0CC
:1007C00010929C0380917E038F5F80937E0334C0E0
:1007D00010929D0310929C0314E0109392021092C9
:1007E0007E031092B003109297021092F4021092BE
:1007F000F302809127028D7F8093270281E00E947F
:10080000380280911602882329F0109392020E94E8
:100810008C0212C0002381F081E009CF8091170281
:10082000982F917080FDD5CED7CE8091A0039927C7
:10083000382F222742E01CCF1F910F9108951F925D
:100840000F920FB60F9211242F933F934F935F9304
:100850006F937F938F939F93AF93BF93EF93FF9388
:100860008091C00087FF42C06091C600E091F50210
:10087000F091F602309719F180914B0490914C045D
:10088000E80FF91F6083019690934C0480934B040A
:1008900020915B0430915C048217930738F1109229
:1008A000F6021092F502809177038330F9F080917F
:1008B000C1008F778093C1001092770317C06E3705
:1008C00019F460E081E010C0809127026D3721F4B7
:1008D0008260809327020AC081FF05C08D7F8093CC
:1008E000270280E2682780E00E94B002FF91EF912A
:1008F000BF91AF919F918F917F916F915F914F9138
:100900003F912F910F900FBE0F901F9018952FB70A
:10091000F89433278093C600E0ECF0E08081806497
:1009200080832FBF0895FC016115710519F481E0E2
:1009300090E008958091AD029091AE02892B19F05C
:1009400085E090E008957093A4036093A303F0936F
:10095000AE02E093AD02109294021092930281E0F5
:10096000809395028091C00080648093C000809144
:10097000C10080648093C100808121E030E0309329
:100980009402209393020E94870480E090E00895EF
:10099000982F8D57823068F4809127028160809370
:1009A000270280E2892780937D038DE7809353029D
:1009B00002C09093530261E070E083E592E00E94F0
:1009C0009304992708958FB7F894992720912702C7
:1009D0002E7F209327022EE7209353028FBF61E0E2
:1009E00070E083E592E00E9493049927089578943B
:1009F0001F920F920FB60F921124FF920F931F9325
:100A00002F933F934F935F936F937F938F939F9316
:100A1000AF93BF93CF93DF93EF93FF932091930214
:100A2000309194028091A3039091A4032817390771
:100A300080F4E091AD02F091AE02E20FF31F8081ED
:100A40002F5F3F4F30939402209393020E948704BC
:100A5000D1C01092AE021092AD0210929502809118
:100A6000C1008F7B8093C100FFB6F894809127026C
:100A700080FF0EC08E7F8093270280917D0380933C
:100A8000530261E070E083E592E00E949304AFC0FE
:100A900080917803843009F48CC0853040F4823032
:100AA00021F18330B8F5813009F09CC00DC086304B
:100AB00009F48DC0863008F483C0873009F48EC0F5
:100AC000883009F08FC091C08091A8020E94C804AC
:100AD000082F83E0809378036091A80280915904E5
:100AE00090915A040E942A0210C08091B9030E947A
:100AF000C804082F83E0809378036091B903809144
:100B0000590490915A040E942A0290935A048093A7
:100B1000590466C0E091F802FF27EE0FFF1FEF5463
:100B2000FD4F80810E94C804082F1091F802C12F48
:100B3000DD27FE01EE0FFF1FEF54FD4F6081809116
:100B4000590490915A040E942A0290935A04809367
:100B500059042091A1022F5F2093A102113039F591
:100B600080911E02E0911902F0911A02E80FF11D26
:100B7000E0818F5F80931E0290911D02981730F4E0
:100B800082E08093B20240E050E002C04E2F552731
:100B9000DE01AA0FBB1FFD01E055FD4F80818230B1
:100BA00031F02F3F21F0AF54BD4F4C9319C084E07A
:100BB00012C0809159040E94C804082F85E00BC020
:100BC00080915A040E94C804082F86E004C00E9445
:100BD000E304082F87E08093780302C088E003C015
:100BE000002329F089E0809378030E9478028F2DFA
:100BF00099278FBFFF91EF91DF91CF91BF91AF9177
:100C00009F918F917F916F915F914F913F912F9124
:100C10001F910F91FF900F900FBE0F901F9018958E
:100C20001F920F920FB60F9211248F938091C800DC
:100C300087FF02C08091CE008F910F900FBE0F9062
:100C40001F90189578941F920F920FB60F9211244F
:100C50000F900FBE0F901F9018951F920F920FB616
:100C60000F9211248F939F938091BC038F5F809389
:100C7000BC0380919F029091A00201969093A002E4
:100C800080939F02892B29F48091F2028F5F8093D9
:100C9000F2029F918F910F900FBE0F901F901895A9
:100CA0001F920F920FB60F9211240F900FBE0F904C
:100CB0001F9018951F920F920FB60F9211240F904C
:100CC0000FBE0F901F9018951F920F920FB60F92A4
:100CD00011240F900FBE0F901F9018951F920F9226
:100CE0000FB60F9211240F900FBE0F901F90189502
:100CF000FC0182819927982F882721813327822B15
:100D0000932BE5E096958795EA95E1F781709070D1
:100D100008954FB7F89455272091E100622F209154
:100D2000E200722F2091E300822F2091E400922FA5
:100D30004FBF0895EF92FF920F931F93CF93DF93CE
:100D40007B018C018FB7F894C82FDD270E9489069C
:100D50009B01AC01C801B7016230710581059105A5
:100D600020F462E070E080E090E0260F371F481F1B
:100D7000591FDA01C901B093F800A093F7009093CE
:100D8000F6002093F50081E08093E0008091DF0081
:100D900081608093DF008FEF80930902CFBFDF91E6
:100DA000CF911F910F91FF90EF900895FB0121E0EB
:100DB00030E002C0220F331F8A95E2F7209584A508
:100DC000822384A70895CF93DF93EC010E947806D5
:100DD000882339F18A8129819927982F88273327F9
:100DE000822B932B87749C7C81549848D1F48F81FB
:100DF0004E812FB7F894332760910A0270910B024D
:100E00002FBF20E09927982F88275527842B952BD3
:100E10008617970709F021E081E02827822F99277C
:100E200002C080E090E0DF91CF910895FB0121E0C6
:100E300030E002C0220F331F8A95E2F784A5822397
:100E40009927089580916102823031F481E0809386
:100E500061028BE00E94CF010895EF92FF920F9301
:100E60001F937C018FB7F894992700917B03109111
:100E70007C030F5E1E4F10937C0300937B03015194
:100E800011408FBF8DE00E94CF01C801B7010E94C1
:100E9000201F44961F910F91FF90EF9008958FB7F8
:100EA000F89499272091BC00209372038FBF089576
:100EB0000F931F930FB7F89411270E944F0780914B
:100EC00072038E7F8069809372038093BC000FBF92
:100ED0001F910F91089590917203882311F09460EF
:100EE00001C09B7F909372038FEF80930902089556
:100EF000EF920F931F93AE2D99E0899FF00111247B
:100F0000E750FD4F408351836283738304831583CD
:100F100026833783A17080858E7F8A2B82608087AD
:100F20008FE00E94CF011F910F91EF9008950F93D2
:100F30001F930FB7F8941091A2020E9489069B019B
:100F4000AC018091E00083FF05C01F5F0E9489060D
:100F50009B01AC01802F99278FBF612F77278827AE
:100F60009927FAE1660F771F881F991FFA95D1F725
:100F7000E6E05695479537952795EA95D1F7622B88
:100F8000732B842B952B1F910F9108951F93CF9353
:100F9000DF93982F8FB7F894282F3327422F809113
:100FA0002B02882309F046C011E010932B02909386
:100FB00093032FBF8FB7F894C82FDD2780912C02A1
:100FC0008823C9F4589A599A1092B90088E98093F5
:100FD000B8001092BA001092BC000E944F0781E046
:100FE0000E946B07809172038E7F809372038093BF
:100FF000BC0010932C02CFBF8FB7F894C82FDD2709
:101000009C2F80911202813099F480912B028130C3
:1010100021F482E10E94CF0109C0823049F480911D
:1010200093038093120283E080932B02CFBF07C00B
:101030009FBF05C080919303891721F42FBF80E0E3
:1010400090E021C0E92FFF27E955FD4F80818F3FB8
:1010500089F4E0911102E91789F40CC09093100211
:1010600004C0FF27E955FD4F90839093110280E063
:1010700090E002C085E090E04FBF05C08091100273
:101080008F3F79F7EBCFDF91CF911F910895AF920A
:10109000BF92CF92DF92EF92FF920F931F930E9425
:1010A00097077B018C012091A9023091AA024091FF
:1010B000AB025091AC028091A3029091A402A09146
:1010C000A502B091A602820F931FA41FB51FE216BE
:1010D000F3060407150730F082179307A407B50736
:1010E00058F005C082179307A407B507E0F5E81686
:1010F000F9060A071B07B8F59C01AD012E193F0937
:10110000400B510B213060E0360760E0460762E09B
:10111000560768F180E090E0A0E0B2E0E80EF91E2A
:101120000A1F1B1FE092A902F092AA020093AB02D1
:101130001093AC0280E090E0A0E0BEEFE80EF91E54
:101140000A1F1B1F20503040404052402093A302F2
:101150003093A4024093A5025093A60220E030E011
:1011600040E052E014C020E030E040E050E08093E6
:10117000A9029093AA02A093AB02B093AC02109282
:10118000A3021092A4021092A5021092A602590185
:101190006A01B6E0AA0CBB1CCC1CDD1CBA95D1F7C9
:1011A000A6E0EE0CFF1C001F111FAA95D1F70E94AC
:1011B00089069B01AC012E5F3F4F4F4F5F4FDA0115
:1011C000C9018E199F09A00BB10B8A159B05AC05AF
:1011D000BD0530F4A80197012A0D3B1D4C1D5D1D76
:1011E0005093F4004093F3003093F2002093F10009
:1011F00082E08093E0008091DF0082608093DF00D6
:101200008FEF809309021F910F91FF90EF90DF9075
:10121000CF90BF90AF9008950F931F930FB7F8949E
:1012200011276093A9027093AA028093AB02909356
:10123000AC022093A3023093A4024093A5025093E2
:10124000A6020E9447080FBF1F910F910895AF9209
:10125000BF92CF92DF92EF92FF920F931F93F82EDF
:101260005A016B010E949707AB01BC01EE24960165
:1012700085018F2D0E9478071F910F91FF90EF90AD
:10128000DF90CF90BF90AF9008959FB7F894809172
:101290009202882319F484E080939202892F99277F
:1012A0008FBF9FB7F89480917803882319F48AE060
:1012B00080937803892F99278FBF0E948C0280E04A
:1012C00090E008958FB7F894282F3327922F8091BC
:1012D00078038A3041F080919202843021F02FBF50
:1012E00089E090E008959FBF83E00E94CF0180E0F5
:1012F00090E008951F920F920FB60F9211248F93D2
:101300008091A2028F5F8093A2028F910F900FBEF7
:101310000F901F9018951F920F920FB60F921124E5
:101320002F933F934F935F936F937F938F939F93ED
:10133000AF93BF93EF93FF938091DF008D7F8093F6
:10134000DF008FEF809309028091A3029091A402A5
:10135000A091A502B091A6020097A105B10521F4C4
:101360008EE00E94CF0102C00E944708FF91EF91DA
:10137000BF91AF919F918F917F916F915F914F91AD
:101380003F912F910F900FBE0F901F9018951F92B5
:101390000F920FB60F9211240F900FBE0F901F9057
:1013A00018952F923F924F925F926F927F928F92F9
:1013B0009F92AF92BF92CF92DF92EF92FF920F93E4
:1013C0001F93CF93DF932C0180915402882309F05F
:1013D0001EC18091B602853009F019C18091940335
:1013E000882309F014C1B20182E00E941607882305
:1013F00011F490E003C0F20196A59F708091F7026E
:10140000981729F09093F702906C90934501120180
:101410000894211C311CF1018181F201218140E0FD
:101420009927982F88273327822B932B87749C7CAE
:101430008154984809F441E04423A9F08091460181
:1014400099278F7190702091BA0340913A02240F2E
:10145000312D311D43E0359527954A95E1F7281741
:1014600039070CF4D4C089E080934201B20184E0D2
:101470000E941607882319F4C0E0D0E006C0D2010C
:101480008C918550E201C80FD11DF201808199270E
:10149000282F80938001809141018F71893021F044
:1014A00086E080934201B3C00EEFF02EF20E0FB72C
:1014B000F89411270E9489063B014C0182E0809339
:1014C00042010FBF8BE090E0A0E0B0E0680E791E13
:1014D0008A1E9B1E6F2D7727209709F47EC02881D6
:1014E000E9808A81AB809927AA27BB27BA2FA92F29
:1014F000982F8827332744275527522F44273327EF
:101500002227FF24002711278701FF24EE242E29FC
:101510003F29402B512BBB24CC24DD242A293B29F5
:101520004C295D29822B932BA42BB52B8619970967
:10153000A809B9098B83292F3A2F4B2F55272A83C6
:101540009D014427552729838B2F9927AA27BB273D
:101550008883AB01B10181E891E00E94AC1F86E075
:10156000809342012881E9808A81AB809927AA274C
:10157000BB27BA2FA92F982F882733274427552711
:10158000522F442733272227FF24002711278701C2
:10159000FF24EE242E293F29402B512BBB24CC24A1
:1015A000DD242A293B294C295D29822B932BA42B4E
:1015B000B52B860D971DA81DB91D8B83292F3A2F9A
:1015C0004B2F55272A839D014427552729838B2F8D
:1015D0009927AA27BB27888309C0AB01B10181E8FD
:1015E00091E00E94AC1F86E080934201F20184A545
:1015F000826084A760A671A682A693A686E08093E7
:10160000B60284E08093540280E090E002C085E05E
:1016100090E0DF91CF911F910F91FF90EF90DF90BD
:10162000CF90BF90AF909F908F907F906F905F9082
:101630004F903F902F90089521E02093AF02209388
:1016400073030E949A0608951F93982F8FB7F894FA
:10165000182F80912B02833009F04BC08091120229
:10166000891709F046C08091100220E030E08F3FDA
:1016700011F421E030E0232BF9F48F3F19F42FEF20
:1016800030E00EC0282F3327F901E955FD4F808146
:10169000809310028F3F11F4809311028FEF8083AB
:1016A000209393038FEF8093120281E080932B02AB
:1016B00082E10E94CF0119C081E080931202109252
:1016C0002B0280912C02813081F40E944F0780E030
:1016D0000E946B07809172038E76809372038093D1
:1016E000BC005898599810922C021FBF80E090E0DF
:1016F00003C01FBF81E090E01F9108951F93982FB2
:101700001FB7F89480912802823099F580910F02DA
:10171000891779F580910D0220E030E08F3F11F4B8
:1017200021E030E0232BF1F49FEF90930F028F3FE5
:1017300019F42FEF30E00DC0282F3327F901E25ABA
:10174000FD4F808180930D028F3F11F490930E0224
:1017500090832093590281E08093280289E00E94BF
:10176000CF0105C08FEF80930F021092280221E075
:1017700001C020E0812F99278FBF90E0213009F42C
:1017800091E081E09827892F99271F9108958093F0
:10179000BD03882311F484E001C081E080936102DD
:1017A0008BE00E94CF0108958F929F92AF92BF92DB
:1017B000CF92DF92EF92FF920F931F93CF93DF931D
:1017C00080919403882309F4F5C02FB7F894332748
:1017D0008091E900882E8091EA00982E8091EB009C
:1017E000A82E8091EC00B82E0091940310929403DF
:1017F0002FBF07FF0DC080915402833011F0873056
:1018000039F485E08093B60288E08093540252C098
:1018100080915402843009F04DC001FF4BC085E037
:101820008093B6021092540280913C02833019F4E6
:1018300010923C023FC0C0915604D0915704CE0193
:101840000E947806882379F18A8129819927982F27
:1018500088273327822B932B87749C7C815498484C
:1018600011F58F812E819927982F88273327822B76
:10187000932B8F5F9F4FB9F090E080917303882383
:1018800009F491E0992379F012E01093AF0281E01E
:10189000809373036EE370E080E090E00E949A060C
:1018A00010933C0207C010923C021092620280E04A
:1018B0000E94C70BC02FDD27C5FF41C08091540295
:1018C000863019F41092540202C08823C1F5E091C9
:1018D0008C04F0918D04003219F5F09046012FE14F
:1018E000F22280913A02982F969596952F2D291BDA
:1018F000820F80933A0284A5826084A780A691A675
:10190000A2A6B3A600918C0410918D04B80182E0C8
:101910000E94D606F80184A5886084A7F6A60BC0AD
:10192000BF0181E00E94D60660918C0470918D0405
:1019300083E00E94D60685E08093540204C0809123
:101940005402853089F4C4FF0FC02091BA038091FE
:1019500046018F71922F96959695891B280F20939B
:10196000BA0389E080935402C0FF0CC08091B60294
:10197000823041F4809154028250823018F483E026
:101980008093B602C3FF16C080915402863091F452
:10199000809155018F778093550110925402809168
:1019A0004101992787709070892B09F425C2809195
:1019B000410122C290915402992309F41DC2993029
:1019C00009F09EC140917B018091460187FF5EC076
:1019D000433008F45BC0842F99278A970CF056C0D7
:1019E000E0918C04F0918D0441934250552760E8BA
:1019F00071E0CF010E94AC1FE0918C04F0918D0446
:101A0000818190E08770823009F491E0992349F058
:101A100020E030E080913C02823081F421E030E02F
:101A20000DC08FB7F894282F332790E0809195034D
:101A3000833008F491E02FBF292F3327232B31F176
:101A4000E0917B01FF27E058FE4F8081E0918C04FC
:101A5000F0918D0485A785E08093B6021092540220
:101A6000E0908C04F0908D0467010894C11CD11C97
:101A7000F701818190E0282F3327277030702230C2
:101A8000310509F491E0992339F42EC085E0809363
:101A9000B60210925402ACC180913C02823009F02F
:101AA0002AC1F7019381E0915604F0915704838194
:101AB000981709F020C12230310509F01CC180912E
:101AC000DF008E7F8093DF008FEF809309021092FA
:101AD000730384A5816084A710923C021092620275
:101AE00080E00E94C70B07C180913C028823D1F49B
:101AF000C7010E94E3068823A9F085E08093B7021E
:101B000082E08093B8021092B902F601828180933C
:101B1000BA0287EB92E00E94D109882319F483E08E
:101B200080933C020E9489068B01C7010E94E30654
:101B3000882311F00A5C1F4F1093EF020093EE020E
:101B40000E948906061B170BB80110161106BCF47B
:101B500080916202882381F490E08091730388234E
:101B600009F491E0992359F0882777FD8095982F03
:101B70000E941C0B80E801C0806880936202F6011D
:101B8000808527819927582F44273327422B532BB1
:101B900080913D02282F3327F901EE0FFF1FEA55F0
:101BA000FC4F80819181709174038417950769F4CB
:101BB000F901E05BFB4F8081871709F467C0872F2D
:101BC0008F5F8093740380831DC000E010E080E08D
:101BD00090E0C6EAD3E0E0E5F4E0DF01682F9C0185
:101BE000888199818417950779F420933D0290911B
:101BF00074038C91891709F449C0892F8F5F8093F2
:101C000074038C9300E829C08081972F981B0917D3
:101C100010F4092F122F6F5FC901019611962296B9
:101C2000319685309105D1F66530B9F410933D02B7
:101C3000A12FBB27FD01EE0FFF1FEA55FC4F51837B
:101C40004083809174038F5F80937403FD01E05B98
:101C5000FB4F8083A257BB4F1C9290917403892F36
:101C60008F778F3779F40F3768F0E0E5F4E0292FAC
:101C7000207880818F6789132083319684E0E53551
:101C8000F807B9F780913D02282F3327F60192819A
:101C9000A22FBB27FD01E257FB4F808180FF07C0C9
:101CA000FD01E956FC4F8081981729F102C081603F
:101CB0008083A956BC4F9C93DFB6F894809195031E
:101CC0008330B0F4E091B803E80FE33008F0E3505C
:101CD000FF27EE0FFF1FE05DFD4F00811181F182B4
:101CE000E0828F5F809395038CE00E94CF017801A2
:101CF0008D2D99278FBFF0928D04E0928C046FC0D8
:101D0000292F2150233008F057C0892F825082306C
:101D100098F48091B602813079F49FEF90934F014F
:101D200080E880934E01809139018D7F8093390145
:101D30009093090282E010C0933089F48091B6023A
:101D4000833069F48DE580934E018FEF8093090213
:101D500086E08093420184E08093B60210C0223076
:101D600070F48091B602853051F493E09093420173
:101D700010924E018FEF809309029093B6029091DA
:101D80005402913069F48091B602833009F04EC05C
:101D9000809139018260809339019093B6021BC013
:101DA0009230E9F48091B602833011F510924E0121
:101DB0008FEF809309020FC0973089F480914E0411
:101DC0008064809348018091B602853021F484E0DC
:101DD0008093B60204C088E08093540204C08091CE
:101DE0005402883029F4109254028AE00E94CF01F4
:101DF000809154028823D1F48091B6028530B1F4E9
:101E000080919403882391F480913C02882371F49B
:101E100080916202882351F490E0809173038823BB
:101E200009F491E0992311F00E9422078091730335
:101E3000823009F077C010927303F090AF02F1E0A6
:101E4000FF1629F022E0F21609F06CC064C0C091C0
:101E5000EE02D091EF020E948906209162022038A2
:101E600029F4109262020E9422075CC08E01061BB8
:101E7000170B27FF03C010161106ECF0C0915F028C
:101E8000D091600280913C028823A9F4CE010E9487
:101E9000D1099927882351F4BE010E94D606F092F9
:101EA0003C02D0935704C093560431C09927F82EB2
:101EB000882369F102C065E0F62E20916202822F2C
:101EC00099278F77019779F4207822602093620216
:101ED0008CE890E00E942D07AA27BB27BC01CD010A
:101EE0000E941C0B1FC027FF0EC0101611065CF4C9
:101EF00080E880936202B801882777FD8095982F4B
:101F00000E941C0B02C0109262028F2D09C083E058
:101F10008093620207C010923C021092620280E03D
:101F20000E94C70B8FB7F894282F33278091560251
:101F3000813029F081E0809356022FBF41CC10926E
:101F400056022FBFDF91CF911F910F91FF90EF901D
:101F5000DF90CF90BF90AF909F908F9008958FB7F4
:101F6000F894282F332780915602882329F080681F
:101F7000809356022FBF089581E0809356022FBFB1
:101F80000E94D40B08951F920F920FB60F92112446
:101F90002F933F934F935F936F937F938F939F9371
:101FA000AF93BF93EF93FF938091DF008E7F809379
:101FB000DF008FEF8093090280917303813019F461
:101FC00082E0809373030E94AF0FFF91EF91BF9166
:101FD000AF919F918F917F916F915F914F913F91C1
:101FE0002F910F900FBE0F901F90189578941F920D
:101FF0000F920FB60F9211242F933F934F935F933D
:102000006F937F938F939F93AF93BF93EF93FF93C0
:102010002FB7F894332780919403826080939403C0
:102020002FBF0E94AF0FFF91EF91BF91AF919F9192
:102030008F917F916F915F914F913F912F910F9071
:102040000FBE0F901F90189578941F920F920FB6A5
:102050000F9211242F933F934F935F936F937F932E
:102060008F939F93AF93BF93EF93FF932FB7F89402
:102070003327809194038860809394032FBF0E943C
:10208000AF0FFF91EF91BF91AF919F918F917F9192
:102090006F915F914F913F912F910F900FBE0F90D5
:1020A0001F90189578941F920F920FB60F921124DB
:1020B0002F933F934F935F936F937F938F939F9350
:1020C000AF93BF93EF93FF932FB7F894332780918B
:1020D00094038160809394032FBF0E94AF0FFF9100
:1020E000EF91BF91AF919F918F917F916F915F9190
:1020F0004F913F912F910F900FBE0F901F90189509
:1021000078941F920F920FB60F9211242F933F9342
:102110004F935F936F937F938F939F93AF93BF93EF
:10212000EF93FF932FB7F89433278091940380683F
:10213000809394032FBF0E94AF0FFF91EF91BF9147
:10214000AF919F918F917F916F915F914F913F914F
:102150002F910F900FBE0F901F90189578941F929B
:102160000F920FB60F9211242F933F934F935F93CB
:102170006F937F938F939F93AF93BF93EF93FF934F
:102180002FB7F89433278091940380618093940350
:102190002FBF0E94AF0FFF91EF91BF91AF919F9121
:1021A0008F917F916F915F914F913F912F910F9000
:1021B0000FBE0F901F90189578941F920F920FB634
:1021C0000F9211242F933F934F935F936F937F93BD
:1021D0008F939F93AF93BF93EF93FF932FB7F89491
:1021E0003327809194038062809394032FBF0E94D1
:1021F000AF0FFF91EF91BF91AF919F918F917F9121
:102200006F915F914F913F912F910F900FBE0F9063
:102210001F9018958FB7F894282F33278091560276
:10222000815080935602803811F02FBF089581E0CD
:10223000809356022FBF0E94D40B08951F93FC0178
:102240008FE3828780912E028F5F80932E0283839B
:102250002FB7F8943327809156028F5F80935602F0
:102260002FBF80916102882311F015E00DC0F0931B
:102270007A03E093790381E0809361021092750301
:102280008BE00E94CF0110E00E940A11812F992754
:102290001F9108951F93CF93DF93182FFA01A22F58
:1022A0002D3118F086E090E08EC0EA0121968981F8
:1022B0002181B0E09927582F44273327422B532BF5
:1022C000CA0187749C7C8154984809F4B1E0BB230F
:1022D00049F4CA0180739070816498688183892F62
:1022E00099278983A35FA0832FB7F8943327809120
:1022F0000A0290910B022FBF8087892F992781872F
:102300002FB7F894332780910C022FBF992784832D
:10231000158213876683872F992787838FB7F89451
:10232000282F332780912802882371F482E080933C
:10233000280210920F022FBFCF010E941E11992771
:10234000182F882399F00FC02FBFF0935D02E09300
:102350005C028FB7F894C82FDD272C2F80912802BC
:10236000882399F406C080E00E947E0B812F992774
:102370002AC081E0809328021092590289E00E94CD
:10238000CF01CFBF80E090E01EC080915E028F3F02
:1023900089F4E0910E02EE2369F010C010920D0254
:1023A00004C0FF27E25AFD4F108210920E0280E017
:1023B00090E002C085E090E02FBF05C080910D0243
:1023C0008F3F79F7EBCFDF91CF911F910895AF92B7
:1023D000BF92CF92DF92EF92FF920F931F93CF9312
:1023E000DF935B016C01C0E0D0E0E9EFF2E06085D3
:1023F00061FFA5C02081318142815381E480F58055
:1024000006811781D601C501821B930BA40BB50B66
:102410008E159F05A007B10708F491C060FF03C0A7
:102420006D7F608708C02E0D3F1D401F511F208308
:10243000318342835383C13009F47DC0C13020F021
:10244000C23009F082C064C080919A02853009F0E0
:1024500059C0809196028823E1F5AFE6B2E0E1E849
:10246000F3E082E101900D928150E1F78FEF8093CC
:10247000690280936A0283E980936E028091F00280
:102480009091F102892B29F543E652E05093F10235
:102490004093F0028FE180936302809114028823BD
:1024A000A9F01092140222E16FEF7FEF83E90E94FE
:1024B0004A119927282F882349F081E0809314023C
:1024C0001092F1021092F002222319F481E080931D
:1024D000960210929A0280914F04882389F4809189
:1024E00087039927982F8827209188033327822BE9
:1024F000932B019680938803892F992780938703D4
:1025000010924F0480919A028F5F80939A021DC0AF
:10251000809196038F7780939603882321F489987E
:102520001092290212C080912902882321F481E0AF
:10253000809329020AC080E00E94C60706C0219647
:102540003996C330D10509F052CF8FE00E94CF01F8
:10255000DF91CF911F910F91FF90EF90DF90CF907F
:10256000BF90AF9008950F931F93182F042FE82F5B
:10257000FF27EE0FFF1FE051FD4F118210821092D6
:102580001402E091F002F091F102309721F0809175
:10259000BB0380FF15C081E08093140203C084E177
:1025A0000E94CF011123F1F4002339F42FB7F894DE
:1025B000332785B1805885B92FBF1092960212C07B
:1025C0006781868120812D5033277727762F6627D4
:1025D0009927682B792BAF0183850E944A118823A4
:1025E00009F3DDCF1F910F910895809176031D9B14
:1025F0000CC08823A1F481E08093760380E00E94E0
:10260000CF0185E00E94F6010895882341F01092E1
:10261000760381E00E94CF0185E00E940F020895B9
:102620001F920F920FB60F9211242F933F934F9347
:102630005F936F937F938F939F93AF93BF93EF932A
:10264000FF9320916B0093B18091B402892782237C
:1026500085FF02C00E94F512FF91EF91BF91AF91EB
:102660009F918F917F916F915F914F913F912F91AA
:102670000F900FBE0F901F9018951F93182F0E9458
:102680004F07809172038E7F8093720380E00E94D7
:102690006B07809172038093BC000E944F0781E01A
:1026A0000E946B07809172038093BC0081E080934D
:1026B0002C0280912D0290911302882319F0992306
:1026C00089F40BC0992371F40E94580780E00E949E
:1026D000240B112311F481E103C01093B50280E1B2
:1026E0000E94CF011F9108952F923F924F925F92C7
:1026F0006F927F928F929F92AF92BF92CF92DF9212
:10270000EF92FF920F931F93CF93DF93CDB7DEB776
:1027100029970FB6F894DEBF0FBECDBFE82FFF2775
:10272000E531F10508F010C6E057FF4FEE0FFF1F2F
:102730000590F491E02D09948091BB03882309F45E
:1027400003C620E031E0CFC50E94620999278823A3
:1027500009F4FAC5893009F4F7C580E0F3C50E9491
:1027600045099927882309F4EFC5893009F4ECC598
:1027700081E0E8C58FB7F89410924D04209178035A
:1027800040E0283009F441E030E0293009F431E03C
:10279000442311F4332351F010927803E091F802AE
:1027A000FF27EE0FFF1FE055FD4F108299278FBFC7
:1027B000442311F4332331F19FB7F8948091B90386
:1027C0008F5F8093B9038091A802833479F42091BC
:1027D000E7028091E602821779F0822F8F5F809363
:1027E000E702863048F01092E70206C0A0E04423DA
:1027F00009F4A1E071E002C0A0E070E0892F992700
:102800008FBF06C0222311F010E06CC0A0E070E082
:102810008FB7F8949927209116028FBF222341F099
:102820008FB7F89499272AE0209378038FBF42C08E
:102830008FB7F89499276091B0024091B2028FBF90
:102840008FB7F894282F332750E09091E6028091BB
:10285000E702981709F451E02FBF552341F566238D
:1028600031F55FB7F89482E08093B0028FB7F894A7
:10287000282F332740E09091E6028091E7029817D5
:1028800009F441E02FBF442311F080E006C0E0913D
:10289000E702FF27EA51FD4F82818093B10283E472
:1028A0008093A8021092F802852F99270EC04150FC
:1028B000423010F010E00BC08FB7F894992725E450
:1028C0002093A80221E02093F8028FBF11E0772324
:1028D00049F08FB7F8949927A0931F028FBF86E025
:1028E0000E94CF018FB7F894E82EFF2480917803DF
:1028F0008A3021F40E948C02EFBE26C5EFBE112360
:1029000009F422C52FB7F894332710925A04109275
:1029100059041092A10281E0809378032FBF0E9496
:10292000E304882309F410C58FB7F894992729E0A8
:10293000209378038FBFE9C08091C1008F7B809383
:10294000C1008091C1008F778093C10010927703FE
:10295000109295028091C10088608093C10080919F
:10296000C10080618093C1008FEF80930902809144
:10297000C10080688093C1008FB7F89499271092A6
:1029800078031092920299C285E0DCC48091C10064
:10299000877F8093C1008091C1008F7E8093C100AA
:1029A0008FEF80930902D0C410921C0210921B0278
:1029B0008FB7F894992720911F028FBF8091200232
:1029C000811123E080912102882309F4BDC482375C
:1029D00009F0BAC4222309F0B4C48FB7F89488E18F
:1029E00090E029E00FB6F894A895809360000FBEA0
:1029F00020936000FFCF8FB7F8949927209123028E
:102A0000E0902402F09025023091260210913B02C2
:102A10008FBF2223A9F0223799F4333089F4F701CC
:102A20008081823569F48181833551F482818435D6
:102A300039F4F0923902E092380288E00E94CF0126
:102A40008FB7F894E12FFF27EE0FFF1FED5FFD4FCB
:102A5000F182E08220911702112311F02B7F01C037
:102A60002D7F209317021092220299278FBF6CC4EA
:102A7000E0913802F09139028AE5808382E4818313
:102A800080E58283409138025091390280911B0287
:102A900090911C02892B09F054C42FB7F894332766
:102AA00010921E0210921F0250931A0240931902B4
:102AB00082E090E090931C0280931B0242E74093D7
:102AC00021021092200283E080931D022FBF8FB756
:102AD000F894282F3327809178038A3011F42FBF80
:102AE00017C02FBF9FB7F8948091B202882311F0CE
:102AF00020E006C081E08093B2024093B30221E05F
:102B0000892F99278FBF222319F00E9478021CC4B5
:102B100010921C0210921B0214C42FB7F894332792
:102B20008091590280930F0282E0809328022FBF88
:102B300080910F02882309F007C480915C02909174
:102B40005D020E941E11082F1127002309F4FCC307
:102B500080E00E947E0B20915C0230915D028091AA
:102B60001402882309F0F0C36091F0027091F10221
:102B70006217730709F0E8C3402FDEC3809161023A
:102B800010926102853091F4409183035527542FB0
:102B90004427809184039927482B592B6627772750
:102BA00080E00E94270910929A02CEC3863009F471
:102BB000CBC3873009F4C8C380936102C5C32FB764
:102BC000F8943327809156028F5F809356022FBF6F
:102BD000409161024130A1F5809175038F5F809330
:102BE0007503863068F52091790330917A038091DE
:102BF00062028823E1F490E080917303882309F452
:102C000091E09923A1F03093600220935F024093FA
:102C1000620286E391E00E942D07AA27BB27BC0130
:102C2000CD010E941C0B1092BD0383E004C085E01F
:102C30008093BD0382E0809361020E940A1184C3E5
:102C4000109261020E940A111091BD03E090790375
:102C5000F0907A03F70182858F3309F075C380E025
:102C60000E947E0B80911402882309F06DC360914D
:102C7000F0027091F1026E157F0509F065C3412FD6
:102C80005BC38FB7F894282F33278091950388234F
:102C900009F455C3E091B803FF27EE0FFF1FE05D75
:102CA000FD4F008111812FBFF80182859781268118
:102CB0008F3309F071C06385892F9927582F4427D6
:102CC000822F9927482B592B8FB7F8949927209159
:102CD0000A0230910B028FBF4217530721F04F5F5A
:102CE0005F4F09F073C0633909F070C0F801848543
:102CF00025859927582F44273327422B532B809122
:102D000081039927982F8827209182033327822BCC
:102D1000932B8417950700F540938203852F9927FD
:102D200080938103868527859927982F88273327C5
:102D3000822B932B80938403492F55274093830341
:102D4000542F44279927482B592B6627772780E053
:102D50000E94270910929A02F801828923899927F3
:102D6000582F44273327422B532B809187039927D1
:102D7000982F8827209188033327822B932B841741
:102D8000950720F540938803852F99278093870323
:102D900081E080934F041AC0892F9927582F442728
:102DA000822F9927482B592B8FB7F8949927209178
:102DB0000A0230910B028FBF4217530719F04F5F81
:102DC0005F4F21F48FB7F89499278FBF9FB7F8947E
:102DD0008091B803E82FFF27EE0FFF1FE05DFD4F46
:102DE000118300838F5F8093B803833010F01092BB
:102DF000B80380919503815080939503892F99277B
:102E00008FBF3FCFEFB6E982F89420909B023090BD
:102E10009C0240909D0250909E0266247724882454
:102E2000EEE4AE2E73E8B72ECC24DD24EE24FF248E
:102E300000E010E0222D332D442D552D662D772DE9
:102E4000882D90E00E949F1D2A833B834C835D83E5
:102E50006E837F8388879987822E932EA42EB52E2A
:102E60002401350100E20E949D1EA22EB32EC42E25
:102E7000D52EA301920156954795379527952A0D92
:102E80003B1D4C1D5D1D57FF05C05F772F5F3F4FFA
:102E90004F4F5F4F20939B0230939C0240939D02C3
:102EA00050939E02F9808F2D99278FBF8FB7F8948A
:102EB000992730937C0320937B03D8CD80915502D2
:102EC000882361F52091B1033091B2034091B3039F
:102ED0005091B403EFB7F894FF276091A902709165
:102EE000AA028091AB029091AC02E090A302F09014
:102EF000A4020091A5021091A6026E0D7F1D801FF5
:102F0000911FEFBF2093B1033093B2034093B303FB
:102F10005093B403109255020E940C090E94970727
:102F200041C00E9497075B016C018091DF008D7F9B
:102F30008093DF008FEF809309022FEF3FEF4FEF79
:102F40005FE760E0E9EFF2E0808581FF1CC08081EF
:102F50009181A281B38186017501E81AF90A0A0BF1
:102F60001B0BD801C701E480F58006811781E81AA0
:102F7000F90A0A0B1B0BE216F306040715071CF4EB
:102F8000A801970161E0399603E0E431F007E1F62A
:102F9000662309F4D9C112161306140615062CF07F
:102FA000C601B5010E94E711CFC12093B103309350
:102FB000B2034093B3035093B40381E0809355026E
:102FC000C601B5010E940C09BFC1F0902902809191
:102FD0002A02882359F015E0F11611F483E001C0AC
:102FE00085E08093290210922A022EC081E080930E
:102FF00029020E94580780E00E94240B80919603CA
:103000008150809396038823A9F4A0905A02B0902F
:103010005B02CC24DD240E949707AB01BC0131E0A8
:10302000E32E9601850182E00E94780780E8809374
:1030300096030AC0803841F48998809113038D7FEC
:10304000809313031092960363E0F61689F4E091DF
:103050009A02E53068F4EF5FE0939A02E150FF27AF
:10306000EE0FFF1FE757FC4F84E3818382E18083EB
:1030700080912902853019F0833009F065C18FB73E
:10308000F894282F332780911302882319F02FBF3B
:1030900081E042C02FBF8FB7F894992750912C023E
:1030A000513089F542E040932C028FBF2FB7F8943E
:1030B000332780E490E0909399028093980286E30E
:1030C00092E0909358028093570240932F0283E03E
:1030D000809358041092A50350932D022FBF0E9495
:1030E0004F072FB7F8943327809172038F7A816A44
:1030F0008093720394E090932C028093BC002FBFC6
:103100001092B50221C1552321F48FBF84E090E0D5
:1031100003C08FBF85E090E08093B502E2C080914C
:103120002902823021F0843009F00EC10EC083E004
:10313000809329020E949707AB01BC0191E0E92E20
:1031400005E510E020E030E00DC085E08093290225
:103150000E949707AB01BC0181E0E82E06E110E078
:1031600020E030E081E00E947807EEC02FB7F894AD
:103170003327809193038093120283E080932B0284
:103180002FBF209112028FB7F89499272093130232
:103190008FBF222309F0D8C080912902833061F0CB
:1031A000843020F4823009F04AC044C0843009F4ED
:1031B00043C0853009F043C08FB7F894282F3327D8
:1031C00080911302882309F042C02FBF8FB7F89473
:1031D000992750912C02513039F542E040932C024E
:1031E0008FBF2FB7F894332780E490E09093990233
:1031F0008093980286E392E090935802809357025E
:1032000040932F0283E0809358041092A5035093BB
:103210002D022FBF0E944F072FB7F89433278091BC
:1032200072038F7A816A45C0552311F48FBF4FC056
:103230008FBF51C083EF01C085EF809336028FB7F7
:10324000F894282F332780911302882321F02FBF71
:1032500081E090E042C02FBF8FB7F894282F33272A
:1032600040912C02413081F582E080932C022FBFE7
:103270002FB7F894332780E490E0909399028093DD
:10328000980286E392E0909358028093570240930D
:103290002F02409358041092A50310922D022FBFC5
:1032A0000E944F072FB7F8943327809172038F7EC7
:1032B000816E8093720394E090932C028093BC0003
:1032C0002FBF80E090E009C0442321F42FBF84E0A9
:1032D00090E003C02FBF85E090E08093B502882383
:1032E00099F180E12FC09091BB03832F8923A1F036
:1032F000E22FFF27EE0FFF1FE051FD4F11821082DA
:10330000832F809598239093BB03222329F4109256
:103310009602330F21E0E7CF2F5F2830A8F4330F58
:10332000E2CF80911402E82FFF27EE0FFF1FE0513C
:10333000FD4F6081718141E00E94B31205C02FBF33
:1033400003C088E00E94CF0129960FB6F894DEBF33
:103350000FBECDBFDF91CF911F910F91FF90EF90E6
:10336000DF90CF90BF90AF909F908F907F906F90A5
:103370005F904F903F902F9008958091B5038F3FBD
:10338000B1F0282F3327F901E25CFD4F8081809353
:10339000B5038F3F11F4809355048FEF80832F3F47
:1033A00031F0822F0E94741381E090E0089580E054
:1033B00090E00895EF92FF920F931F93EFB6F89469
:1033C00014BE88E10FB6F8948093600010926000FC
:1033D0000FBE45E150E06FEF70E08EE392E00E9497
:1033E000B51F8FEF8093B50380935504819A8DE5C7
:1033F00094E090938D0480938C041092BA038AE534
:1034000080933A02809135018061809335018091EB
:103410003401806180933401809133018061809315
:1034200033018091320180618093320185B78068D9
:1034300085BF85B7806885BF80E8809361008FE095
:103440008093610091E09093810080E28093B600C8
:103450009093B100E0E0F0E06FEF7FEFA0E0BEEF0F
:103460008091B2008823E1F740918400509185005B
:103470008091B2008034E1F7209184003091850082
:10348000241B350B6217730708F4B9012E173F0789
:1034900008F4F901CF01861B970B029720F4AF5F68
:1034A000A23330F007C0E0E0F0E06FEF7FEFA0E084
:1034B000B150B1F63093B7032093B6031092B10028
:1034C0008091B10080938100809181008093B6004B
:1034D0008091B600992783709070892BC9F78091ED
:1034E000DF008D7F8093DF008091DC008D7F8093F3
:1034F000DC008091DF008E7F8093DF008091DC0014
:103500008E7F8093DC0080E28093B6008091DC00A7
:103510008F7C80638093DC008FEF80930902809121
:10352000DF0088608093DF00809180008C7F809333
:10353000800080918100807E8260809381008091F4
:103540006F00816080936F00569A5E9A269A279A40
:10355000269A279A2E982F982E982F980E94BD1958
:103560008823E1F74FEF4093A70280917F0390916A
:1035700080030F9730F48FE090E090938003809366
:103580007F0380915A0290915B020F9730F48FE095
:1035900090E090935B0280935A0287EC80934901FC
:1035A00080EC809345011092F70289E180934E04EC
:1035B0008091440180628093440189E580934801B1
:1035C000809139018260809339018091DC00877F8E
:1035D00088608093DC0091E0F92EF092B602209191
:1035E0000002309101022F5F3F4FC901AA27BB277C
:1035F0002150304080939B0290939C02A0939D02A7
:10360000B0939E028EEB93E0909331028093300250
:103610008F9690933302809332028CE194E09093E2
:103620003502809334028FEF9FEF9093A70380932E
:10363000A6039093A9038093A8039093AB03809370
:10364000AA039093AD038093AC039093AF03809350
:10365000AE032295207F20932E0240935E0212E05B
:1036600006E06091B6037091B7038827992728E098
:1036700037E040E050E00E94341F2150304020935A
:10368000C400832F99278093C5001093C000009336
:10369000C2001092C1002093CC008093CD00109303
:1036A000C8000093CA001092C9001092B002109294
:1036B000B2028AE0809378031092A1021092A802CD
:1036C0001092B90310925A041092590410924D04AA
:1036D0001092F80210929D0310929C0384E0809354
:1036E000920210927E031092B003109297021092F1
:1036F000F4021092F3021092E7021092E6021D9B70
:1037000009C0F092760380E00E94CF0185E00E941C
:10371000F60108C01092760381E00E94CF0185E097
:103720000E940F020E94BD198823E1F78E2D992770
:103730008FBF78941092840381E0809383038091FB
:1037400000029091010280938603892F992780932C
:1037500085032FB7F8943327809156028F5F8093AB
:1037600056022FBF80916102882381F48091540218
:10377000882361F48091B602853041F083E0809324
:1037800054020E94AF0F85E0809361020E940A11EB
:103790008FB7F894082F112767C08091090287FF1F
:1037A0005AC08091BC0082FF03C040E050E002C0DC
:1037B00045E050E080914E0187FF03C0A2E0B0E0F9
:1037C00002C0A5E0B0E08091DC0085FF03C063E0AB
:1037D00070E002C065E070E080916F008E7219F0B9
:1037E00020E030E002C025E030E08091C10083FDA0
:1037F0000FC08091C10084FD0BC08091C90083FD82
:1038000007C08091C90084FD03C0E5E0F0E002C07C
:10381000E0E0F0E0322F262F8A2F4A1708F4842F99
:103820009927821708F4282F822F9927831708F4E5
:10383000382F832F99278E1708F4E82FFF27E0935E
:10384000090283B7FF27E7FDF095E65BFC4FE491A3
:10385000807F8E2B83BF83B7816083BF78948895E8
:10386000F89483B78E7F83BF8091B5038F3F09F4AF
:1038700094CF282F3327F901E25CFD4F808180939C
:10388000B5038F3F11F4809355048FEF80832F3F52
:1038900009F483CF0FBF822F0E94741379CF1F9238
:1038A0000F920FB60F9211242F933F934F935F9374
:1038B0006F937F938F939F93AF93BF93EF93FF93F8
:1038C0000E944F0780912C02843009F4FAC08630A0
:1038D00021F0833009F022C16EC09091B900987F29
:1038E00080912D02813081F5903409F062C083E02F
:1038F00080932C022091A50380912F02281708F4B1
:1039000073C090917203292F2E7F209372038091B0
:10391000580481FF09C08D7F809358042061209353
:1039200072038091B90003C09E77909372038091D7
:1039300072038093BC0081E080932C02809113027B
:10394000882309F0EBC086C0983199F583E0809315
:103950002C029091A50380912F0220917203981759
:1039600008F482C0922F9E7F909372038091580436
:1039700081FF07C08D7F80935804906190937203FC
:1039800003C02E7720937203809172038093BC0052
:1039900081E080932C0280911302882309F0BEC03D
:1039A0000E94580780E00E94240B81E10E94CF0111
:1039B000B5C084E09BC080912D029091A503813019
:1039C00009F04CC0E0915702F0915802E90FF11D47
:1039D0008091BB0080832091A5032F5F2093A503D6
:1039E00080912F022817A0F43327992701972817D1
:1039F000390749F48091580482FD05C08091720313
:103A00008F7B80937203809172038093BC0086C089
:103A100090917203292F2E7F209372038091580476
:103A200081FF09C08D7F8093580420612093720329
:103A30008091B90003C09E779093720380917203C6
:103A40008093BC0081E080932C0280911302882334
:103A500009F064C01092B50280E1A8CF80912F02D6
:103A600020917203981778F4E0915702F091580270
:103A7000E90FF11D80818093BB009F5F9093A503A8
:103A80002093BC004BC0922F9E7F90937203809135
:103A9000580481FF07C08D7F8093580490619093F4
:103AA000720303C02E772093720380917203809378
:103AB000BC0081E080932C0280911302882371F571
:103AC0006FCF809158048E7F809358049091720339
:103AD0009F7D909372038091B900887F883049F070
:103AE0008091B900887F803121F081E00E943D13F0
:103AF00015C0392F30643093720390919802990F5A
:103B000020E080912D02813009F421E0922B9093E6
:103B1000BB0086E080932C023093BC00FF91EF91B4
:103B2000BF91AF919F918F917F916F915F914F91D5
:103B30003F912F910F900FBE0F901F901895ACE200
:103B4000B0E0E5EAFDE10C94751F222E332E442EE1
:103B5000552E662E772E882E992EFE013196A8E0DE
:103B60001192AA95E9F729823A824B825C826D8292
:103B70007E828F829886FE013996B8E01192BA95BE
:103B8000E9F7A986BA86CB86DC86ED86FE860F87A6
:103B9000188B89819A81AB81BC8189A79AA7ABA731
:103BA000BCA77C018D018FEF9FEFA0E0B0E0E82281
:103BB000F9220A231B2389A59AA5ABA5BCA51D0143
:103BC0004424552489859A85AB85BC858DA39EA305
:103BD000AFA3B8A75C016D018FEF9FEFA0E0B0E04D
:103BE000A822B922CA22DB228DA19EA1AFA1B8A52D
:103BF0003D0188249924C801B701A60195010E94BE
:103C0000561F69A37AA38BA39CA3C801B701A40183
:103C100093010E94561F7B018C01C201B101A601D4
:103C200095010E94561F5B016C01C201B101A40104
:103C300093010E94561F3B014C01EA0CFB1C0C1D1A
:103C40001D1D89A19AA1ABA1BCA19D0144275527A7
:103C50002E0D3F1D401F511F2A153B054C055D05CC
:103C600040F480E090E0A1E0B0E0680E791E8A1E8A
:103C70009B1ECA01AA27BB27860D971DA81DB91D2B
:103C80008D8F9E8FAF8FB8A3A9013327222789A1DB
:103C90009AA1ABA1BCA1A070B070280F391F4A1F18
:103CA0005B1F298F3A8F4B8F5C8FA98CBA8CCB8C82
:103CB000DC8CED8CFE8C0F8D18A1FE01719698E0C6
:103CC00011929A95E9F7ED8AFE8A0F8B188F2D8154
:103CD0003E814F8158856DA17EA18FA198A50E943C
:103CE000561F3B014C012D853E854F85588969A59E
:103CF0007AA58BA59CA50E94561F2D893E894F89C8
:103D0000588D260F371F481F591F260D371D481D78
:103D1000591D2D8B3E8B4F8B588F6D887E888F88D9
:103D2000988C2A2D3B2D4C2D5D2D662D772D882DC1
:103D3000992DE2E1AC960C94911FA0E1B0E0E3EA8A
:103D4000FEE10C94751F222E332E442E552E662E26
:103D5000772E882E992E002309F466C088E0FE0194
:103D6000319611928A95E9F729833A834B835C83D4
:103D70006D837E838F829887E0E2E01B1E16CCF570
:103D80002D813E814F815885602F772767FD709583
:103D9000DA01C901062E04C0B695A79597958795B7
:103DA0000A94D2F78D879E87AF87B88B04C0220F05
:103DB000331F441F551FEA95D2F789819A81AB8141
:103DC000BC8104C0B695A795979587956A95D2F75B
:103DD000282B392B4A2B5B2B29873A874B875C870B
:103DE00029843A844B845C846D847E848F84988893
:103DF0001BC01D861E861F86188A2E2F332727FD7F
:103E00003095309521953F4F8D819E81AF81B8854A
:103E100004C0B695A795979587952A95D2F7898777
:103E20009A87AB87BC87DCCF222D332D442D552DAF
:103E3000662D772D882D992DE2E160960C94911FC7
:103E4000AA1BBB1B51E107C0AA1FBB1FA617B707C0
:103E500010F0A61BB70B881F991F5A95A9F78095DC
:103E60009095BC01CD010895A1E21A2EAA1BBB1B9F
:103E7000FD010DC0AA1FBB1FEE1FFF1FA217B30736
:103E8000E407F50720F0A21BB30BE40BF50B661F4C
:103E9000771F881F991F1A9469F760957095809510
:103EA00090959B01AC01BD01CF010895629FD001A7
:103EB000739FF001829FE00DF11D649FE00DF11DE5
:103EC000929FF00D839FF00D749FF00D659FF00D94
:103ED0009927729FB00DE11DF91F639FB00DE11D81
:103EE000F91FBD01CF01112408952F923F924F92E7
:103EF0005F926F927F928F929F92AF92BF92CF927A
:103F0000DF92EF92FF920F931F93CF93DF93CDB782
:103F1000DEB7CA1BDB0B0FB6F894DEBF0FBECDBFFA
:103F200009942A88398848885F846E847D848C84CB
:103F30009B84AA84B984C884DF80EE80FD800C81D4
:103F40001B81AA81B981CE0FD11D0FB6F894DEBFB7
:103F50000FBECDBFED010895FB01DC0102C0019051
:103F60000D9241505040D8F70895DC0101C06D9387
:0A3F700041505040E0F70895FFCFE4
:103F7A000100FF140343031403FF010026FFFFFFA0
:063F8A00FFFF01FF010032
:00000001FF
