:100000000C94B1010C94D0010C94D0010C94D0014B
:100010000C94D0010C94D0010C94D0010C94D0011C
:100020000C94D0010C94D0120C94D0010C94D001FB
:100030000C94D0010C94D0010C94D0010C94D001FC
:100040000C9473070C9455070C945F070C94690784
:100050000C9432070C94D0010C94D0010C94D00174
:100060000C94D0010C9447020C94D0010C945902CA
:100070000C94D0010C94D0010C94D0010C94D001BC
:100080000C94D0010C94D0010C94D0010C94D001AC
:100090000C9459040C94D0010C9419060C94D001C2
:1000A0000C94D0010C94D0010C94D0010C94D0018C
:1000B0000C94D0010C94D0010C94D0010C94D0017C
:1000C0000C94D0010C94D0010C94D0010C94D0016C
:1000D0000C94D0010C94D0010C94D0010C94D0015C
:1000E0000C94D0010C9497170C94D0010C94F31736
:1000F0000C9421180C94C5170C94D0010C943B1748
:100100000C9469170C94100F0C9408170C944C0F56
:100110000C94FF0E0C94D0010C94D0010C94D001DF
:100120005F286228652868286B286E287128742843
:1001300077288F28C428C728CA280E2911291429EE
:100140001729C02CCB2C5328F42C022D052D59280F
:10015000ED2DFB2D712E742E772E7A2E000021109E
:10016000422063308440A550C660E7700881299121
:100170004AA16BB18CC1ADD1CEE1EFF131121002C9
:1001800073325222B5529442F772D6623993188371
:100190007BB35AA3BDD39CC3FFF3DEE36224433495
:1001A00020040114E664C774A44485546AA54BB5C1
:1001B00028850995EEE5CFF5ACC58DD55336722669
:1001C00011163006D776F6669556B4465BB77AA711
:1001D00019973887DFF7FEE79DD7BCC7C448E558B5
:1001E0008668A7784008611802282338CCC9EDD961
:1001F0008EE9AFF9488969990AA92BB9F55AD44A09
:10020000B77A966A711A500A333A122AFDDBDCCBB0
:10021000BFFB9EEB799B588B3BBB1AABA66C877CD4
:10022000E44CC55C222C033C600C411CAEED8FFD00
:10023000ECCDCDDD2AAD0BBD688D499D977EB66EA8
:10024000D55EF44E133E322E511E700E9FFFBEEF50
:10025000DDDFFCCF1BBF3AAF599F788F8891A98112
:10026000CAB1EBA10CD12DC14EF16FE18010A100FC
:10027000C230E3200450254046706760B9839893EC
:10028000FBA3DAB33DC31CD37FE35EF3B10290124C
:10029000F322D2323542145277625672EAB5CBA5B8
:1002A000A89589856EF54FE52CD50DC5E234C3249C
:1002B000A01481046674476424540544DBA7FAB78C
:1002C0009987B8975FE77EF71DC73CD7D326F236EC
:1002D0009106B01657667676154634564CD96DC9D8
:1002E0000EF92FE9C899E9898AB9ABA9445865483C
:1002F00006782768C018E1088238A3287DCB5CDB2C
:100300003FEB1EFBF98BD89BBBAB9ABB754A545A8B
:10031000376A167AF10AD01AB32A923A2EFD0FEDF7
:100320006CDD4DCDAABD8BADE89DC98D267C076CDB
:10033000645C454CA23C832CE01CC10C1FEF3EFFCB
:100340005DCF7CDF9BAFBABFD98FF89F176E367E2B
:10035000554E745E932EB23ED10EF01E00020E0674
:100360000C0411241FBECFEFD1E4DEBFCDBF12E0DD
:10037000A0E0B2E0E0EFF7E600E00BBF02C00790BC
:100380000D92A831B107D9F71AE1A8E1B2E001C096
:100390001D92AD3FB107E1F70E94B62E0C94F733E2
:1003A0000C9400008FB7F894992708958FBF089593
:1003B000282F9FB7F894E82FFF27EA5FFC4F808132
:1003C0008F3F81F4E0915F1AE21771F40BC0209324
:1003D000331304C0FF27EA5FFC4F208320935F1A8A
:1003E00020E007C025E005C0809133138F3F91F7CF
:1003F000EECF892F99278FBF822F9927089585E007
:100400000E94D8019927089588E00E94D801992771
:1004100008958BE00E94D8019927089582E10E94F7
:10042000D8019927089521E030E002C0220F331F40
:100430008A95E2F78091CB04822B8093CB04EBE684
:10044000F0E08081282B2083E8E6F0E08081816065
:10045000808380E090E0089521E030E002C0220F28
:10046000331F8A95E2F7922F90958091CB048923D0
:100470008093CB04EBE6F0E08081282B2083E8E634
:10048000F0E080818160808380E090E008951F9299
:100490000F920FB60F9211248F938091C00087FFA7
:1004A00002C08091C6008F910F900FBE0F901F90D9
:1004B000189578941F920F920FB60F9211240F90F7
:1004C0000FBE0F901F901895ECE5F1E06927660FBD
:1004D000F11DE60FF11DC895982F802D3196C89516
:1004E00090250895982F80912402882389F59923D7
:1004F00079F531E030932402809102028093250245
:1005000020911902822F817080930003809107024D
:1005100090910802909327028093260280911A02FC
:100520008093280232273170267EE32FFF27EE0FBB
:10053000FF1FED5FFD4F80819181909308028093B2
:100540000702232B2093190287E00E94D801089507
:100550008091190280FF02C08B7F01C08D7F809344
:10056000190208951F931FB7F8948091C41488232B
:1005700041F482E00E94D801882319F481E080933D
:10058000C414812F99278FBF1F9108959FB7F894A6
:1005900080918C0C8A3011F020E006C020E0809120
:1005A0002504843009F421E0892F99278FBF222365
:1005B00049F084E00E94D8018FB7F89499271092EF
:1005C000180206C08FB7F894992721E020931802EB
:1005D0008FBF08950F931F93082F162F8091250426
:1005E0008130D9F0813038F0823009F44AC083304C
:1005F00009F028C159C0002309F458C110920F1303
:1006000010920E131092960C109229131092A004BF
:1006100010927F0510927E0539C1002309F046C172
:1006200080917E0590917F050E94640290937F05E2
:1006300080937E0582E0809325041093291314345F
:1006400009F000C125C18695869503C080911902E5
:100650008695817009F0F6C080911902992311F0F6
:10066000846001C082608093190280911902877EA4
:1006700088608093190210921A028FEF8093020211
:1006800015C1002309F0DEC06093A00480917E05AF
:1006900090917F050E94640290937F0580937E0570
:1006A00083E08093250402C18091960C8F3F09F46A
:1006B000C9C0002309F461C0823008F4C3C0E091CE
:1006C0000E13EE2309F4EBC04E2F4150E42FFF2709
:1006D000E25FFC4E82819927382F2227442311F4B0
:1006E000E2E002C0E42FE150FF27E25FFC4E82818E
:1006F0009927282B392B80917E0590917F0528170B
:10070000390709F09FC080E00E9472023091A00476
:1007100080916B0520916C05982F9F5F963008F0B3
:1007200090E0921771F0E82FFF27E559FA4F3283D6
:100730008F5F80936B05863010F010926B050E94DE
:10074000B20210920F1310920E1394E090932504AE
:100750001092960C109229131092A00410927F050B
:1007600010927E05809129028D7F809329028091CD
:100770001802882309F49AC084C0823008F44EC05D
:10078000E0910F13FF27E25FFC4E8281482F55272F
:10079000342F20911902822F869586958695837035
:1007A00099278130910519F00297F9F40EC0277E40
:1007B000206120931902442311F485E001C080E0F8
:1007C00080931A023093020210C080911A02873778
:1007D00060F4E0910702F0910802E80FF11D4083F8
:1007E00080911A028F5F80931A0280910F13E82F75
:1007F000FF27E25FFC4E62818F5F80930F1383308F
:1008000010F010920F13772780917E0590917F054D
:100810000E94640290937F0580937E0580910E1361
:10082000E82FFF27E25FFC4E12838F5F80930E1349
:10083000833010F010920E138091960C8F5F80938E
:10084000960C34C010920F1310920E1314E01093F4
:1008500025041092960C109229131092A004109265
:100860007F0510927E05809129028D7F8093290259
:1008700081E00E94720280911802882329F010936F
:1008800025040E94C60212C0002381F081E009CF36
:1008900080911902982F917080FDD5CED7CE80918E
:1008A00012139927382F222742E01CCF1F910F9156
:1008B00008951F920F920FB60F9211242F933F931A
:1008C0004F935F936F937F938F939F93AF93BF9358
:1008D000EF93FF938091C80087FF42C06091CE00E4
:1008E000E0918005F0918105309719F18091C21453
:1008F0009091C314E80FF91F608301969093C3147D
:100900008093C21420917D1A30917E1A821793072A
:1009100038F1109281051092800580915B0C833034
:10092000F9F08091C9008F778093C90010925B0C19
:1009300017C06E3719F460E081E010C08091290281
:100940006D3721F48260809329020AC081FF05C0BF
:100950008D7F8093290280E2682780E00E94EA026E
:10096000FF91EF91BF91AF919F918F917F916F9187
:100970005F914F913F912F910F900FBE0F901F905D
:1009800018952FB7F89433278093CE00E8ECF0E069
:100990008081806480832FBF0895FC0161157105FB
:1009A00019F481E090E008958091C4049091C50409
:1009B000892B19F085E090E0089570931C136093E3
:1009C0001B13F093C504E093C40410929E0410928C
:1009D0009D0481E080939F048091C800806480938F
:1009E000C8008091C90080648093C900808121E0A3
:1009F00030E030939E0420939D040E94C10480E067
:100A000090E00895982F8D57823068F480912902E4
:100A100081608093290280E289278093910C8DE781
:100A20008093380302C09093380361E070E088E35C
:100A300093E00E94CD04992708958FB7F8949927E1
:100A4000209129022E7F209329022EE7209338033C
:100A50008FBF61E070E088E393E00E94CD049927A6
:100A600008951F93CF93DF938FB7F8941092C41417
:100A700020918C0C40E0283009F441E030E029302E
:100A800009F431E0442311F4332351F010928C0C1B
:100A9000E091F205FF27EE0FFF1FE953FB4F108295
:100AA00099278FBF442311F4332331F19FB7F89472
:100AB00080913B138F5F80933B138091BD048334FF
:100AC00079F420916C0580916B05821779F0822F63
:100AD0008F5F80936C05863048F010926C0506C0DD
:100AE000A0E0442309F4A1E071E002C0A0E070E0BE
:100AF000892F99278FBF06C0222311F010E06CC008
:100B0000A0E070E08FB7F8949927209118028FBF6A
:100B1000222341F08FB7F89499272AE020938C0C78
:100B20008FBF42C08FB7F89499276091C704409156
:100B3000C9048FBF8FB7F894282F332750E09091C6
:100B40006B0580916C05981709F451E02FBF552370
:100B500041F5662331F55FB7F89482E08093C704CE
:100B60008FB7F894282F332740E090916B05809140
:100B70006C05981709F441E02FBF442311F080E081
:100B800006C0E0916C05FF27E559FA4F82818093FA
:100B9000C80483E48093BD041092F205852F992741
:100BA0000EC04150423010F010E00BC08FB7F894E7
:100BB000992725E42093BD0421E02093F2058FBFFF
:100BC00011E0772349F08FB7F8949927A093210279
:100BD0008FBF86E00E94D8018FB7F894C82FDD2719
:100BE00080918C0C8A3021F40E94C602CFBF1DC0B8
:100BF000CFBF1123D1F02FB7F894332710927B1A6F
:100C000010927A1A1092B50481E080938C0C2FBF59
:100C10000E941D05882349F08FB7F894992729E091
:100C200020938C0C8FBF0E94B202DF91CF911F9155
:100C3000089578941F920F920FB60F921124FF928D
:100C40000F931F932F933F934F935F936F937F93D4
:100C50008F939F93AF93BF93CF93DF93EF93FF93C4
:100C600020919D0430919E0480911B1390911C1340
:100C70002817390780F4E091C404F091C504E20F0D
:100C8000F31F80812F5F3F4F30939E0420939D047C
:100C90000E94C104D1C01092C5041092C4041092E5
:100CA0009F048091C9008F7B8093C900FFB6F894A0
:100CB0008091290280FF0EC08E7F8093290280914F
:100CC000910C8093380361E070E088E393E00E9428
:100CD000CD04AFC080918C0C843009F48CC0853079
:100CE00040F4823021F18330B8F5813009F09CC0A6
:100CF0000DC0863009F48DC0863008F483C087307B
:100D000009F48EC0883009F08FC091C08091BD0475
:100D10000E940205082F83E080938C0C6091BD0433
:100D200080917A1A90917B1A0E94640210C080917F
:100D30003B130E940205082F83E080938C0C609186
:100D40003B1380917A1A90917B1A0E9464029093CF
:100D50007B1A80937A1A66C0E091F205FF27EE0FA6
:100D6000FF1FE853FB4F80810E940205082F10915E
:100D7000F205C12FDD27FE01EE0FFF1FE853FB4FE9
:100D8000608180917A1A90917B1A0E9464029093FC
:100D90007B1A80937A1A2091B5042F5F2093B504B3
:100DA000113039F580912002E0911B02F0911C0274
:100DB000E80FF11DE0818F5F8093200290911F0268
:100DC000981730F482E08093C90440E050E002C0FC
:100DD0004E2F5527DE01AA0FBB1FFD01E953FB4F24
:100DE0008081823031F02F3F21F0A853BB4F4C93CC
:100DF00019C084E012C080917A1A0E940205082F5F
:100E000085E00BC080917B1A0E940205082F86E0C6
:100E100004C00E941D05082F87E080938C0C02C03F
:100E200088E003C0002329F089E080938C0C0E94A5
:100E3000B2028F2D99278FBFFF91EF91DF91CF9154
:100E4000BF91AF919F918F917F916F915F914F91E2
:100E50003F912F911F910F91FF900F900FBE0F9018
:100E60001F9018951F920F920FB60F9211248F9317
:100E70009F93809155138F5F809355138091B20497
:100E80009091B30401969093B3048093B204892B9C
:100E900029F480917D058F5F80937D059F918F91CF
:100EA0000F900FBE0F901F9018951F920F920FB6C4
:100EB0000F9211240F900FBE0F901F9018951F9244
:100EC0000F920FB60F9211240F900FBE0F901F902C
:100ED00018951F920F920FB60F9211240F900FBE0C
:100EE0000F901F9018951F920F920FB60F9211241A
:100EF0000F900FBE0F901F901895582F80911D02D4
:100F000090911E02892B19F085E090E008952FB78B
:100F1000F894552309F446C0109220021092210241
:100F200070931C0260931B0282E090E090931E027B
:100F300080931D025093230210922202523709F02F
:100F400040E080E0840F80931F02822F99278FBF9B
:100F50008FB7F894282F332780918C0C8A3011F4A6
:100F60002FBF19C02FBF9FB7F8948091C904882361
:100F700011F020E006C081E08093C9045093CA04B8
:100F800021E0892F99278FBF222329F00E94B202E6
:100F900080E090E0089510921E0210921D0281E000
:100FA00090E0089585E080932002109221027093D2
:100FB0001C0260931B0282E090E090931E028093DB
:100FC0001D02109223021092220285E0495FBACFDF
:100FD000CF93DF93382FDA01253618F082E090E0C6
:100FE0000FC0FA0135966183872F9927EA018D8317
:100FF00036832483422FBD0180E00E947D0799271C
:10100000DF91CF910895CF93DF93582FDB0182308A
:1010100018F081E090E038C0C82FDD27CC0FDD1F2D
:10102000C25DDC4E88819981892B19F085E090E0C2
:101030002BC0798368839B012B5F3F4FF901448369
:1010400080911602823018F480E090E01DC0F90112
:101050008681FB0165817727762F6627F90121813B
:101060003327622B732B50931602242FAD010E945D
:10107000E8079927282F882329F082E08093160219
:1010800019821882822F9927DF91CF91089580913C
:1010900036039927982F8827209137033327822BEF
:1010A000932B019680933703892F992780933603DA
:1010B000409158028FEF809372198093711983E6E3
:1010C000809377196CE679E180E00E940308882319
:1010D00019F481E080932B028FB7F89499272EB1F1
:1010E00030E223272EB98FBF08958FEF80935B03E3
:1010F00080935A0389E8809360034CE065E573E0D0
:1011000081E00E940308882319F481E0809348025B
:101110000895653618F080E090E008950C960895E3
:10112000685F0E948908009709F00896089568E0B2
:101130000E948908089562E00E9489080895AC0120
:10114000209136022F3018F081E090E008958091D0
:101150003502E82FFF27EE0FFF1FE751FD4E5183A9
:1011600040838F5F809335028F3011F410923502E7
:101170002F5F2093360280E090E008950B9608954B
:10118000FC0182819927982F882721813327822B80
:10119000932B75E0969587957A95E1F7817090701D
:1011A00008954FB7F89455272091E100622F2091C0
:1011B000E200722F2091E300822F2091E400922F11
:1011C0004FBF0895EF92FF920F931F93CF93DF933A
:1011D0007B018C018FB7F894C82FDD270E94D108BE
:1011E0009B01AC01C801B701623071058105910511
:1011F00020F462E070E080E090E0260F371F481F87
:10120000591FDA01C901B093F400A093F300909341
:10121000F2002093F10082E08093E0008091DF00F3
:1012200082608093DF008FEF80930902CFBFDF9150
:10123000CF911F910F91FF90EF90089580935613D7
:10124000882311F484E001C081E0809323048FE0BF
:101250000E94D8010895FB01EC58FF4F21E030E0D7
:1012600002C0220F331F8A95E2F7209580818223E6
:1012700080830895CF93DF93EC010E94C0088823F8
:1012800039F18A8129819927982F88273327822B42
:10129000932B87749C7C81549848D1F48F814E8124
:1012A0002FB7F894332760910A0270910B022FBF79
:1012B00020E09927982F88275527842B952B861770
:1012C000970709F021E081E02827822F992702C0A3
:1012D00080E090E0DF91CF910895FB01EC58FF4F43
:1012E00021E030E002C0220F331F8A95E2F78081AF
:1012F000822399270895EF92FF920F931F937C0109
:101300008FB7F894992700918F0C1091900C0F5E75
:101310001E4F1093900C00938F0C015111408FBF02
:1013200081E10E94D801C801B7010E946733449649
:101330001F910F91FF90EF900895EF920F931F93DD
:10134000AE2D99E0899FF0011124ED50FA4F4083B2
:101350005183628373830483158326833783A1704B
:1013600080858E7F8A2B826080878AE00E94D801E8
:101370001F910F91EF9008950F931F930FB7F8945B
:101380001091B6040E94D1089B01AC018091E0004D
:1013900083FF05C01F5F0E94D1089B01AC01802F15
:1013A00099278FBF612F772788279927FAE1660F42
:1013B000771F881F991FFA95D1F7E6E05695479554
:1013C00037952795EA95D1F7622B732B842B952BB4
:1013D0001F910F91089520914E03222319F440E0AC
:1013E00050E016C080917C1AE82FFF27EE0FFF1FF8
:1013F000E053FD4F40815181118210822150209392
:101400004E038F5F80937C1A8A3011F410927C1AFD
:10141000CA010895AC0120914B022A3018F081E0F6
:1014200090E0089580914A02E82FFF27EE0FFF1FFA
:10143000E652FB4F518340838F5F80934A028A308C
:1014400011F410924A022F5F20934B0280E090E04B
:101450000895AC0120914E032A3018F081E090E00D
:10146000089580917C1A682F620F712D711DFB0108
:101470006A30710508F03A97EE0FFF1FE053FD4FF9
:10148000518340832F5F20934E0380E090E00895C6
:10149000AC01209154032A3018F081E090E00895C7
:1014A0008091FE02682F620F712D711DFB016A3061
:1014B000710508F03A97EE0FFF1FE45CFC4E518374
:1014C00040832F5F2093540380E090E00895AC01A7
:1014D000E3E8F5E080E090E09C01858180FF05C0B5
:1014E000808191818417950741F0C90101963B964F
:1014F0008A30910589F72FEF30E0C90108950E94E5
:10150000670A8F3F91F099272BE030E0829FF0012E
:10151000839FF00D929FF00D1124ED57FA4F8581B6
:1015200081FF03C08781908508958FEF9FEF089515
:101530000E94670A8F3F19F481E090E00895282FF8
:1015400033278BE090E0289FF001299FF00D389F12
:10155000F00D1124ED57FA4F85818860858380E076
:1015600090E008952F923F924F925F926F927F92F8
:101570008F929F92AF92BF92CF92DF92EF92FF92A3
:101580000F931F93CF93DF93CDB7DEB729970FB695
:10159000F894DEBF0FBECDBF6FB76983F89420907B
:1015A000AD043090AE044090AF045090B004662477
:1015B00077248824EEE4AE2E73E8B72ECC24DD2405
:1015C000EE24FF2400E010E0222D332D442D552D74
:1015D000662D772D882D90E00E94BB312A833B83B6
:1015E0004C835D836E837F8388879987822E932EB9
:1015F000A42EB52E2401350100E20E94B932A22E9C
:10160000B32EC42ED52EA30192015695479537953A
:1016100027952A0D3B1D4C1D5D1D57FF05C05F77AB
:101620002F5F3F4F4F4F5F4F2093AD043093AE0479
:101630004093AF045093B004E9818E2F99278FBF58
:10164000CA01B90129960FB6F894DEBF0FBECDBF0F
:10165000DF91CF911F910F91FF90EF90DF90CF908E
:10166000BF90AF909F908F907F906F905F904F90C2
:101670003F902F9008950E94B20ADC01CB0108959B
:10168000AF92BF92CF92DF92EF92FF920F931F9390
:10169000F82E5A016B010E94BC09AB01BC01F1E0BC
:1016A000EF2E960185018F2D0E949D091F910F91AC
:1016B000FF90EF90DF90CF90BF90AF9008956E5F56
:1016C0000E948908009709F002960895FC0127817D
:1016D0003085C901A3E0880F991FAA95E1F7820F11
:1016E000931F860F971F6AE070E00E946733708730
:1016F00067830895FC0161859285662329F48AE059
:10170000989FB001112409C077278AE0989FC001F3
:1017100011240E947B3311861286CF010E94660B32
:10172000089580913402E82FFF27EE0FFF1FE75145
:10173000FD4E0190F081E02D20913602222351F0E0
:101740008F5F809334028F3011F410923402215055
:1017500020933602CF010895AC012091EF042C3084
:1017600018F081E090E008958091B104682F620F35
:10177000712D711DFB016C30710508F03C97EE0F67
:10178000FF1FED55F34F518340832F5F2093EF04EC
:1017900080E090E00895AC012091EE042C3018F028
:1017A00081E090E0089580915413682F620F712DAD
:1017B000711DFB016C30710508F03C97EE0FFF1FA7
:1017C000EE59F54E518340832F5F2093EE0480E065
:1017D00090E008950F931F93CF93DF93EC01892B33
:1017E000E9F020911313309114138FEF2F3F380736
:1017F000A9F08091E602813019F4198218820BC099
:101800000091151310911613C9010E947F0A080F49
:10181000191F1983088380E090E002C081E090E006
:10182000DF91CF911F910F910895FC0180818D5020
:10183000992708950E94150C8850992708952091A2
:101840005403222319F440E050E016C08091FE02B8
:10185000E82FFF27EE0FFF1FE45CFC4E4081518113
:10186000118210822150209354038F5F8093FE02D7
:101870008A3011F41092FE02CA010895AC01209141
:101880003F022A3018F081E090E0089580913E02F6
:10189000E82FFF27EE0FFF1FE753F34F51834083DD
:1018A0008F5F80933E028A3011F410923E022F5FC8
:1018B00020933F0280E090E008958FB7F894282F9E
:1018C0003327922F80918C0C8A3041F0809125042F
:1018D000843021F02FBF89E090E008959FBF83E01E
:1018E0000E94D80180E090E00895EF92FF920F935C
:1018F0001F930E94BC09DC01CB01E0902006F09010
:101900002106009122061091230640914F0250912A
:1019100050026091510270915202411551056105CA
:101920007105C1F03FB7F8942091B20720FD0BC0BC
:101930002E7F2093B2078E199F09A00BB10B481B75
:10194000590B6A0B7B0B832F99278FBF85E00E9471
:10195000400B05C0809128068D7F809328061F913B
:101960000F91FF90EF9008959BE0899FF001112463
:10197000ED57FA4F7183608312821382148285E0DF
:10198000858316821086178208954F925F927F9208
:101990008F929F92AF92BF92CF92DF92EF92FF927F
:1019A0000F931F93CF93DF93CDB7DEB722970FB678
:1019B000F894DEBF0FBECDBF782EC62E882E992498
:1019C0008BE090E0889EF001899EF00D989EF00DCE
:1019D0001124ED57FA4F858182FF03C062838B7F0C
:1019E00085838281DC2CD81AC28283818F5F8383B6
:1019F000DD2021F084818D0D8150848383812481B9
:101A0000820F912D911D039724F422E02D1508F0EB
:101A100050C0A080B18073E8472E75E0572EF201C8
:101A2000808191818A159B05D1F5858180FF37C022
:101A30008260858363811481160F133008F413E0EC
:101A4000F201068189E0089F700111247727882719
:101A500099272AEF30E040E050E00E943C33212FEC
:101A60003327442755270E948E33C701820F911DCB
:101A70006AE070E00E947B33F20166831382148275
:101A8000662341F0772784EC99E00E947B336B3F1B
:101A9000710510F06FEF7FEFC2010E94660B2BE023
:101AA00030E0420E531E31EF431635E0530609F085
:101AB000B6CF8AE08D15B8F48BE090E0889EF001F7
:101AC000899EF00D989EF00D1124ED57FA4FFA8380
:101AD000E98360817181872D0E94B40CE981FA81CC
:101AE000C28281E0838322960FB6F894DEBF0FBED8
:101AF000CDBFDF91CF911F910F91FF90EF90DF90BD
:101B0000CF90BF90AF909F908F907F905F904F90BD
:101B1000089580E090E0E8E8F5E09C01808180FF96
:101B200008C0C90101963B968A309105B1F72FEFA5
:101B300030E0C9010895982FAFEF60E070E040E019
:101B400050E0E8E8F5E08081282F332720FF0BC024
:101B500021FF09C023FD07C02281338126173707E3
:101B600010F0A42FB9014F5F5F4F3B964A305105EB
:101B700051F7892F99276817790718F48FEF90E0AC
:101B800008958A2F99270895AC01309103038FEFB0
:101B90004F3F580711F020E012C0832F9927089576
:101BA000E22FFF27A3E0EE0FFF1FAA95E1F7E35313
:101BB000FC4F808191818417950719F02F5F2317BF
:101BC00079F7822F992708951F93CF93DF93162FCC
:101BD000C0E0D0E062E60E945F0BFC0180818123BF
:101BE000811711F4C1E0D0E0CE01DF91CF911F91B8
:101BF00008952FB7F894332790930B0280930A022D
:101C00002FBF0895AF92BF92CF92DF92EF92FF92D3
:101C10000F931F930E94BC097B018C012091BE048D
:101C20003091BF044091C0045091C1048091B70429
:101C30009091B804A091B904B091BA04820F931F97
:101C4000A41FB51FE216F3060407150730F082172C
:101C50009307A407B50758F005C082179307A40798
:101C6000B507E0F5E816F9060A071B07B8F59C0169
:101C7000AD012E193F09400B510B213060E03607B2
:101C800060E0460762E0560768F180E090E0A0E07F
:101C9000B2E0E80EF91E0A1F1B1FE092BE04F0928C
:101CA000BF040093C0041093C10480E090E0A0E062
:101CB000BEEFE80EF91E0A1F1B1F205030404040A7
:101CC00052402093B7043093B8044093B904509322
:101CD000BA0420E030E040E052E014C020E030E000
:101CE00040E050E08093BE049093BF04A093C004F2
:101CF000B093C1041092B7041092B8041092B904C2
:101D00001092BA0459016A0186E0AA0CBB1CCC1CD3
:101D1000DD1C8A95D1F7B6E0EE0CFF1C001F111FE9
:101D2000BA95D1F70E94D1089B01AC012E5F3F4FBD
:101D30004F4F5F4FDA01C9018E199F09A00BB10BFC
:101D40008A159B05AC05BD0530F4A80197012A0D45
:101D50003B1D4C1D5D1D5093F8004093F7003093E0
:101D6000F6002093F50081E08093E0008091DF0091
:101D700081608093DF008FEF809309021F910F91A4
:101D8000FF90EF90DF90CF90BF90AF9008950F93AA
:101D90001F930FB7F89411276093BE047093BF048C
:101DA0008093C0049093C1042093B7043093B80487
:101DB0004093B9045093BA040E94020E0FBF1F91C2
:101DC0000F9108959FB7F89480912504882319F402
:101DD00084E080932504892F99278FBF9FB7F894BB
:101DE00080918C0C882319F48AE080938C0C892FC5
:101DF00099278FBF0E94C60280E090E008951F924D
:101E00000F920FB60F9211248F938091B6048F5FBB
:101E10008093B6048F910F900FBE0F901F9018956E
:101E20001F920F920FB60F9211242F933F934F934F
:101E30005F936F937F938F939F93AF93BF93EF9332
:101E4000FF938091DF008E7F8093DF008FEF809380
:101E500009028091B7049091B804A091B904B0919F
:101E6000BA040097A105B10521F489E00E94D801C8
:101E700002C00E94020EFF91EF91BF91AF919F911E
:101E80008F917F916F915F914F913F912F910F9023
:101E90000FBE0F901F9018951F920F920FB60F92C2
:101EA00011240F900FBE0F901F901895CF93DF93C2
:101EB0001092480290914B0220E0992309F421E00E
:101EC000222349F580914902E82FFF27EE0FFF1FDB
:101ED000E652FB4F0190F081E02D222351F48F5FF9
:101EE000809349028A3011F41092490291509093E4
:101EF0004B02309781F0C5E5D3E0DF0187E70D9015
:101F000009928150E1F7CF010E94290A882319F430
:101F10008DE10E94D801DF91CF9108952F923F92D9
:101F20004F925F926F927F928F929F92AF92BF92E9
:101F3000CF92DF92EF92FF920F931F93CF93DF9395
:101F40004C0180914D03882309F02DC18091F0044C
:101F5000853009F028C18091E812882309F023C157
:101F6000B40182E00E946D09882311F490E00BC057
:101F700025E730E0820E931EF40191812BE83FEFBC
:101F8000820E931E9F708091F105981729F090930F
:101F9000F105906C9093450114010894211C311CAB
:101FA000F1018181F401218140E09927982F882750
:101FB0003327822B932B87749C7C8154984809F497
:101FC00041E04423A9F08091460199278F719070D8
:101FD000209152134091FF02240F312D311D43E017
:101FE000359527954A95E1F7281739070CF4DBC09A
:101FF00089E080934201B40184E00E946D09882346
:1020000019F4C0E0D0E006C0D4018C918550E40101
:10201000C80FD11DF40180819927282F809380015A
:10202000809141018F71893021F086E080934201D7
:10203000BAC00EEFF02EF20E0FB7F89411270E94DF
:10204000D1082B013C0182E0809342010FBF8BE05D
:1020500090E0A0E0B0E0480E591E6A1E7B1E6F2D76
:102060007727209709F47EC02881E9808A81AB8098
:102070009927AA27BB27BA2FA92F982F882733275C
:1020800044275527522F442733272227FF24002790
:1020900011278701FF24EE242E293F29402B512BA5
:1020A000BB24CC24DD242A293B294C295D29822B01
:1020B000932BA42BB52B84199509A609B7098B83FB
:1020C000292F3A2F4B2F55272A839D014427552727
:1020D00029838B2F9927AA27BB278883AB01B101BE
:1020E00081E891E00E94E73386E0809342012881F5
:1020F000E9808A81AB809927AA27BB27BA2FA92F0D
:10210000982F8827332744275527522F44273327D2
:102110002227FF24002711278701FF24EE242E29E0
:102120003F29402B512BBB24CC24DD242A293B29D9
:102130004C295D29822B932BA42BB52B840D951D47
:10214000A61DB71D8B83292F3A2F4B2F55272A8386
:102150009D014427552729838B2F9927AA27BB2721
:10216000888309C0AB01B10181E891E00E94E733A7
:1021700086E080934201F401EC58FF4F8081826039
:102180008083A0E7B0E08A0E9B1EF401408251825A
:102190006282738286E08093F00484E080934D0332
:1021A00080E090E002C085E090E0DF91CF911F9148
:1021B0000F91FF90EF90DF90CF90BF90AF909F90E6
:1021C0008F907F906F905F904F903F902F900895E9
:1021D00021E02093C6042093AC070E94E2080895F2
:1021E0000F931F93FC0100810D50112762E00E94A4
:1021F0008908FC01208133272F703070C901880FB6
:10220000991F820F931F081B0250802F99271F913F
:102210000F9108951F93982F1FB7F8948091300263
:10222000823099F580910F02891779F580910D021E
:1022300020E030E08F3F11F421E030E0232BF1F477
:102240009FEF90930F028F3F19F42FEF30E00DC0F6
:10225000282F3327F901E453FC4F808180930D022E
:102260008F3F11F490930E0290832093510381E0ED
:10227000809330028DE00E94D80105C08FEF8093DB
:102280000F021092300221E001C020E0812F992737
:102290008FBF90E0213009F491E081E09827892FE9
:1022A00099271F910895EF92FF920F931F938091AA
:1022B000120290911302A0911402B0911502B695EA
:1022C000A7959795879580931D0490931E04A093DE
:1022D0001F04B09320040E94B20AE0901D04F09005
:1022E0001E0400911F0410912004A80197010E9470
:1022F0008E33AB01BC014E0D5F1D601F711F4093FB
:102300001D0450931E0460931F04709320041092C8
:102310000D1380910D068D7F80930D0682E00E9443
:10232000400B1F910F91FF90EF90089580E098E08F
:10233000A0E0B0E08093120290931302A0931402E5
:10234000B09315020E94531108950E94E20E99273E
:10235000882329F0893019F081E00E94D80108957E
:102360000E945D0C9927882329F0893019F080E0BC
:102370000E94D8010895EF92FF920F931F93CF937D
:10238000DF93FC017B018A01422F2FB7F89433279A
:102390008EB190E489278EB92FBF8091340399279D
:1023A000982F8827209135033327822B932B019672
:1023B00080933503892F992780933403EB013C8167
:1023C0008FB7F894992720910C028FBF321709F02C
:1023D0007DC0E336F105E9F1EC3FF10521F48EE033
:1023E0008093580246C0E436F10549F1E037F10523
:1023F00031F1E536F10519F1E836F10501F1E6367E
:10240000F105E9F0E137F105D1F0E736F105B9F072
:10241000E936F105A1F0ED36F10519F0E237F105E5
:1024200011F48AE1DDCFE33DF10571F0E93CF105FE
:1024300001F1EC36F10541F0E43DF10511F484E1E0
:10244000CFCFEA36F10511F48EE1CACFEA3FF105AC
:1024500011F482E1C5CFEF3FF10519F44093580222
:1024600008C08FB7F89499272EB130E123272EB9F1
:102470008FBF80912B02882379F480915802853692
:1024800028F522C05527B80188E799E10E94E73373
:102490008BE00E94D8011AC00E941F0CEC0100972B
:1024A000A9F040915802453688F40C9679F05527EA
:1024B000B8010E94E733CE010E943E0C882331F020
:1024C000CE010E94480A02C04817E1F2C701DF911D
:1024D000CF911F910F91FF90EF900895CF93DF93CD
:1024E00010922B0290913F0220E0992309F421E001
:1024F000222349F580913D02E82FFF27EE0FFF1FB1
:10250000E753F34F0190F081E02D222351F48F5FC8
:1025100080933D028A3011F410923D0291509093C5
:102520003F02309781F0CCE6D9E1DF0187E70D90DB
:1025300009928150E1F7CF010E94480A882319F4DB
:102540008BE00E94D801DF91CF910895282FCB0115
:10255000222319F0213041F404C0642F0E946E122E
:102560000895642F0E94560F089580915A0C1D9B68
:102570000CC08823A1F481E080935A0C80E00E9473
:10258000D80185E00E9413020895882341F010923B
:102590005A0C81E00E94D80185E00E942C02089527
:1025A0001F920F920FB60F9211242F933F934F93C8
:1025B0005F936F937F938F939F93AF93BF93EF93AB
:1025C000FF9320916B0093B18091CB0489278223E4
:1025D00085FF02C00E94B512FF91EF91BF91AF91AC
:1025E0009F918F917F916F915F914F913F912F912B
:1025F0000F900FBE0F901F9018958091230482308A
:1026000031F481E0809323048FE00E94D801089583
:102610008F929F92AF92BF92CF92DF92EF92FF92F2
:102620000F931F93CF93DF938091E812882309F4CF
:1026300001C12FB7F89433278091E900882E80914B
:10264000EA00982E8091EB00A82E8091EC00B82E25
:102650000091E8121092E8122FBF07FF0DC0809181
:102660004D03833011F0873039F485E08093F00416
:1026700088E080934D0352C080914D03843009F06F
:102680004DC001FF4BC085E08093F00410924D03D4
:1026900080910403833019F4109204033FC0C09169
:1026A000601AD091611ACE010E94C008882379F186
:1026B0008A8129819927982F88273327822B932B6A
:1026C00087749C7C8154984811F58F812E819927BD
:1026D000982F88273327822B932B8F5F9F4FB9F03A
:1026E00090E08091AC07882309F491E0992379F078
:1026F00012E01093C60481E08093AC076EE370E0B3
:1027000080E090E00E94E2081093040307C010925A
:1027100004031092240480E00E941E09C02FDD27CC
:10272000C5FF4DC080914D03863019F410924D03C2
:1027300003C0882309F043C0A091F61AB091F71A9C
:10274000003271F5F0904601FFE1FF228091FF0217
:10275000982F969596952F2D291B820F8093FF0217
:10276000FD01EC58FF4F808182608083A059BF4FEC
:102770008D929D92AD92BC9213970091F61A109192
:10278000F71AB80182E00E942B09F801EC58FF4FBC
:102790008081886080830B581F4FF801F1820BC045
:1027A000BD0181E00E942B096091F61A7091F71A21
:1027B00083E00E942B0985E080934D0304C0809143
:1027C0004D03853089F4C4FF0FC0209152138091CE
:1027D00046018F71922F96959695891B280F20930D
:1027E000521389E080934D03C0FF0CC08091F00428
:1027F000823041F480914D038250823018F483E09E
:102800008093F004C3FF16C080914D03863091F48D
:10281000809155018F778093550110924D038091DF
:102820004101992787709070892B09F42AC2809101
:10283000410127C290914D03992309F422C2993096
:1028400009F0A3C140917B018091460187FF61C0DF
:10285000433008F45EC0842F9927823791050CF02D
:1028600058C0E091F61AF091F71A4193425055275B
:1028700060E871E0CF010E94E733E091F61AF09131
:10288000F71A818190E08770823009F491E09923F2
:1028900049F020E030E080910403823081F421E0AF
:1028A00030E00DC08FB7F894282F332790E0809147
:1028B0000713833008F491E02FBF292F3327232BF0
:1028C00041F1E0917B01FF27E058FE4F8081E091CC
:1028D000F61AF091F71AEB58FF4F808385E080934A
:1028E000F00410924D03E090F61AF090F71A670189
:1028F0000894C11CD11CF701818190E0282F332757
:10290000277030702230310509F491E0992339F4B1
:1029100030C085E08093F00410924D03AEC18091E9
:102920000403823009F02CC1F7019381E091601A11
:10293000F091611A8381981709F022C12230310584
:1029400009F01EC18091DF008D7F8093DF008FEF43
:10295000809309021092AC07EC58FF4F8081816090
:102960008083109204031092240480E00E941E09C8
:1029700007C1809104038823D1F4C7010E943A095A
:102980008823A9F085E08093F10482E08093F2042B
:102990001092F304F60182818093F40481EF94E0B5
:1029A0000E948E0F882319F483E0809304030E9411
:1029B000D1088B01C7010E943A09882311F00A5CF3
:1029C0001F4F10937405009373050E94D108061BD6
:1029D000170BB80110161106BCF48091240488234B
:1029E00081F490E08091AC07882309F491E0992369
:1029F00059F0882777FD8095982F0E94E81080E88D
:102A000001C0806880932404F6018085278199277E
:102A1000582F44273327422B532B80910503282F0F
:102A20003327F901EE0FFF1FE15EFC4E808191819B
:102A30007091B1078417950769F4F901E65AF54ECC
:102A40008081871709F467C0872F8F5F8093B10754
:102A500080831DC000E010E080E090E0CFE1D3E192
:102A6000EAE5FAE1DF01682F9C01888199818417EA
:102A7000950779F4209305039091B1078C918917FC
:102A800009F449C0892F8F5F8093B1078C9300E8C8
:102A900029C08081972F981B091710F4092F122F36
:102AA0006F5FC90101961196229631968530910586
:102AB000D1F66530B9F410930503A12FBB27FD01B2
:102AC000EE0FFF1FE15EFC4E518340838091B10702
:102AD0008F5F8093B107FD01E65AF54E8083A850C1
:102AE000B54E1C929091B107892F8F778F3779F46B
:102AF0000F3768F0EAE5FAE1292F207880818F67A7
:102B00008913208331968AE1EF35F807B9F7809170
:102B10000503282F3327F6019281A22FBB27FD0141
:102B2000E850F54E808180FF07C0FD01E85FFC4E54
:102B30008081981729F102C081608083A85FBC4E14
:102B40009C93DFB6F894809107138330B0F4E09142
:102B50003A13E80FE33008F0E350FF27EE0FFF1FB2
:102B6000E951FD4F00811181F182E0828F5F8093F6
:102B7000071380E10E94D80178018D2D99278FBF1E
:102B8000F092F71AE092F61A6FC0292F21502330E5
:102B900008F057C0892F8250823098F48091F00459
:102BA000813079F49FEF90934F0180E880934E013C
:102BB000809139018D7F809339019093090282E0E1
:102BC00010C0933089F48091F004833069F48DE56E
:102BD00080934E018FEF8093090286E0809342013B
:102BE00084E08093F00410C0223070F48091F004EF
:102BF000853051F493E09093420110924E018FEF93
:102C0000809309029093F00490914D03913069F400
:102C10008091F004833009F04EC0809139018260C8
:102C2000809339019093F0041BC09230E9F48091B5
:102C3000F004833011F510924E018FEF809309025A
:102C40000FC0973089F480916B198064809348019C
:102C50008091F004853021F484E08093F00404C076
:102C600088E080934D0304C080914D03883029F49F
:102C700010924D038EE00E94D80180914D0388236D
:102C8000D1F48091F0048530B1F48091E81288236A
:102C900091F480910403882371F4809124048823A3
:102CA00051F490E08091AC07882309F491E09923D6
:102CB00011F00E94FD128091AC07823009F077C0BC
:102CC0001092AC07F090C604F1E0FF1629F022E064
:102CD000F21609F06CC064C0C0917305D091740500
:102CE0000E94D10820912404203829F41092240451
:102CF0000E94FD125CC08E01061B170B27FF03C04C
:102D000010161106ECF0C0912104D091220480919C
:102D100004038823A9F4CE010E948E0F99278823EB
:102D200051F4BE010E942B09F0920403D093611A62
:102D3000C093601A31C09927F82E882369F102C028
:102D400045E0F42E20912404822F99278F77019754
:102D500079F420782260209324048CE890E00E948B
:102D60007B09AA27BB27BC01CD010E94E8101FC028
:102D700027FF0EC0101611065CF480E8809324042F
:102D8000B801882777FD8095982F0E94E81002C02F
:102D9000109224048F2D09C083E08093240407C07F
:102DA000109204031092240480E00E941E098FB741
:102DB000F894282F332780915003813029F081E047
:102DC000809350032FBF30CC109250032FBFDF9160
:102DD000CF911F910F91FF90EF90DF90CF90BF9018
:102DE000AF909F908F9008958FB7F894282F332736
:102DF00080915003882329F08068809350032FBF6F
:102E0000089581E0809350032FBF0E940813089516
:102E10001F920F920FB60F9211242F933F934F934F
:102E20005F936F937F938F939F93AF93BF93EF9332
:102E3000FF938091DF008D7F8093DF008FEF809381
:102E400009028091AC07813019F482E08093AC07CD
:102E50000E94F416FF91EF91BF91AF919F918F91D6
:102E60007F916F915F914F913F912F910F900FBE86
:102E70000F901F90189578941F920F920FB60F9293
:102E800011242F933F934F935F936F937F938F936F
:102E90009F93AF93BF93EF93FF932FB7F89433278C
:102EA0008091E81282608093E8122FBF0E94F4168E
:102EB000FF91EF91BF91AF919F918F917F916F9112
:102EC0005F914F913F912F910F900FBE0F901F90E8
:102ED000189578941F920F920FB60F9211242F938A
:102EE0003F934F935F936F937F938F939F93AF9392
:102EF000BF93EF93FF932FB7F89433278091E81295
:102F000081608093E8122FBF0E94F416FF91EF9129
:102F1000BF91AF919F918F917F916F915F914F91F1
:102F20003F912F910F900FBE0F901F90189578949E
:102F30001F920F920FB60F9211242F933F934F932E
:102F40005F936F937F938F939F93AF93BF93EF9311
:102F5000FF932FB7F89433278091E812806880930D
:102F6000E8122FBF0E94F416FF91EF91BF91AF912D
:102F70009F918F917F916F915F914F913F912F9191
:102F80000F900FBE0F901F90189578941F920F927C
:102F90000FB60F9211242F933F934F935F936F932C
:102FA0007F938F939F93AF93BF93EF93FF932FB72D
:102FB000F89433278091E81288608093E8122FBF3D
:102FC0000E94F416FF91EF91BF91AF919F918F9165
:102FD0007F916F915F914F913F912F910F900FBE15
:102FE0000F901F90189578941F920F920FB60F9222
:102FF00011242F933F934F935F936F937F938F93FE
:103000009F93AF93BF93EF93FF932FB7F89433271A
:103010008091E81280628093E8122FBF0E94F4161C
:10302000FF91EF91BF91AF919F918F917F916F91A0
:103030005F914F913F912F910F900FBE0F901F9076
:10304000189578941F920F920FB60F9211242F9318
:103050003F934F935F936F937F938F939F93AF9320
:10306000BF93EF93FF932FB7F89433278091E81223
:1030700080618093E8122FBF0E94F416FF91EF91B8
:10308000BF91AF919F918F917F916F915F914F9180
:103090003F912F910F900FBE0F901F9018958FB7F3
:1030A000F894282F33278091500381508093500348
:1030B000803811F02FBF089581E0809350032FBF17
:1030C0000E94081308951F938FB7F89499272091B1
:1030D00050032F5F209350038FBF809123048823D8
:1030E00011F015E018C080914D03882389F4809178
:1030F000F004853019F489E090E00CC083E08093FF
:103100004D030E94F41685E08093230410E003C071
:1031100085E090E0182F0E944F18812F99271F916A
:1031200008951F93FC018FE3828780914C028F5F8B
:1031300080934C0283832FB7F894332780915003F8
:103140008F5F809350032FBF80912304882311F059
:1031500015E00DC0F0938E0CE0938D0C81E0809310
:1031600023041092590C8FE00E94D80110E00E94B5
:103170004F18812F99271F910895FF920F931F9346
:10318000CF93DF93F82E8B01EA01622F253618F0DA
:1031900086E090E092C0FA0131968181298170E049
:1031A0009927582F44273327422B532BCA01877462
:1031B0009C7C8154984809F471E0772349F4CA0152
:1031C00080739070816498688983892F992781839F
:1031D000635F68832FB7F894332780910A02909138
:1031E0000B022FBF8887892F992789872FB7F894DB
:1031F000332780910C022FBF99278C831D82CE012B
:103200000E94BE08FC01F0820E83812F99278F83D4
:103210008FB7F894282F332780913002882371F4D8
:1032200082E08093300210920F022FBFCE010E94E5
:1032300091189927182F882399F00FC02FBFD0938A
:103240005303C09352038FB7F894C82FDD272C2F58
:1032500080913002882399F406C080E00E940A1110
:10326000812F99272AC081E0809330021092510368
:103270008DE00E94D801CFBF80E090E01EC0809119
:10328000CC038F3F89F4E0910E02EE2369F010C069
:1032900010920D0204C0FF27E453FC4F10821092DD
:1032A0000E0280E090E002C085E090E02FBF05C0F4
:1032B00080910D028F3F79F7EBCFDF91CF911F9176
:1032C0000F91FF900895EF92FF920F931F93CF936A
:1032D000DF93809110029927019664E070E00E94CC
:1032E0007B33682F8093100200E0462F5527FA01A8
:1032F000EE0FFF1FEB58FA4FC081D181209799F054
:10330000E62FE695E695E695FF27ED5AFC4E80817F
:1033100099279A012770307002C0959587952A9554
:10332000E2F780FF0DC0CA01019664E070E00E94E0
:103330007B33682F0F5F0430C1F6009310021FC06B
:10334000609310026430D8F4E88083EFE80EFF2425
:103350000F811127102F00278E819927082B192BF9
:10336000CE010E94BE08FC012E2DAE01B801808165
:103370000E94BD18882319F084E10E94D801DF91D2
:10338000CF911F910F91FF90EF900895EF92FF92D0
:103390000F931F93CF93DF93E82E8B01F42E83E0DE
:1033A0008E1518F481E090E03BC0CE2DDD27CC0FC8
:1033B000DD1FCB58DA4F88819981892B19F085E080
:1033C00090E02EC079836883EDE0FE0EFB01F08271
:1033D000F3EFFF0E80911002843018F480E090E04B
:1033E0001FC0CB010E94BE08FC018081F8016781EB
:1033F0007727762F662726813327622B732BE0925F
:1034000010022F2DA8010E94BD189927282F88236C
:1034100029F084E08093100219821882822F992764
:10342000DF91CF911F910F91FF90EF900895CF9270
:10343000DF92EF92FF920F931F93CF93DF936C0174
:1034400068E089E592E00E948908EC01892B09F483
:103450008EC081E080934202FE0132968A819927D4
:10346000382F222781819927282B392B28303105A5
:1034700018F011821A827BC0C90101968183892FBD
:1034800099278A83C9828D2D9927888384E3C8165A
:1034900082E1D80629F020E030E040E050E008C0AA
:1034A00020914302309144024091450250914602DE
:1034B000FE0134962383BB27A52F942F832F82836D
:1034C000CA01AA27BB278183252F332744275527E5
:1034D0002C83E280FF2400271127102F0F2DFE2CB4
:1034E000EE24522F4427332722279927AA27BB27C8
:1034F000DC0199278827282B392B4A2B5B2B8381CA
:103500009927AA27BB27282B392B4A2B5B2BE22A8A
:10351000F32A042B152BE114F1040105110511F414
:1035200010E012C084E3C81682E1D80621F41CE042
:103530006DEB7CE003C010E060E070E0412F5527A8
:10354000CE0108960E94E7338FEF80935F0280934D
:10355000600289E592E00E94BE08FC0180E680835B
:10356000185F412F69E572E082E00E94C619DF9181
:10357000CF911F910F91FF90EF90DF90CF90089522
:103580008FB7F8942091820520FD02C020E004C08E
:103590002E7F2093820521E099278FBF222379F087
:1035A00080911702882341F080914202882321F400
:1035B00084E392E10E94171A8BE10E94D8010895DA
:1035C000DF92EF92FF920F931F93CF93DF938B01C4
:1035D000EA01D22E8D3609F464C08E3600F58736A6
:1035E00009F450C0883678F4843609F43FC0853633
:1035F00020F4833609F099C036C08536E9F1863665
:1036000009F093C03CC0893609F442C08936E8F11C
:103610008A3609F440C08C3609F087C03FC0893C27
:1036200009F474C08A3C78F4813709F440C08237C9
:1036300020F4803709F079C037C08237D9F1893852
:1036400009F073C03AC0843D09F466C0853D20F49A
:10365000833D09F06AC05DC08A3F09F460C08C3FB9
:1036600009F063C05FC083E690E002C084E690E0AA
:103670000E94BB11BC015AC085E690E0F9CF86E6F6
:1036800090E0F6CF87E690E0F3CF88E690E0F0CFC9
:1036900089E690E0EDCF8AE690E0EACF8CE690E014
:1036A000E7CF8DE690E0E4CF80E790E0E1CF81E7DF
:1036B00090E0DECF82E790E0DBCF80914802882364
:1036C00061F4A1E6B3E0FA018CE001900D92815023
:1036D000E1F78DE10E94D80128C00E94EB097C012E
:1036E000892B19F184E68D1500F1C7010C96E9F0DC
:1036F0004D2D5527BE010E94E733C7010E940A0ADB
:10370000882399F0C7010E94290A0FC089EC90E034
:10371000AFCF83ED90E0ACCF84ED90E0A9CF8AEFFE
:1037200090E0A6CF8CEF90E0A3CFB801CB01DF9162
:10373000CF911F910F91FF90EF90DF900895AF927E
:10374000BF92CF92DF92EF92FF920F931F93282F99
:1037500033278BE090E0289FF001299FF00D389FE0
:10376000F00D1124E35BFD4F82819381A481B5812B
:103770000097A105B10569F080819181880F991F9B
:10378000918380838150944020F080E094E0918385
:1037900080838BE090E0289F5001299FB00C389FD8
:1037A000B00C11248DE492E0A80EB91EF5018681BB
:1037B0009781A085B18582839383A483B583C080DC
:1037C000D180EE24FF2469E0CC0CDD1CEE1CFF1C34
:1037D0006A95D1F70E94B20ADC01CB01F5010081A4
:1037E0001181B801762F6627770F0E946733AA27C9
:1037F000BB278C0D9D1DAE1DBF1D222733274AE020
:10380000000F111F221F331F4A95D1F7081B190BF8
:103810002A0B3B0B06831783208731872281338154
:1038200044815581280F391F4A1F5B1F2283338330
:10383000448355831F910F91FF90EF90DF90CF90BD
:10384000BF90AF9008951F93CF93DF93182F482F09
:1038500055278BE090E0489FE001499FD00D589F8D
:10386000D00D1124C35BDD4F61E070E07983688384
:103870001A868A819B81AC81BD810097A105B10523
:1038800019F12FB7F8943327FA01A3E0F695E795DD
:10389000AA95E1F7EE54F84F4770507002C0660FDA
:1038A000771F4A95E2F78081862B80832FBF1A828B
:1038B0001B821C821D821E821F8218861986812F00
:1038C0000E949F1B0E94750CDF91CF911F9108955C
:1038D0008453924119F480E00E94231C08951F93A1
:1038E000CF93DF938FB7F894992720912502C09149
:1038F0002602D091270230912802109100038FBF39
:10390000222309F490C0223709F469C0222309F068
:1039100078C090E08B85883809F073C09C3009F03E
:1039200070C08091E402882309F46BC0ADEBBCE069
:10393000FE013C968CE001900D928150E1F7809160
:10394000430290914402A0914502B0914602CD01FC
:10395000AA27BB270196A11DB11D80934302909316
:103960004402A0934502B09346020097A105B10519
:1039700061F481E090E0A0E0B0E080934302909396
:103980004402A0934502B093460280914302909175
:103990004402A0914502B0914602DC019927882794
:1039A000209100023091010244275527820F931F76
:1039B000A41FB51F8093430290934402A093450235
:1039C000B093460280911702882339F084E392E194
:1039D0000E94171A80E00E94231C8AE110C0333035
:1039E00081F48881823569F48981833551F48A8133
:1039F000843539F4D093FC02C093FB0288E00E9426
:103A0000D8018FB7F894E12FFF27EE0FFF1FED5F6E
:103A1000FD4FD183C08320911902112311F02B7F18
:103A200005C02D7F03C0932F9C5074CF20931902A3
:103A30001092240299278FBFDF91CF911F91089593
:103A40008091C9008F7B8093C9008091C9008F77D6
:103A50008093C90010925B0C10929F048091C90062
:103A600088608093C9008091C9008F7B8093C900D2
:103A70008091C90080618093C9008FEF8093090213
:103A80008091C90080688093C9008FB7F894992706
:103A900010928C0C109225048FBF80914F02909150
:103AA0005002A0915102B09152020097A105B105B8
:103AB00039F510924F02109250021092510210925A
:103AC0005202109253021092540210925502109218
:103AD00056021092570280E00E949F1B8FB7F89405
:103AE00099272091B20721602093B2078FBF0E94CF
:103AF000750C80E00E94231C81E08093E40203C0E7
:103B000080E00E94231C81E0809317020895CF92E9
:103B1000DF92EF92FF920F931F936C017B010E9443
:103B2000B20ADC01CB01B6010E946733E80EF91E30
:103B300000271127B801A70184E00E94400B1F91C4
:103B40000F91FF90EF90DF90CF9008951F93CF9348
:103B5000DF93EC01162F80911102882319F5CE0115
:103B60000E94C40DE82F80910303E81748F4FF2753
:103B700043E0EE0FFF1F4A95E1F7E353FC4F178335
:103B800080911813882311F0112349F080911313A9
:103B9000909114138C179D0729F4112319F085E1D6
:103BA0000E94D801DF91CF911F910895CF93DF93A9
:103BB000EC010E94C40D282F809103032817D1F037
:103BC000382F31503093030313C0822F992753E0CD
:103BD000880F991F5A95E1F7DC01A353BC4FFC01F4
:103BE000EB52FC4F88E001900D928150E1F72F5F7E
:103BF000231758F380911313909114138C179D077A
:103C0000A1F48FEF9FEF90931413809313131092EE
:103C1000161310921513109217131092181381E0B7
:103C200080933C0285E10E94D801DF91CF910895F5
:103C3000AF92BF92CF92DF92EF92FF920F931F93BA
:103C4000CF93DF938091E602882309F0E8C0CC246B
:103C5000DD240FEF1FEF7FEFA72EB72EEE24FF24FA
:103C600045C0C22FDD2763E0CC0FDD1F6A95E1F769
:103C7000C353DC4F2A813B818FEF2F3F380799F1E7
:103C80008091BB0C9091BC0C2817390761F1888199
:103C900099810E947F0ABC014C815D81480F591FA8
:103CA00028813981809113139091141328173907B3
:103CB00079F48FB7F89499272C813D8130931613AE
:103CC000209315132F81209318138FBF5A010BC017
:103CD0008F81882341F46233710528F4401751071E
:103CE00010F46E018A010894E11CF11C2E2D8091C4
:103CF0000303E81608F4B5CFEFEF0F3F1E0709F4F2
:103D00007DC0FFEFAF16FFEFBF0691F08091181353
:103D1000882341F080911513909116130A96081785
:103D2000190730F0C8010F968A159B0508F066C088
:103D30008091361390913713A0913813B0913913B5
:103D40000196A11DB11D8093361390933713A09354
:103D50003813B093391380911313909114130E9468
:103D6000670A8F3F81F0282F33278BE090E0289F50
:103D7000F001299FF00D389FF00D1124ED57FA4FF7
:103D80008581877F8583F601808191810E94980AD1
:103D9000F601808191810E94670A8F3F41F0EBE03C
:103DA0008E9FF0011124ED57FA4F128611862FB71E
:103DB000F8943327F60180819181909314138093B6
:103DC0001313848195819093161380931513878123
:103DD000809318132FBFC501801B910B459770F07E
:103DE00080E098E0A0E0B0E080931202909313028C
:103DF000A0931402B09315020E94531180913C02CB
:103E0000882359F4FFEFAF16FFEFBF0631F40F5FC1
:103E10001F4F19F082E10E94D80110923C02DF91FD
:103E2000CF911F910F91FF90EF90DF90CF90BF90B7
:103E3000AF9008958091230410922304853031F5CA
:103E400081E08093390280913A02882361F00E94D8
:103E5000B20A7F716050704FCB01AC0166277727A3
:103E600082E00E94400B8091310284608093310295
:103E700090E080913602882309F491E0992319F4A7
:103E800082E10E94D8010E945D0C0895863031F4D1
:103E9000809131028B7F809331020895873011F039
:103EA00080932304089540911313509114132FB756
:103EB000F894332781E08093E6028091BB0C9091C7
:103EC000BC0C90931413809313131092161310923A
:103ED00015132FBF4F5F5F4F19F482E10E94D80185
:103EE00080E090E00895E9ECF0E08081877F8083B6
:103EF00080818F7E80838FEF809309020E94531F01
:103F000080910002909101020E94F90D08951F9383
:103F1000CF93DF93162FC0E0D0E068E00E948908BD
:103F2000FC0180818123811711F4C1E0D0E0CE0132
:103F3000DF91CF911F91089568E00E948908FC01EC
:103F400087819927089568E00E948908FC01818192
:103F50009927089568E00E948908FC0186819927C5
:103F6000089568E00E948908FC0184819927982FB0
:103F7000882725813327822B932B0895BF92CF92D8
:103F8000DF92EF92FF920F931F93CF93DF937C0109
:103F9000B090E502D0906805CC2428C00D2D0370A8
:103FA0001127C7010E94B11FE801CC0FDD1FCC0F04
:103FB000DD1FC00FD11FC75CDC4F288139818217FC
:103FC000930791F4C7010E94AA1F9A81981761F480
:103FD000C7010E94A31F9C81981731F4C7010E945A
:103FE0009C1F9B81981721F0C394D394CB14B1F6F6
:103FF0008C2D9927DF91CF911F910F91FF90EF901A
:10400000DF90CF90BF900895AF92BF92CF92DF9292
:10401000EF92FF921F93CF93DF935C01EC01EA8153
:10402000E330A0F4FF27EE0FFF1FE454FB4E918313
:1040300080838A81882321F0823009F089C003C0FF
:1040400010922A0285C01092400282C0442309F4D3
:1040500077C0FC01C080D1808091E502843009F0F6
:1040600046C0C6010E94BE1F2091E502622F0E9439
:104070005B33492F9217D8F5992359F4809168053D
:104080009927019664E070E00E947B338093680575
:1040900029C080916805840F912D911D9C0123708A
:1040A0003070E901CC0FDD1FCC0FDD1FC20FD31F15
:1040B000019664E070E00E947B33FC01EE0FFF1F6D
:1040C000EE0FFF1FE80FF91FC75CDC4FE75CFC4FEA
:1040D00085E0019009928150E1F74F5F8091E50200
:1040E0004817B8F28091E50281508093E502109163
:1040F000E50280916805810F912D911D837090706C
:104100007C01EE0CFF1CEE0CFF1CE80EF91E89E38F
:1041100093E0E80EF91EC6010E94B11FE7019983E2
:104120008883C6010E94AA1F8A83C6010E94A31F1A
:104130008C83C6010E949C1F8B831F5F1093E50236
:10414000F501808191810E94AC0BC5010E94CB0BCF
:10415000DF91CF911F91FF90EF90DF90CF90BF90B4
:10416000AF9008950F931F93CF93DF93EC01E091ED
:104170003402FF27EE0FFF1FE751FD4E0081118132
:10418000662329F060E870E080E890E032C080911A
:10419000310283FF40C0BE0180E00E946D09882388
:1041A000D1F58F819927982F88272E813327822B4D
:1041B000932B0E94670A982F8F3F71F08BE0989F96
:1041C000F0011124ED57FA4F82858F5F8287853089
:1041D00018F0CF010E947A0B85E10E94D801F80106
:1041E000838181508383882339F060E270E080E22C
:1041F00090E00E94871D3FC00E94910B8091310288
:104200008F7E8093310260E270E080E290E00E9455
:10421000871D40E02CC00E94910B809131028F7E5F
:104220008093310260E270E080E290E00E94871D9E
:104230008F819927982F88272E813327822B932BC4
:104240000E94670A982F8F3F89F08BE0989FF001BA
:104250001124ED57FA4F81858F5F818782858F5FAB
:104260008287853018F0CF010E947A0B41E0BE01B1
:10427000C8010E940420DF91CF911F910F910895F2
:10428000282FCB01213059F0213028F0223089F03D
:104290002330A1F411C0642F0E94B2200895665209
:1042A000744061F480913B02882341F010923B02FC
:1042B0000895109242020895109242020895EF92DA
:1042C000FF920F931F93E82E8B01F42EE82FFF2708
:1042D000EE0FFF1FEB58FA4F118210820E946319F4
:1042E0004F2DB8018E2D0E9440211F910F91FF90FC
:1042F000EF900895FF920F931F93CF93DF93F82EC3
:104300008B018091310281FD03C084E090E05AC0AE
:104310004D3518F082E090E055C04B5EFB014083C4
:1043200068E0C8010E948908FC0180910002909118
:1043300001028583892F992784838091FD028F5FF5
:104340008093FD0281508683CF2DDD2781E0F81612
:1043500059F0F81638F082E0F81611F48CEF05C029
:1043600080E003C083E601C089E887831182FE01F3
:10437000EE0FFF1FE454FB4E0190F081E02D3097CB
:1043800019F485E090E01EC011830083F2828EE173
:104390008383CF010E949F08882319F081E090E079
:1043A00011C08091310282FF05C084FD03C082E10B
:1043B0000E94D801CC0FDD1FC454DB4E1982188235
:1043C00080E090E0DF91CF911F910F91FF900895D1
:1043D0006CE083EE99E10E9490089C01892B81F1A9
:1043E00082B3992780939E0C10929D0C8091690551
:1043F00090916A05019690936A0580936905AA27B2
:10440000BB278093A20C892F9A2FAB2FBB278093B9
:10441000A10C1092A00C10929F0CF901A7E9BCE02E
:104420008CE00D9001928150E1F74CE063EE79E170
:1044300081E00E947A21882319F481E08093470269
:1044400008959F92AF92BF92CF92DF92EF92FF9228
:104450000F931F93CF93DF93CDB7DEB722970FB69D
:10446000F894DEBF0FBECDBF809133028F5F809383
:1044700033028091310284FDEDC090E080913602DC
:10448000882309F491E0992309F0E4C08091E602C1
:10449000882359F420E080911313909114138F5FB7
:1044A0009F4F09F021E0222331F0CE0101960E94B6
:1044B000EA0B882341F040E157E260E070E084E0DD
:1044C0000E94400BC7C0E0913402FF27EE0FFF1F90
:1044D000E751FD4EC080D180D6010D911C91C801DD
:1044E0000E94150C982EA0901313B0901413C801BD
:1044F0000E94BE1F20E09091E502891708F421E098
:10450000222359F00E94910BF601808191810E9433
:10451000AC0BC6010E94CB0B9AC08091E602D6017B
:10452000ED90FC90882381F168E0C7010E94890822
:10453000FC01B780A091C204B091C304F70187E7E2
:1045400001900D928150E1F70091C2041091C304D3
:10455000C8010E94150CB8EFEB2EE80EFF246E2D5B
:10456000C8010E9490082E2DAC01B8018B2D0E942D
:10457000E01A9093C3048093C20460E0D6018D9149
:104580009C910E94B22066C009811A8168E0C7012F
:104590000E948908FC010383012F1127028368E030
:1045A000F601808191810E948908FC0180818F73CE
:1045B0008083D6014D915C91DA011196FD01218134
:1045C0003327322F2227FA01818199278062282BF5
:1045D000392B2183232F3327FD0121838091310241
:1045E00088608093310280FF0FC068E0D6018D9112
:1045F0009C910E948908FC01808180648083809165
:1046000031028E7F80933102F60100811181F80121
:10461000A6828B2D99278783C8010E94BE08FC01C2
:1046200051E7F52EF082492DB80180E00E94C619AD
:104630009927882331F4809131028061809331027F
:1046400009C0823039F4D601ED91FC91F08282E10B
:104650000E94D80122960FB6F894DEBF0FBECDBFE0
:10466000DF91CF911F910F91FF90EF90DF90CF904E
:10467000BF90AF909F900895CF92DF92EF92FF92FC
:104680001F93CF93DF932FB7F89433278091510373
:1046900080930F0282E0809330022FBF80910F023F
:1046A000882361F580915203909153030E949118E1
:1046B000C82EDD24CC2011F180E00E940A11E09088
:1046C0005203F0905303C7010E94BE0810911002DC
:1046D0001430A0F4E12FFF27EE0FFF1FEB58FA4F25
:1046E000C081D181CE15DF0549F4118210820E946C
:1046F00063194C2DBE01812F0E944021DF91CF9183
:104700001F91FF90EF90DF90CF900895CF92DF92AE
:10471000FF920F931F93CF93DF93082F6B01F42E1B
:10472000E82FFF27EE0FFF1FE25DFC4E1182108283
:10473000809116029927019662E070E00E947B3317
:10474000682F8093160210E0462F5527FA01EE0FCE
:10475000FF1FE25DFC4EA081B181109799F0E62F1A
:10476000E695E695E695FF27EC54FB4F8081992767
:104770009A012770307002C0959587952A95E2F7C7
:1047800080FF0DC0CA01019662E070E00E947B3399
:10479000682F1F5F1230C1F6109316021AC0609383
:1047A00016026230B0F4FD01359624813327ED0105
:1047B0006D817727762F662781819927682B792B42
:1047C000AD0186810E94E807882319F088E10E94E4
:1047D000D801002319F0013051F405C06F2DC60136
:1047E0000E946E1204C06F2DC6010E94560FDF9109
:1047F000CF911F910F91FF90DF90CF90089510926D
:104800001E0210921D028FB7F89499274091210241
:104810008FBF80912202811143E020911B023091D1
:104820001C0280912302882319F0823739F512C0C7
:1048300080911602823010F5E82FFF27EE0FFF1F40
:10484000E25DFC4E6081718162177307B9F40E94CA
:1048500086230895442321F088E00E94D80108951A
:104860008FB7F89488E190E029E00FB6F894A89506
:10487000809360000FBE20936000FFCF0895EF92F9
:10488000FF920F931F93CF93DF932FB7F8943327A3
:10489000809150038F5F809350032FBF409123047A
:1048A000413081F58091590C8F5F8093590C86308F
:1048B00048F520918D0C30918E0C80912404882332
:1048C000E1F490E08091AC07882309F491E099230A
:1048D000A1F030932204209321044093240486E322
:1048E00091E00E947B09AA27BB27BC01CD010E9451
:1048F000E8101092561383E032C085E0809356137F
:1049000082E02DC0109223040E944F18E0905613AD
:10491000C0918D0CD0918E0C8A858F3321F580E06B
:104920000E940A11CE010E94BE08F090100283E09E
:104930008F15C8F0EF2DFF27EE0FFF1FEB58FA4F32
:10494000008111810C171D0771F4118210820E94E1
:1049500063194E2DB8018F2D0E94402104C0809311
:1049600023040E944F18DF91CF911F910F91FF9068
:10497000EF900895EF920F931F9380913A0288234E
:10498000E9F481E080933A0280E098E0A0E0B0E0B2
:104990008093120290931302A0931402B093150215
:1049A0000E9453110E94BC09AB01BC01EE2400E03F
:1049B00010E220E030E083E00E949D0980E090E07A
:1049C0001F910F91EF900895AF92BF92CF92DF9217
:1049D000EF92FF920F931F93CF93DF935B016C01D4
:1049E000C0E0D0E0E3EFF5E0608561FF62C12081C7
:1049F000318142815381E480F58006811781D6019F
:104A0000C501821B930BA40BB50B8E159F05A00748
:104A1000B10708F44EC160FF03C06D7F608708C016
:104A20002E0D3F1D401F511F20833183428353832E
:104A3000C33009F4E0C0C43038F4C13009F489C08F
:104A4000C23008F0A1C00DC0C53009F4E7C0C530C0
:104A500008F4DDC0C63009F41BC1C73009F05CC1E1
:104A600024C1A6E2B3E0ECECF4E08EE001900D92FC
:104A70008150E1F7F3E6FF2EF09227031092260310
:104A80000E94531F80910002909101020E94F90D33
:104A90000E946318809131028260809331020E94EB
:104AA000BA2480E098E2A0E0B0E08093920C90936A
:104AB000930CA093940CB093950C8091040681FF05
:104AC00003C08D7F809304060E94BC09AB01BC012A
:104AD000EE2400E018E220E030E081E00E949D0931
:104AE000F092CD041092CC040E945D0C80914302A0
:104AF00090914402A0914502B09146020097A10511
:104B0000B10549F4ADEBBCE0E9E2F7E08CE00190DF
:104B10000D928150E1F78091000290910102809303
:104B2000980C892F99278093970C10929A0C1092C9
:104B3000990C0E946318882309F0EDC0809131021E
:104B40008260809331020E94BA24882309F4E4C071
:104B5000E2C08CE00E94D8012FB7F89433278091EF
:104B60002C0290912D02A0912E02B0912F0201965D
:104B7000A11DB11D80932C0290932D02A0932E02B3
:104B8000B0932F022FBFC8C080913902882309F447
:104B9000C3C080913A02882309F4BEC080910D13EE
:104BA000882309F497C08091120290911302A0917A
:104BB0001402B0911502880F991FAA1FBB1F809382
:104BC000120290931302A0931402B0931502815025
:104BD000984CA040B04060F080E098ECA0E0B0E0DD
:104BE0008093120290931302A0931402B0931502C3
:104BF0000E94531191C080913902882309F48CC01E
:104C000080913A02882309F487C085E14FC08091E2
:104C100031028F7E8093310282E148C020912406C8
:104C200030912506409126065091270680914F022B
:104C300090915002A0915102B09152020097A105AB
:104C4000B10519F1821B930BA40BB50BB1F4809144
:104C50005702882361F42FB7F89433278091820597
:104C60008160809382052FBF8BE10E94D80180E094
:104C70000E949F1B1092570208C080934F0290938E
:104C80005002A0935102B09352020E94750C44C08E
:104C90002091690530916A0580910103909102038A
:104CA0008217930768F08CE101C089E10E94D80166
:104CB00033C021963996C830D10509F095CE2CC065
:104CC000809131068D7F8093310610926A05109293
:104CD000690522C085E10E94D80186E10E94D801C1
:104CE00040911202509113026091140270911502CA
:104CF00080911D0490911E04A0911F04B091200486
:104D0000481B590B6A0B7B0B81E080930D1382E0EB
:104D10000E94400B01C0759A8AE00E94D801DF9181
:104D2000CF911F910F91FF90EF90DF90CF90BF90A8
:104D3000AF900895AF92BF92CF92DF92EF92FF9221
:104D40000F931F930E94BC095B016C018091DF00EF
:104D50008E7F8093DF008FEF80930902AFEFEA2E02
:104D6000AFEFFA2EAFEF0A2FAFE71A2F60E0E3EFB5
:104D7000F5E0808581FF1CC080819181A281B38193
:104D8000A6019501281B390B4A0B5B0BDA01C901FF
:104D90002481358146815781281B390B4A0B5B0BD7
:104DA0002E153F05400751071CF479018A0161E087
:104DB000399636E0EB33F307E1F66623D9F01E149B
:104DC0001F04100611062CF0C601B5010E94E42450
:104DD00011C0E0922A13F0922B1300932C1310931E
:104DE0002D1381E080934F03A8019701C601B501FF
:104DF0000E94C70E1F910F91FF90EF90DF90CF9010
:104E0000BF90AF900895AF92BF92CF92DF92EF9292
:104E1000FF920F931F93CF93DF93CDB7DEB7289701
:104E20000FB6F894DEBF0FBECDBF8091BF0C99279F
:104E3000382F22278091C00C9927282B392B80915D
:104E40000002909101022817390721F02F5F3F4F90
:104E500009F0D0C08091C10C9927982F8827209104
:104E6000C20C3327822B932B90931E1380931D1318
:104E70008091C30C9927782F66278091C40C9927BD
:104E8000682B792B70935113609350138091C70C4A
:104E90009927AA27BB27EE24F82E092F1A2F209135
:104EA000C50C332744275527522F44273327222761
:104EB0008091C60C9927AA27BB27DC019927882750
:104EC000282B392B4A2B5B2B8091C80C9927AA27BA
:104ED000BB27282B392B4A2B5B2BE22AF32A042BE6
:104EE000152BE092AD07F092AE070093AF07109339
:104EF000B00764307105A1F066307105A9F1633027
:104F0000710509F069C0ED82FE820F8318878F81D9
:104F100098859A8389838D819E819C838B835CC0D5
:104F2000ED82FE820F8318878D819E81909302030C
:104F3000809301032F8138853C832B8384E690E0A6
:104F4000289F5001299FB00C389FB00C1124CC240D
:104F5000DD240E94BC09AB01BC01EE249601850151
:104F600086E00E949D0938C029E12B8394E1998352
:104F700086E080939E0C10929D0C20939F0C909342
:104F8000A00C80914802882369F4A1E6B3E0E7E928
:104F9000FCE08CE001900D928150E1F78DE10E94E0
:104FA000D80117C00E94EB098C010097A9F0FC0101
:104FB0003C96A7E9BCE08CE00D9001928150E1F7AE
:104FC000C8010E940A0A882321F0C8010E94290A08
:104FD00003C08DE10E94D8010E94BC09AB01BC0155
:104FE000EE2404E610E020E030E087E00E949D0916
:104FF0001092321328960FB6F894DEBF0FBECDBFC5
:10500000DF91CF911F910F91FF90EF90DF90CF90A4
:10501000BF90AF900895EF92FF920F931F93790185
:105020008A016C3018F04CE050E002C0462F552742
:10503000BC018DEB9CE00E94E733E0924302F092CA
:10504000440200934502109346020E9403271F91D9
:105050000F91FF90EF9008952F923F925F926F9281
:105060007F928F929F92AF92BF92CF92DF92EF92F8
:10507000FF920F931F93CF93DF93CDB7DEB72297A5
:105080000FB6F894DEBF0FBECDBFE82FFF27EE317D
:10509000F10508F036C6E057FF4FEE0FFF1F0590F1
:1050A000F491E02D099480915313882309F076C47C
:1050B00028C68091B404882309F069C522C60E94DD
:1050C000B0111FC60E94A5111CC60E94310519C649
:1050D0000E94201D16C60E94FF0113C60E94731F66
:1050E00010C60E94FF230DC60E946F1C0AC6E091E5
:1050F000FB02F091FC028AE5808382E4818380E5F3
:1051000082836091FB027091FC0243E082E70E947F
:105110007D07882309F4F5C50E940402F2C5809139
:105120004F03882361F520912A1330912B1340916E
:105130002C1350912D13EFB7F894FF276091BE0404
:105140007091BF048091C0049091C104E090B704B5
:10515000F090B8040091B9041091BA046E0D7F1D4F
:10516000801F911FEFBF20932A1330932B1340937E
:105170002C1350932D1310924F030E94C70E0E94C0
:10518000BC090E94E424BDC50E949A26BAC50E94AB
:105190004708B7C582E18093580280912B0288238B
:1051A000E1F4809130039927982F882720913103CB
:1051B0003327822B932B019680933103892F9927D4
:1051C0008093300342E150E066E273E088E799E1C2
:1051D0000E94E7330E94090218C00E941F0C8C0134
:1051E000892B09F48EC540915802552766E273E079
:1051F00088E799E10E94E733C8010E943E0C8823AA
:1052000021F0C8010E94480A7CC510923503109213
:105210003403109237031092360373C50E943C2367
:1052200070C50E941A1F6DC50E943F246AC58FB7C2
:10523000F894282F332780910713882309F4A9C3F2
:10524000E0913A13FF27EE0FFF1FE951FD4FA080B9
:10525000B1802FBFF5018285178106818F3309F058
:1052600059C3C5010E94BE08FC01E081D5016D91C2
:105270004D01812F9927582F4427802F9927482B9C
:10528000592B8FB7F894992720910A0230910B027D
:105290008FBF4217530721F04F5F5F4F09F02DC5B5
:1052A000BCE02B2E312C2A0C3B1C6D50262F3327B3
:1052B000522EE33609F4C8C0E43630F4E03659F033
:1052C000E13609F041C397C0E03709F4C4C0E137C3
:1052D00009F03AC3E5C1F501848525859927D82EC3
:1052E000CC243327C22AD32A2089618992897389E1
:1052F000F4E3CF16F2E1DF0621F0662477244301C0
:1053000008C06090430270904402809045029090E3
:10531000460280911702882309F416C3892F992722
:10532000AA27BB27EE24F82E092F1A2F332744274C
:105330005527522F442733272227862F9927AA271C
:10534000BB27DC0199278827282B392B4A2B5B2B7D
:10535000872F9927AA27BB27282B392B4A2B5B2B72
:10536000E22AF32A042B152B6114710481049104A1
:1053700069F4E114F1040105110579F124E3C21681
:1053800022E1D20609F548EF540E17C0E114F104EA
:1053900001051105C9F0D801C70186199709A809A7
:1053A000B909181619061A061B0694F484E3C816E0
:1053B00082E1D80649F498EF590EA8019701652DAE
:1053C000C10108960E940B28C6010E94681CBCC23D
:1053D000E614F7040805190561F4A4E3CA16A2E16E
:1053E000DA0609F0B1C2809157028F5F80935702AD
:1053F000ABC2C60126C080911702882309F4A4C25B
:10540000F501848525859927982F88273327822BB6
:10541000932B8453924109F097C28091430290915B
:105420004402A0914502B09146020097A105B10542
:1054300009F48AC2D1018C919927982F8827822B51
:10544000932B0E94171A80C2A101B5018FEF90E043
:105450000E94BB11A1C1F501878126819927982F50
:1054600088273327822B932B8F5F9F4F09F042C0F1
:10547000C5010E949B086C01F50181852085992753
:10548000182F00273327022B132BC8010E94670A0D
:105490008F3F21F0F601618177270DC00E94890DB1
:1054A000F82EFFEF8F1751F0B8010E94B40CF601EF
:1054B000618177278F2D0E94C50C1CC081E40E945A
:1054C0009B0DF82EFFEF8F17A9F0282F33278BE0C5
:1054D00090E0289FF001299FF00D389FF00D1124D6
:1054E000ED57FA4F808191810E94D61DB8018F2D12
:1054F0000E94B40CC5010E94F010853009F024C24E
:10550000F401F084978065E0C5010E945F0B8C0177
:1055100060E4C5010E94E40D582E68010894C11C86
:10552000D11CF801818116010894211C311CF6015F
:1055300021819927982F88273327822B932B8F5FE0
:105540009F4F09F4A3C08F2D9927F82EEE24892DA3
:105550009927E82AF92A63E0862E912C800E911E65
:10556000F801838154E0652E712C600E711E248138
:105570009927982F88273327822B932B892B49F53E
:10558000C7010E94670A8F3F09F50E94890D8F3F6E
:1055900011F0B70119C08AE00E949B0D182F8F3FB0
:1055A000A9F0282F33278BE090E0289FF001299F56
:1055B000F00D389FF00D1124ED57FA4F8081918145
:1055C0000E94D61DB701812F0E94B40CC7010E9412
:1055D000980AD4019C90F3018080D601DC90F101FF
:1055E000C080C7010E947F0A8C01C7010E94C40DC0
:1055F000E82F8A3009F446C0892D9927782F66272D
:10560000882D9927682B792B8D2D9927582F442782
:105610008C2D9927482B592B80910303E817F1F41F
:105620000233110578F52FB7F8943327FF2713E0DD
:10563000EE0FFF1F1A95E1F7E353FC4FF182E08272
:10564000538342837583648381E0868317828091CC
:1056500003038F5F809303032FBF14C08FB7F894A9
:105660009927FF27B3E0EE0FFF1FBA95E1F7E35349
:10567000FC4FF182E082538342837583648321E08F
:1056800026838FBF652DC7010E94A61D60E8C50156
:105690000E94E40D882309F457C10E94961154C159
:1056A000809132028F5F80933202C5010E949C1F5D
:1056B000782EC5010E94A31F182F1F5FC5010E94ED
:1056C00097084C01FC011183F4E6F51508F43CC180
:1056D000C5010E94BE1F20E09091E502891708F4E1
:1056E00021E0222309F030C120913602822F992730
:1056F000C82E882309F43EC0D0903402D20E37C0A1
:105700002EE02D1510F0ED2D02C0ED2DEF50FF27EE
:10571000EE0FFF1FE751FD4E0190F081E02DE0807C
:10572000F180C7010E94B11F8C01C5010E94B11F09
:1057300008171907E1F4C7010E94AA1F182FC50115
:105740000E94AA1F181799F4C7010E94A31F182FBF
:10575000C5010E94A31F181751F4C7010E949C1F86
:10576000182FC5010E949C1F181709F4EDC0DA9488
:10577000CA9431F68091E602882381F0C5010E9427
:105780001A0C182F682FC5010E949008212FAC0118
:10579000B501872D0E94E01A5C01D6C080E02091FF
:1057A000EF04222309F481E0882309F0CDC0909111
:1057B000EE04992309F481E0882309F0C5C09923F8
:1057C00009F4C2C080915413E82FFF27EE0FFF1F8A
:1057D000EE59F54E00811181118210829150909303
:1057E000EE048F5F809354138C3011F41092541395
:1057F0000115110509F4A8C0222309F4A5C0809160
:10580000B104E82FFF27EE0FFF1FED55F34FE080A7
:10581000F1801182108221502093EF048F5F8093DA
:10582000B1048C3011F41092B104E114F10409F4C4
:105830008BC087E7D7011D928A95E9F7E0E7F0E092
:10584000AE0EBF1E87E0D5011D928A95E9F7E0E90B
:10585000FFEFAE0EBF1ED801AD92BC928FEFF801E4
:1058600082838EE18383C8010E949F08882321F5EB
:10587000CE0101960E94EA0B8823B1F4F4018281E3
:1058800023819927982F88273327822B932B2981CF
:105890003A812817390740F00E94961160E870E0BD
:1058A00080E890E00E94871D80911F0681FD02C064
:1058B0000E940E02570148C0C7010E94AC0BC801EC
:1058C0000E94CB0B41C0F5011185008560E8C50140
:1058D0000E94871F882311F00E94961160E4C50181
:1058E0000E94871F682F812F9927982F8827202FA4
:1058F0003327822B932B0E94A61DC5010E949C1F5B
:10590000823611F58FB7F89499272EB130E123270D
:105910002EB919C0812F9927582F4427802F9927F6
:10592000482B592B8FB7F894992720910A02309170
:105930000B028FBF4217530719F04F5F5F4F21F4DF
:105940008FB7F89499278FBF9FB7F89480913A1337
:10595000E82FFF27EE0FFF1FE951FD4FB182A08214
:105960008F5F80933A13833010F010923A13809136
:105970000713815080930713892F99278FBF57CC26
:105980000E943B0B2FB7F89433279093900C809391
:105990008F0C2FBFB6C10E942122B3C181E0D82E47
:1059A000EE24FF2405E715E0909153138D2D8923F4
:1059B00079F0D8016D917C9111971D921C928D2DDB
:1059C000809598239093531343E08E2D0E9440219D
:1059D0000894E11CF11C0E5F1F4FB8E0EB16F104B8
:1059E00009F48FC1DD0CE0CF80911002E82FFF2772
:1059F000EE0FFF1FEB58FA4F6081718141E00E946A
:105A00005F217FC10E94181E7CC180913B028823C8
:105A100009F077C1E091BB04F091BC041082809141
:105A2000131390911413E091BB04F091BC04828392
:105A3000892F992781838091E602882329F080911C
:105A400015139091161320C0809113139091141385
:105A50000091151310911613EFEF8F3F9E0781F4FD
:105A6000E091BB04F091BC040483812F99278383C8
:105A7000E091BB04F091BC048081806880830CC0FD
:105A80000E947F0A800F911FE091BB04F091BC043B
:105A90008483892F9927838386E294E00E949B0860
:105AA0006C0168E086E294E00E945F0B75E0A72E2F
:105AB000B12CA80EB91E40E0FF2400E010E06BE01E
:105AC000862E912C53E0E52E80913802992701967D
:105AD000800F911F6AE070E00E947B339C01992740
