:100000000C94A4010C94C3010C94C3010C94C3017F
:100010000C94C3010C94C3010C94C3010C94C30150
:100020000C94C3010C94C80A0C94C3010C94C30132
:100030000C94C3010C94C3010C94C3010C94C30130
:100040000C946A060C944C060C9456060C946006AC
:100050000C9429060C94C3010C94C3010C94C301A5
:100060000C94C3010C941B040C94C3010C94F30472
:100070000C94C3010C94C3010C94C3010C94C301F0
:100080000C94C3010C94C3010C94C3010C94C301E0
:100090000C940C060C94C3010C941E060C94C30122
:1000A0000C94C3010C94C3010C94C3010C94C301C0
:1000B0000C94C3010C94C3010C94C3010C94C301B0
:1000C0000C94C3010C94C3010C94C3010C94C301A0
:1000D0000C94C3010C94C3010C94C3010C94C30190
:1000E0000C94C3010C946A160C94C3010C94690916
:1000F0000C94330A0C94C8160C94C3010C949916F2
:100100000C94F50A0C94FF090C940A080C9414083A
:100110000C94F9070C94C3010C94C3010C94C30113
:100120004D0B5A0B6A0B520C7D0C7F0C8D0CDB0CAB
:10013000570D6E0DD90DA80E74129112A1121A133B
:10014000781300002110422063308440A550C6601F
:10015000E770088129914AA16BB18CC1ADD1CEE184
:10016000EFF13112100273325222B5529442F772FB
:10017000D662399318837BB35AA3BDD39CC3FFF3D4
:10018000DEE36224433420040114E664C774A4440B
:1001900085546AA54BB528850995EEE5CFF5ACC524
:1001A0008DD55336722611163006D776F6669556DB
:1001B000B4465BB77AA719973887DFF7FEE79DD774
:1001C000BCC7C448E5588668A7784008611802286B
:1001D0002338CCC9EDD98EE9AFF9488969990AA9C4
:1001E0002BB9F55AD44AB77A966A711A500A333A3B
:1001F000122AFDDBDCCBBFFB9EEB799B588B3BBB14
:100200001AABA66C877CE44CC55C222C033C600CCA
:10021000411CAEED8FFDECCDCDDD2AAD0BBD688D63
:10022000499D977EB66ED55EF44E133E322E511E1A
:10023000700E9FFFBEEFDDDFFCCF1BBF3AAF599FB3
:10024000788F8891A981CAB1EBA10CD12DC14EF153
:100250006FE18010A100C230E320045025404670B9
:100260006760B9839893FBA3DAB33DC31CD37FE3E4
:100270005EF3B1029012F322D23235421452776209
:100280005672EAB5CBA5A89589856EF54FE52CD5B4
:100290000DC5E234C324A014810466744764245459
:1002A0000544DBA7FAB79987B8975FE77EF71DC7C4
:1002B0003CD7D326F2369106B016576676761546A9
:1002C00034564CD96DC90EF92FE9C899E9898AB914
:1002D000ABA94458654806782768C018E1088238F9
:1002E000A3287DCB5CDB3FEB1EFBF98BD89BBBAB24
:1002F0009ABB754A545A376A167AF10AD01AB32A49
:10030000923A2EFD0FED6CDD4DCDAABD8BADE89D73
:10031000C98D267C076C645C454CA23C832CE01C98
:10032000C10C1FEF3EFF5DCF7CDF9BAFBABFD98F03
:10033000F89F176E367E554E745E932EB23ED10EE8
:10034000F01E00020E060C0411241FBECFEFD1E4F4
:10035000DEBFCDBF12E0A0E0B2E0E0E5F2E300E0F6
:100360000BBF02C007900D92A031B107D9F718E07A
:10037000A0E1B2E001C01D92A33AB107E1F70E94EB
:1003800011140C9427190C9400008FB7F894992736
:1003900008958FBF0895282F9FB7F894E82FFF275F
:1003A000EC5CFD4F80818F3F81F4E0916508E2179E
:1003B00071F40BC02093C60704C0FF27EC5CFD4F0F
:1003C00020832093650820E007C025E005C08091C8
:1003D000C6078F3F91F7EECF892F99278FBF822FC6
:1003E0009927089521E030E002C0220F331F8A953B
:1003F000E2F780917D02822B80937D02EBE6F0E0B4
:100400008081282B2083E8E6F0E080818160808372
:1004100080E090E0089521E030E002C0220F331F19
:100420008A95E2F7922F909580917D02892380939F
:100430007D02EBE6F0E08081282B2083E8E6F0E007
:1004400080818160808380E090E00895E2E4F1E0C3
:100450006927660FF11DE60FF11DC895982F802DB5
:100460003196C89590250895982F80911C02882375
:1004700089F5992379F531E030931C0280910202CD
:1004800080931D0220911102822F8170809331028E
:10049000809107029091080290931F0280931E02A0
:1004A000809112028093200232273170267EE32F42
:1004B000FF27EE0FFF1FED5FFD4F8081918190932D
:1004C000080280930702232B2093110287E00E94E9
:1004D000CB0108958091110280FF02C08B7F01C083
:1004E0008D7F8093110208951F931FB7F894809118
:1004F0005E08882341F482E00E94CB01882319F42E
:1005000081E080935E08812F99278FBF1F91089506
:100510009FB7F89480913B038A3011F020E006C029
:1005200020E080916702843009F421E0892F992727
:100530008FBF222349F084E00E94CB018FB7F8944B
:1005400099271092100206C08FB7F894992721E0DE
:10055000209310028FBF08950F931F93082F162F1B
:10056000809167028130D9F0813038F0823009F40F
:100570004AC0833009F028C159C0002309F458C18A
:100580001092B3071092B207109242031092C5075F
:1005900010926B021092D2021092D10239C1002344
:1005A00009F046C18091D1029091D2020E942602A8
:1005B0009093D2028093D10282E0809367021093DD
:1005C000C507143409F000C125C18695869503C07E
:1005D000809111028695817009F0F6C08091110218
:1005E000992311F0846001C0826080931102809190
:1005F0001102877E886080931102109212028FEFA1
:100600008093020215C1002309F0DEC060936B02E3
:100610008091D1029091D2020E9426029093D20240
:100620008093D10283E08093670202C180914203EC
:100630008F3F09F4C9C0002309F461C0823008F477
:10064000C3C0E091B207EE2309F4EBC04E2F415036
:10065000E42FFF27EE54F84F82819927382F222765
:10066000442311F4E2E002C0E42FE150FF27EE54EE
:10067000F84F82819927282B392B8091D1029091B4
:10068000D2022817390709F09FC080E00E94340287
:1006900030916B028091C6022091C702982F9F5F14
:1006A000963008F090E0921771F0E82FFF27EA5398
:1006B000FD4F32838F5F8093C602863010F0109218
:1006C000C6020E9474021092B3071092B20794E01F
:1006D00090936702109242031092C50710926B022A
:1006E0001092D2021092D102809121028D7F8093CC
:1006F000210280911002882309F49AC084C08230BC
:1007000008F44EC0E091B307FF27EE54F84F828102
:10071000482F5527342F20911102822F86958695D8
:100720008695837099278130910519F00297F9F425
:100730000EC0277E206120931102442311F485E02E
:1007400001C080E0809312023093020210C08091B9
:1007500012028F3260F4E0910702F0910802E80F74
:10076000F11D4083809112028F5F8093120280916D
:10077000B307E82FFF27EE54F84F62818F5F809315
:10078000B307833010F01092B30777278091D1021E
:100790009091D2020E9426029093D2028093D102BD
:1007A0008091B207E82FFF27EE54F84F12838F5F36
:1007B0008093B207833010F01092B2078091420309
:1007C0008F5F8093420334C01092B3071092B20738
:1007D00014E010936702109242031092C507109222
:1007E0006B021092D2021092D102809121028D7F71
:1007F0008093210281E00E943402809110028823BC
:1008000029F0109367020E94880212C0002381F031
:1008100081E009CF80911102982F917080FDD5CE93
:10082000D7CE8091B6079927382F222742E01CCFD8
:100830001F910F9108951F920F920FB60F921124DE
:100840002F933F934F935F936F937F938F939F93D8
:10085000AF93BF93EF93FF938091C00087FF42C097
:100860006091C600E091D302F091D402309719F163
:1008700080915C0890915D08E80FF91F60830196F4
:1008800090935D0880935C0820916A0830916B0812
:100890008217930738F11092D4021092D3028091FC
:1008A0003A038330F9F08091C1008F778093C100C3
:1008B00010923A0317C06E3719F460E081E010C05F
:1008C000809121026D3721F48260809321020AC059
:1008D00081FF05C08D7F8093210280E2682780E040
:1008E0000E94AC02FF91EF91BF91AF919F918F91C8
:1008F0007F916F915F914F913F912F910F900FBE1C
:100900000F901F9018952FB7F89433278093C60047
:10091000E0ECF0E08081806480832FBF0895FC01CB
:100920006115710519F481E090E0089580917602D7
:1009300090917702892B19F085E090E008957093EB
:10094000BA076093B907F0937702E09376021092AA
:1009500069021092680281E080936A028091C0006F
:1009600080648093C0008091C10080648093C10046
:10097000808121E030E030936902209368020E9478
:10098000830480E090E00895982F8D57823068F4BA
:100990008091210281608093210280E289278093E7
:1009A00041038DE78093450202C09093450261E0C8
:1009B00070E085E492E00E948F04992708958FB734
:1009C000F8949927209121022E7F209321022EE76F
:1009D000209345028FBF61E070E085E492E00E94C1
:1009E0008F049927089578941F920F920FB60F9253
:1009F0001124FF920F931F932F933F934F935F9375
:100A00006F937F938F939F93AF93BF93CF93DF9316
:100A1000EF93FF9320916802309169028091B907AA
:100A20009091BA072817390780F4E0917602F09187
:100A30007702E20FF31F80812F5F3F4F30936902EF
:100A4000209368020E948304D1C010927702109212
:100A5000760210926A028091C1008F7B8093C10060
:100A6000FFB6F8948091210280FF0EC08E7F8093A4
:100A70002102809141038093450261E070E085E4AA
:100A800092E00E948F04AFC080913B03843009F450
:100A90008CC0853040F4823021F18330B8F581304C
:100AA00009F09CC00DC0863009F48DC0863008F472
:100AB00083C0873009F48EC0883009F08FC091C0A0
:100AC000809175020E94C404082F83E080933B0349
:100AD0006091750280916808909169080E942602D1
:100AE00010C08091CA070E94C404082F83E080933D
:100AF0003B036091CA0780916808909169080E9441
:100B00002602909369088093680866C0E091D70236
:100B1000FF27EE0FFF1FE658FD4F80810E94C4049F
:100B2000082F1091D702C12FDD27FE01EE0FFF1F06
:100B3000E658FD4F608180916808909169080E9495
:100B400026029093690880936808209173022F5FB2
:100B500020937302113039F580911802E09113024D
:100B6000F0911402E80FF11DE0818F5F809318026D
:100B700090911702981730F482E080937B0240E056
:100B800050E002C04E2F5527DE01AA0FBB1FFD010A
:100B9000E758FD4F8081823031F02F3F21F0A65879
:100BA000BD4F4C9319C084E012C0809168080E9428
:100BB000C404082F85E00BC0809169080E94C4041A
:100BC000082F86E004C00E94DF04082F87E080938E
:100BD0003B0302C088E003C0002329F089E0809332
:100BE0003B030E9474028F2D99278FBFFF91EF91D5
:100BF000DF91CF91BF91AF919F918F917F916F9135
:100C00005F914F913F912F911F910F91FF900F9006
:100C10000FBE0F901F9018951F920F920FB60F9254
:100C200011248F938091C80087FF02C08091CE006D
:100C30008F910F900FBE0F901F90189578941F9270
:100C40000F920FB60F9211240F900FBE0F901F90AE
:100C500018951F920F920FB60F9211248F939F93A6
:100C60008091CD078F5F8093CD0780917102909125
:100C7000720201969093720280937102892B29F47B
:100C80008091D0028F5F8093D0029F918F910F90BF
:100C90000FBE0F901F9018951F920F920FB60F92D4
:100CA00011240F900FBE0F901F9018951F920F9256
:100CB0000FB60F9211240F900FBE0F901F90189532
:100CC0001F920F920FB60F9211240F900FBE0F902C
:100CD0001F9018951F920F920FB60F9211240F902C
:100CE0000FBE0F901F9018954FB7F894552720917D
:100CF000E100622F2091E200722F2091E300822F09
:100D00002091E400922F4FBF0895EF92FF920F932E
:100D10001F93CF93DF937B018C018FB7F894C82F7B
:100D2000DD270E9474069B01AC01C801B701623047
:100D300071058105910520F462E070E080E090E0AB
:100D4000260F371F481F591FDA01C901B093F80059
:100D5000A093F7009093F6002093F50081E0809334
:100D6000E0008091DF0081608093DF008FEF80934F
:100D70000902CFBFDF91CF911F910F91FF90EF90AC
:100D80000895EF92FF920F931F937C018FB7F89411
:100D9000992700913F03109140030F5E1E4F10935F
:100DA000400300933F03015111408FBF80E10E9437
:100DB000CB01C801B7010E94781844961F910F918A
:100DC000FF90EF900895FC0182819927982F882742
:100DD00021813327822B932BE5E096958795EA9521
:100DE000E1F78170907008958093CE07882311F405
:100DF00084E001C081E0809365028EE00E94CB0117
:100E00000895FB0121E030E002C0220F331F8A95D4
:100E1000E2F7209584A5822384A70895CF93DF93DA
:100E2000EC010E94E306882339F18A812981992700
:100E3000982F88273327822B932B87749C7C81548F
:100E40009848D1F48F814E812FB7F8943327609161
:100E50000A0270910B022FBF20E09927982F882754
:100E60005527842B952B8617970709F021E081E001
:100E70002827822F992702C080E090E0DF91CF9150
:100E80000895FB0121E030E002C0220F331F8A9554
:100E9000E2F784A5822399270895FC01818199278F
:100EA00080739070816498688183892F99278283E9
:100EB0000895582F8091150290911602892B19F0F0
:100EC00085E090E008952FB7F894552309F446C0C3
:100ED0001092180210921902709314026093130278
:100EE00082E090E0909316028093150250931B02CB
:100EF00010921A02523709F040E080E0840F80938C
:100F00001702822F99278FBF8FB7F894282F332786
:100F100080913B038A3011F42FBF19C02FBF9FB7B8
:100F2000F89480917B02882311F020E006C081E0D4
:100F300080937B0250937C0221E0892F99278FBFF9
:100F4000222329F00E94740280E090E0089510921C
:100F500016021092150281E090E0089585E08093DA
:100F6000180210921902709314026093130282E027
:100F700090E0909316028093150210921B0210923B
:100F80001A0285E0495FBACF9FB7F8948091670253
:100F9000882319F484E080936702892F99278FBFF3
:100FA0009FB7F89480913B03882319F48AE08093DB
:100FB0003B03892F99278FBF0E94880280E090E031
:100FC00008958FB7F894282F3327922F80913B03F1
:100FD0008A3041F080916702843021F02FBF89E090
:100FE00090E008959FBF83E00E94CB0180E090E0F5
:100FF00008951F920F920FB60F9211248F93809134
:1010000074028F5F809374028F910F900FBE0F90C8
:101010001F9018951F920F920FB60F9211240F90E8
:101020000FBE0F901F9018951F920F920FB60F9240
:1010300011240F900FBE0F901F9018952F923F9282
:101040004F925F926F927F928F929F92AF92BF92D8
:10105000CF92DF92EF92FF920F931F93CF93DF9384
:101060002C0180914602882309F01EC180917E02E6
:10107000853009F019C180917705882309F014C1E2
:10108000B20182E00E944107882311F490E003C07E
:10109000F20196A59F708091D602981729F090933F
:1010A000D602906C9093450112010894211C311CCA
:1010B000F1018181F201218140E09927982F882751
:1010C0003327822B932B87749C7C8154984809F496
:1010D00041E04423A9F08091460199278F719070D7
:1010E0002091CC0740913002240F312D311D43E077
:1010F000359527954A95E1F7281739070CF4D4C0A0
:1011000089E080934201B20184E00E944107882374
:1011100019F4C0E0D0E006C0D2018C918550E20104
:10112000C80FD11DF20180819927282F809380015B
:10113000809141018F71893021F086E080934201D6
:10114000B3C00EEFF02EF20E0FB7F89411270E94E5
:1011500074063B014C0182E0809342010FBF8BE09B
:1011600090E0A0E0B0E0680E791E8A1E9B1E6F2DF5
:101170007727209709F47EC02881E9808A81AB8097
:101180009927AA27BB27BA2FA92F982F882733275B
:1011900044275527522F442733272227FF2400278F
:1011A00011278701FF24EE242E293F29402B512BA4
:1011B000BB24CC24DD242A293B294C295D29822B00
:1011C000932BA42BB52B86199709A809B9098B83F2
:1011D000292F3A2F4B2F55272A839D014427552726
:1011E00029838B2F9927AA27BB278883AB01B101BD
:1011F00081E891E00E94171986E0809342012881DE
:10120000E9808A81AB809927AA27BB27BA2FA92F0B
:10121000982F8827332744275527522F44273327D1
:101220002227FF24002711278701FF24EE242E29DF
:101230003F29402B512BBB24CC24DD242A293B29D8
:101240004C295D29822B932BA42BB52B860D971D42
:10125000A81DB91D8B83292F3A2F4B2F55272A8381
:101260009D014427552729838B2F9927AA27BB2720
:10127000888309C0AB01B10181E891E00E94171990
:1012800086E080934201F20184A5826084A760A673
:1012900071A682A693A686E080937E0284E0809366
:1012A000460280E090E002C085E090E0DF91CF91BF
:1012B0001F910F91FF90EF90DF90CF90BF90AF9074
:1012C0009F908F907F906F905F904F903F902F9066
:1012D000089578941F920F920FB60F9211242F93B6
:1012E0003F934F935F936F937F938F939F93AF93AE
:1012F000BF93EF93FF932FB7F8943327809177052F
:101300008062809377052FBF8BE00E94CB01FF9115
:10131000EF91BF91AF919F918F917F916F915F916D
:101320004F913F912F910F900FBE0F901F901895E6
:101330001F93982F1FB7F89480912202823099F55D
:1013400080910F02891779F580910D0220E030E03D
:101350008F3F11F421E030E0232BF1F49FEF9093C5
:101360000F028F3F19F42FEF30E00DC0282F3327E5
:10137000F901EE59FD4F808180930D028F3F11F4EA
:1013800090930E0290832093470281E08093220283
:101390008CE00E94CB0105C08FEF80930F0210926A
:1013A000220221E001C020E0812F99278FBF90E029
:1013B000213009F491E081E09827892F99271F9126
:1013C0000895FC018FE38287809123028F5F8093D1
:1013D0002302838380916502882311F085E00DC08C
:1013E000F0933D03E0933C0381E08093650210920B
:1013F00038038EE00E94CB0180E0992708951F9268
:101400000F920FB60F9211242F933F934F935F9338
:101410006F937F938F939F93AF93BF93EF93FF93BC
:101420008091DF008E7F8093DF008FEF8093090231
:1014300080913603813019F482E0809336038BE08B
:101440000E94CB01FF91EF91BF91AF919F918F913E
:101450007F916F915F914F913F912F910F900FBEB0
:101460000F901F90189578941F920F920FB60F92BD
:1014700011242F933F934F935F936F937F938F9399
:101480009F93AF93BF93EF93FF932FB7F8943327B6
:10149000809177058061809377052FBF8BE00E9454
:1014A000CB01FF91EF91BF91AF919F918F917F9170
:1014B0006F915F914F913F912F910F900FBE0F90C1
:1014C0001F9018951F93CF93DF93AC011FB7F8942B
:1014D00080917002882329F580912D029927FC01C3
:1014E000EE0FFF1FE65BFD4FC081D181518340832A
:1014F00001966CE070E00E948C1880932D02209180
:101500003E03281719F481E0809370028091CB0785
:10151000882381F489E00E94CB0181E08093CB078E
:1015200009C08FB7F89499272EB130E123272EB93F
:101530008FBFEA01812F99278FBFCE01DF91CF9115
:101540001F91089580916502823031F481E080938B
:1015500065028EE00E94CB010895809139031D9BA6
:101560000CC08823A1F481E08093390380E00E94BD
:10157000CB0185E00E94F2010895882341F010928A
:10158000390381E00E94CB0185E00E940B0208959F
:101590001F920F920FB60F9211242F933F934F93E8
:1015A0005F936F937F938F939F93AF93BF93EF93CB
:1015B000FF9320916B0093B180917D028927822354
:1015C00085FF02C00E94AD0AFF91EF91BF91AF91DC
:1015D0009F918F917F916F915F914F913F912F914B
:1015E0000F900FBE0F901F90189578941F920F9236
:1015F0000FB60F9211242F933F934F935F936F93E6
:101600007F938F939F93AF93BF93EF93FF932FB7E6
:10161000F8943327809177058160809377052FBFF9
:101620008BE00E94CB01FF91EF91BF91AF919F9111
:101630008F917F916F915F914F913F912F910F907B
:101640000FBE0F901F9018952F923F924F925F926E
:101650006F927F928F929F92AF92BF92CF92DF92C2
:10166000EF92FF920F931F93CF93DF93CDB7DEB727
:1016700029970FB6F894DEBF0FBECDBFE82FFF2726
:10168000E131F10510F00C94DB13E057FF4FEE0F42
:10169000FF1F0590F491E02D09940E94E10799271E
:1016A000882311F40C94DB13893011F40C94DB13B0
:1016B00080E00CC00E94C4079927882311F40C9481
:1016C000DB13893011F40C94DB1381E00E94CB0111
:1016D0000C94DB138FB7F89410925E0820913B03B3
:1016E00040E0283009F441E030E0293009F431E0ED
:1016F000442311F4332351F010923B03E091D702BD
:10170000FF27EE0FFF1FE758FD4F108299278FBF6D
:10171000442311F4332331F19FB7F8948091CA0721
:101720008F5F8093CA0780917502833479F420918A
:10173000C7028091C602821779F0822F8F5F809353
:10174000C702863048F01092C70206C0A0E04423CA
:1017500009F4A1E071E002C0A0E070E0892F9927B0
:101760008FBF06C0222311F010E06CC0A0E070E033
:101770008FB7F8949927209110028FBF222341F050
:101780008FB7F89499272AE020933B038FBF42C07C
:101790008FB7F89499276091790240917B028FBFAF
:1017A0008FB7F894282F332750E09091C60280918C
:1017B000C702981709F451E02FBF552341F566235E
:1017C00031F55FB7F89482E0809379028FB7F8948F
:1017D000282F332740E09091C6028091C7029817C6
:1017E00009F441E02FBF442311F080E006C0E091EE
:1017F000C702FF27EA53FD4F828180937A0283E478
:10180000809375021092D702852F99270EC0415000
:10181000423010F010E00BC08FB7F894992725E400
:101820002093750221E02093D7028FBF11E0772328
:1018300049F08FB7F8949927A09319028FBF86E0DB
:101840000E94CB018FB7F894E82EFF2480913B03D0
:101850008A3029F40E948802EFBE0C94DB13EFBE9D
:10186000112311F40C94DB132FB7F8943327109243
:101870006908109268081092730281E080933B031C
:101880002FBF0E94DF04882311F40C94DB138FB761
:10189000F894992729E020933B038FBF0E9474029C
:1018A0000C94DB138091C1008F7B8093C1008091E9
:1018B000C1008F778093C10010923A0310926A02A0
:1018C0008091C10088608093C1008091C1008061D7
:1018D0008093C1008FEF809309028091C1008068DE
:1018E0008093C1008FB7F894992710923B03109210
:1018F00067028FBF109270025EC785E0E7CE8091CD
:10190000C100877F8093C1008091C1008F7E80934A
:10191000C1008FEF809309024EC7109216021092F9
:1019200015028FB7F8949927209119028FBF8091E3
:101930001A02811123E04091130250911402809108
:101940001B02882321F0823709F035C723C02223E8
:1019500009F025C13FB7F89420913E03E22FFF27FD
:10196000EE0FFF1FE65BFD4F8081918148175907FD
:1019700071F4822F8F5F80933E038C3010F01092B1
:101980003E0380917002882311F010927002832F21
:1019900099270CC1222309F09FC08FB7F89488E1E2
:1019A00090E029E00FB6F894A895809360000FBEF0
:1019B00020936000FFCF8FB7F894992720911D02E4
:1019C000C0901E02D0901F0230912002E0903102A0
:1019D0008FBF222331F0223709F43EC0222309F0C1
:1019E0004FC0FFB6F89480912C02882339F580917E
:1019F0002402E82FFF27EE0FFF1FE255FD4F008165
:101A00001181D182C0828F5F809324028C3010F0CC
:101A100010922402909124028091A208981719F440
:101A200081E080932C0280912502882381F48AE052
:101A30000E94CB0181E08093250209C08FB7F89402
:101A400099272EB130E123272EB98FBF86018F2D24
:101A500099278FBF680114C0333091F4D6018C915F
:101A6000823571F4F6018181833551F482818435A8
:101A700039F4D0922F02C0922E0288E00E94CB014E
:101A80008FB7F894EE2DFF27EE0FFF1FED5FFD4F90
:101A9000D182C08220911102EE2011F02B7F01C073
:101AA0002D7F2093110210921C0299277CC6E09191
:101AB0002E02F0912F028AE5808382E4818380E503
:101AC000828360912E0270912F0243E082E70E9490
:101AD0005907882309F46FC688E0F8CD8FB7F894CA
:101AE000282F3327422F90912D0280913E03981783
:101AF00039F480917002882319F41092CB0798C5AD
:101B00004FBFE0913E03FF27EE0FFF1FE65BFD4F47
:101B10000190F081E02D80818D50482F5527409312
:101B2000D502138567817681818520859927982F35
:101B300088273327822B932B3481359627E0DF01CA
:101B40001D922A95E9F735978087892F99278783F2
:101B50003287E0913E03FF27EE0FFF1FE65BFD4F4C
:101B60000190F081E02D4D31D0F4862F9927982FE8
:101B70008827272F3327822B932B8683892F99271A
:101B8000858313874187BF0180E00E94590788231E
:101B900031F48FB7F89499272EB138E0D6C08FB7BB
:101BA000F89499272EB130E123272EB98FBF89E011
:101BB0008DCD8FB7F894282F3327422F9091240290
:101BC0008091A208981739F480912C02882319F487
:101BD000109225022DC54FBFE091A208FF27EE0FFE
:101BE000FF1FE255FD4FA080B180F501F184E58033
:101BF000D680078180851127102F00279927082B71
:101C0000192BC384C5010E944D07F50114A6D50107
:101C100011960087012F11270187FCE1FF1508F4B9
:101C2000DCC4FD018181F501218140E09927982FD5
:101C300088273327822B932B87749C7C8154984868
:101C400009F441E0442319F4C5010E944D074E2DCB
:101C50005527542F44278D2D9927482B592B2DE09C
:101C6000F20ED501FC922FB7F894332780910A0227
:101C700090910B022FBFF5018087892F99278187CB
:101C80002FB7F894332780910C022FBF99278483B4
:101C90001582C3864683452F552747838FB7F8940F
:101CA000282F332780912202882371F482E08093C9
:101CB000220210920F022FBFC5010E94E10999274D
:101CC000182F882399F00FC02FBFB0924902A0921D
:101CD00048028FB7F894082F1127202F80912202F5
:101CE000882399F406C080E00E949809812F9927E3
:101CF00024C081E080932202109247028CE00E946F
:101D0000CB010FBF80E090E018C0809162028F3F4E
:101D100089F4E0910E02EE2369F047C510920D029E
:101D200004C0FF27EE59FD4F108210920E0280E092
:101D300090E002C085E090E02FBF892B09F04DC4F0
:101D40008FB7F89499272EB134E023272EB92BC5ED
:101D500080917705882309F4F7C02FB7F8943327CB
:101D60008091E900A82E8091EA00B82E8091EB00C6
:101D7000C82E8091EC00D82E00917705109277053F
:101D80002FBF07FF0DC080914602833011F08730CE
:101D900039F485E080937E0288E08093460254C047
:101DA00080914602843009F04FC001FF4DC085E0AC
:101DB00080937E021092460280913202833019F4A1
:101DC0001092320241C0E0906608F0906708C701A7
:101DD0000E94E306882389F1F701828121819927F6
:101DE000982F88273327822B932B87749C7C8154D0
:101DF000984819F5F701878126819927982F882718
:101E00003327822B932B8F5F9F4FB9F090E0809107
:101E10003603882309F491E0992379F012E01093B6
:101E2000780281E0809336036EE370E080E090E01A
:101E30000E9485061093320207C01092320210925F
:101E4000660280E00E94F406802E992485FE41C03F
:101E500080914602863019F41092460202C088230F
:101E6000C1F5E0919B08F0919C08003219F5F090C3
:101E700046012FE1F22280913002982F9695969597
:101E80003F2D391B830F8093300284A5826084A785
:101E9000A0A6B1A6C2A6D3A600919B0810919C084B
:101EA000B80182E00E940107F80184A5886084A738
:101EB000F6A60BC0BF0181E00E94010760919B085C
:101EC00070919C0883E00E94010785E080934602A0
:101ED00004C080914602853089F484FE0FC02091B1
:101EE000CC07809146018F71922F96959695891B0C
:101EF000280F2093CC0789E08093460280FE0CC017
:101F000080917E02823041F480914602825082307C
:101F100018F483E080937E0283FE16C0809146020F
:101F2000863091F4809155018F77809355011092FE
:101F3000460280914101992787709070892B09F49E
:101F400033C28091410130C290914602992309F435
:101F50002BC2993009F0AEC140917B0180914601BE
:101F600087FF5EC0433008F45BC0842F99278A97AF
:101F70000CF056C0E0919B08F0919C0841934250B0
:101F8000552760E871E0CF010E941719E0919B0886
:101F9000F0919C08818190E08770823009F491E093
:101FA000992349F020E030E080913202823081F4C0
:101FB00021E030E00DC08FB7F894282F332790E050
:101FC00080917805833008F491E02FBF292F3327C3
:101FD000232B31F1E0917B01FF27E058FE4F8081F8
:101FE000E0919B08F0919C0885A785E080937E0294
:101FF00010924602E0909B08F0909C0867010894BC
:10200000C11CD11CF701818190E0282F3327277054
:1020100030702230310509F491E0992339F42EC053
:1020200085E080937E0210924602BAC1809132020E
:10203000823009F03AC1F7019381E0916608F0918E
:1020400067088381981709F030C12230310509F003
:102050002CC18091DF008E7F8093DF008FEF809313
:1020600009021092360384A5816084A7109232027F
:102070001092660280E00E94F40617C1809132023D
:102080008823D1F4C7010E940E078823A9F085E0B8
:1020900080937F0282E08093800210928102F60199
:1020A0008281809382028FE792E00E941E0888233B
:1020B00019F483E0809332020E9474068B01C701F9
:1020C0000E940E07882311F00A5C1F4F1093CF0265
:1020D0000093CE020E947406061B170BB80110165F
:1020E0001106E4F4809166028823A9F490E08091BF
:1020F0003603882309F491E0992381F081E08093ED
:10210000780280933603882777FD8095982F0E9468
:10211000850680E801C0806880936602F6018085AC
:1021200027819927582F44273327422B532B8091FF
:102130003302282F3327F901EE0FFF1FE554F84F24
:1021400080819181709137038417950769F4F901B3
:10215000E05AF74F8081871709F472C0872F8F5F8D
:1021600080933703808322C000E010E080E090E09D
:10217000FBEBAF2EF7E0BF2EE0E68E2EE8E09E2EC2
:10218000D401682F9C01F501808191818417950706
:1021900079F420933302909137038C91891709F4D5
:1021A0004FC0892F8F5F809337038C9300E82FC037
:1021B000F4018081F72FF81B0F1710F40F2F122F47
:1021C0006F5FC9010196119622E030E0A20EB31EA6
:1021D0000894811C911C8530910599F66530B9F4FD
:1021E00010933302A12FBB27FD01EE0FFF1FE55413
:1021F000F84F51834083809137038F5F809337037B
:10220000FD01E05AF74F8083A356B74F1C9290917F
:102210003703892F8F778F3779F40F3768F0E0E62F
:10222000F8E0292F207880818F67891320833196E9
:1022300038E0E536F307B9F780913302282F3327CA
:10224000F6019281A22FBB27FD01E356F74F808153
:1022500080FF07C0FD01E758FA4F8081981729F1E8
:1022600002C081608083A758BA4F9C93DFB6F89470
:10227000809178058330B0F4E091C907E80FE3302E
:1022800008F0E350FF27EE0FFF1FEA5DFD4F0081CE
:102290001181F182E0828F5F809378058FE00E9448
:1022A000CB0178018D2D99278FBFF0929C08E09289
:1022B0009B086DC0292F2150233008F05AC0892F68
:1022C0008250823098F480917E02813079F49FEFC1
:1022D00090934F0180E880934E01809139018D7F6A
:1022E000809339019093090282E010C0933089F401
:1022F00080917E02833069F48DE580934E018FEFEB
:102300008093090286E08093420184E080937E02FC
:1023100010C0223070F480917E02853051F493E039
:102320009093420110924E018FEF80930902909397
:102330007E0290914602913069F480917E02833052
:1023400009F04CC0809139018260809339019093EB
:102350007E020BC09230D9F480917E02833001F569
:1023600010924E018FEF8093090288E0809346021D
:1023700012C0973061F480915F08806480934801B7
:1023800080917E02853089F784E080937E0280917F
:102390004602883029F4109246028DE00E94CB015B
:1023A000809146028823D1F480917E028530B1F479
:1023B00080917705882391F480913202882371F40B
:1023C00080916602882351F490E08091360388233F
:1023D00009F491E0992311F00E94A20A809136033A
:1023E000823009F0E8C110923603F0907802F1E0F3
:1023F000FF1629F022E0F21609F0DDC16DC0009150
:10240000CE021091CF020E947406209166022038FD
:1024100029F4109266020E94A20ACDC1061B170B76
:1024200027FF03C010161106ECF0C0906302D09095
:102430006402809132028823A9F4C6010E941E081A
:102440009927882351F4B6010E940107F0923202C5
:10245000D0926708C09266083BC09927F82E88235F
:1024600019F436C025E0F22E20916602822F9927BA
:102470008F770197A1F420782260209366028CE880
:1024800090E00E94C10621E0209378022093360359
:10249000AA27BB27BC01CD010E9485068CC127FF5E
:1024A00013C01016110684F480E88093660281E060
:1024B0008093780280933603B801882777FD809552
:1024C000982F0E94850602C0109266028F2D09C0C7
:1024D00083E0809366026FC110923202109266020E
:1024E00080E00E94F40667C12FB7F89433278091EB
:1024F000470280930F0282E0809322022FBF8091D7
:102500000F02882309F057C1809148029091490237
:102510000E94E109882309F44EC180E00E949809D5
:102520005CC08091650210926502853019F41092AA
:102530002C0241C1863009F43EC1873009F43BC109
:1025400037C0109165021130B1F5809138038F5F6B
:1025500080933803863078F520913C0330913D0319
:1025600080916602882301F590E0809136038823EC
:1025700009F491E09923C1F030936402209363023F
:102580001093660286E391E00E94C10610937802E0
:1025900010933603AA27BB27BC01CD010E948506F4
:1025A0001092CE0783E004C085E08093CE0782E0DE
:1025B0008093650200C1109265021091CE07E090F1
:1025C0003C03F0903D03F70182858F3309F0F3C09F
:1025D00080E00E949809112341F08FB7F894992761
:1025E0002EB130E123272EB91FC03FB7F8942091B8
:1025F000A208E22FFF27EE0FFF1FE255FD4F80815B
:102600009181E816F90671F4822F8F5F8093A208FA
:102610008C3010F01092A20880912C02882311F0C7
:1026200010922C02832F99278FBF8AE00C94660B9F
:102630002FBFC1C08FB7F894282F3327809178051A
:102640008823B1F3E091C907FF27EE0FFF1FEA5D72
:10265000FD4FA081B1812FBFFD0182859781268129
:102660008F3381F4BD01645F7F4F8C918D50482F73
:1026700055278FB7F89499278FBFCD010E94620A22
:10268000DC011AC0892F9927582F4427822F9927B8
:10269000482B592B8FB7F894992720910A02309133
:1026A0000B028FBF4217530719F04F5F5F4F21F4A2
:1026B0008FB7F89499278FBF9FB7F8948091C90777
:1026C000E82FFF27EE0FFF1FEA5DFD4FB183A083C8
:1026D0008F5F8093C907833010F01092C9078091F3
:1026E0007805815080937805892F99278FBFA2CFD5
:1026F0006FB76983F89420906C0230906D0240901F
:102700006E0250906F02662477248824FEE4AF2E78
:10271000E3E8BE2ECC24DD24EE24FF2400E010E00C
:10272000222D332D442D552D662D772D882D90E0AB
:102730000E94F7162A833B834C835D836E837F83DD
:1027400088879987822E932EA42EB52E24013501D9
:1027500000E20E94F517A22EB32EC42ED52EA3019F
:10276000920156954795379527952A0D3B1D4C1D8F
:102770005D1D57FF05C05F772F5F3F4F4F4F5F4F86
:1027800020936C0230936D0240936E0250936F025F
:10279000A9818A2F99278FBF8FB7F89499273093F3
:1027A000400320933F038FBF06C080910D028F3FEF
:1027B00009F0B7CAB3CA29960FB6F894DEBF0FBEA8
:1027C000CDBFDF91CF911F910F91FF90EF90DF90E0
:1027D000CF90BF90AF909F908F907F906F905F90C1
:1027E0004F903F902F9008958091C6078F3FB1F092
:1027F000282F3327F901EC5CFD4F80818093C607B9
:102800008F3F11F4809365088FEF80832F3F31F065
:10281000822F0E94240B81E090E0089580E090E0F8
:102820000895EF92FF920F931F93EFB6F89414BEA2
:1028300088E10FB6F89480936000109260000FBE9C
:1028400041E150E06FEF70E084E392E00E942019D4
:102850008FEF8093C607809365088CE698E090938D
:102860009C0880939B081092CC078AE580933002E5
:1028700080913501806180933501809134018061C0
:102880008093340180913301806180933301809182
:10289000320180618093320185B7806885BF85B73A
:1028A000806885BF80E8809361008FE0809361003D
:1028B00091E09093810080E28093B6009093B10004
:1028C000EFEFFFEFA0E060E070E0BEEF8091B200BC
:1028D0008823E1F740918400509185008091B200F7
:1028E0008034E1F72091840030918500241B350B62
:1028F000E217F30708F4F9012617370708F4B901BE
:10290000CB018E1B9F0B029720F4AF5FA23330F0F8
:1029100007C0A0E0EFEFFFEF60E070E0B150B1F66C
:102920003093C8072093C7071092B1008091B1007F
:1029300080938100809181008093B6008091B600E1
:10294000992783709070892BC9F78091DF008E7F63
:102950008093DF008091DC008E7F8093DC0080E23A
:102960008093B6008091DC008F7C80638093DC00D4
:102970008FEF809309028091DF0088608093DF00F1
:10298000809180008C7F8093800080918100807E88
:1029900082608093810080916F00816080936F00DE
:1029A000569A5E9A6A9A6B9A6C9A6D9A729A739A10
:1029B000749A759A0E94F4138823E1F787EC809348
:1029C000490180EC809345011092D6028BE0809300
:1029D0005F08809144018062809344018BE480937E
:1029E0004801809139018260809339018091DC0037
:1029F000877F88608093DC00F1E0FF2EF0927E02FA
:102A000020910002309101022F5F3F4FC901AA2798
:102A1000BB272150304080936C0290936D02A093AD
:102A20006E02B0936F028FEC97E090932702809331
:102A300026028F9690932902809328028DE298E0D7
:102A400090932B0280932A028FEF9FEF9093BC0705
:102A50008093BB079093BE078093BD079093C007F8
:102A60008093BF079093C2078093C1079093C407D8
:102A70008093C3072295207F209323028FEF8093BA
:102A8000620212E006E06091C7077091C8078827CC
:102A9000992728E037E040E050E00E949F1821503D
:102AA00030402093C400832F99278093C500109352
:102AB000C0000093C2001092C1002093CC0080930C
:102AC000CD001093C8000093CA001092C900109264
:102AD000790210927B028AE080933B03109273028A
:102AE000109275021092CA07109269081092680835
:102AF00010925E081092D7021092B3071092B2079C
:102B000084E080936702109242031092C5071092EE
:102B10006B021092D2021092D1021092C702109250
:102B2000C6021D9B09C0F092390380E00E94CB01D0
:102B300085E00E94F20108C01092390381E00E94F2
:102B4000CB0185E00E940B020E94F4138823E1F779
:102B50008E2D99278FBF7894EAE4F2E08EE795E016
:102B6000819391938F9622E0E236F207C9F7109293
:102B70003E0310922D021092CB0781E080937002E9
:102B8000EEEAF2E083E493E0819391938F9622E062
:102B9000E63CF207C9F71092A208109224021092A4
:102BA000250281E080932C0280916502882391F4B4
:102BB00080914602882371F480917E02853009F469
:102BC00086C083E0809346028BE00E94CB0185E0C3
:102BD000809365020E94E107893011F4109270021F
:102BE0008FB7F894A82FBB2757C08091090287FFA1
:102BF0004AC080914E0187FF03C042E050E002C00E
:102C000045E050E08091DC0085FF03C063E070E0A8
:102C100002C065E070E080916F008E7219F020E0D4
:102C200030E002C025E030E08091C10083FD0FC09C
:102C30008091C10084FD0BC08091C90083FD07C055
:102C40008091C90084FD03C0E5E0F0E002C0E0E04F
:102C5000F0E0862F461708F4842F9927821708F48E
:102C6000282F822F99278E1708F4E82FFF27E0934B
:102C7000090283B7FF27E7FDF095EE5BFC4FE49177
:102C8000807F8E2B83BF83B7816083BF78948895C4
:102C9000F89483B78E7F83BF8091C6078F3F09F476
:102CA000A4CF282F3327F901EC5CFD4F808180935E
:102CB000C6078F3F11F4809365088FEF80832F3F05
:102CC00009F493CFAFBF822F0E94240B89CF1092BB
:102CD0002C0280CF78941F920F920FB60F9211247E
:102CE0002F933F934F935F936F937F938F939F9314
:102CF000AF93BF93EF93FF932FB7F894332780914F
:102D000077058068809377052FBF8BE00E94CB0109
:102D1000FF91EF91BF91AF919F918F917F916F91B3
:102D20005F914F913F912F910F900FBE0F901F9089
:102D3000189578941F920F920FB60F9211242F932B
:102D40003F934F935F936F937F938F939F93AF9333
:102D5000BF93EF93FF932FB7F894332780917705B4
:102D60008260809377052FBF8BE00E94CB01FF919B
:102D7000EF91BF91AF919F918F917F916F915F91F3
:102D80004F913F912F910F900FBE0F901F9018956C
:102D900078941F920F920FB60F9211242F933F93A6
:102DA0004F935F936F937F938F939F93AF93BF9353
:102DB000EF93FF932FB7F8943327809177058860BE
:102DC000809377052FBF8BE00E94CB01FF91EF919D
:102DD000BF91AF919F918F917F916F915F914F9133
:102DE0003F912F910F900FBE0F901F901895ACE25E
:102DF000B0E0EDEFF6E10C94E018222E332E442ED5
:102E0000552E662E772E882E992EFE013196A8E03B
:102E10001192AA95E9F729823A824B825C826D82EF
:102E20007E828F829886FE013996B8E01192BA951B
:102E3000E9F7A986BA86CB86DC86ED86FE860F8703
:102E4000188B89819A81AB81BC8189A79AA7ABA78E
:102E5000BCA77C018D018FEF9FEFA0E0B0E0E822DE
:102E6000F9220A231B2389A59AA5ABA5BCA51D01A0
:102E70004424552489859A85AB85BC858DA39EA362
:102E8000AFA3B8A75C016D018FEF9FEFA0E0B0E0AA
:102E9000A822B922CA22DB228DA19EA1AFA1B8A58A
:102EA0003D0188249924C801B701A60195010E941B
:102EB000C11869A37AA38BA39CA3C801B701A4017D
:102EC00093010E94C1187B018C01C201B101A601CE
:102ED00095010E94C1185B016C01C201B101A401FE
:102EE00093010E94C1183B014C01EA0CFB1C0C1D14
:102EF0001D1D89A19AA1ABA1BCA19D014427552705
:102F00002E0D3F1D401F511F2A153B054C055D0529
:102F100040F480E090E0A1E0B0E0680E791E8A1EE7
:102F20009B1ECA01AA27BB27860D971DA81DB91D88
:102F30008D8F9E8FAF8FB8A3A9013327222789A138
:102F40009AA1ABA1BCA1A070B070280F391F4A1F75
:102F50005B1F298F3A8F4B8F5C8FA98CBA8CCB8CDF
:102F6000DC8CED8CFE8C0F8D18A1FE01719698E023
:102F700011929A95E9F7ED8AFE8A0F8B188F2D81B1
:102F80003E814F8158856DA17EA18FA198A50E9499
:102F9000C1183B014C012D853E854F85588969A597
:102FA0007AA58BA59CA50E94C1182D893E894F89C1
:102FB000588D260F371F481F591F260D371D481DD6
:102FC000591D2D8B3E8B4F8B588F6D887E888F8837
:102FD000988C2A2D3B2D4C2D5D2D662D772D882D1F
:102FE000992DE2E1AC960C94FC18A0E1B0E0EBEF77
:102FF000F7E10C94E018222E332E442E552E662E27
:10300000772E882E992E002309F466C088E0FE01F1
:10301000319611928A95E9F729833A834B835C8331
:103020006D837E838F829887E0E2E01B1E16CCF5CD
:103030002D813E814F815885602F772767FD7095E0
:10304000DA01C901062E04C0B695A7959795879514
:103050000A94D2F78D879E87AF87B88B04C0220F62
:10306000331F441F551FEA95D2F789819A81AB819E
:10307000BC8104C0B695A795979587956A95D2F7B8
:10308000282B392B4A2B5B2B29873A874B875C8768
:1030900029843A844B845C846D847E848F849888F0
:1030A0001BC01D861E861F86188A2E2F332727FDDC
:1030B0003095309521953F4F8D819E81AF81B885A8
:1030C00004C0B695A795979587952A95D2F78987D5
:1030D0009A87AB87BC87DCCF222D332D442D552D0D
:1030E000662D772D882D992DE2E160960C94FC18C1
:1030F000AA1BBB1B51E107C0AA1FBB1FA617B7071E
:1031000010F0A61BB70B881F991F5A95A9F7809539
:103110009095BC01CD01089597FB092E07260AD092
:1031200077FD04D0E5DF06D000201AF47095619594
:103130007F4F0895F6F7909581959F4F0895A1E2EE
:103140001A2EAA1BBB1BFD010DC0AA1FBB1FEE1F21
:10315000FF1FA217B307E407F50720F0A21BB30B6C
:10316000E40BF50B661F771F881F991F1A9469F7E8
:1031700060957095809590959B01AC01BD01CF0144
:103180000895629FD001739FF001829FE00DF11DB1
:10319000649FE00DF11D929FF00D839FF00D749FD1
:1031A000F00D659FF00D9927729FB00DE11DF91F7D
:1031B000639FB00DE11DF91FBD01CF0111240895DA
:1031C0002F923F924F925F926F927F928F929F9237
:1031D000AF92BF92CF92DF92EF92FF920F931F9325
:1031E000CF93DF93CDB7DEB7CA1BDB0B0FB6F894D6
:1031F000DEBF0FBECDBF09942A88398848885F8416
:103200006E847D848C849B84AA84B984C884DF8086
:10321000EE80FD800C811B81AA81B981CE0FD11D6A
:103220000FB6F894DEBF0FBECDBFED010895FB01D0
:10323000DC0102C001900D9241505040D8F7089532
:10324000DC0101C06D9341505040E0F70895FFCF7D
:103250000100FFD8020703D802FF010026FFFFFF8D
:00000001FF
