S01900006275696C642F75636D696E692F6D61696E2E7372656373
S11300000C94AF010C94CE010C94CE010C94CE014F
S11300100C94CE010C94CE010C94CE010C94CE0120
S11300200C94CE010C946C180C94CE010C94CE015B
S11300300C94CE010C94CE010C94CE010C94CE0100
S11300400C949D060C947F060C9489060C949306DC
S11300500C945C060C94CE010C94CE010C94CE014D
S11300600C94CE010C944E040C94CE010C942605F1
S11300700C94CE010C94CE010C94CE010C94CE01C0
S11300800C94CE010C94CE010C94CE010C94CE01B0
S11300900C943F060C94CE010C9451060C94083138
S11300A00C94CE010C94CE010C94CE010C94CE0190
S11300B00C94CE010C94CE010C94CE010C94CE0180
S11300C00C94CE010C94CE010C94CE010C94CE0170
S11300D00C94CE010C94CE010C94CE010C94CE0160
S11300E00C94CE010C9478160C94CE010C94D41676
S11300F00C94A6160C941C160C94CE010C94EE15BC
S11301000C944A160C945D0E0C94BB150C94990E29
S11301100C944C0E0C94CE010C94CE010C94CE0194
S1130120E826F4260027E427E727EA27F8273928D2
S1130130752878287B28AE2808290B290E292E2912
S11301403129342937293F2D4A2DE226712D742D6A
S1130150772D7A2D7D2D802D0000211042206330D3
S11301608440A550C660E770088129914AA16BB10B
S11301708CC1ADD1CEE1EFF13112100273325222B3
S1130180B5529442F772D662399318837BB35AA35B
S1130190BDD39CC3FFF3DEE3622443342004011483
S11301A0E664C774A44485546AA54BB528850995AB
S11301B0EEE5CFF5ACC58DD5533672261116300653
S11301C0D776F6669556B4465BB77AA719973887FB
S11301D0DFF7FEE79DD7BCC7C448E5588668A77813
S11301E04008611802282338CCC9EDD98EE9AFF94B
S11301F0488969990AA92BB9F55AD44AB77A966AF3
S1130200711A500A333A122AFDDBDCCBBFFB9EEB9A
S1130210799B588B3BBB1AABA66C877CE44CC55CC2
S1130220222C033C600C411CAEED8FFDECCDCDDDEA
S11302302AAD0BBD688D499D977EB66ED55EF44E92
S1130240133E322E511E700E9FFFBEEFDDDFFCCF3A
S11302501BBF3AAF599F788F8891A981CAB1EBA18E
S11302600CD12DC14EF16FE18010A100C230E3200A
S11302700450254046706760B9839893FBA3DAB3B2
S11302803DC31CD37FE35EF3B1029012F322D2325A
S11302903542145277625672EAB5CBA5A895898582
S11302A06EF54FE52CD50DC5E234C324A0148104AA
S11302B06674476424540544DBA7FAB79987B89752
S11302C05FE77EF71DC73CD7D326F2369106B016FA
S11302D057667676154634564CD96DC90EF92FE912
S11302E0C899E9898AB9ABA944586548067827684A
S11302F0C018E1088238A3287DCB5CDB3FEB1EFBF2
S1130300F98BD89BBBAB9ABB754A545A376A167A99
S1130310F10AD01AB32A923A2EFD0FED6CDD4DCDC1
S1130320AABD8BADE89DC98D267C076C645C454CE9
S1130330A23C832CE01CC10C1FEF3EFF5DCF7CDF91
S11303409BAFBABFD98FF89F176E367E554E745E39
S1130350932EB23ED10EF01E00020E060C041124A0
S11303601FBECFEFD1E4DEBFCDBF12E0A0E0B2E00C
S1130370EAE2F9E600E00BBF02C007900D92AC314F
S1130380B107D9F71FE0ACE1B2E001C01D92A13181
S1130390B107E1F70E94C12D0C9494340C94000031
S11303A08FB7F894992708958FBF0895282F9FB782
S11303B0F894E82FFF27E057FD4F80818F3F81F4A9
S11303C0E091BA0EE21771F40BC02093F80B04C04D
S11303D0FF27E057FD4F20832093BA0E20E007C08B
S11303E025E005C08091F80B8F3F91F7EECF892F60
S11303F099278FBF822F9927089580E00E94D60104
S11304009927089581E00E94D6019927089586E0EE
S11304100E94D6019927089585E00E94D601992764
S1130420089588E00E94D601992708958CE00E94DF
S1130430D6019927089587E10E94D6019927089546
S113044084E10E94D6019927089521E030E002C09A
S1130450220F331F8A95E2F780917F03822B8093CA
S11304607F03EBE6F0E08081282B2083E8E6F0E0D0
S113047080818160808380E090E0089521E030E015
S113048002C0220F331F8A95E2F7922F9095809134
S11304907F03892380937F03EBE6F0E08081282BA0
S11304A02083E8E6F0E080818160808380E090E052
S11304B00895E8E5F1E06927660FF11DE60FF11DE7
S11304C0C895982F802D3196C89590250895982F1A
S11304D080912802882389F5992379F531E03093B6
S11304E02802809102028093290220911D02822F0A
S11304F0817080938C0280910702909108029093FE
S11305002B0280932A0280911E0280932C023227B0
S11305103170267EE32FFF27EE0FFF1FED5FFD4FA7
S1130520808191819093080280930702232B20936A
S11305301D0287E00E94D601089580911D0280FF6C
S113054002C08B7F01C08D7F80931D0208951F938D
S11305501FB7F8948091DD0C882341F482E00E9457
S1130560D601882319F481E08093DD0C812F99272B
S11305708FBF1F9108959FB7F894809116098A3010
S113058011F020E006C020E080912603843009F4B5
S113059021E0892F99278FBF222349F084E00E940C
S11305A0D6018FB7F894992710921C0206C08FB712
S11305B0F894992721E020931C028FBF08950F938C
S11305C01F93082F162F809126038130D9F0813094
S11305D038F0823009F44AC0833009F028C159C088
S11305E0002309F458C11092A70B1092A60B109285
S11305F01C091092C00B109259031092FE03109222
S1130600FD0339C1002309F046C18091FD03909197
S1130610FE030E9459029093FE038093FD0382E03F
S1130620809326031093C00B143409F000C125C134
S11306308695869503C080911D028695817009F088
S1130640F6C080911D02992311F0846001C082607C
S113065080931D0280911D02877E886080931D0215
S113066010921E028FEF8093020215C1002309F03D
S1130670DEC0609359038091FD039091FE030E94B4
S113068059029093FE038093FD0383E08093260335
S113069002C180911C098F3F09F4C9C0002309F4E9
S11306A061C0823008F4C3C0E091A60BEE2309F4C4
S11306B0EBC04E2F4150E42FFF27EA55F44F8281BF
S11306C09927382F2227442311F4E2E002C0E42FB3
S11306D0E150FF27EA55F44F82819927282B392BC3
S11306E08091FD039091FE032817390709F09FC0FC
S11306F080E00E946702309159038091EE032091BB
S1130700EF03982F9F5F963008F090E0921771F0F6
S1130710E82FFF27E251FC4F32838F5F8093EE0373
S1130720863010F01092EE030E94A7021092A70BDD
S11307301092A60B94E09093260310921C09109239
S1130740C00B109259031092FE031092FD03809186
S11307502D028D7F80932D0280911C02882309F441
S11307609AC084C0823008F44EC0E091A70BFF27E2
S1130770EA55F44F8281482F5527342F20911D02CA
S1130780822F869586958695837099278130910569
S113079019F00297F9F40EC0277E206120931D0200
S11307A0442311F485E001C080E080931E0230935D
S11307B0020210C080911E028F3260F4E0910702A1
S11307C0F0910802E80FF11D408380911E028F5FB3
S11307D080931E028091A70BE82FFF27EA55F44F60
S11307E062818F5F8093A70B833010F01092A70B68
S11307F077278091FD039091FE030E945902909304
S1130800FE038093FD038091A60BE82FFF27EA5592
S1130810F44F12838F5F8093A60B833010F01092F5
S1130820A60B80911C098F5F80931C0934C0109221
S1130830A70B1092A60B14E01093260310921C0928
S11308401092C00B109259031092FE031092FD03F4
S113085080912D028D7F80932D0281E00E9467029A
S113086080911C02882329F0109326030E94BB0266
S113087012C0002381F081E009CF80911D02982FDE
S1130880917080FDD5CED7CE8091AA0B9927382FB1
S1130890222742E01CCF1F910F9108951F920F92BF
S11308A00FB60F9211242F933F934F935F936F933F
S11308B07F938F939F93AF93BF93EF93FF93809115
S11308C0C00087FF42C06091C600E091FF03F09131
S11308D00004309719F18091DB0C9091DC0CE80F47
S11308E0F91F608301969093DC0C8093DB0C2091BC
S11308F0D90E3091DA0E8217930738F11092000462
S11309001092FF038091E5088330F9F08091C100D3
S11309108F778093C1001092E50817C06E3719F4E1
S113092060E081E010C080912D026D3721F4826077
S113093080932D020AC081FF05C08D7F80932D0214
S113094080E2682780E00E94DF02FF91EF91BF916F
S1130950AF919F918F917F916F915F914F913F9153
S11309602F910F900FBE0F901F9018952FB7F894EA
S113097033278093C600E0ECF0E0808180648083BC
S11309802FBF0895FC016115710519F481E090E011
S113099008958091780390917903892B19F085E06B
S11309A090E008957093B40B6093B30BF0937903C4
S11309B0E0937803109257031092560381E08093DA
S11309C058038091C00080648093C0008091C1006E
S11309D080648093C100808121E030E0309357032C
S11309E0209356030E94B60480E090E00895982F67
S11309F08D57823068F480912D02816080932D029E
S1130A0080E2892780931B098DE78093AC0202C0A2
S1130A109093AC0261E070E08CEA92E00E94C20420
S1130A20992708958FB7F894992720912D022E7F46
S1130A3020932D022EE72093AC028FBF61E070E07B
S1130A408CEA92E00E94C2049927089578941F9238
S1130A500F920FB60F921124FF920F931F932F93AF
S1130A603F934F935F936F937F938F939F93AF9332
S1130A70BF93CF93DF93EF93FF932091560330916D
S1130A8057038091B30B9091B40B2817390780F466
S1130A90E0917803F0917903E20FF31F80812F5FD7
S1130AA03F4F30935703209356030E94B604D1C09E
S1130AB01092790310927803109258038091C10028
S1130AC08F7B8093C100FFB6F89480912D0280FF44
S1130AD00EC08E7F80932D0280911B098093AC02FF
S1130AE061E070E08CEA92E00E94C204AFC08091A1
S1130AF01609843009F48CC0853040F4823021F129
S1130B008330B8F5813009F09CC00DC0863009F4FB
S1130B108DC0863008F483C0873009F48EC08830D5
S1130B2009F08FC091C0809171030E94F704082FCF
S1130B3083E080931609609171038091D60E9091A1
S1130B40D70E0E94590210C08091000C0E94F70435
S1130B50082F83E0809316096091000C8091D60ED3
S1130B609091D70E0E9459029093D70E8093D60E7F
S1130B7066C0E0917004FF27EE0FFF1FE458FC4F9E
S1130B8080810E94F704082F10917004C12FDD2783
S1130B90FE01EE0FFF1FE458FC4F60818091D60EDA
S1130BA09091D70E0E9459029093D70E8093D60E3F
S1130BB0209168032F5F20936803113039F58091E9
S1130BC02402E0911F02F0912002E80FF11DE08160
S1130BD08F5F8093240290912302981730F482E06F
S1130BE080937D0340E050E002C04E2F5527DE0184
S1130BF0AA0FBB1FFD01E558FC4F8081823031F004
S1130C002F3F21F0A458BC4F4C9319C084E012C06C
S1130C108091D60E0E94F704082F85E00BC08091C6
S1130C20D70E0E94F704082F86E004C00E94120524
S1130C30082F87E08093160902C088E003C00023D0
S1130C4029F089E0809316090E94A7028F2D992725
S1130C508FBFFF91EF91DF91CF91BF91AF919F91A2
S1130C608F917F916F915F914F913F912F911F9140
S1130C700F91FF900F900FBE0F901F9018951F9229
S1130C800F920FB60F9211248F938091C80087FFA3
S1130C9002C08091CE008F910F900FBE0F901F90D5
S1130CA0189578941F920F920FB60F9211240F90FB
S1130CB00FBE0F901F9018951F920F920FB60F92B0
S1130CC011248F939F938091490C8F5F8093490CDB
S1130CD080916503909166030196909366038093D7
S1130CE06503892B29F48091FC038F5F8093FC03B7
S1130CF09F918F910F900FBE0F901F9018951F9288
S1130D000F920FB60F9211240F900FBE0F901F90E9
S1130D1018951F920F920FB60F9211240F900FBEC9
S1130D200F901F9018951F920F920FB60F921124D7
S1130D300F900FBE0F901F9018951F920F920FB631
S1130D400F9211240F900FBE0F901F901895582FDB
S1130D508091210290912202892B19F085E090E084
S1130D6008952FB7F894552309F446C0109224022D
S1130D70109225027093200260931F0282E090E09B
S1130D80909322028093210250932702109226020C
S1130D90523709F040E080E0840F80932302822FD1
S1130DA099278FBF8FB7F894282F3327809116097E
S1130DB08A3011F42FBF19C02FBF9FB7F8948091C8
S1130DC07D03882311F020E006C081E080937D0339
S1130DD050937E0321E0892F99278FBF222329F086
S1130DE00E94A70280E090E00895109222021092DF
S1130DF0210281E090E0089585E08093240210921E
S1130E0025027093200260931F0282E090E0909389
S1130E10220280932102109227021092260285E07A
S1130E20495FBACFCF93DF93382FDA012D3118F011
S1130E3082E090E00FC0FA0135966183872F9927ED
S1130E40EA018D8336832483422FBD0180E00E9412
S1130E50A7069927DF91CF910895CF93DF93582F59
S1130E60DB01823018F081E090E038C0C82FDD2724
S1130E70CC0FDD1FCB53D44F88819981892B19F076
S1130E8085E090E02BC0798368839B012B5F3F4F03
S1130E90F901448380911A02823018F480E090E0D2
S1130EA01DC0F9018681FB0165817727762F6627AE
S1130EB0F90121813327622B732B50931A02242FBB
S1130EC0AD010E9412079927282F882329F082E078
S1130ED080931A0219821882822F9927DF91CF9169
S1130EE008954091170C8FEF80931F0C80931E0C74
S1130EF083E98093240C69E17CE080E00E942D0763
S1130F00882349F08FB7F894992725B130E4232733
S1130F1025B98FBF089581E080932F0208958091B1
S1130F204302E82FFF27EE0FFF1FEF57FC4F0190FE
S1130F30F081E02D20914502222351F08F5F8093B0
S1130F404302843111F4109243022150209345024C
S1130F50CF010895AC012091C202243118F081E040
S1130F6090E008958091D80E682F620F712D711D45
S1130F70FB016431710508F07497EE0FFF1FEC5A02
S1130F80FD4F518340832F5F2093C20280E090E0A5
S1130F9008952E9A2F9A2E9A809179048D7F8093AA
S1130FA079040895AC012091CC022A3018F081E034
S1130FB090E0089580918A02682F620F712D711D4F
S1130FC0FB016A30710508F03A97EE0FFF1FEF5FDF
S1130FD0F34F518340832F5F2093CC0280E090E055
S1130FE00895AC01E1E0F4E080E090E09C018581AB
S1130FF080FF05C0808191818417950741F0C90164
S113100001963B968A30910589F72FEF30E0C901AC
S113101008950E94F1078F3F91F099272BE030E06B
S1131020829FF001839FF00D929FF00D1124EF5FDA
S1131030FB4F858181FF03C08781908508958FEFE1
S11310409FEF08952091C202222319F440E050E05A
S113105016C08091D80EE82FFF27EE0FFF1FEC5A21
S1131060FD4F408151811182108221502093C20290
S11310708F5F8093D80E843111F41092D80ECA0178
S11310800895AC0120914502243118F081E090E0EC
S1131090089580914402E82FFF27EE0FFF1FEF57BA
S11310A0FC4F518340838F5F80934402843111F459
S11310B0109244022F5F2093450280E090E008954F
S11310C00E94F1078F3F19F481E090E00895282FE2
S11310D033278BE090E0289FF001299FF00D389F83
S11310E0F00D1124EF5FFB4F85818860858380E0DC
S11310F090E008952F923F924F925F926F927F9269
S11311008F929F92AF92BF92CF92DF92EF92FF9213
S11311100F931F93CF93DF93CDB7DEB729970FB605
S1131120F894DEBF0FBECDBF6FB76983F8942090EB
S1131130600330906103409062035090630366241F
S1131140772488248EE4A82E03E8B02ECC24DD2452
S1131150EE24FF2400E010E0222D332D442D552DE4
S1131160662D772D882D90E00E9458322A833B8388
S11311704C835D836E837F8388879987822E932E29
S1131180A42EB52E2401350100E20E945633A22E6E
S1131190B32EC42ED52EA3019201569547953795AB
S11311A027952A0D3B1D4C1D5D1D57FF05C05F771C
S11311B02F5F3F4F4F4F5F4F209360033093610386
S11311C04093620350936303E9818E2F99278FBF65
S11311D0CA01B90129960FB6F894DEBF0FBECDBF80
S11311E0DF91CF911F910F91FF90EF90DF90CF90FF
S11311F0BF90AF909F908F907F906F905F904F9033
S11312003F902F9008950E947A08DC01CB01089545
S1131210EF920F931F93AE2D99E0899FF001112453
S1131220EF58FB4F40835183628373830483158398
S113123026833783A17080858E7F8A2B8260808786
S11312408BE00E94D6011F910F91EF9008954FB744
S1131250F89455272091E100622F2091E200722F2B
S11312602091E300822F2091E400922F4FBF089534
S11312700F931F930FB7F894109169030E942709E5
S11312809B01AC018091E00083FF05C01F5F0E94B9
S113129027099B01AC01802F99278FBF612F7727E6
S11312A088279927FAE1660F771F881F991FFA95F7
S11312B0D1F7E6E05695479537952795EA95D1F706
S11312C0622B732B842B952B1F910F9108956D31F5
S11312D018F080E090E008950C96089568E00E946C
S11312E06709089562E00E94670908956E5F0E948D
S11312F06709009709F0029608950B960895FC017A
S113130082819927982F882721813327822B932B39
S1131310A5E096958795AA95E1F781709070089558
S1131320EF92FF920F931F93CF93DF937B018C0176
S11313308FB7F894C82FDD270E9427099B01AC01C1
S1131340C801B701623071058105910520F462E09E
S113135070E080E090E0260F371F481F591FDA0124
S1131360C901B093F400A093F3009093F20020938A
S1131370F10082E08093E0008091DF00826080933E
S1131380DF008FEF80930902CFBFDF91CF911F91D0
S11313900F91FF90EF900895FB0121E030E002C02F
S11313A0220F331F8A95E2F7209584A5822384A710
S11313B00895CF93DF93EC010E947F09882339F1CC
S11313C08A8129819927982F88273327822B932B69
S11313D087749C7C81549848D1F48F814E812FB7B7
S11313E0F894332760910E0270910F022FBF20E012
S11313F09927982F88275527842B952B861797078D
S113140009F021E081E02827822F992702C080E09B
S113141090E0DF91CF910895FB0121E030E002C01C
S1131420220F331F8A95E2F784A582239927089512
S1131430EF92FF920F931F937C018FB7F894992733
S11314400091190910911A090F5E1E4F10931A0981
S113145000931909015111408FBF83E10E94D60105
S1131460C801B7010E94043444961F910F91FF9064
S1131470EF900895FC0127813085C90153E0880F5E
S1131480991F5A95E1F7820F931F860F971F6AE001
S113149070E00E940434708767830895FC016185BD
S11314A09285662329F48AE0989FB001112409C02B
S11314B077278AE0989FC00111240E94183411866E
S11314C01286CF010E943A0A089580913702E82FCC
S11314D0FF27EE0FFF1FEC57F44F0190F081E02D32
S11314E020913902222351F08F5F809337028D308F
S11314F011F410923702215020933902CF0108953C
S1131500AC012091BC032C3018F081E090E00895E8
S113151080916403682F620F712D711DFB016C3083
S1131520710508F03C97EE0FFF1FE35EF64F518301
S113153040832F5F2093BC0380E090E00895AC01CA
S11315402091BB032C3018F081E090E00895809145
S1131550480C682F620F712D711DFB016C307105F1
S113156008F03C97EE0FFF1FE354F14F5183408383
S11315702F5F2093BB0380E090E008950F931F93A7
S1131580CF93DF93EC01892BE9F02091AB0B3091E1
S1131590AC0B8FEF2F3F3807A9F080917E0281308A
S11315A019F4198218820BC00091AD0B1091AE0B87
S11315B0C9010E940908080F191F1983088380E0D4
S11315C090E002C081E090E0DF91CF911F910F91F4
S11315D00895FC0180818D50992708950E94E90A9D
S11315E0885099270895685F0E946709009709F059
S11315F008960895FC01635F608308958FB7F8949B
S1131600282F3327922F809116098A3041F0809138
S11316102603843021F02FBF89E090E008959FBF16
S113162083E00E94D60180E090E008959BE0899FCA
S1131630F0011124EF5FFB4F7183608312821382E8
S1131640148285E085831682108617820895882384
S113165049F0682F772784EC99E00E9418346B3F97
S1131660710510F06FEF7FEFCB010895CF92DF92F9
S1131670FF920F931F93CF93DF93282F062F482FAA
S113168055278BE090E0489FE001499FD00D589F7B
S1131690D00D1124CF5FDB4F8D8182FF02C08B7F81
S11316A08D838A81302F381B0A838B818F5F8B83D4
S11316B0332379F08C81830F81508C833B3048F045
S11316C068817981822F0E94160B0A8381E08B83C3
S11316D06EC08BE090E0489FF001499FF00D589F49
S11316E0F00D1124EF5FFB4F83812481820F912D34
S11316F0911D03971CF4333008F459C0C080D18085
S1131700C1E0D4E0888199818C159D0509F049C018
S11317108D81282F332720FF44C06B81FC80F60E77
S113172021FD16C07727882799272AEF30E040E06B
S113173050E00E94D9332F2D3327442755270E9488
S11317402B34DA01C9012E830E94270B98878F83DB
S11317508D8182608D830E8189E0089F8001112430
S11317606B817727882799272AEF30E040E050E003
S11317700E94D9332F2D3327442755270E942B3419
S1131780C801820F911D6AE070E00E941834CB01F9
S11317906E831B821C820E94270BBC01CE010E9417
S11317A03A0A2B9684E0CF36D80709F0ABCFDF9105
S11317B0CF911F910F91FF90DF90CF90089580E01B
S11317C090E0E6E0F4E09C01808180FF08C0C9015C
S11317D001963B968A309105B1F72FEF30E0C901AD
S11317E00895982FAFEF60E070E040E050E0E6E04D
S11317F0F4E08081282F332720FF0BC021FF09C08C
S113180023FD07C0228133812617370710F0A42F48
S1131810B9014F5F5F4F3B964A30510551F7892F0D
S113182099276817790718F48FEF90E008958A2FA5
S113183099270895AC0130918D028FEF4F3F5807DF
S113184011F020E012C0832F99270895E22FFF277B
S1131850B3E0EE0FFF1FBA95E1F7E253FD4F80812D
S113186091818417950719F02F5F231779F7822F39
S1131870992708951F93CF93DF93162FC0E0D0E0EC
S11318806AE10E947609FC0180818123811711F4A9
S1131890C1E0D0E0CE01DF91CF911F910895AC015A
S11318A0209139022D3018F081E090E00895809164
S11318B03802E82FFF27EE0FFF1FEC57F44F518338
S11318C040838F5F809338028D3011F41092380278
S11318D02F5F2093390280E090E00895AF92BF9289
S11318E0CF92DF92EF92FF920F931F93F82E5A013B
S11318F06B010E943809AB01BC01EE2496018501FD
S11319008F2D0E9408091F910F91FF90EF90DF9097
S1131910CF90BF90AF9008958091790481FF03C068
S11319208D7F809379044091AB035527542F44272E
S11319308091AC039927482B592B6627772780E0A1
S11319400E946E0C10927C0208958FB7F894992728
S11319502091BC00209334058FBF08950F931F93EB
S11319600FB7F89411270E94A50C809134058E7F3F
S11319708069809334058093BC000FBF1F910F9141
S1131980089590913405882311F0946001C09B7FE1
S1131990909334058FEF8093090208951F93CF939A
S11319A0DF93982F8FB7F894282F3327422F8091F5
S11319B03202882309F046C011E01093320290935A
S11319C04E092FBF8FB7F894C82FDD2780913302BB
S11319D08823C9F4589A599A1092B90088E98093D7
S11319E0B8001092BA001092BC000E94A50C81E0CD
S11319F00E94C10C809134058E7F809334058093BE
S1131A00BC0010933302CFBF8FB7F894C82FDD27E3
S1131A109C2F80910C02813099F4809132028130A4
S1131A2021F48EE00E94D60109C0823049F48091ED
S1131A304E0980930C0283E080933202CFBF07C02B
S1131A409FBF05C080914E09891721F42FBF80E004
S1131A5090E021C0E92FFF27E353FD4F80818F3FA2
S1131A6089F4E0910B02E91789F40CC090930A02FF
S1131A7004C0FF27E353FD4F908390930B0280E053
S1131A8090E002C085E090E04FBF05C080910A025B
S1131A908F3F79F7EBCFDF91CF911F910895AF92EC
S1131AA0BF92CF92DF92EF92FF920F931F930E9407
S1131AB038097B018C0120917203309173034091AA
S1131AC074035091750380916A0390916B03A09104
S1131AD06C03B0916D03820F931FA41FB51FE21610
S1131AE0F3060407150730F082179307A407B50718
S1131AF058F005C082179307A407B507E0F5E81668
S1131B00F9060A071B07B8F59C01AD012E193F0918
S1131B10400B510B213060E0360760E0460762E07D
S1131B20560768F180E090E0A0E0B2E0E80EF91E0C
S1131B300A1F1B1FE0927203F09273030093740355
S1131B401093750380E090E0A0E0BEEFE80EF91E6C
S1131B500A1F1B1F205030404040524020936A030C
S1131B6030936B0340936C0350936D0320E030E09B
S1131B7040E052E014C020E030E040E050E08093C8
S1131B80720390937303A0937403B093750310923C
S1131B906A0310926B0310926C0310926D03590147
S1131BA06A0146E0AA0CBB1CCC1CDD1C4A95D1F78B
S1131BB036E0EE0CFF1C001F111F3A95D1F70E946E
S1131BC027099B01AC012E5F3F4F4F4F5F4FDA0156
S1131BD0C9018E199F09A00BB10B8A159B05AC0591
S1131BE0BD0530F4A80197012A0D3B1D4C1D5D1D58
S1131BF05093F8004093F7003093F6002093F500DB
S1131C0081E08093E0008091DF0081608093DF00B9
S1131C108FEF809309021F910F91FF90EF90DF9057
S1131C20CF90BF90AF9008950F931F930FB7F89480
S1131C3011276093720370937303809374039093DA
S1131C40750320936A0330936B0340936C035093A2
S1131C506D030E944F0D0FBF1F910F9108959FB701
S1131C60F89480912603882319F484E08093260352
S1131C70892F99278FBF9FB7F894809116098823DD
S1131C8019F48AE080931609892F99278FBF0E943F
S1131C90BB0280E090E008951F920F920FB60F925E
S1131CA011248F93809169038F5F809369038F91CF
S1131CB00F900FBE0F901F9018951F920F920FB6A2
S1131CC00F9211242F933F934F935F936F937F93BE
S1131CD08F939F93AF93BF93EF93FF938091DF0014
S1131CE08E7F8093DF008FEF8093090280916A03D7
S1131CF090916B03A0916C03B0916D030097A105C3
S1131D00B10521F48AE00E94D60102C00E944F0D61
S1131D10FF91EF91BF91AF919F918F917F916F91BF
S1131D205F914F913F912F910F900FBE0F901F9095
S1131D3018951F920F920FB60F9211240F900FBE99
S1131D400F901F9018952F923F924F925F926F922F
S1131D507F928F929F92AF92BF92CF92DF92EF9237
S1131D60FF920F931F93CF93DF932C018091C102B5
S1131D70882309F01EC18091BD03853009F019C183
S1131D808091830B882309F014C1B20182E00E9480
S1131D900C0A882311F490E003C0F20196A59F7009
S1131DA080916F04981729F090936F04906C90932E
S1131DB0450112010894211C311CF1018181F201B9
S1131DC0218140E09927982F88273327822B932B52
S1131DD087749C7C8154984809F441E04423A9F019
S1131DE08091460199278F7190702091150C409134
S1131DF08B02240F312D311D43E0359527954A95EB
S1131E00E1F7281739070CF4D4C089E08093420124
S1131E10B20184E00E940C0A882319F4C0E0D0E0E7
S1131E2006C0D2018C918550E201C80FD11DF20188
S1131E3080819927282F80938001809141018F719F
S1131E40893021F086E080934201B3C00EEFF02E7A
S1131E50F20E0FB7F89411270E9427093B014C0199
S1131E6082E0809342010FBF8BE090E0A0E0B0E0FD
S1131E70680E791E8A1E9B1E6F2D7727209709F402
S1131E807EC02881E9808A81AB809927AA27BB2755
S1131E90BA2FA92F982F8827332744275527522F45
S1131EA0442733272227FF24002711278701FF24F3
S1131EB0EE242E293F29402B512BBB24CC24DD2496
S1131EC02A293B294C295D29822B932BA42BB52B42
S1131ED086199709A809B9098B83292F3A2F4B2F03
S1131EE055272A839D014427552729838B2F99271A
S1131EF0AA27BB278883AB01B10181E891E00E9446
S1131F00843486E0809342012881E9808A81AB8011
S1131F109927AA27BB27BA2FA92F982F88273327B9
S1131F2044275527522F442733272227FF240027ED
S1131F3011278701FF24EE242E293F29402B512B02
S1131F40BB24CC24DD242A293B294C295D29822B5E
S1131F50932BA42BB52B860D971DA81DB91D8B8320
S1131F60292F3A2F4B2F55272A839D014427552784
S1131F7029838B2F9927AA27BB27888309C0AB0104
S1131F80B10181E891E00E94843486E080934201AB
S1131F90F20184A5826084A760A671A682A693A696
S1131FA086E08093BD0384E08093C10280E090E0EA
S1131FB002C085E090E0DF91CF911F910F91FF90D7
S1131FC0EF90DF90CF90BF90AF909F908F907F90D5
S1131FD06F905F904F903F902F900895CF93DF9331
S1131FE010922F029091420220E0992309F421E0FB
S1131FF0222361F580914002E82FFF27EE0FFF1F97
S1132000E65CF64F0190F081E02D222351F48F5FBE
S1132010809340028A3011F41092400291509093C0
S11320204202309769F0C9E1DCE0DF018FE20D90F4
S113203009928150E1F7CF010E94D207882319F059
S11320400E94C90703C089E00E94D601DF91CF91A5
S1132050089521E020937A03209335050E94900986
S11320600895AF92BF92CF92DF92EF92FF920F93B7
S11320701F938091160290911702A0911802B091BB
S11320801902B695A7959795879580931E0390930B
S11320901F03A0932003B09321030E947A08E090C9
S11320A01E03F0901F030091200310912103A80147
S11320B097010E942B345B016C01AE0CBF1CC01E47
S11320C0D11EA0921E03B0921F03C0922003D0928F
S11320D021031092A50B0E943809AB01BC01E1E079
S11320E0EE2E9601850183E00E9408091F910F914D
S11320F0FF90EF90DF90CF90BF90AF90089580E86D
S113210090E0A0E0B0E08093160290931702A093B1
S11321101802B09319020E94311008951F93982F4A
S11321208FB7F894182F80913202833009F04BC096
S113213080910C02891709F046C080910A0220E0C0
S113214030E08F3F11F421E030E0232BF9F48F3F8E
S113215019F42FEF30E00EC0282F3327F901E35391
S1132160FD4F808180930A028F3F11F480930B020C
S11321708FEF808320934E098FEF80930C0281E0D0
S1132180809332028EE00E94D60119C081E08093D0
S11321900C021092320280913302813081F40E9449
S11321A0A50C80E00E94C10C809134058E7680934A
S11321B034058093BC0058985998109233021FBF7D
S11321C080E090E003C01FBF81E090E01F9108957C
S11321D0CF93DF93EC0180912F02882391F4423155
S11321E009F05BC0A5E2BCE0FB0182E101900D9225
S11321F08150E1F782E18093170C89E00E94D601B7
S11322004CC02091CC022223C9F080918A02E82F8D
S1132210FF27EE0FFF1FEF5FF34F408151811182C3
S1132220108221502093CC028F5F80938A028A30DF
S113223011F410928A024115510549F48FB7F894AC
S1132240992725B130E4232725B98FBF26C0DA01A9
S11322501C96FB0182E101900D928150E1F790916F
S113226042029A30A8F480914102E82FFF27EE0F32
S1132270FF1FE65CF64F518340838F5F80934102DA
S11322808A3011F4109241029F5F9093420205C07C
S1132290CA010E94D2070E94C907CE01DF91CF91E3
S11322A008951F93982F1FB7F894809135028230B8
S11322B099F580911302891779F58091110220E034
S11322C030E08F3F11F421E030E0232BF1F49FEF55
S11322D0909313028F3F19F42FEF30E00DC0282F95
S11322E03327F901E059FC4F8081809311028F3F1D
S11322F011F49093120290832093C70281E080939B
S113230035028FE00E94D60105C08FEF809313023F
S11323101092350221E001C020E0812F99278FBF60
S113232090E0213009F491E081E09827892F9927E2
S11323301F9108950F931F93FC0100810D501127E5
S113234062E00E946709FC01208133272F703070FE
S1132350C901880F991F820F931F081B0250802FF9
S113236099271F910F91089580912403823031F4AD
S113237081E08093240381E10E94D6010895809333
S11323804A0C882311F484E001C081E08093240383
S113239081E10E94D60108958F929F92AF92BF92DD
S11323A0CF92DF92EF92FF920F931F93CF93DF931D
S11323B08091830B882309F4F5C02FB7F894332751
S11323C08091E900882E8091EA00982E8091EB009C
S11323D0A82E8091EC00B82E0091830B1092830BF1
S11323E02FBF07FF0DC08091C102833011F08730E9
S11323F039F485E08093BD0388E08093C10252C024
S11324008091C102843009F04DC001FF4BC085E0CA
S11324108093BD031092C10280918E02833019F41F
S113242010928E023FC0C091BB0ED091BC0ECE0163
S11324300E947F09882379F18A8129819927982F1D
S113244088273327822B932B87749C7C815498484C
S113245011F58F812E819927982F88273327822B76
S1132460932B8F5F9F4FB9F090E0809135058823BF
S113247009F491E0992379F012E010937A0381E052
S1132480809335056EE370E080E090E00E9490094F
S113249010938E0207C010928E021092250380E0E2
S11324A00E94BF11C02FDD27C5FF41C08091C1022A
S11324B0863019F41092C10202C08823C1F5E0915C
S11324C00A0FF0910B0F003219F5F09046012FE13D
S11324D0F22280918B02982F969596952F2D291B89
S11324E0820F80938B0284A5826084A780A691A624
S11324F0A2A6B3A600910A0F10910B0FB80182E0B7
S11325000E94CC09F80184A5886084A7F6A60BC0B4
S1132510BF0181E00E94CC0960910A0F70910B0FFA
S113252083E00E94CC0985E08093C10204C08091BD
S1132530C102853089F4C4FF0FC02091150C80912D
S113254046018F71922F96959695891B280F20939B
S1132550150C89E08093C102C0FF0CC08091BD03BB
S1132560823041F48091C1028250823018F483E0B9
S11325708093BD03C3FF16C08091C102863091F4DD
S1132580809155018F77809355011092C1028091FB
S11325904101992787709070892B09F425C2809195
S11325A0410122C29091C102992309F41DC29930BC
S11325B009F09EC140917B018091460187FF5EC076
S11325C0433008F45BC0842F99278A970CF056C0D7
S11325D0E0910A0FF0910B0F41934250552760E8A8
S11325E071E0CF010E948434E0910A0FF0910B0F47
S11325F0818190E08770823009F491E0992349F059
S113260020E030E080918E02823081F421E030E0DD
S11326100DC08FB7F894282F332790E080919E0B3C
S1132620833008F491E02FBF292F3327232B31F176
S1132630E0917B01FF27E058FE4F8081E0910A0F73
S1132640F0910B0F85A785E08093BD031092C10222
S1132650E0900A0FF0900B0F67010894C11CD11C85
S1132660F701818190E0282F3327277030702230C2
S1132670310509F491E0992339F42EC085E0809363
S1132680BD031092C102ACC180918E02823009F068
S11326902AC1F7019381E091BB0EF091BC0E8381B6
S11326A0981709F020C12230310509F01CC180912E
S11326B0DF008D7F8093DF008FEF809309021092FB
S11326C0350584A5816084A710928E02109225039B
S11326D080E00E94BF1107C180918E028823D1F44B
S11326E0C7010E94D9098823A9F085E08093BE031D
S11326F082E08093BF031092C003F601828180932D
S1132700C1038EEB93E00E94A30E882319F483E0A7
S113271080938E020E9427098B01C7010E94D90968
S1132720882311F00A5C1F4F1093F7030093F603FC
S11327300E942709061B170BB80110161106BCF4DA
S113274080912503882381F490E0809135058823C6
S113275009F491E0992359F0882777FD8095982F03
S11327600E94291080E801C0806880932503F60147
S1132770808527819927582F44273327422B532BB1
S113278080918F02282F3327F901EE0FFF1FEA549F
S1132790F44F80819181709136058417950769F40F
S11327A0F901EB54F14F8081871709F467C0872F33
S11327B08F5F8093360580831DC000E010E080E0C9
S11327C090E0C6EBDBE0E5EBFEE0DF01682F9C0167
S11327D0888199818417950779F420938F029091C9
S11327E036058C91891709F449C0892F8F5F80932E
S11327F036058C9300E829C08081972F981B091710
S113280010F4092F122F6F5FC901019611962296B9
S1132810319685309105D1F66530B9F410938F0265
S1132820A12FBB27FD01EE0FFF1FEA54F44F518384
S11328304083809136058F5F80933605FD01EB540C
S1132840F14F8083A45FB04F1C9290913605892F7D
S11328508F778F3779F40F3768F0E5EBFEE0292F97
S1132860207880818F678913208331968EE0EA3B3C
S1132870F807B9F780918F02282F3327F601928148
S1132880A22FBB27FD01E45FF04F808180FF07C0CA
S1132890FD01E056F44F8081981729F102C0816050
S11328A08083A056B44F9C93DFB6F89480919E0B1E
S11328B08330B0F4E091FF0BE80FE33008F0E3500D
S11328C0FF27EE0FFF1FE158FD4F00811181F182B8
S11328D0E0828F5F80939E0B82E10E94D601780193
S11328E08D2D99278FBFF0920B0FE0920A0F6FC0C6
S11328F0292F2150233008F057C0892F825082306D
S113290098F48091BD03813079F49FEF90934F0147
S113291080E880934E01809139018D7F8093390145
S11329209093090282E010C0933089F48091BD0332
S1132930833069F48DE580934E018FEF8093090213
S113294086E08093420184E08093BD0310C022306E
S113295070F48091BD03853051F493E0909342016B
S113296010924E018FEF809309029093BD039091D2
S1132970C102913069F48091BD03833009F04EC0E7
S1132980809139018260809339019093BD031BC00B
S11329909230E9F48091BD03833011F510924E0119
S11329A08FEF809309020FC0973089F48091B40EA1
S11329B08064809348018091BD03853021F484E0D4
S11329C08093BD0304C088E08093C10204C0809159
S11329D0C102883029F41092C10280E10E94D6011C
S11329E08091C1028823D1F48091BD038530B1F474
S11329F08091830B882391F480918E02882371F453
S1132A0080912503882351F490E080913505882333
S1132A1009F491E0992311F00E94B41180913505D5
S1132A20823009F077C010923505F0907A03F1E016
S1132A30FF1629F022E0F21609F06CC064C0C091C0
S1132A40F603D091F7030E9427092091250320382B
S1132A5029F4109225030E94B4115CC08E01061B58
S1132A60170B27FF03C010161106ECF0C0912203C8
S1132A70D091230380918E028823A9F4CE010E9471
S1132A80A30E9927882351F4BE010E94CC09F09229
S1132A908E02D093BC0EC093BB0E31C09927F82E82
S1132AA0882369F102C085E0F82E20912503822F46
S1132AB099278F77019779F4207822602093250352
S1132AC08CE890E00E94180AAA27BB27BC01CD011C
S1132AD00E9429101FC027FF0EC0101611065CF4B7
S1132AE080E880932503B801882777FD8095982F87
S1132AF00E94291002C0109225038F2D09C083E083
S1132B008093250307C010928E021092250380E063
S1132B100E94BF118FB7F894282F33278091C402E5
S1132B20813029F081E08093C4022FBF41CC109200
S1132B30C4022FBFDF91CF911F910F91FF90EF90AF
S1132B40DF90CF90BF90AF909F908F9008958FB7F4
S1132B50F894282F33278091C402882329F08068B1
S1132B608093C4022FBF089581E08093C4022FBFD5
S1132B700E94CC1108951F920F920FB60F92112448
S1132B802F933F934F935F936F937F938F939F9371
S1132B90AF93BF93EF93FF938091DF008D7F80937A
S1132BA0DF008FEF8093090280913505813019F49D
S1132BB082E0809335050E94A715FF91EF91BF91A4
S1132BC0AF919F918F917F916F915F914F913F91C1
S1132BD02F910F900FBE0F901F90189578941F920D
S1132BE00F920FB60F9211242F933F934F935F933D
S1132BF06F937F938F939F93AF93BF93EF93FF93C1
S1132C002FB7F89433278091830B82608093830BD2
S1132C102FBF0E94A715FF91EF91BF91AF919F9194
S1132C208F917F916F915F914F913F912F910F9071
S1132C300FBE0F901F90189578941F920F920FB6A5
S1132C400F9211242F933F934F935F936F937F932E
S1132C508F939F93AF93BF93EF93FF932FB7F89402
S1132C6033278091830B88608093830B2FBF0E944E
S1132C70A715FF91EF91BF91AF919F918F917F9194
S1132C806F915F914F913F912F910F900FBE0F90D5
S1132C901F90189578941F920F920FB60F921124DB
S1132CA02F933F934F935F936F937F938F939F9350
S1132CB0AF93BF93EF93FF932FB7F894332780918B
S1132CC0830B81608093830B2FBF0E94A715FF9114
S1132CD0EF91BF91AF919F918F917F916F915F9190
S1132CE04F913F912F910F900FBE0F901F90189509
S1132CF078941F920F920FB60F9211242F933F9343
S1132D004F935F936F937F938F939F93AF93BF93EF
S1132D10EF93FF932FB7F89433278091830B806848
S1132D208093830B2FBF0E94A715FF91EF91BF9152
S1132D30AF919F918F917F916F915F914F913F914F
S1132D402F910F900FBE0F901F90189578941F929B
S1132D500F920FB60F9211242F933F934F935F93CB
S1132D606F937F938F939F93AF93BF93EF93FF934F
S1132D702FB7F89433278091830B80618093830B62
S1132D802FBF0E94A715FF91EF91BF91AF919F9123
S1132D908F917F916F915F914F913F912F910F9000
S1132DA00FBE0F901F90189578941F920F920FB634
S1132DB00F9211242F933F934F935F936F937F93BD
S1132DC08F939F93AF93BF93EF93FF932FB7F89491
S1132DD033278091830B80628093830B2FBF0E94E3
S1132DE0A715FF91EF91BF91AF919F918F917F9123
S1132DF06F915F914F913F912F910F900FBE0F9064
S1132E001F9018958FB7F894282F33278091C40208
S1132E1081508093C402803811F02FBF089581E05F
S1132E208093C4022FBF0E94CC1108951F93FC010C
S1132E308FE38287809152028F5F80935202838353
S1132E402FB7F89433278091C4028F5F8093C40214
S1132E502FBF80912403882311F015E00DC0F09357
S1132E601809E093170981E0809324031092E30882
S1132E7081E10E94D60110E00E940217812F992758
S1132E801F910895FF920F931F93CF93DF93F82E12
S1132E908B01EA01622F2D3118F086E090E092C098
S1132EA0FA0131968181298170E09927582F4427AE
S1132EB03327422B532BCA0187749C7C8154984836
S1132EC009F471E0772349F4CA0180739070816436
S1132ED098688983892F99278183635F68832FB7D3
S1132EE0F894332780910E0290910F022FBF8887A8
S1132EF0892F992789872FB7F89433278091100257
S1132F002FBF99278C831D82CE010E947D09FC016D
S1132F10F0820E83812F99278F838FB7F894282FFF
S1132F20332780913502882371F482E0809335023F
S1132F30109213022FBFCE010E9416179927182F43
S1132F40882399F00FC02FBFD093CB02C093CA023D
S1132F508FB7F894C82FDD272C2F80913502882352
S1132F6099F406C080E00E945111812F99272AC04C
S1132F7081E0809335021092C7028FE00E94D6014F
S1132F80CFBF80E090E01EC0809170038F3F89F432
S1132F90E0911202EE2369F010C01092110204C0F5
S1132FA0FF27E059FC4F10821092120280E090E05B
S1132FB002C085E090E02FBF05C0809111028F3FD1
S1132FC079F7EBCFDF91CF911F910F91FF90089587
S1132FD0EF92FF920F931F93CF93DF93E82E8B0111
S1132FE0F42E81E08E1518F481E090E03BC0CE2DE4
S1132FF0DD27CC0FDD1FC850DC4F88819981892BD8
S113300019F085E090E02EC079836883EDE0FE0E30
S1133010FB01F082F3EFFF0E80911402823018F46A
S113302080E090E01FC0CB010E947D09FC018081FB
S1133030F80167817727762F662726813327622B4D
S1133040732BE09214022F2DA8010E944217992796
S1133050282F882329F082E0809314021982188291
S1133060822F9927DF91CF911F910F91FF90EF90BD
S11330700895E0918702F09188028AE5808382E4D2
S1133080818380E58283609187027091880243E0A6
S113309082E70E94A706882319F088E00E94D601DF
S11330A008958091E4081D9B0CC08823A1F481E05D
S11330B08093E40880E00E94D60185E00E94250206
S11330C00895882341F01092E40881E00E94D6011B
S11330D085E00E943E0208951F920F920FB60F9250
S11330E011242F933F934F935F936F937F938F9309
S11330F09F93AF93BF93EF93FF9320916B0093B192
S113310080917F038927822385FF02C00E94511882
S1133110FF91EF91BF91AF919F918F917F916F91AB
S11331205F914F913F912F910F900FBE0F901F9081
S11331301895CF93DF938091160C8823E9F590E0DE
S113314080914502882309F491E09923A9F5E0913F
S11331504302FF27EE0FFF1FEF57FC4FC081D181C1
S113316040913909FE0135968FEF81838D8382E783
S11331708683BE0181E00E942D07882321F481E02B
S11331808093160C19C080914A0290914B020196CB
S113319090934B0280934A020E948F07CE010E94B3
S11331A0AA0790E080914502882309F491E09923CD
S11331B019F48BE10E94D601DF91CF9108951F93FA
S11331C0182F0E94A50C809134058E7F80933405BE
S11331D080E00E94C10C809134058093BC000E9461
S11331E0A50C81E00E94C10C809134058093BC0041
S11331F081E0809333028091340290910D02882300
S113320019F0992389F40BC0992371F40E94AE0C30
S113321080E00E948E10112311F48DE003C01093FE
S113322080038CE00E94D6011F9108951F93CF93D1
S1133230DF93182F80914602909147020196909354
S113324047028093460290E08091C202882309F4E9
S113325091E0992361F50E942208EC010C9639F162
S113326040913909552760E070E00E948D341C8735
S113327080914602909147028C8B892F99278B8BE2
S1133280CE010E944108882331F48BE10E94D601CB
S113329080E090E00EC0809148029091490201962E
S11332A09093490280934802CE010E94AA0781E0CC
S11332B090E0DF91CF911F910895BF92CF92DF925A
S11332C0EF92FF920F931F93CF93DF93B82E8B014E
S11332D07A01690180914602909147020196909388
S11332E047028093460290E08091C202882309F449
S11332F091E09923C1F50E942208EC010C9699F102
S113330040913909552760E070E00E948D34BC86F5
S11333100E87812F99278D87E88A8F2D99278F878C
S1133320CA8A8D2D9927898B8091460290914702F4
S11333308C8B892F99278B8BCE010E94410888237F
S113334031F48BE10E94D60180E090E00EC08091C0
S11333504802909149020196909349028093480251
S1133360CE010E94AA0781E090E0DF91CF911F91E6
S11333700F91FF90EF90DF90CF90BF900895CF937F
S1133380DF93EC010E941A0C282F80918D022817DC
S1133390D1F0382F315030938D0213C0822F9927EA
S11333A043E0880F991F4A95E1F7DC01A253BD4F12
S11333B0FC01EA52FD4F88E001900D928150E1F743
S11333C02F5F231758F38091AB0B9091AC0B8C17A4
S11333D09D07A1F48FEF9FEF9093AC0B8093AB0B01
S11333E01092AE0B1092AD0B1092AF0B1092B00B6B
S11333F081E080933F0287E10E94D601DF91CF9163
S113340008951F93CF93DF93162FE0914302FF2774
S1133410EE0FFF1FEF57FC4FC081D181209719F0A9
S1133420C817D90751F0809150029091510201962A
S113343090935102809350021AC00E948F07CE01CC
S11334400E94AA07112351F480914E0290914F02D9
S1133450019690934F0280934E0209C080914C02D2
S113346090914D02019690934D0280934C021092DC
S1133470160C90E080914502882309F491E0992389
S113348019F48BE10E94D601DF91CF911F91089529
S11334900F931F9380916703882369F110E001E083
S11334A020916703822F8023F1F0E12FFF27EE0F95
S11334B0FF1FEB53F44F4081518111821082802F02
S11334C08095282320936703112319F0113059F4B0
S11334D005C063E0CA010E94EE0F0AC063E0CA019E
S11334E00E94011A05C01F5F183028F4000FD8CFBE
S11334F0000F1F5FD5CF1F910F910895AF92BF9218
S1133500CF92DF92EF92FF920F931F93CF93DF93AB
S1133510B82E7B01A42E6901809146029091470246
S11335200196909347028093460290E08091C202F4
S1133530882309F491E09923C9F50E942208EC013B
S11335408C01045F1F4F91F140913909552760E0C8
S113355070E0C8010E948D34BC86EE868F2D9927B9
S11335608D87F801A382C98A8D2D9927888B809134
S11335704602909147028C8B892F99278B8BCE0121
S11335800E944108882331F48BE10E94D60180E037
S113359090E00EC080914802909149020196909368
S11335A0490280934802CE010E94AA0781E090E07C
S11335B0DF91CF911F910F91FF90EF90DF90CF900B
S11335C0BF90AF9008958F929F92AF92BF92CF9287
S11335D0DF92EF92FF920F931F93CF93DF9380912B
S11335E03E02882309F0D6C0E0916E03F0916F0388
S11335F010828091AB0B9091AC0BE0916E03F09133
S11336006F038283892F9927818380917E02882387
S113361029F08091AD0B9091AE0B20C08091AB0B43
S11336209091AC0BC091AD0BD091AE0B2FEF8F3FAF
S1133630920781F4E0916E03F0916F03C4838D2FA0
S113364099278383E0916E03F0916F0380818068F2
S113365080830CC00E9409088C0F9D1FE0916E03AB
S1133660F0916F038483892F99278383E0916E03FC
S1133670F0916F0323813327322F222784819927E6
S1133680282B392B61817727762F6627828199270A
S1133690682B792B40E083E30E947E1A62E087E284
S11336A093E00E9467097C0168E087E293E00E944E
S11336B0760915E0C12ED12CC80ED91E40E010E0C9
S11336C088249924BBE0AB2EB12C03E080913B020B
S11336D099270196880D991D6AE070E00E941834BC
S11336E09C0199278A9DD0018B9DB00D9A9DB00DA8
S11336F01124AF5FBB4FED018D81992780FF11C06D
S113370081FF0FC08D919C91109FF0011124EC0D4D
S1133710FD1D8183892F992780838E8182831F5F7A
S1133720422FE9E08E16910429F00894811C911C23
S1133730173060F240933B0280913A028F5F80938E
S11337403A028150E7018983812F8F7088838FEF3C
S113375080932D0380932E0387E293E00E947D09DA
S1133760FC0180E7808383E0189FC0011124895FF6
S1133770482F552767E273E081E00E94E8179927F4
S1133780882321F481E080933E0204C0843011F444
S113379010923C02DF91CF911F910F91FF90EF9017
S11337A0DF90CF90BF90AF909F908F9008958091BD
S11337B0240310922403853001F581E080933C02B8
S11337C080913D02882311F00E947A08809136028C
S11337D084608093360290E080913902882309F452
S11337E091E0992319F484E10E94D6010E94FE0A13
S11337F0882389F00E94C9070895863041F4109205
S11338003C02809136028B7F809336020895873084
S113381011F08093240308958091C1008F7B8093DD
S1133820C1008091C1008F778093C1001092E50898
S1133830109258038091C10088608093C1008091E8
S1133840C10080618093C1008FEF80930902809151
S1133850C10080688093C1008FB7F89499271092B3
S11338601609109226038FBF8091AD039927982FD4
S113387088272091AE033327822B932B64EF71E0CA
S11338800E940434892B29F52091AB0B3091AC0BA9
S113389081E080937E02809135099091360990935E
S11338A0AC0B8093AB0B1092AE0B1092AD0B2F5F51
S11338B03F4F19F484E10E94D6012091AD0B309161
S11338C0AE0B6091AB0B7091AC0B40E081E30E94B6
S11338D07E1A0E948C0C08958F929F92AF92BF9291
S11338E0CF92DF92EF92FF920F931F93CF93DF93C8
S11338F080917E02882309F02DC1AA24BB241FEFE6
S1133900E12EF12EBFEF8B2E9B2E00E010E03DC088
S1133910C22FDD27A3E0CC0FDD1FAA95E1F7C25328
S1133920DD4F2A813B818FEF2F3F380761F1809172
S11339303509909136092817390729F18881998129
S11339400E940908FC016C817D81AC01460F571F60
S1133950288139818091AB0B9091AC0BAF812817F2
S1133960390741F47093AE0B6093AD0BA093B00B89
S11339704A0109C0AA2339F4F29728F44E155F05C9
S113398010F45E017A010F5F1F4F202F80918D028A
S1133990081708F4BDCFEFEFEE16EFEFFE0609F4BB
S11339A0C6C0FFEF8F16FFEF9F0691F08091B00B1A
S11339B0882341F08091AD0B9091AE0B0A96E816E6
S11339C0F90630F0C7010F968815990508F0AFC0C5
S11339D08091FB0B9091FC0BA091FD0BB091FE0B21
S11339E00196A11DB11D8093FB0B9093FC0BA0933A
S11339F0FD0BB093FE0BF501C480D58000811181CD
S1133A0080914602909147020196909347028093D9
S1133A10460290E08091C202882309F491E0992340
S1133A20B9F50E942208EC010C9691F140913909F4
S1133A30552760E070E00E948D3481E38C870E8707
S1133A40812F99278D87C88A8D2D99278F87EA8A98
S1133A508F2D9927898B80914602909147028C8BF8
S1133A60892F99278B8BCE010E944108882321F44A
S1133A708BE10E94D6010CC08091480290914902CA
S1133A8001969093490280934802CE010E94AA07AE
S1133A908091AB0B9091AC0B0E94F1078F3F81F0AA
S1133AA0282F33278BE090E0289FF001299FF00D09
S1133AB0389FF00D1124EF5FFB4F8581877F85834D
S1133AC0F501808191810E946008F50180819181D6
S1133AD00E94F1078F3F41F0EBE08E9FF00111242B
S1133AE0EF5FFB4F12861186F501808191819093DF
S1133AF0AC0B8093AB0B848195819093AE0B809338
S1133B00AD0B87818093B00BC4018E199F09459733
S1133B1070F080E890E0A0E0B0E08093160290930B
S1133B201702A0931802B09319020E9431108091D9
S1133B303F02882369F4FFEF8F16FFEF9F0641F4DD
S1133B408FEFE8168FEFF80619F084E10E94D60192
S1133B5010923F02DF91CF911F910F91FF90EF9050
S1133B60DF90CF90BF90AF909F908F900895CF92A9
S1133B70DF92FF920F931F93CF93DF93082F6B0174
S1133B80F42EE82FFF27EE0FFF1FEB53F44F1182A3
S1133B90108280911A029927019662E070E00E94D7
S1133BA01834682F80931A0210E0462F5527FA0123
S1133BB0EE0FFF1FEB53F44FA081B181109799F0E2
S1133BC0E62FE695E695E695FF27E959FC4F8081B7
S1133BD099279A012770307002C0959587952A9588
S1133BE0E2F780FF0DC0CA01019662E070E00E9416
S1133BF01834682F1F5F1230C1F610931A021AC0CE
S1133C0060931A026230B0F4FD01359624813327A3
S1133C10ED016D817727762F662781819927682B9F
S1133C20792BAD0186810E941207882319F08AE15D
S1133C300E94D601002319F0013051F405C06F2D04
S1133C40C6010E94EE0F04C06F2DC6010E94011A26
S1133C50DF91CF911F910F91FF90DF90CF90089546
S1133C6080911A02E82FFF27EE0FFF1FEB53F44F4A
S1133C706081718141E00E94B71D089568E00E944F
S1133C806709FC0187819927089568E00E94670904
S1133C90FC0181819927089568E00E946709FC016D
S1133CA086819927089568E00E946709FC01848150
S1133CB09927982F882725813327822B932B0895C2
S1133CC0BF92CF92DF92EF92FF920F931F93CF9305
S1133CD0DF937C01B0907D02D090ED03CC2428C00A
S1133CE00D2D03701127C7010E94531EE801CC0F4C
S1133CF0DD1FCC0FDD1FC00FD11FC355DD4F288141
S1133D0039818217930791F4C7010E944C1E9A814E
S1133D10981761F4C7010E94451E9C81981731F4DD
S1133D20C7010E943E1E9B81981721F0C394D3942F
S1133D30CB14B1F68C2D9927DF91CF911F910F9160
S1133D40FF90EF90DF90CF90BF90089568E00E94BD
S1133D506709FC0184819927982F882725813327B7
S1133D60822B932B08958F929F92AF92BF92CF9202
S1133D70DF92EF92FF920F931F93CF93DF934C0147
S1133D805B01FC018281882309F043C09092DA0C24
S1133D908092D90C8281882349F42FB7F894332771
S1133DA085B1805885B92FBF10922E02F501078185
S1133DB0F6804423B1F068E0C5010E946709FC0164
S1133DC0E6801127102F00278F2D9927082B192BF8
S1133DD0C5010E94A61EFF249801AC01B70180E230
S1133DE015C068E0C5010E946709FC01E68011273F
S1133DF0102F00278F2D9927082B192BC5010E94FE
S1133E00A61EFF249801AC01B70186E20E945D1949
S1133E10BEC0442309F490C0F401C080D1808091D5
S1133E207D02843009F046C0C6010E94601E2091C4
S1133E307D02622F0E94F833492F9217D8F59923F7
S1133E4059F48091ED039927019664E070E00E9493
S1133E5018348093ED0329C08091ED03840F912DD4
S1133E60911D9C0123703070E901CC0FDD1FCC0F34
S1133E70DD1FC20FD31F019664E070E00E94183466
S1133E80FC01EE0FFF1FEE0FFF1FE80FF91FC355D4
S1133E90DD4FE355FD4F85E0019009928150E1F734
S1133EA04F5F80917D024817B8F280917D02815066
S1133EB080937D02F0907D028091ED038F0D912D12
S1133EC0911D837090708C01000F111F000F111F42
S1133ED0080F191F03551D4FC6010E94531EF801F8
S1133EE091838083C6010E944C1EF8018283C6011F
S1133EF00E94451EF8018483C6010E943E1EF801FB
S1133F008383F394F0927D02F5010781E68068E0F3
S1133F10C5010E946709FC01C6801127102F0027E4
S1133F20FF240E291F29C5010E94A61EDD24980125
S1133F30AC01B60182E217C0FB010781E68068E0AC
S1133F40C5010E946709FC01C6801127102F0027B4
S1133F50FF240E291F29C5010E94A61EDD249801F5
S1133F60AC01B60187E20E945D19F4018081918160
S1133F700E94800A882319F081E50E941619C40161
S1133F800E949F0A882319F082E50E941619DF9186
S1133F90CF911F910F91FF90EF90DF90CF90BF9042
S1133FA0AF909F908F900895AF92BF92CF92DF927F
S1133FB0EF920F931F935B016C010E943809AB01D0
S1133FC0BC0121E0E22E9601850185E00E940809EA
S1133FD01F910F91EF90DF90CF90BF90AF90089515
S1133FE0CF92DF92EF92FF920F931F936C017B01AC
S1133FF00E947A08DC01CB01B6010E940434E80E69
S1134000F91E00271127C801B7010E94D41F1F9170
S11340100F91FF90EF90DF90CF900895EF92FF9271
S11340200F931F93CF93DF93EC01E0913702FF27A7
S1134030EE0FFF1FEC57F44F008111816623E9F066
S11340400F811127102F00278E819927082B192BF8
S1134050CE010E94A61E7C0168E0CE010E94670981
S1134060FC01668177279801A70184E20E945D190B
S113407060E870E080E890E050C08091360283FFF1
S11340805EC0BE0180E00E940C0A882309F057C07C
S11340907E010894E11CF11C8F819927982F8827B1
S11340A02E813327822B932B0E94F107982F8F3F69
S11340B071F08BE0989FF0011124EF5FFB4F828534
S11340C08F5F8287853018F0CF010E944E0A87E106
S11340D00E94D601F801838181508383882301F1F2
S11340E0F70106811127102F002785819927082BB6
S11340F0192BCE010E94A61E7C0168E0CE010E940D
S11341006709FC01668177279801A70185E20E946F
S11341105D1960E270E080E290E00E94F01F3FC011
S11341200E94650A809136028F7E8093360260E297
S113413070E080E290E00E94F01F40E02CC00E94FA
S1134140650A809136028F7E8093360260E270E0C9
S113415080E290E00E94F01F8F819927982F882792
S11341602E813327822B932B0E94F107982F8F3FA8
S113417089F08BE0989FF0011124EF5FFB4F81855C
S11341808F5F818782858F5F8287853018F0CF01AA
S11341900E944E0A41E0BE01C8010E94B31EDF9195
S11341A0CF911F910F91FF90EF900895282FCB018D
S11341B0222319F0213071F404C0642F0E940E20D0
S11341C008956752734031F480913E02882311F0C0
S11341D010923E020895AF92BF92CF92DF92EF9277
S11341E0FF920F931F93CF93DF93D82E5B01C42EBE
S11341F0E82FFF27EE0FFF1FE850FC4F11821082BB
S1134200809114029927019662E070E00E941834AC
S1134210682F8093140200E0462F5527FA01EE0F11
S1134220FF1FE850FC4FC081D181209799F0E62F01
S1134230E695E695E695FF27E85EF34F808199279A
S11342409A012770307002C0959587952A95E2F7F8
S113425080FF0DC0CA01019662E070E00E9418342C
S1134260682F0F5F0230C1F6009314021FC06093E1
S113427014026230D8F4E88083EFE80EFF240F8143
S11342801127102F00278E819927082B192BCE0177
S11342900E947D09FC012E2DAE01B80180810E948F
S11342A04217882319F086E10E94D601DD2021F00F
S11342B081E0D81689F405C06C2DC5010E940E203A
S11342C00BC087E2A81683E0B80631F480913E0261
S11342D0882311F010923E02DF91CF911F910F912C
S11342E0FF90EF90DF90CF90BF90AF9008950F9321
S11342F01F93CF93DF932FB7F89433278091C7028E
S11343008093130282E0809335022FBF80911302C1
S1134310882331F58091CA029091CB020E9416172E
S1134320082F11270023E1F080E00E945111C09171
S1134330CA02D091CB02CE010E947D098091140261
S1134340823070F4E82FFF27EE0FFF1FE850FC4F78
S1134350608171816C177D0719F4402F0E94EB2056
S1134360DF91CF911F910F91089580911402E82F4E
S1134370FF27EE0FFF1FE850FC4F6081718141E081
S11343800E94EB2008951F93CF93DF932FB7F894E7
S113439033278091C4028F5F8093C4022FBF409162
S11343A02403413081F58091E3088F5F8093E30813
S11343B0863048F52091170930911809809125031A
S11343C08823E1F490E080913505882309F491E095
S11343D09923A1F0309323032093220340932503D0
S11343E086E391E00E94180AAA27BB27BC01CD01ED
S11343F00E94291010924A0C83E02BC085E0809320
S11344004A0C82E026C0109224030E9402171091E5
S11344104A0CC0911709D09118098A858F33E9F4A1
S113442080E00E945111CE010E947D098091140206
S1134430823098F4E82FFF27EE0FFF1FE850FC4F5F
S1134440608171816C177D0741F4412F0E94EB203C
S113445004C0809324030E940217DF91CF911F911F
S113446008959F92AF92BF92CF92DF92EF92FF9204
S11344700F931F93CF93DF93CDB7DEB722970FB679
S1134480F894DEBF0FBECDBF8091360284FD08C014
S113449090E080913902882309F491E0992311F086
S11344A080E5F7C080917E02882359F420E0809152
S11344B0AB0B9091AC0B8F5F9F4F09F021E022234F
S11344C031F0CE0101960E94BE0A882341F060E1DA
S11344D077E280E090E00E94D41F82E1DAC0E091AC
S11344E03702FF27EE0FFF1FEC57F44FC080D18037
S11344F0D6010D911C91C8010E94E90A982EA09042
S1134500AB0BB090AC0BC8010E94601E20E09091F0
S11345107D02891708F421E02223D9F08AE20E945F
S113452016190E94650AF601808191810E94800A11
S1134530882319F081E50E941619C6010E949F0A7A
S1134540882319F082E50E94161984E10E94D6019D
S1134550A2C080917E02D601ED90FC90882389F15F
S113456068E0C7010E946709FC010781A0917603F6
S1134570B0917703F7018FE201900D928150E1F73A
S1134580E0907603F0907703C7010E94E90A0339AB
S113459069F48850082F1127602FC7010E94F30A7D
S11345A0402FBC01C7010E94E8107C01F092770300
S11345B0E092760360E0D6018D919C910E940E20DA
S11345C06AC009811A8168E0C7010E946709FC0179
S11345D00383012F1127028368E0F6018081918112
S11345E00E946709FC0180818F738083D6014D91FD
S11345F05C91DA011196FD0121813327322F2227A4
S1134600FA01818199278062282B392B2183232F5A
S11346103327FD012183809136028860809336021E
S113462080FF0FC068E0D6018D919C910E946709BC
S1134630FC01808180648083809136028E7F809328
S11346403602F60100811181F801A6828B2D99278B
S11346508783C8010E947D09FC0181E78083492D7D
S1134660B80180E00E94E8179927882331F48091EB
S113467036028061809336020EC0823061F46CE1B0
S1134680D6018D919C910E94FA0A84E10E94D60180
S113469087E10E94161922960FB6F894DEBF0FBE6A
S11346A0CDBFDF91CF911F910F91FF90EF90DF90DD
S11346B0CF90BF90AF909F900895AF92BF92CF924A
S11346C0DF92EF920F931F935B016C010E943809F4
S11346D0AB01BC01B1E0EB2E9601850182E00E94A2
S11346E008091F910F91EF90DF90CF90BF90AF908A
S11346F00895AF92BF92CF92DF92EF92FF920F9301
S11347001F93CF93DF935B016C01C0E0D0E0E1E73E
S1134710F4E0608561FF46C120813181428153818B
S1134720E480F58006811781D601C501821B930BB5
S1134730A40BB50B8E159F05A007B10708F432C171
S113474060FF03C06D7F608708C02E0D3F1D401FB2
S1134750511F2083318342835383C23009F4C5C07F
S1134760C33030F4CC2371F0C13009F059C1CAC050
S1134770C43009F402C1C43008F4C8C0C53009F01B
S11347804FC107C180917C02853009F07BC08091C4
S11347902E02882309F05DC062E189EC9BE00E944F
S11347A0F30A009709F43AC1FC01A9EAB3E082E1F3
S11347B00D9001928150E1F78091360281FF41C052
S11347C0C9ECDBE06AE1CE010E94FA0A68E0CE019E
S11347D00E946709FC018091000290910102858387
S11347E0892F99278483809189028F5F809389021E
S11347F08150868383E987831182E091D90CF091FB
S1134800DA0C3097F1F0D183C08312828EE1838376
S1134810CF010E944F0C882389F48091360282FFD5
S113482005C084FD03C084E10E94D6011092DA0C15
S11348301092D90C81E080932E020BC081E10E947A
S113484016198FB7F894992725B130E4232725B991
S11348508FBF10927C028091D80C882389F48091B8
S1134860AF039927982F88272091B0033327822BF1
S1134870932B01968093B003892F99278093AF03DC
S11348801092D80C1091300280913102882329F4BF
S1134890812F8450823008F4BDC0812F8250823031
S11348A008F4BCC082E08093300280919F0B8F5F3C
S11348B080939F0B813059F4899A609137097091E4
S11348C03809882799270E945D2381E808C0813828
S11348D041F480918B048D7F80938B0481E08093DD
S11348E09F0B113009F09CC00DC080919F0B8F77F6
S11348F080939F0B882309F489C080913002882318
S113490009F480C080E00E94CE0C8AC080913C02F1
S1134910882309F485C080913D02882309F480C06E
S11349208091A50B882309F444C0809116029091CC
S11349301702A0911802B0911902880F991FAA1F9B
S1134940BB1F8093160290931702A0931802B09392
S113495019028150904DA740B04060F080E090ED86
S1134960A7E0B0E08093160290931702A093180278
S1134970B09319020E94311053C080913C028823E5
S113498009F44EC080913D02882309F449C087E1AF
S113499006C0809136028F7E8093360284E10E94A5
S11349A0D6013EC021963996C630D10509F0B1CE64
S11349B037C087E10E94D60188E10E94D601A09009
S11349C01602B0901702C0901802D090190280917C
S11349D01E0390911F03A0912003B0912103A81AF4
S11349E0B90ACA0ADB0A81E08093A50B0E94380940
S11349F0AB01BC0111E0E12E9601850183E00E9428
S1134A0008090EC081E0809330020AC08998109290
S1134A10300206C081E08093310202C00E94C907BF
S1134A208BE00E94D601DF91CF911F910F91FF90EF
S1134A30EF90DF90CF90BF90AF900895FF920F93C7
S1134A401F93F090850210918602009130028091AC
S1134A503102882351F0053011F483E001C085E070
S1134A60809330021092310225C081E0809330029D
S1134A700E94AE0C80E00E948E1080919F0B8150AA
S1134A8080939F0B882361F46091C8027091C902DE
S1134A90882799270E945D2380E880939F0B0AC092
S1134AA0803841F4899880918B048D7F80938B04A6
S1134AB010929F0B033039F580918003882341F4D1
S1134AC08F2D9927982F88271C7F810F911D0AC04D
S1134AD08FB7F894992725B130E4232725B98FBFE0
S1134AE08FEF9FEFE0917C02E53068F4EF5FE09395
S1134AF07C02E150FF27EE0FFF1FEF54FC4F818330
S1134B00892F9927808380913002853019F0833072
S1134B1009F052C08FB7F894282F332780910D02E3
S1134B20882319F02FBF81E042C02FBF8FB7F894BC
S1134B30992750913302513089F542E04093330272
S1134B408FBF2FB7F894332780E490E090935F03EE
S1134B5080935E0385E892E09093C6028093C50239
S1134B604093530283E08093D50E1092B50B50937B
S1134B7034022FBF0E94A50C2FB7F89433278091DD
S1134B8034058F7A816A8093340594E090933302DC
S1134B908093BC002FBF109280030EC0552321F4D4
S1134BA08FBF84E090E003C08FBF85E090E08093E6
S1134BB080038CE00E94D6011F910F91FF9008950D
S1134BC0AF92BF92CF92DF92EF920F931F935B014C
S1134BD06C010E943809AB01BC01E1E0EE2E9601A4
S1134BE0850181E00E9408091F910F91EF90DF90E9
S1134BF0CF90BF90AF90089580913002823019F029
S1134C008430A1F40AC083E08093300265E570E04B
S1134C1080E090E00E94E025089585E080933002D2
S1134C2066E170E080E090E00E94E02508958091C4
S1134C303002833061F0843020F4823009F04CC0BB
S1134C4046C0843009F445C0853009F045C08FB7AB
S1134C50F894282F332780910D02882309F044C04B
S1134C602FBF8FB7F894992750913302513039F5FB
S1134C7042E0409333028FBF2FB7F894332780E488
S1134C8090E090935F0380935E0385E892E09093B5
S1134C90C6028093C5024093530283E08093D50EED
S1134CA01092B50B509334022FBF0E94A50C2FB75E
S1134CB0F8943327809134058F7A816A47C055234D
S1134CC011F48FBF51C08FBF85E090E0089583EF4A
S1134CD001C085EF809385028FB7F894282F33277E
S1134CE080910D02882321F02FBF81E090E0089588
S1134CF02FBF8FB7F894282F3327409133024130C8
S1134D0081F582E0809333022FBF2FB7F8943327C5
S1134D1080E490E090935F0380935E0385E892E0E3
S1134D209093C6028093C502409353024093D50EDC
S1134D301092B50B109234022FBF0E94A50C2FB70E
S1134D40F8943327809134058F7E816E80933405E7
S1134D5094E0909333028093BC002FBF80E090E0F6
S1134D600895442321F42FBF84E090E008952FBFD9
S1134D7085E090E008953F924F925F926F927F9208
S1134D808F929F92AF92BF92CF92DF92EF92FF9257
S1134D900F931F93CF93DF93CDB7DEB723970FB64F
S1134DA0F894DEBF0FBECDBFE82FFF27EC31F1052D
S1134DB008F0B2C6E057FF4FEE0FFF1F0590F491C5
S1134DC0E02D09948091180C882309F066C6A4C6C6
S1134DD00E94FE0A9927882309F49EC6893009F4A3
S1134DE09BC60E94FD0198C60E942F0E9927882316
S1134DF009F492C6893009F48FC60E9402028CC657
S1134E008FB7F8941092DD0C2091160940E02830F9
S1134E1009F441E030E0293009F431E0442311F48D
S1134E20332351F010921609E0917004FF27EE0F1E
S1134E30FF1FE558FC4F108299278FBF442311F4BC
S1134E40332331F19FB7F8948091000C8F5F8093E6
S1134E50000C80917103833479F42091EF038091E5
S1134E60EE03821779F0822F8F5F8093EF038630F1
S1134E7048F01092EF0306C0A0E0442309F4A1E037
S1134E8071E002C0A0E070E0892F99278FBF06C0AF
S1134E90222311F0FF246CC0A0E070E08FB7F894D7
S1134EA0992720911C028FBF222341F08FB7F894D9
S1134EB099272AE0209316098FBF42C08FB7F89430
S1134EC0992760917B0340917D038FBF8FB7F8943E
S1134ED0282F332750E09091EE038091EF03981729
S1134EE009F451E02FBF552341F5662331F55FB72F
S1134EF0F89482E080937B038FB7F894282F3327AC
S1134F0040E09091EE038091EF03981709F441E09B
S1134F102FBF442311F080E006C0E091EF03FF2788
S1134F20E251FC4F828180937C0383E4809371037C
S1134F3010927004852F99270EC04150423010F012
S1134F40FF240CC08FB7F894992725E420937103AC
S1134F5021E0209370048FBFE1E0FE2E772341F01F
S1134F608FB7F8949927A09325028FBF0E94070258
S1134F708FB7F894082F1127809116098A3021F4ED
S1134F800E94BB020FBFC8C50FBFFF2009F4C4C5F0
S1134F902FB7F89433271092D70E1092D60E109292
S1134FA0680381E0809316092FBF0E9412058823AD
S1134FB009F4B2C58FB7F894992729E0209316090C
S1134FC08FBF0E94A702A8C50E940C1CA5C50E9401
S1134FD00C02A2C58091C100877F8093C10080919B
S1134FE0C1008F7E8093C1008FEF8093090294C526
S1134FF010922202109221028FB7F89499274091BF
S113500025028FBF80912602811143E020911F0267
S11350103091200280912702882321F0823709F001
S11350207BC514C080911A02823008F075C5E82F40
S1135030FF27EE0FFF1FEB53F44F6081718162175E
S1135040730709F069C50E94B71D66C5442319F0AA
S11350500E94110261C58FB7F89488E190E029E0BD
S11350600FB6F894A895809360000FBE209360005B
S1135070FFCF8FB7F89499272091290200912A0233
S113508010912B0230912C02F0908C028FBF2223BE
S1135090A1F0223791F4333081F4F8018081823514
S11350A061F48181833549F48281843531F410932C
S11350B08802009387020E9411028FB7F894EF2DA3
S11350C0FF27EE0FFF1FED5FFD4F1183008320913B
S11350D01D02FF2011F02B7F01C02D7F20931D02A4
S11350E01092280299278FBF17C50E94391814C53A
S11350F00E94710711C58091C302882361F5209134
S1135100C10B3091C20B4091C30B5091C40BEFB74C
S1135110F894FF2760917203709173038091740374
S113512090917503E0906A03F0906B0300916C0317
S113513010916D036E0D7F1D801F911FEFBF209393
S1135140C10B3093C20B4093C30B5093C40B10920A
S1135150C3020E94140E0E94380945C00E943809F7
S11351607B018C018091DF008E7F8093DF008FEFC5
S1135170809309024FEFA42E4FEFB42E4FEFC42EAD
S11351804FE7D42E60E0E1E7F4E0808581FF1CC0A6
S113519080819181A281B381A8019701281B390BD9
S11351A04A0B5B0BDA01C9012481358146815781A1
S11351B0281B390B4A0B5B0B2A153B054C055D0577
S11351C01CF459016A0161E0399634E0E73AF307C7
S11351D0E1F6662309F4A0C41A141B041C041D047C
S11351E02CF0C801B7010E94792396C4A092C10B88
S11351F0B092C20BC092C30BD092C40B81E08093D7
S1135200C302A6019501C801B7010E94140E84C40B
S11352100E941E2581C40E94FC257EC42FB7F894E9
S1135220332780914E0980930C0283E080933202ED
S11352302FBF20910C028FB7F894992720930D0269
S11352408FBF222309F068C40E941726809380032D
S1135250882309F461C40E9416025EC40E94772167
S11352605BC40E94D71B58C40E94C32155C48FB786
S1135270F894282F332780919E0B882309F408C4BF
S1135280E091FF0BFF27EE0FFF1FE158FD4FC08099
S1135290D1802FBFF6018285178106818F3309F0F3
S11352A0B8C3C6010E947D094C01FC016081F6016E
S11352B071912F01812F9927582F4427802F9927E7
S11352C0482B592B8FB7F894992720910E023091CF
S11352D00F028FBF4217530721F04F5F5F4F09F052
S11352E012C47D507B83603721F0613709F0ABC372
S11352F0E8C1F601878126819927982F88273327CB
S1135300822B932B8F5F9F4F09F0ECC0C6010E9444
S113531072097C01F601818520859927B82EAA247B
S11353203327A22AB32AC5010E94F1078F3F21F037
S1135330F701618177271CC00E94DF0B182F8F3F74
S1135340D1F0B5010E94160BF7014181212F3327BB
S11353508BE090E0289FF001299FF00D389FF00D1D
S11353601124EF5FFB4F4283F70161817727812F7F
S11353700E94360BB7C081E40E94F10B182F8F3FB7
S1135380A1F0282F33278BE090E0289FF001299F7C
S1135390F00D389FF00D1124EF5FFB4F8081918158
S11353A00E94BF19B501812F9BC090E0F60185A52D
S11353B0893C08F091E0992309F494C0C6010E9445
S11353C09A11982FF4018081803709F08BC09530B1
S11353D009F039C365E0C6010E9476098C01FC011D
S11353E0818122819927982F88273327822B932B19
S11353F08F5F9F4F09F47CC0F80183812481992732
S1135400582F44273327422B532B4115510521F1A3
S113541080918D02E82EFF246091AB0B7091AC0B50
S1135420A0E020E030E0EEECF2E00EC0808191815B
S11354308617970731F0848195814817590708F436
S1135440A1E02F5F3F4F38962E153F0514F4AA2391
S113545069F3AA2309F451C010E0E6E0F4E0808186
S1135460992780FF04C083FD02C081FF1F5F3B9624
S113547024E0E437F20799F71123A1F10E9403090C
S1135480612F77270E94043400E010E0E6E0F4E0A6
S11354909081992349F0292F332723FD05C021FD4D
S11354A003C081508F3F39F00F5F1F4F3B960A3086
S11354B01105C1F0EDCF202F0F3FA1F033278BE072
S11354C090E0289FF001299FF00D389FF00D1124E2
S11354D0EF5FFB4F808191810E94BF19B501802F3E
S11354E00E94160BC6010E949A11853009F0ABC2C6
S11354F065E0C6010E9476098C01F201F084978070
S113550060E4C6010E943A0C382E58010894A11C8C
S1135510B11CF801818125010894411C511CF5013D
S113552021819927982F88273327822B932B8F5FEC
S11355309F4F09F4BCC08F2D9927F82EEE24892D96
S11355409927E82AF92A63E0862E912C800E911E71
S1135550F801838154E0652E712C600E711E248144
S11355609927982F88273327822B932B892B49F54A
S1135570C7010E94F1078F3F09F50E94DF0B8F3F9F
S113558011F0B70119C08AE00E94F10B182F8F3F68
S1135590A9F0282F33278BE090E0289FF001299F62
S11355A0F00D389FF00D1124EF5FFB4F8081918146
S11355B00E94BF19B701812F0E94160BC7010E94D8
S11355C06008F4019080F3018080F501B080F2015D
S11355D0A080C7010E9409088C01C7010E941A0C0F
S11355E0482F8A30F1F1892D9927782F6627882D45
S11355F09927682B792B8B2D9927382F22278A2DD1
S11356009927282B392B80918D024817C9F402332E
S1135610110538F5E42FFF27B3E0EE0FFF1FBA950D
S1135620E1F7E253FD4FF182E082338322837583F5
S1135630648381E0868317824F5F40938D0211C09B
S1135640E42FFF27A3E0EE0FFF1FAA95E1F7E25333
S1135650FD4FF182E082338322837583648381E08A
S1135660868380911502882311F5C7010E941A0CC4
S1135670E82F80918D02E81748F4FF2753E0EE0FDE
S1135680FF1F5A95E1F7E253FD4F37828091B00B2B
S1135690882311F0332049F08091AB0B9091AC0B2F
S11356A08E159F0521F4332011F00E941B0260E83F
S11356B0C6010E943A0C882309F4C5C10E947F10D8
S11356C0C2C1C6010E943E1EA82EC6010E94451EEC
S11356D0082F0F5FC6010E946E094C01FC01018373
S11356E0E6801127C6010E94A61EFF249801AC0182
S11356F0B70181E20E945D19FB81FD3108F0A3C16D
S1135700C6010E94601E20E090917D02891708F472
S113571021E0222311F088E247C010913902812F41
S11357209927B82E882309F442C0C6010E94531E4B
S11357303C0100913702010F0150BA940D3010F46E
S1135740E02F02C0E02FED50FF27EE0FFF1FEC57B4
S1135750F44F0190F081E02DE080F180C7010E94B8
S1135760531E8615970509F0D2C1C7010E944C1E2D
S1135770182FC6010E944C1E181709F0C8C1C70192
S11357800E94451E182FC6010E94451E181709F0D5
S1135790BEC1C7010E943E1E182FC6010E943E1EB4
S11357A0181709F0B4C189E20E9416194CC18091FE
S11357B07E02882399F0C6010E94EE0A182F23E97D
S11357C0A21609F040C1682FC6010E94F30A412FB6
S11357D0BC01C6010E94E8106C0135C180E0209133
S11357E0BC03222309F481E0882311F080E1A9C0DD
S11357F09091BB0380E0992309F481E0882311F0A0
S113580086E19FC09923C9F08091480CE82FFF27B7
S1135810EE0FFF1FE354F14F0081118111821082BA
S113582091509093BB038F5F8093480C8C3011F49C
S11358301092480C0115110511F483E5B5CF22230C
S1135840C9F080916403E82FFF27EE0FFF1FE35E8A
S1135850F64FA080B1801182108221502093BC03A6
S11358608F5F809364038C3011F410926403A1144D
S1135870B10411F484E598CF8FE2F50111928A9571
S1135880E9F728E230E0C20ED31E87E0F601119258
S11358908A95E9F728ED3FEFC20ED31EF801D182B5
S11358A0C0828FEF82838EE18383C8010E944F0CF4
S11358B08823C9F5CE0101960E94BE0A882359F5B2
S11358C0F401828123819927982F88273327822BFB
S11358D0932B29813A8128173907E8F00E947F1019
S11358E060E870E080E890E00E94F01FF201068119
S11358F08581F401E6801127102F00279927082BB2
S1135900192BC6010E94A61EFF249801AC01B70101
S113591088E10E945D198091A60481FD02C00E9465
S11359202002650190C0C5010E94800A882319F0F5
S113593081E50E941619C8010E949F0A882319F064
S113594082E50E94161981E12FCFC6010E946E09DB
S1135950FC0180818078803811F40E947F10C60198
S11359600E943E1E833909F06EC02FB7F894332786
S113597085B190E4892785B92FBFF60184892589EB
S11359809927582F44273327422B532B8091A9035F
S11359909927982F88272091AA033327822B932BAA
S11359A084179507B0F44093AA03852F9927809311
S11359B0A903868927899927982F88273327822B3B
S11359C0932B8093AC03892F99278093AB030E9478
S11359D08C0CF601828D238D9927582F4427332769
S11359E0422B532B8091AF039927982F882720911E
S11359F0B0033327822B932B8417950720F540930C
S1135A00B003852F99278093AF0381E08093D80C4E
S1135A101AC0812F9927582F4427802F9927482B64
S1135A20592B8FB7F894992720910E0230910F02C9
S1135A308FBF4217530719F04F5F5F4F21F48FB7A1
S1135A40F89499278FBF9FB7F8948091FF0BE82FA4
S1135A50FF27EE0FFF1FE158FD4FD182C0828F5FF9
S1135A608093FF0B833010F01092FF0B80919E0BFC
S1135A70815080939E0B892F99278FBFF8CB0E946A
S1135A8003092FB7F894332790931A0980931909BF
S1135A902FBF42C00E9431223FC0F1E0DF2EEE242E
S1135AA0FF2408EF13E09091180C8D2D892371F0D9
S1135AB0F80160817181118210828D2D8095982367
S1135AC09093180C43E08E2D0E94D6200894E11C7C
S1135AD0F11C0E5F1F4FF8E0EF16F104E9F0DD0C46
S1135AE0E2CF0E94B52118C00E946C1C15C00E9410
S1135AF0E31A12C00E94481A0FC00E94301E0CC044
S1135B000E94991809C0613709F09DCF1ECF01503A
S1135B10BB2009F44CCE11CE23960FB6F894DEBF09
S1135B200FBECDBFDF91CF911F910F91FF90EF90EA
S1135B30DF90CF90BF90AF909F908F907F906F90A9
S1135B405F904F903F9008958091F80B8F3FB1F094
S1135B50282F3327F901E057FD4F80818093F80BFC
S1135B608F3F11F48093BA0E8FEF80832F3F31F073
S1135B70822F0E94BB2681E090E0089580E090E0AF
S1135B800895FF920F931F93FFB6F89414BE88E113
S1135B900FB6F89480936000109260000FBE4CE141
S1135BA050E06FEF70E080E992E00E948D348FEF57
S1135BB08093F80B8093BA0E8BED9EE090930B0FBD
S1135BC080930A0F1092150C8AE580938B02819AB8
S1135BD08091350180618093350180913401806129
S1135BE080933401809133018061809333018091EB
S1135BF0320180618093320185B7806885BF85B7A3
S1135C00806885BF80E8809361008FE080936100A5
S1135C1091E09093810080E28093B6009093B1006C
S1135C20E0E0F0E06FEF7FEFA0E0BEEF8091B20024
S1135C308823E1F740918400509185008091B2005F
S1135C408034E1F72091840030918500241B350BCA
S1135C506217730708F4B9012E173F0708F4F90116
S1135C60CF01861B970B029720F4AF5FA23330F06D
S1135C7007C0A0E06FEF7FEFE0E0F0E0B150B1F6D5
S1135C803093FA0B2093F90B1092B1008091B1007C
S1135C9080938100809181008093B6008091B6004A
S1135CA0992783709070892BC9F78091DF008D7FCD
S1135CB08093DF008091DC008D7F8093DC0080E2A4
S1135CC08093B6008091DC008F7C80638093DC003D
S1135CD08091DF0088608093DF008091DF008E7FF9
S1135CE08093DF008FEF809309028091DC008E7F28
