:100000000C9493010C94B2010C94B2010C94B201C3
:100010000C94B2010C94B2010C94B2010C94B20194
:100020000C94B2010C9407090C94B2010C94B20127
:100030000C94B2010C94B2010C94B2010C94B20174
:100040000C946D060C944F060C9459060C946306A0
:100050000C9431060C94B2010C94B2010C94B201D0
:100060000C94B2010C9438080C94B2010C94FB046B
:100070000C94B2010C94B2010C94B2010C94B20134
:100080000C94B2010C94B2010C94B2010C94B20124
:100090000C9414060C94B2010C9426060C94B20134
:1000A0000C94B2010C94B2010C94B2010C94B20104
:1000B0000C94B2010C94B2010C94B2010C94B201F4
:1000C0000C94B2010C94B2010C94B2010C94B201E4
:1000D0000C94B2010C94B2010C94B2010C94B201D4
:1000E0000C94B2010C94B2010C94B2010C94B201C4
:1000F0000C94B2010C94B2010C94B2010C94B201B4
:100100000C94B2010C94E8070C9424080C942E086B
:100110000C94D7070C94B2010C94B2010C94B20168
:1001200000002110422063308440A550C660E77073
:10013000088129914AA16BB18CC1ADD1CEE1EFF11B
:100140003112100273325222B5529442F772D662C3
:10015000399318837BB35AA3BDD39CC3FFF3DEE36B
:100160006224433420040114E664C774A444855413
:100170006AA54BB528850995EEE5CFF5ACC58DD5BB
:100180005336722611163006D776F6669556B44663
:100190005BB77AA719973887DFF7FEE79DD7BCC70B
:1001A000C448E5588668A7784008611802282338B3
:1001B000CCC9EDD98EE9AFF9488969990AA92BB95B
:1001C000F55AD44AB77A966A711A500A333A122A03
:1001D000FDDBDCCBBFFB9EEB799B588B3BBB1AABAB
:1001E000A66C877CE44CC55C222C033C600C411C53
:1001F000AEED8FFDECCDCDDD2AAD0BBD688D499DFB
:10020000977EB66ED55EF44E133E322E511E700EA2
:100210009FFFBEEFDDDFFCCF1BBF3AAF599F788F4A
:100220008891A981CAB1EBA10CD12DC14EF16FE12A
:100230008010A100C230E320045025404670676062
:10024000B9839893FBA3DAB33DC31CD37FE35EF37A
:10025000B1029012F322D2323542145277625672B2
:10026000EAB5CBA5A89589856EF54FE52CD50DC5CA
:10027000E234C324A0148104667447642454054402
:10028000DBA7FAB79987B8975FE77EF71DC73CD71A
:10029000D326F2369106B016576676761546345652
:1002A0004CD96DC90EF92FE9C899E9898AB9ABA96A
:1002B0004458654806782768C018E1088238A328A2
:1002C0007DCB5CDB3FEB1EFBF98BD89BBBAB9ABBBA
:1002D000754A545A376A167AF10AD01AB32A923AF2
:1002E0002EFD0FED6CDD4DCDAABD8BADE89DC98D0A
:1002F000267C076C645C454CA23C832CE01CC10C42
:100300001FEF3EFF5DCF7CDF9BAFBABFD98FF89F59
:10031000176E367E554E745E932EB23ED10EF01E91
:1003200000020E060C0411241FBECFEFD1E4DEBF85
:10033000CDBF13E0A0E0B2E0E8EFF3E200E00BBFD6
:1003400002C007900D92AE34B107D9F716E0AEE4C3
:10035000B3E001C01D92AA3BB107E1F70E941D1056
:100360000C94FB110C9400008FB7F8949927089512
:100370008FBF0895282F9FB7F894E82FFF27EA50E2
:10038000FB4F80818F3F81F4E091B506E21771F455
:100390000BC02093AE0604C0FF27EA50FB4F20831A
:1003A0002093B50620E007C025E005C08091AE0689
:1003B0008F3F91F7EECF892F99278FBF822F9927F3
:1003C000089521E030E002C0220F331F8A95E2F742
:1003D00080911C05822B80931C05EBE6F0E0808168
:1003E000282B2083E8E6F0E080818160808380E034
:1003F00090E0089521E030E002C0220F331F8A957B
:10040000E2F7922F909580911C05892380931C051B
:10041000EBE6F0E08081282B2083E8E6F0E08081A5
:100420008160808380E090E008959FB7F894282F42
:10043000332720FF02C02E9A01C02E9821FF02C050
:100440002F9A01C02F9822FF02C02E9A01C02E9829
:1004500023FF02C02F9A01C02F98892F99278FBFA1
:100460000895EF920F931F93AE2D99E0899FF001AD
:100470001124E55DFA4F40835183628373830483C3
:10048000158326833783A17080858E7F8A2B8260B7
:1004900080878BE00E94BA011F910F91EF90089521
:1004A000EF92FF920F931F937FB7F89460910C0522
:1004B0002091E100822F2091E200922F2091E30011
:1004C000A22F2091E400B22F9C01AD018091E000A9
:1004D00083FF0FC06F5F8091E100E82E8091E20002
:1004E000F82E8091E300082F8091E400182FA801D6
:1004F0009701872F99278FBF772788279927FAE1B8
:10050000660F771F881F991FFA95D1F7E6E0569579
:10051000479537952795EA95D1F7622B732B842B56
:10052000952B1F910F91FF90EF900895E0E2F1E07D
:100530006927660FF11DE60FF11DC895982F802DD4
:100540003196C89590250895982F80915A03882355
:1005500089F5992379F531E030935A0380917E0231
:1005600080935B0320914F03822F81708093F50469
:10057000809183029091840290935D0380935C0349
:100580008091500380935E0332273170267EE32FE3
:10059000FF27EE0FFF1FE158FD4F8081918190935F
:1005A000840280938302232B20934F0387E00E94D1
:1005B000BA01089580914F0380FF02C08B7F01C074
:1005C0008D7F80934F0308951F931FB7F8948091F8
:1005D000B406882341F482E00E94BA01882319F40A
:1005E00081E08093B406812F99278FBF1F910895D2
:1005F0009FB7F8948091D5058A3011F020E006C0AD
:1006000020E080910405843009F421E0892F9927A6
:100610008FBF222349F084E00E94BA018FB7F8947B
:10062000992710924E0306C08FB7F894992721E0BE
:1006300020934E038FBF08950F931F93082F162FFB
:10064000809104058130D9F0813038F0823009F48E
:100650004AC0833009F028C159C0002309F458C1A9
:100660001092D9051092D8051092D7051092A906BC
:1006700010920805109227051092260539C1002313
:1006800009F046C180912605909127050E949602A7
:10069000909327058093260582E0809304051093AC
:1006A000A906143409F000C125C18695869503C0BA
:1006B00080914F038695817009F0F6C080914F03B9
:1006C000992311F0846001C0826080934F03809170
:1006D0004F03877E886080934F03109250038FEF03
:1006E00080937E0215C1002309F0DEC060930805E7
:1006F00080912605909127050E94960290932705E8
:100700008093260583E08093040502C18091D7057C
:100710008F3F09F4C9C0002309F461C0823008F496
:10072000C3C0E091D805EE2309F4EBC04E2F415031
:10073000E42FFF27E852FA4F82819927382F22278A
:10074000442311F4E2E002C0E42FE150FF27E85215
:10075000FA4F82819927282B392B80912605909179
:1007600027052817390709F09FC080E00E94A402DE
:100770003091080580911D0520911E05982F9F5FDF
:10078000963008F090E0921771F0E82FFF27E35EB3
:10079000FA4F32838F5F80931D05863010F01092E0
:1007A0001D050E94E4021092D9051092D80594E02C
:1007B000909304051092D7051092A906109208058F
:1007C000109227051092260580915F038D7F8093FC
:1007D0005F0380914E03882309F49AC084C082305D
:1007E00008F44EC0E091D905FF27E852FA4F828104
:1007F000482F5527342F20914F03822F86958695B9
:100800008695837099278130910519F00297F9F444
:100810000EC0277E206120934F03442311F485E00E
:1008200001C080E08093500330937E0210C080911D
:1008300050038F3260F4E0918302F0918402E80F5C
:10084000F11D4083809150038F5F8093500380910E
:10085000D905E82FFF27E852FA4F62818F5F809316
:10086000D905833010F01092D9057727809126059D
:10087000909127050E949602909327058093260564
:100880008091D805E82FFF27E852FA4F12838F5F37
:100890008093D805833010F01092D8058091D70549
:1008A0008F5F8093D70534C01092D9051092D80578
:1008B00014E0109304051092D7051092A906109227
:1008C0000805109227051092260580915F038D7F01
:1008D00080935F0381E00E94A40280914E038823ED
:1008E00029F0109304050E94F80212C0002381F041
:1008F00081E009CF80914F03982F917080FDD5CE74
:10090000D7CE8091DC059927382F222742E01CCFD3
:100910001F910F9108952FB7F89433278093C60045
:10092000E0ECF0E08081806480832FBF0895FC01BB
:100930006115710519F481E090E008958091160524
:1009400090911705892B19F085E090E00895709338
:10095000E0056093DF05F0931705E093160510920C
:1009600006051092050581E0809307058091C0007F
:1009700080648093C0008091C10080648093C10036
:10098000808121E030E030930605209305050E9428
:100990008B0480E090E00895982F8D57823068F4A2
:1009A00080915F03816080935F0380E28927809359
:1009B000D6058DE78093020502C09093020561E0A1
:1009C00070E082E095E00E949704992708958FB720
:1009D000F894992720915F032E7F20935F032EE7E1
:1009E000209302058FBF61E070E082E095E00E94F5
:1009F00097049927089578941F920F920FB60F923B
:100A00001124FF920F931F932F933F934F935F9364
:100A10006F937F938F939F93AF93BF93CF93DF9306
:100A2000EF93FF9320910505309106058091DF0536
:100A30009091E0052817390780F4E0911605F091B0
:100A40001705E20FF31F80812F5F3F4F309306059C
:100A5000209305050E948B04D1C0109217051092B7
:100A60001605109207058091C1008F7B8093C1000D
:100A7000FFB6F89480915F0380FF0EC08E7F809355
:100A80005F038091D6058093020561E070E082E00B
:100A900095E00E949704AFC08091D505843009F499
:100AA0008CC0853040F4823021F18330B8F581303C
:100AB00009F09CC00DC0863009F48DC0863008F462
:100AC00083C0873009F48EC0883009F08FC091C090
:100AD000809111050E94CC04082F83E08093D505F6
:100AE000609111058091B6069091B7060E9496021A
:100AF00010C08091B1060E94CC04082F83E080933F
:100B0000D5056091B1068091B6069091B7060E9416
:100B100096029093B7068093B60666C0E0912A05C8
:100B2000FF27EE0FFF1FE75EFA4F80810E94CC0483
:100B3000082F10912A05C12FDD27FE01EE0FFF1FA0
:100B4000E75EFA4F60818091B6069091B7060E94E9
:100B500096029093B7068093B60620910B052F5FFF
:100B600020930B05113039F580915603E091510324
:100B7000F0915203E80FF11DE0818F5F80935603DF
:100B800090915503981730F482E080931A0540E065
:100B900050E002C04E2F5527DE01AA0FBB1FFD01FA
:100BA000E85EFA4F8081823031F02F3F21F0A75E5E
:100BB000BA4F4C9319C084E012C08091B6060E94CF
:100BC000CC04082F85E00BC08091B7060E94CC04AE
:100BD000082F86E004C00E94E704082F87E0809376
:100BE000D50502C088E003C0002329F089E0809386
:100BF000D5050E94E4028F2D99278FBFFF91EF91B9
:100C0000DF91CF91BF91AF919F918F917F916F9124
:100C10005F914F913F912F911F910F91FF900F90F6
:100C20000FBE0F901F9018951F920F920FB60F9244
:100C300011248F938091C80087FF02C08091CE005D
:100C40008F910F900FBE0F901F90189578941F9260
:100C50000F920FB60F9211240F900FBE0F901F909E
:100C600018951F920F920FB60F9211248F939F9396
:100C70008091090590910A05019690930A05809349
:100C80000905892B29F4809125058F5F809325051F
:100C90009F918F910F900FBE0F901F9018951F92EC
:100CA0000F920FB60F9211240F900FBE0F901F904E
:100CB00018951F920F920FB60F9211240F900FBE2E
:100CC0000F901F9018951F920F920FB60F9211243C
:100CD0000F900FBE0F901F9018951F920F920FB696
:100CE0000F9211240F900FBE0F901F901895AF9286
:100CF000BF92CF92DF92EF92FF920F931F93F82E45
:100D00005A016B010E945002AB01BC01EE24960116
:100D100085018F2D0E9431021F910F91FF90EF905E
:100D2000DF90CF90BF90AF9008956F927F928F9297
:100D30009F92AF92BF92CF92DF92EF92FF920F936A
:100D40001F930E9450027B018C012091120530916B
:100D50001305409114055091150580910D05909152
:100D60000E05A0910F05B0911005820F931FA41FCF
:100D7000B51FE216F3060407150730F08217930734
:100D8000A407B50758F005C082179307A407B50755
:100D9000E0F5E816F9060A071B07B8F59C01AD0156
:100DA0002E193F09400B510B213060E0360760E0FF
:100DB000460762E0560768F180E090E0A0E0B2E00C
:100DC000E80EF91E0A1F1B1FE0921205F092130590
:100DD000009314051093150580E090E0A0E0BEEFAD
:100DE000E80EF91E0A1F1B1F2050304040405240A1
:100DF00020930D0530930E0540930F055093100579
:100E000020E030E040E052E014C020E030E040E07C
:100E100050E08093120590931305A0931405B093AE
:100E2000150510920D0510920E0510920F051092E7
:100E3000100539014A0146E0660C771C881C991C94
:100E40004A95D1F736E0EE0CFF1C001F111F3A95B2
:100E5000D1F78091E100A82E8091E200B82E809118
:100E6000E300C82E8091E400D82EA60195012E5FE4
:100E70003F4F4F4F5F4FDA01C9018E199F09A00BF9
:100E8000B10B86159705A805B90530F4A80197019F
:100E9000260D371D481D591D5093F8004093F7004B
:100EA0003093F6002093F50081E08093E00080917C
:100EB000DF0081608093DF008FEF809385021F91B8
:100EC0000F91FF90EF90DF90CF90BF90AF909F90E9
:100ED0008F907F906F9008950F931F930FB7F894A2
:100EE0001127609312057093130580931405909356
:100EF000150520930D0530930E0540930F05509373
:100F000010050E9495060FBF1F910F9108959FB77E
:100F1000F89480910405882319F484E080930405F3
:100F2000892F99278FBF9FB7F8948091D505882383
:100F300019F48AE08093D505892F99278FBF0E94E5
:100F4000F80280E090E00895E1ECF0E080818F7B92
:100F5000808380818F7780831092D405109207055B
:100F60008081886080838081806180838FEF80931F
:100F7000850280818068808380E090E008958FB74B
:100F8000F894282F3327922F8091D5058A3041F08D
:100F900080910405843021F02FBF89E090E008950E
:100FA0009FBF83E00E94BA0180E090E008951F9205
:100FB0000F920FB60F9211248F9380910C058F5FC3
:100FC00080930C058F910F900FBE0F901F90189576
:100FD0001F920F920FB60F9211242F933F934F93AE
:100FE0005F936F937F938F939F93AF93BF93EF9391
:100FF000FF938091DF008E7F8093DF008FEF8093DF
:10100000850280910D0590910E05A0910F05B0917C
:1010100010050097A105B10521F48AE00E94BA01EC
:1010200002C00E949506FF91EF91BF91AF919F91F1
:101030008F917F916F915F914F913F912F910F9081
:101040000FBE0F901F9018951F920F920FB60F9220
:1010500011240F900FBE0F901F9018951F920F92A2
:101060000FB60F9211240F900FBE0F901F9018957E
:101070001F920F920FB60F921124EF92FF920F93CF
:101080001F932F933F934F935F936F937F938F9310
:101090009F93AF93BF93EF93FF938091C00087FF1F
:1010A00086C0F090C600E0912805F09129053097A0
:1010B00029F18091B2069091B306E80FF91FF082F2
:1010C00001969093B3068093B2062091B8063091B2
:1010D000B9068217930708F46AC010922905109286
:1010E00028058091D405833009F461C08091C10046
:1010F0008F778093C1001092D40559C0409160034E
:101100008AE0F81669F4552761EE75E08DE294E007
:101110000E94EB1189E00E94BA011092600333C073
:10112000E42FFF27EF51FA4FF0824F5F40936003A7
:1011300080916103909162030597F9F49EE3F9169B
:10114000E1F480E00E941502809160058D7F80931C
:10115000600586E090E090936203809361030E94B3
:101160005002AB01BC01E1E0EE2E00E014E020E013
:1011700030E086E00E94310206C08EE7F81619F4CE
:1011800060E081E012C080915F039DE7F91621F4D1
:10119000826080935F030BC081FF05C08D7F8093C9
:1011A0005F0380E2F8266F2D80E00E941C03FF9110
:1011B000EF91BF91AF919F918F917F916F915F91CF
:1011C0004F913F912F911F910F91FF90EF900F90B2
:1011D0000FBE0F901F9018958091D3051D9B0CC0DA
:1011E0008823A1F481E08093D30580E00E94BA01B6
:1011F00085E00E94E1010895882341F01092D30513
:1012000081E00E94BA0185E00E94FA0108951F92D0
:101210000F920FB60F9211242F933F934F935F932A
:101220006F937F938F939F93AF93BF93EF93FF93AE
:1012300020916B0093B180911C058927822385FF43
:1012400002C00E94EC08FF91EF91BF91AF919F9176
:101250008F917F916F915F914F913F912F910F905F
:101260000FBE0F901F901895AF92BF92CF92DF9252
:10127000EF92FF920F931F93CF93DF935B016C016B
:10128000C0E0D0E0EBE2F5E0608561FFDBC12081EA
:10129000318142815381E480F58006811781D60136
:1012A000C501821B930BA40BB50B8E159F05A007E0
:1012B000B10708F4C7C160FF03C06D7F608708C035
:1012C0002E0D3F1D401F511F2083318342835383C6
:1012D000C33009F491C0C43030F4C130D1F1C23010
:1012E00008F05EC00AC0C53009F4DEC0C53008F49D
:1012F000AFC0C63009F0ACC103C180E00E94150246
:101300008091D1059091D205069781F41092D20573
:101310001092D10540E058E060E070E081E00E946A
:101320007706809133058D7F80933305809161032B
:1013300090916203892B09F08BC1A6E8B2E0E0E04E
:10134000F2E085E001900D928150E1F765E070E0F8
:1013500024C081E00E9415028091D1059091D205B0
:10136000069749F41092D2051092D10580913C0560
:101370008D7F80933C05809161039091620301977A
:1013800009F066C1A6E8B2E0E5E0F2E088E001908D
:101390000D928150E1F768E070E086E892E046C186
:1013A00082E00E9415028091D1059091D2050697A6
:1013B00081F41092D2051092D10540E054E160E032
:1013C00070E080E00E947706809145058D7F8093D4
:1013D00045058091610390916203029709F038C13D
:1013E000A6E8B2E0EEE0F2E08EE001900D928150CE
:1013F000E1F76EE070E0D1CF83E00E9415028091AA
:10140000D1059091D205069781F41092D2051092E1
:10141000D10540E054E160E070E082E00E94770690
:1014200080914E058D7F80934E0580916103909150
:101430006203039709F00CC1A6E8B2E0ECE1F2E028
:1014400086E201900D928150E1F766E270E0A5CF4F
:1014500084E00E9415028091D1059091D2050697F3
:1014600081F41092D2051092D10540E05CE160E079
:1014700070E083E00E947706809157058D7F80930E
:1014800057058091610390916203049709F0E0C0D1
:10149000A6E8B2E0E3E4F2E08BE201900D92815025
:1014A000E1F76BE270E079CF85E00E941502809150
:1014B000D1059091D205069781F41092D205109231
:1014C000D10540E05CE160E070E084E00E947706D6
:1014D000809160058D7F809360058091610390917C
:1014E0006203059709F0B4C0A6E8B2E0EEE6F2E0C8
:1014F00080E101900D928150E1F760E170E04DCF05
:101500008091D1059091D205069781F41092D20571
:101510001092D10540E05CE160E070E084E00E9460
:101520007706809160058D7F8093600580916103CF
:1015300090916203069709F08BC09EE79093860214
:1015400085E480938702109288028FEF809389024E
:1015500080938A0210928B0210928C0284E1809315
:101560008D0210928E0283E680938F021092900279
:10157000809391021092920280E78093930282E915
:10158000809394028BEA8093950285ED8093960276
:1015900085E180939702109298021092990210921E
:1015A0009A0284E580939B0210929C028EE28093C3
:1015B0009D028BE080939E0287EB80939F021092A6
:1015C000A00281E08093A1021092A20282E08093A7
:1015D000A3028EE08093A40286E18093A50287E4B3
:1015E0008093A60283E78093A7029093A802A6E8BF
:1015F000B2E0E3E6F3E08C91982F92959F708F70A4
:101600009A3010F0995C01C0905D8A3010F0895CCE
:1016100001C0805D908381831196329682E0A93A61
:10162000B80749F767E470E083E693E00E94970407
:101630008091D1059091D20501969093D205809327
:10164000D10506C021963996C830D10509F01CCEC7
:101650008BE00E94BA01DF91CF911F910F91FF9013
:10166000EF90DF90CF90BF90AF900895AF92BF9270
:10167000CF92DF92EF92FF920F931F93CF93DF935E
:10168000853009F42DC1863088F48230D9F1833059
:1016900030F4882309F1813009F0A7C428C08330D1
:1016A00009F412C1843009F0A0C418C1883009F4CB
:1016B00088C1893038F4863009F420C1873009F0B8
:1016C00094C443C18A3009F401C48A3008F4CEC1FD
:1016D0008B3009F08AC42DC40E94BF079927882344
:1016E00009F483C4893009F480C480E07CC40E947A
:1016F00087079927882309F478C4893009F475C4C9
:1017000081E071C48FB7F8941092B4062091D5058A
:1017100040E0283009F441E030E0293009F431E0BC
:10172000442311F4332351F01092D505E0912A059A
:10173000FF27EE0FFF1FE85EFA4F108299278FBF39
:10174000442311F4332331F19FB7F8948091B1060B
:101750008F5F8093B10680911105833479F42091D5
:101760001E0580911D05821779F0822F8F5F80936F
:101770001E05863048F010921E0506C0A0E04423E6
:1017800009F4A1E071E002C0A0E070E0892F992780
:101790008FBF06C0222311F010E06CC0A0E070E003
:1017A0008FB7F894992720914E038FBF222341F0E1
:1017B0008FB7F89499272AE02093D5058FBF42C0B0
:1017C0008FB7F89499276091180540911A058FBF3B
:1017D0008FB7F894282F332750E090911D05809102
:1017E0001E05981709F451E02FBF552341F56623D4
:1017F00031F55FB7F89482E0809318058FB7F894BD
:10180000282F332740E090911D0580911E059817E1
:1018100009F441E02FBF442311F080E006C0E091BD
:101820001E05FF27E35EFA4F82818093190583E44A
:101830008093110510922A05852F99270EC04150DB
:10184000423010F010E00BC08FB7F894992725E4D0
:101850002093110521E020932A058FBF11E0772303
:1018600049F08FB7F8949927A09357038FBF86E06C
:101870000E94BA018FB7F894C82FDD278091D50553
:101880008A3021F40E94F802CFBFAFC3CFBF11232B
:1018900009F4ABC32FB7F89433271092B706109210
:1018A000B60610920B0581E08093D5052FBF0E94EC
:1018B000E704882309F499C38FB7F894992729E09E
:1018C0002093D5058FBFCAC00E94A4078FB7F89494
:1018D00099271092D5051092040571C085E083C345
:1018E0008091C100877F8093C1008091C1008F7E6D
:1018F0008093C1008FEF8093850277C310925403C9
:10190000109253038FB7F8949927209157038FBFF4
:1019100080915803811123E080915903882309F4B1
:1019200064C3823709F061C3222309F05BC38FB718
:10193000F89488E190E029E00FB6F894A895809398
:1019400060000FBE20936000FFCF8FB7F8949927F7
:1019500020915B03C0915C03D0915D0330915E03E5
:101960001091F5048FBF2223A1F0223791F4333078
:1019700081F48881823569F48981833551F48A81C3
:10198000843539F4D0932C04C0932B0488E00E9452
:10199000BA018FB7F894E12FFF27EE0FFF1FE15830
:1019A000FD4FD183C08320914F03112311F02B7F72
:1019B00001C02D7F20934F0310925A0399278FBFA8
:1019C00014C3E0912B04F0912C048AE5808382E417
:1019D000818380E5828340912B0450912C04809177
:1019E000530390915403892B09F0FCC22FB7F8944C
:1019F000332710925603109257035093520340938B
:101A0000510382E090E0909354038093530342E7A4
:101A1000409359031092580383E0809355032FBFDE
:101A20008FB7F894282F33278091D5058A3011F489
:101A30002FBF17C02FBF9FB7F89480911A05882336
:101A400011F020E006C081E080931A0540931B0549
:101A500021E0892F99278FBF222319F00E94E402E9
:101A6000C4C21092540310925303BCC280912D043F
:101A70008F3409F047C080912E048B3409F038C1AF
:101A80008091610390916203009731F48091330556
:101A90008D7F80933305B6C08230910579F48091B3
:101AA00045058D7F8093450540E054E160E070E09E
:101AB00083E00E94770683E090E0ADC0833091051B
:101AC00079F480914E058D7F80934E0540E050E281
:101AD00060E070E084E00E94770684E090E09BC0C4
:101AE000049709F09CC0809157058D7F809357051E
:101AF00040E05CE060E070E085E00E94770685E011
:101B000090E089C08E3671F580912E048F3609F0F1
:101B1000EFC080912F04803209F0EAC08091300438
:101B2000893609F0E5C080913104803709F0E0C0C2
:101B30008091610390916203049709F0D9C080916C
:101B400057058D7F8093570540E05CE160E070E0D1
:101B500083E00E94770683E090E090936203809395
:101B6000610361C0853409F05EC080912E04823526
:101B700009F0BEC080912F04823509F0B9C0809170
:101B800030048F3409F0B4C080913104823509F0FB
:101B9000AFC08091610390916203009779F48091C6
:101BA00033058D7F8093330540E058E060E070E0BE
:101BB00081E00E94770681E090E02DC081309105A0
:101BC00031F480913C058D7F80933C0528C08230A4
:101BD000910589F4809145058D7F8093450540E00E
:101BE00058E060E070E080E00E94770610926203A7
:101BF0001092610314C0039791F480914E058D7F7C
:101C000080934E0540E054E160E070E082E00E9485
:101C1000770682E090E090936203809361031092D4
:101C2000D2051092D10580912D04823759F580910B
:101C30002E04853609F043C180912F04813609F0C6
:101C40003EC180913004843609F039C1809131045D
:101C5000893709F034C18091610390916203019743
:101C600009F02DC180913C058D7F80933C0540E0BB
:101C70005CE060E070E080E00E9477061092620312
:101C80001092610380912D048C3491F580912E0483
:101C9000893609F014C180912F048E3609F00FC1E6
:101CA000809130048B3609F00AC180913104853669
:101CB00009F005C180913204843609F000C1809199
:101CC000610390916203049709F0F9C08091570570
:101CD0008D7F8093570540E058E060E070E085E03C
:101CE0000E94770685E090E0909362038093610301
:101CF00080912D04863441F580912E04813409F0C1
:101D0000DEC080912F04893409F0D9C0809130045D
:101D10008C3409F0D4C080916103909162030397E1
:101D200009F0CDC080914E058D7F80934E0540E037
:101D300054E160E070E082E00E94770682E090E08B
:101D4000909362038093610380912D04853791F510
:101D500080912E048E3609F0B2C080912F048C360B
:101D600009F0ADC080913004893609F0A8C0809197
:101D700031048E3609F0A3C0809132048B3609F00D
:101D80009EC08091610390916203049709F097C00F
:101D9000809157058D7F8093570540E05CE160E0BE
:101DA00070E083E00E94770683E090E09093620306
:101DB0008093610380912D048E3609F045C0809197
:101DC0002E048F3609F07BC080912F04803209F0F9
:101DD00076C080913004833609F071C0809131045F
:101DE000883609F06CC080913204813609F067C0F2
:101DF000809133048E3609F062C0809134048736B6
:101E000009F05DC080913504853609F058C0809195
:101E1000610390916203029709F051C080914505DA
:101E20008D7F8093450540E05CE160E070E083E0F9
:101E30000E94770683E090E09093620380936103B1
:101E40001092D2051092D10580912D048335B9F5F9
:101E500080912E04853499F580912F048E3479F584
:101E600080913004843459F580913104803239F501
:101E7000809132048F3419F5809133048B34F9F456
:101E800080916103909162030697C9F42E9A809124
:101E900069058D7F809369050E945002AB01BC01EA
:101EA000A1E0EA2E00E01CE020E030E085E00E94A6
:101EB000310285E090E0909362038093610384E1B6
:101EC000EDE2F4E011928A95E9F78FC08091030565
:101ED000882361F52091AA063091AB064091AC06AB
:101EE0005091AD06EFB7F894FF27609112057091FD
:101EF00013058091140590911505E0900D05F09063
:101F00000E0500910F05109110056E0D7F1D801FAD
:101F1000911FEFBF2093AA063093AB064093AC0607
:101F20005093AD06109203050E946C070E94500268
:101F300044C00E9450025B016C018091DF008E7FE3
:101F40008093DF008FEF8093850260E0FFEFEF2E3C
:101F5000FFEFFF2EFFEF0F2FFFE71F2FEBE2F5E064
:101F6000808581FF1CC080819181A281B381A601FF
:101F70009501281B390B4A0B5B0BDA01C90124813F
:101F8000358146815781281B390B4A0B5B0B2E1577
:101F90003F05400751071CF479018A0161E0399639
:101FA00035E0E337F307E1F66623F9F01E141F046A
:101FB000100611062CF0C601B5010E94340915C0A7
:101FC000E092AA06F092AB060093AC061093AD0621
:101FD00081E080930305A8019701C601B5010E9425
:101FE0006C0703C088E00E94BA01DF91CF911F9176
:101FF0000F91FF90EF90DF90CF90BF90AF9008953A
:102000008091AE068F3FB1F0282F3327F901EA50B7
:10201000FB4F80818093AE068F3F11F48093B5060D
:102020008FEF80832F3F31F0822F0E94360B81E0AB
:1020300090E0089580E090E00895FF920F931F9341
:10204000FFB6F89414BE88E10FB6F8948093600050
:10205000109260000FBE4CE050E06FEF70E086EF32
:1020600094E00E94F4118FEF8093AE068093B50642
:1020700080913501806180933501809134018061C8
:10208000809334018091330180618093330180918A
:10209000320180618093320185B7806885BF85B742
:1020A000806885BF80E8809361008FE08093610045
:1020B00091E09093810080E28093B6009093B1000C
:1020C000AEEFE0E0F0E06FEF7FEFB0E08091B200C4
:1020D0008823E1F740918400509185008091B200FF
:1020E0008034E1F72091840030918500241B350B6A
:1020F0006217730708F4B9012E173F0708F4F901B6
:10210000CF01861B970B029730F0B0E06FEF7FEFA7
:10211000E0E0F0E003C0BF5FB23310F4A150B1F6CD
:102120003093B0062093AF061092B1008091B100B9
:1021300080938100809181008093B6008091B600E9
:10214000992783709070892BC9F780E28093B6003D
:102150008091DC008F7C80638093DC008091DF00C5
:1021600088608093DF008091DF008E7F8093DF00A6
:102170008FEF809385028091DC008E7F8093DC005E
:10218000809180008C7F8093800080918100807E90
:1021900082608093810080916F00816080936F00E6
:1021A00080913901826080933901569A5E9A269A0D
:1021B000279A269A279A2E982F982E982F980E9421
:1021C00000108823E1F712E006E06091AF067091FD
:1021D000B0068827992728E037E040E050E00E94C9
:1021E000C911215030402093C400832F9927809338
:1021F000C5001093C0000093C2001092C10020934C
:10220000CC008093CD001093C8000093CA001092B8
:10221000C9001092180510921A058AE08093D5051E
:1022200010920B05109211051092B1061092B7068C
:102230001092B6061092B40610922A051092D90593
:102240001092D80584E0809304051092D70510926F
:10225000A9061092080510922705109226051092E3
:102260001E0510921D051D9B0AC081E08093D305B9
:1022700080E00E94BA0185E00E94E10108C010924E
:10228000D30581E00E94BA0185E00E94FA010E9414
:1022900000108823E1F78F2D99278FBF7894109233
:1022A0006203109261031092D2051092D10540E0B2
:1022B00058E060E070E080E00E9477060E94A4078A
:1022C0008FB7F894682F772749C08091850287FFE0
:1022D0003CC08091DC0085FF03C023E030E002C0F9
:1022E00025E030E080916F008E7219F040E050E000
:1022F00002C045E050E08091C10083FD0FC0809195
:10230000C10084FD0BC08091C90083FD07C080918E
:10231000C90084FD03C0E5E0F0E002C0E0E0F0E0C9
:10232000842F241708F4822F99278E1708F4E82F9A
:10233000FF27E093850283B7FF27E7FDF095E05E76
:10234000FC4FE491807F8E2B83BF83B7816083BF76
:1023500078948895F89483B78E7F83BF8091AE067A
:102360008F3F09F4B2CF282F3327F901EA50FB4FF2
:1023700080818093AE068F3F11F48093B5068FEF76
:1023800080832F3F09F4A1CF6FBF822F0E94360BAD
:1023900097CFA1E21A2EAA1BBB1BFD010DC0AA1FDD
:1023A000BB1FEE1FFF1FA217B307E407F50720F0BE
:1023B000A21BB30BE40BF50B661F771F881F991F39
:1023C0001A9469F760957095809590959B01AC0182
:1023D000BD01CF010895FB01DC0102C001900D9207
:1023E00041505040D8F70895DC0101C06D93415031
:0823F0005040E0F70895FFCF13
:1023F80041540D0A0041542B5253540D0A004154C4
:102408002B43574D4F44453D310D0A0041542B4352
:10241800574A41503D22736F6E6E6F6E65745F72DE
:102428006E64222C22343030303031323737372244
:102438000D0A0041542B43495053544152543D22F4
:10244800544350222C223139322E3136382E323133
:10245800392E313631222C313131310D0A004154B7
:102468002B43495053454E443D37310D0A00FF7305
:1024780005A2057305FF0000000000000000000031
:102488000000000000000000000000000000000044
:102498000000000000000000000000000000000034
:1024A8000000000000000000000000000000000024
:1024B8000000000000000000000000000000000014
:1024C8000000000000000000000000000000000004
:1024D80000000000000000000000000000000000F4
:1024E80000000000000000000000000000000000E4
:1024F80000000000000000000000000000000000D4
:1025080000000000000000000000000000000000C3
:1025180000000000000000000000000000000000B3
:1025280000000000000000000000000000000000A3
:0E253800000000000000000000000000000095
:00000001FF
