:100000000C94AD010C94CC010C94CC010C94CC015B
:100010000C94CC010C94CC010C94CC010C94CC012C
:100020000C94CC010C949D0F0C94CC010C94CC013D
:100030000C94CC010C94CC010C94CC010C94CC010C
:100040000C9473060C9455060C945F060C94690688
:100050000C9432060C94CC010C94CC010C94CC0181
:100060000C94CC010C9424040C94CC010C94FC044E
:100070000C94CC010C949D0C0C94CC010C94CC01F0
:100080000C94CC010C94CC010C94CC010C94CC01BC
:100090000C9415060C94CC010C9427060C941E1F8E
:1000A0000C94CC010C94CC010C94CC010C94CC019C
:1000B0000C94CC010C94CC010C94CC010C94CC018C
:1000C0000C94CC010C94CC010C94CC010C94CC017C
:1000D0000C94CC010C94CC010C94CC010C94CC016C
:1000E0000C94CC010C94CC010C94CC010C94CC015C
:1000F0000C94CC010C94CC010C94CC010C94CC014C
:100100000C94CC010C940A0C0C94460C0C94500CDE
:100110000C94F90B0C94CC010C94CC010C94CC01F4
:10012000A113AE13BE13A714CF14D114E0141D15E0
:100130006C158315B6150A162A165716BC16C51661
:10014000701790177A1AB61A011BE31BFE1B251CA9
:1001500096137D1C00002110422063308440A5507E
:10016000C660E770088129914AA16BB18CC1ADD1FD
:10017000CEE1EFF13112100273325222B5529442A5
:10018000F772D662399318837BB35AA3BDD39CC34D
:10019000FFF3DEE36224433420040114E664C774F1
:1001A000A44485546AA54BB528850995EEE5CFF59D
:1001B000ACC58DD55336722611163006D776F66645
:1001C0009556B4465BB77AA719973887DFF7FEE7ED
:1001D0009DD7BCC7C448E5588668A7784008611811
:1001E00002282338CCC9EDD98EE9AFF9488969993D
:1001F0000AA92BB9F55AD44AB77A966A711A500AE5
:10020000333A122AFDDBDCCBBFFB9EEB799B588B8C
:100210003BBB1AABA66C877CE44CC55C222C033C30
:10022000600C411CAEED8FFDECCDCDDD2AAD0BBDDC
:10023000688D499D977EB66ED55EF44E133E322E84
:10024000511E700E9FFFBEEFDDDFFCCF1BBF3AAF2C
:10025000599F788F8891A981CAB1EBA10CD12DC18A
:100260004EF16FE18010A100C230E3200450254020
:1002700046706760B9839893FBA3DAB33DC31CD380
:100280007FE35EF3B1029012F322D2323542145270
:1002900077625672EAB5CBA5A89589856EF54FE5CC
:1002A0002CD50DC5E234C324A014810466744764C0
:1002B00024540544DBA7FAB79987B8975FE77EF720
:1002C0001DC73CD7D326F2369106B0165766767610
:1002D000154634564CD96DC90EF92FE9C899E989EC
:1002E0008AB9ABA94458654806782768C018E10860
:1002F0008238A3287DCB5CDB3FEB1EFBF98BD89BC0
:10030000BBAB9ABB754A545A376A167AF10AD01AAF
:10031000B32A923A2EFD0FED6CDD4DCDAABD8BAD0B
:10032000E89DC98D267C076C645C454CA23C832CFF
:10033000E01CC10C1FEF3EFF5DCF7CDF9BAFBABF5F
:10034000D98FF89F176E367E554E745E932EB23E4F
:10035000D10EF01E00020E060C0411241FBECFEFBA
:10036000D1E4DEBFCDBF12E0A0E0B2E0ECEDF7E4F7
:1003700000E00BBF02C007900D92AC31B107D9F776
:1003800013E0ACE1B2E001C01D92A03FB107E1F77C
:100390000E94C01C0C94ED230C9400008FB7F894BD
:1003A000992708958FBF0895282F9FB7F894E82FB5
:1003B000FF27E358FD4F80818F3F81F4E091E503F3
:1003C000E21771F40BC02093D30304C0FF27E35856
:1003D000FD4F20832093E50320E007C025E005C002
:1003E0008091D3038F3F91F7EECF892F99278FBF4D
:1003F000822F9927089521E030E002C0220F331F99
:100400008A95E2F78091D502822B8093D502EBE6A4
:10041000F0E08081282B2083E8E6F0E08081816095
:10042000808380E090E0089521E030E002C0220F58
:10043000331F8A95E2F7922F90958091D5028923F8
:100440008093D502EBE6F0E08081282B2083E8E65C
:10045000F0E080818160808380E090E00895E4E5B1
:10046000F1E06927660FF11DE60FF11DC895982F81
:10047000802D3196C89590250895982F8091280257
:10048000882389F5992379F531E03093280280910A
:1004900001028093290220911D02822F8170809396
:1004A0007C02809106029091070290932B02809328
:1004B0002A0280911E0280932C0232273170267E00
:1004C000E32FFF27EE0FFF1FEE5FFD4F808191812D
:1004D0009093070280930602232B20931D0287E04E
:1004E0000E94D401089580911D0280FF02C08B7F7D
:1004F00001C08D7F80931D0208951F931FB7F8944C
:100500008091E403882341F482E00E94D40188238F
:1005100019F481E08093E403812F99278FBF1F9105
:1005200008959FB7F8948091AE038A3011F020E0CF
:1005300006C020E08091A902843009F421E0892FCF
:1005400099278FBF222349F084E00E94D4018FB7FE
:10055000F894992710921C0206C08FB7F894992737
:1005600021E020931C028FBF08950F931F93082F43
:10057000162F8091A9028130D9F0813038F0823075
:1005800009F44AC0833009F028C159C0002309F496
:1005900058C11092C5031092C4031092B103109277
:1005A000CE031092AD02109216031092150339C1BA
:1005B000002309F046C180911503909116030E9413
:1005C0002F02909316038093150382E08093A90273
:1005D0001093CE03143409F000C125C18695869589
:1005E00003C080911D028695817009F0F6C080914C
:1005F0001D02992311F0846001C0826080931D0266
:1006000080911D02877E886080931D0210921E02D9
:100610008FEF8093010215C1002309F0DEC06093C3
:10062000AD0280911503909116030E942F029093C2
:1006300016038093150383E08093A90202C1809181
:10064000B1038F3F09F4C9C0002309F461C08230AF
:1006500008F4C3C0E091C403EE2309F4EBC04E2FAD
:100660004150E42FFF27EC53FC4F82819927382F0C
:100670002227442311F4E2E002C0E42FE150FF27D7
:10068000EC53FC4F82819927282B392B809115033D
:10069000909116032817390709F09FC080E00E9447
:1006A0003D023091AD028091D9022091DA02982F5B
:1006B0009F5F963008F090E0921771F0E82FFF27C7
:1006C000E752FD4F32838F5F8093D902863010F05E
:1006D0001092D9020E947D021092C5031092C403A9
:1006E00094E09093A9021092B1031092CE0310925D
:1006F000AD02109216031092150380912D028D7F8A
:1007000080932D0280911C02882309F49AC084C032
:10071000823008F44EC0E091C503FF27EC53FC4F34
:100720008281482F5527342F20911D02822F8695D4
:1007300086958695837099278130910519F00297E7
:10074000F9F40EC0277E206120931D02442311F48A
:1007500085E001C080E080931E023093010210C04A
:1007600080911E028F3260F4E0910602F091070240
:10077000E80FF11D408380911E028F5F80931E025F
:100780008091C503E82FFF27EC53FC4F62818F5FF8
:100790008093C503833010F01092C50377278091B2
:1007A0001503909116030E942F02909316038093D5
:1007B00015038091C403E82FFF27EC53FC4F1283ED
:1007C0008F5F8093C403833010F01092C403809134
:1007D000B1038F5F8093B10334C01092C5031092B0
:1007E000C40314E01093A9021092B1031092CE0337
:1007F0001092AD02109216031092150380912D02F3
:100800008D7F80932D0281E00E943D0280911C0229
:10081000882329F01093A9020E94910212C000239C
:1008200081F081E009CF80911D02982F917080FDA9
:10083000D5CED7CE8091C8039927382F222742E002
:100840001CCF1F910F9108951F920F920FB60F9218
:1008500011242F933F934F935F936F937F938F93C5
:100860009F93AF93BF93EF93FF938091C00087FF57
:1008700042C06091C600E0911703F09118033097D1
:1008800019F18091E2039091E303E80FF91F60836F
:1008900001969093E3038093E2032091EE0330915D
:1008A000EF038217930738F1109218031092170381
:1008B0008091A9038330F9F08091C1008F778093F4
:1008C000C1001092A90317C06E3719F460E081E0EF
:1008D00010C080912D026D3721F4826080932D022B
:1008E0000AC081FF05C08D7F80932D0280E26827BA
:1008F00080E00E94B502FF91EF91BF91AF919F916F
:100900008F917F916F915F914F913F912F910F90B8
:100910000FBE0F901F9018952FB7F8943327809330
:10092000C600E0ECF0E08081806480832FBF0895F2
:10093000FC016115710519F481E090E00895809142
:10094000CD029091CE02892B19F085E090E00895B8
:100950007093CC036093CB03F093CE02E093CD026F
:100960001092AB021092AA0281E08093AC028091B7
:10097000C00080648093C0008091C1008064809337
:10098000C100808121E030E03093AB022093AA02C5
:100990000E948C0480E090E00895982F8D5782305B
:1009A00068F480912D02816080932D0280E2892776
:1009B0008093B0038DE78093980202C090939802D1
:1009C00061E070E088E992E00E9498049927089518
:1009D0008FB7F894992720912D022E7F20932D0216
:1009E0002EE7209398028FBF61E070E088E992E0E3
:1009F0000E9498049927089578941F920F920FB639
:100A00000F921124FF920F931F932F933F934F93B5
:100A10005F936F937F938F939F93AF93BF93CF9386
:100A2000DF93EF93FF932091AA023091AB02809164
:100A3000CB039091CC032817390780F4E091CD02C5
:100A4000F091CE02E20FF31F80812F5F3F4F309372
:100A5000AB022093AA020E948C04D1C01092CE0255
:100A60001092CD021092AC028091C1008F7B8093D6
:100A7000C100FFB6F89480912D0280FF0EC08E7FDA
:100A800080932D028091B0038093980261E070E022
:100A900088E992E00E949804AFC08091AE03843050
:100AA00009F48CC0853040F4823021F18330B8F5F0
:100AB000813009F09CC00DC0863009F48DC08630AD
:100AC00008F483C0873009F48EC0883009F08FC0E5
:100AD00091C08091C8020E94CD04082F83E08093CA
:100AE000AE036091C8028091EC039091ED030E94E7
:100AF0002F0210C08091D7030E94CD04082F83E0FD
:100B00008093AE036091D7038091EC039091ED0345
:100B10000E942F029093ED038093EC0366C0E09156
:100B20001903FF27EE0FFF1FE053FD4F80810E9446
:100B3000CD04082F10911903C12FDD27FE01EE0F00
:100B4000FF1FE053FD4F60818091EC039091ED0316
:100B50000E942F029093ED038093EC032091C10239
:100B60002F5F2093C102113039F580912402E0916A
:100B70001F02F0912002E80FF11DE0818F5F80934A
:100B8000240290912302981730F482E08093D102DE
:100B900040E050E002C04E2F5527DE01AA0FBB1FD8
:100BA000FD01E153FD4F8081823031F02F3F21F074
:100BB000A053BD4F4C9319C084E012C08091EC0348
:100BC0000E94CD04082F85E00BC08091ED030E94A8
:100BD000CD04082F86E004C00E94E804082F87E0B7
:100BE0008093AE0302C088E003C0002329F089E0AF
:100BF0008093AE030E947D028F2D99278FBFFF91B6
:100C0000EF91DF91CF91BF91AF919F918F917F91A4
:100C10006F915F914F913F912F911F910F91FF9095
:100C20000F900FBE0F901F9018951F920F920FB646
:100C30000F9211248F938091C80087FF02C080918A
:100C4000CE008F910F900FBE0F901F901895789443
:100C50001F920F920FB60F9211240F900FBE0F909C
:100C60001F9018951F920F920FB60F9211248F9319
:100C70009F938091E1038F5F8093E1038091BF0296
:100C80009091C00201969093C0028093BF02892B7D
:100C900029F4809114038F5F809314039F918F91A7
:100CA0000F900FBE0F901F9018951F920F920FB6C6
:100CB0000F9211240F900FBE0F901F9018951F9246
:100CC0000F920FB60F9211240F900FBE0F901F902E
:100CD00018951F920F920FB60F9211240F900FBE0E
:100CE0000F901F9018951F920F920FB60F9211241C
:100CF0000F900FBE0F901F901895EF92FF920F93D9
:100D00001F937FB7F8946091C2022091E100822F77
:100D10002091E200922F2091E300A22F2091E40085
:100D2000B22F9C01AD018091E00083FF0FC06F5F87
:100D30008091E100E82E8091E200F82E8091E3009E
:100D4000082F8091E400182FA8019701872F992779
:100D50008FBF772788279927FAE1660F771F881FAB
:100D6000991FFA95D1F7E6E056954795379527955F
:100D7000EA95D1F7622B732B842B952B1F910F9142
:100D8000FF90EF900895582F8091210290912202B8
:100D9000892B19F085E090E008952FB7F89455233A
:100DA00009F446C01092240210922502709320028A
:100DB00060931F0282E090E09093220280932102D0
:100DC0005093270210922602523709F040E080E04B
:100DD000840F80932302822F99278FBF8FB7F894B7
:100DE000282F33278091AE038A3011F42FBF19C00A
:100DF0002FBF9FB7F8948091D102882311F020E093
:100E000006C081E08093D1025093D20221E0892F65
:100E100099278FBF222329F00E947D0280E090E075
:100E20000895109222021092210281E090E008952C
:100E300085E0809324021092250270932002609333
:100E40001F0282E090E09093220280932102109290
:100E500027021092260285E0495FBACFCF93DF9335
:100E6000382FDA012D3118F082E090E00FC0FA013E
:100E700035966183872F9927EA018D8336832483F2
:100E8000422FBD0180E00E94C3069927DF91CF91D8
:100E900008958FB7F89499272091BC002093A70359
:100EA0008FBF08959091A703882311F0946001C02B
:100EB0009B7F9093A7038FEF8093080208950F9371
:100EC0001F930FB7F89411270E9449078091A70339
:100ED0008E7F80698093A7038093BC000FBF1F9112
:100EE0000F9108951F93282F8FB7F894182F909182
:100EF0003102933009F04AC080910C02821709F048
:100F000045C080910A0220E030E08F3F11F421E0DB
:100F100030E0232BF9F48F3F19F42FEF30E00EC0AF
:100F2000282F3327F901EC55FD4F808180930A0269
:100F30008F3F11F480930B028FEF80832093AE02DA
:100F40008FEF80930C0281E0809331028FE00E944A
:100F5000D40118C090930C02109231028091320299
:100F6000813081F40E94490780E00E9452078091FD
:100F7000A7038E768093A7038093BC005898599856
:100F8000109232021FBF80E090E003C01FBF81E0DB
:100F900090E01F910895EF92FF920F931F93E62E1A
:100FA000F22E9FB7F894292F332790910D029817AE
:100FB00021F02FBF81E090E061C02FBF8FB7F89480
:100FC000282F332760913202613039F582E0809317
:100FD00032022FBF8FB7F89499275093B2024093F3
:100FE000B1021093A00200939F02F0923F02E092A0
:100FF000EB031092CD03609333028FBF0E94490729
:101000009FB7F8942091A70321682F7A2093A70314
:101010006E2D772760FD0BC00FC0662321F42FBF14
:1010200084E090E02BC02FBF85E090E027C02062D5
:101030002093A70384E00BC081E08F1520F0FF20F0
:1010400061F062FF07C020642093A70383E08093D0
:1010500032020BC081E0F816C9F361FF06C085E0DB
:101060008093320220612093A7038091A70380938D
:10107000BC00892F99278FBF80E090E01F910F91CE
:10108000FF90EF9008951F93982F8FB7F894182F23
:10109000809137028330B1F580911302891791F561
:1010A0008091110220E030E08F3F11F421E030E028
:1010B000232BF9F48F3F19F42FEF30E00EC0282FC7
:1010C0003327F901E652FC4F8081809311028F3F54
:1010D00011F4809312028FEF808320931A038FEF15
:1010E0008093130281E08093370283E10E94D40150
:1010F00005C086E080931302109237021FBF80E084
:1011000090E003C01FBF81E090E01F910895FC01B3
:101110006683672F772765830895CF93DF93582FD2
:10112000DB01823018F081E090E038C0C82FDD2765
:10113000CC0FDD1FCF51DD4F88819981892B19F0AC
:1011400085E090E02BC0798368839B012B5F3F4F44
:10115000F901448380911A02823018F480E090E013
:101160001DC0F9018681FB0165817727762F6627EF
:10117000F90121813327622B732B50931A02242FFC
:10118000AD010E942E079927282F882329F082E09D
:1011900080931A0219821882822F9927DF91CF91AA
:1011A0000895FF920F931F938B01F42EBC01C80189
:1011B0000E9487088BE0F80183874F2DB80181E0FA
:1011C0000E948D0899271F910F91FF900895882301
:1011D00049F4E091D302F091D4026583872F9927D7
:1011E000848308952FB7F894332785B1805885B943
:1011F0002FBF08952F923F924F925F926F927F92EE
:101200008F929F92AF92BF92CF92DF92EF92FF9216
:101210000F931F93882381F5DB01CA01BB0F880B55
:10122000982FDC011A012B01682E2091C203309106
:10123000C30340E050E060E070E080E0A22EB32EF7
:10124000C42ED52EE62EF72E082F10E0222D332D9A
:10125000442D552D662D762D862D962D0E94BA2073
:1012600007E10E94BE22A22EB32E80ED97E0A80EC9
:10127000B91EB50180E002C060E070E00E94E7089E
:101280001F910F91FF90EF90DF90CF90BF90AF90A4
:101290009F908F907F906F905F904F903F902F9096
:1012A00008958823A1F4E091D302F091D4024383FE
:1012B000BB27A72F962F852F8283CB01AA27BB2779
:1012C0008183872F9927AA27BB27808308952FB76B
:1012D000F894332785B1805885B92FBF0895982F8A
:1012E000969596959695EBE1F3E0E90FF11D8770E1
:1012F00021E030E002C0220F331F8A95E2F780819F
:1013000082239927089580917C0090917B008F71B2
:101310009927089590917C00907E282F2F71922B11
:1013200090937C0085FF04C080917B00886003C09F
:1013300080917B00877F80937B000895ECE7F0E04D
:1013400090818295880F880F807C9F73982B908363
:101350000895DF92EF92FF920F931F938091D8032D
:10136000882309F480C0813019F458E0F52E0AC0B2
:10137000882311F4FF2479C0813019F08FE1FF2414
:1013800002C0FF248EE1EE24082FDFB6F89480918E
:101390009D028E7F80939D0210917C000E948309A4
:1013A000282F1295169516951370E11619F080E006
:1013B00090E00AC0802F8850863120F480E090E0D1
:1013C000021711F481E090E0982F9170990F8091AD
:1013D0009D028170202F220F220F892B822B809358
:1013E0009D02802F0E948A0980917C008F7D8093CE
:1013F0007C008E2D0E949E0920919D02217038E074
:10140000F316B9F58091D4039091D50331E6803875
:10141000930718F087E090E024C030E3803C930706
:1014200018F086E090E01DC038E18034930718F092
:1014300085E090E016C03CE08030930718F084E02F
:1014400090E00FC036E08030930718F083E090E022
:1014500008C08050934018F082E090E002C080E025
:1014600090E0F82E06C048E0F42E33E0E32E89E148
:101470008BCF87E0F822187F1F2918612295220F51
:10148000207E1F7D122B106C812F992780937A006C
:101490008D2D99278FBF1F910F91FF90EF90DF90B7
:1014A00008950F931F93CF93DF93182F8FB7F8945E
:1014B000282F3327022F80912F02882309F032C072
:1014C00081E080932F021093B6032FBF2FB7F894BB
:1014D000332780917A00806880937A008FEF809321
:1014E00008022FBF8FB7F894C82FDD279C2F80915B
:1014F00009028230A9F480912F02813021F48BE01F
:101500000E94D40109C0823059F48091B6038093BF
:10151000090283E080932F02CFBF80E090E025C0D6
:101520009FBFFBCF8091B603811711F42FBFF5CF7A
:10153000812F0E946F09882319F085E090E014C084
:10154000E12FE695E695E695FF27E55EFC4F1770DF
:1015500081E090E002C0880F991F1A95E2F7208180
:10156000282B208380E090E00FBFDF91CF911F9167
:101570000F9108956F927F928F929F92AF92BF9238
:10158000CF92DF92EF92FF920F931F930E947D06FE
:101590007B018C012091C9023091CA024091CB029B
:1015A0005091CC028091C3029091C402A091C502D7
:1015B000B091C602820F931FA41FB51FE216F30657
:1015C0000407150730F082179307A407B50758F0F2
:1015D00005C082179307A407B507E0F5E816F906DA
:1015E0000A071B07B8F59C01AD012E193F09400BF6
:1015F000510B213060E0360760E0460762E0560795
:1016000068F180E090E0A0E0B2E0E80EF91E0A1F69
:101610001B1FE092C902F092CA020093CB02109302
:10162000CC0280E090E0A0E0BEEFE80EF91E0A1FB9
:101630001B1F20503040404052402093C302309343
:10164000C4024093C5025093C60220E030E040E05F
:1016500052E014C020E030E040E050E08093C90246
:101660009093CA02A093CB02B093CC021092C30213
:101670001092C4021092C5021092C60239014A01AA
:1016800076E0660C771C881C991C7A95D1F766E089
:10169000EE0CFF1C001F111F6A95D1F78091E1002D
:1016A000A82E8091E200B82E8091E300C82E809190
:1016B000E400D82EA60195012E5F3F4F4F4F5F4F9C
:1016C000DA01C9018E199F09A00BB10B8615970588
:1016D000A805B90530F4A8019701260D371D481D4E
:1016E000591D5093F8004093F7003093F600209373
:1016F000F50081E08093E0008091DF0081608093BD
:10170000DF008FEF809308021F910F91FF90EF9001
:10171000DF90CF90BF90AF909F908F907F906F9011
:1017200008950F931F930FB7F89411276093C90280
:101730007093CA028093CB029093CC022093C30291
:101740003093C4024093C5025093C6020E94BA0A65
:101750000FBF1F910F9108959FB7F8948091A90230
:10176000882319F484E08093A902892F99278FBFD9
:101770009FB7F8948091AE03882319F48AE0809390
:10178000AE03892F99278FBF0E94910280E090E0DD
:1017900008958FB7F894282F3327922F8091AE03A6
:1017A0008A3041F08091A902843021F02FBF89E076
:1017B00090E008959FBF83E00E94D40180E090E014
:1017C00008959C018091B4039091B503821793070B
:1017D00020F43093B5032093B4038091A10290913B
:1017E000A2028617970720F47093A2026093A102C9
:1017F00008951F920F920FB60F9211248F9380912C
:10180000C2028F5F8093C2028F910F900FBE0F9024
:101810001F9018951F920F920FB60F9211242F93BD
:101820003F934F935F936F937F938F939F93AF9368
:10183000BF93EF93FF938091DF008E7F8093DF0053
:101840008FEF809308028091C3029091C402A0910F
:10185000C502B091C6020097A105B10521F489E047
:101860000E94D40102C00E94BA0AFF91EF91BF9179
:10187000AF919F918F917F916F915F914F913F9128
:101880002F910F900FBE0F901F9018951F920F92DF
:101890000FB60F9211240F900FBE0F901F90189546
:1018A0001F920F920FB60F9211240F900FBE0F9040
:1018B0001F9018958091E10320918400309185005C
:1018C000B09B05C08F5F20918400309185009927DF
:1018D000992786959795882736952795822B932B60
:1018E0000895FF920F931F93CF93DF93EC01FFB600
:1018F000F8940E945A0C8C0180E8C130D80768F037
:10190000C050D0480E945A0C801B910BC817D907B1
:10191000C8F70C0F1D1FC0E0D0E80E945A0C801BB6
:10192000910BC817D907C8F78F2D99278FBFDF9163
:10193000CF911F910F91FF9008951F920F920FB6B4
:101940000F9211240F931F932F933F934F935F9305
:101950006F937F938F939F93AF93BF93EF93FF9377
:10196000409178005091790078948FB7F894992736
:1019700020919D02322F3695317021708FBF222326
:1019800019F580917A00877F80937A008091D60242
:10199000813021F0823009F047C00AC0332351F072
:1019A0005093AD034093AC038CE00E94D4013CC043
:1019B000332339F48DE790E00E94710C0E94A9094D
:1019C00033C01092D60230C00FB7F894112780911F
:1019D0007C000E9483090FBF2FB7F89433278091B2
:1019E0007A00582F5770482F4072087D042B052B22
:1019F0008074077B082B00610F77802F99278093D5
:101A00007A00087D042B052B07730061802F99272E
:101A100080937A00087D042B052B077B0069802FBB
:101A2000992780937A002FBFFF91EF91BF91AF91DB
:101A30009F918F917F916F915F914F913F912F91E6
:101A40001F910F910F900FBE0F901F901895EF925E
:101A50000F931F93AE2D99E0899FF0011124E45E4E
:101A6000FC4F4083518362837383048315832683F1
:101A70003783A17080858E7F8A2B826080878AE081
:101A80000E94D4011F910F91EF900895AF92BF92E1
:101A9000CF92DF92EF92FF920F931F93F82E5A018D
:101AA0006B010E947D06AB01BC01A1E0EA2E96010C
:101AB00085018F2D0E94270D1F910F91FF90EF90B0
:101AC000DF90CF90BF90AF9008958091B7038F5F64
:101AD0008093B703813071F4899A4091B403509197
:101AE000B5036627772782E00E94460D81E8809340
:101AF000B7030895813841F4809136038D7F809338
:101B0000360381E08093B70308958091B703815035
:101B10008093B703882369F44091A1025091A202F7
:101B20006627772782E00E94460D80E88093B703FE
:101B30000895803841F48998809136038D7F809391
:101B400036031092B7030895EF920F931F93CF932C
:101B5000DF93082FE82FFF27EE0FFF1FEF51FD4FF8
:101B60001182108280911A029927019662E070E03A
:101B70000E944723682F80931A0210E0462F5527B2
:101B8000FA01EE0FFF1FEF51FD4FA081B1811097B9
:101B900099F0E62FE695E695E695FF27E052FC4F93
:101BA000808199279A012770307002C0959587959A
:101BB0002A95E2F780FF0DC0CA01019662E070E04D
:101BC0000E944723682F1F5F1230C1F610931A023C
:101BD0001AC060931A026230B0F4FD013596248178
:101BE0003327ED016D817727762F6627818199272D
:101BF000682B792BAD0186810E942E07882319F06E
:101C000089E10E94D401013081F48091000288238F
:101C100061F00E947D06AB01BC01EE2400E012E001
:101C200020E030E080E00E94270DDF91CF911F91EE
:101C30000F91EF900895EF92FF920F931F93CF9320
:101C4000DF93982F8FB7F894E82E80912F0283307E
:101C500009F045C080910902891709F040C08091C0
:101C60001B03882309F04DC03EC0EF2DE695E69595
:101C7000E695FF274F2D5527E55EFC4F9A0127700B
:101C8000307081E090E002C0880F991F2A95E2F73A
:101C90008095208128232083C0932E0211C0219695
:101CA000C230D10511F4C0E0D0E0FC2E8C2F0E9490
:101CB0006F098823D1F6C017D10789F74FEF50E09D
:101CC0004093B6038FEF8093090281E080932F0247
:101CD0008BE00E94D401EFBE80E090E018C0EFBE20
:101CE00081E090E014C082E08093090210922F02FC
:101CF00080917A008F7780937A008FEF809308022B
:101D0000EACF80912E02082F1127E801C8CFDF917A
:101D1000CF911F910F91FF90EF900895CF93DF9394
:101D2000982F8FB7F894282F3327422F80913702AE
:101D3000882321F581E08093370290931A032FBF07
:101D40008FB7F894C82FDD279C2F8091130286301F
:101D500099F480913702813021F483E10E94D4010B
:101D600009C0823049F480911A038093130283E002
:101D700080933702CFBF07C09FBF05C080911A0371
:101D8000891721F42FBF80E090E021C0E92FFF27C1
:101D9000E652FC4F80818F3F89F4E0911202E917EF
:101DA00089F40CC09093110204C0FF27E652FC4F47
:101DB00090839093120280E090E002C085E090E072
:101DC0004FBF05C0809111028F3F79F7EBCFDF91B4
:101DD000CF910895282F882379F440936F02509370
:101DE0007002609371027093720282E00E948E0E04
:101DF0009927282F882339F040E050E060E070E018
:101E0000822F0E94510908951F93CF93DF93982F3B
:101E10008FB7F894282F3327422F809131028823DF
:101E200009F043C011E0109331029093AE022FBF2E
:101E30008FB7F894C82FDD27809132028823C9F428
:101E4000589A599A1092B90088E98093B800109274
:101E5000BA001092BC000E94490781E00E9452071C
:101E60008091A7038E7F8093A7038093BC0010937B
:101E70003202CFBF8FB7F894C82FDD272C2F909157
:101E80000C029330B1F480913102813021F48FE063
:101E90000E94D40108C0823061F48091AE02809328
:101EA0000C0290933102CFBF05C08091AE0289171A
:101EB00021F42FBF80E090E021C0E92FFF27EC55EF
:101EC000FD4F80818F3F89F4E0910B02E91789F47F
:101ED0000CC090930A0204C0FF27EC55FD4F90837D
:101EE00090930B0280E090E002C085E090E04FBF4D
:101EF00005C080910A028F3F79F7EBCFDF91CF9138
:101F00001F9108958091A8031D9B0CC08823A1F404
:101F100081E08093A80380E00E94D40185E00E94C4
:101F2000FB010895882341F01092A80381E00E94EC
:101F3000D40185E00E94140208951F920F920FB6FB
:101F40000F9211242F933F934F935F936F937F933F
:101F50008F939F93AF93BF93EF93FF9320916B0069
:101F600093B18091D5028927822385FF02C00E9408
:101F7000820FFF91EF91BF91AF919F918F917F91D0
:101F80006F915F914F913F912F910F900FBE0F90E6
:101F90001F9018951F9310913502123018F085E0AC
:101FA00090E00CC082E0809335020E94650D1130F4
:101FB00019F481E00E94040F80E090E01F910895E1
:101FC0001F939C0110913502123018F085E090E0CB
:101FD00010C086E0809335023093AB032093AA03B0
:101FE0000E94650D113019F481E00E94040F80E019
:101FF00090E01F910895AF92BF92CF92DF92EF923F
:10200000FF920F931F93CF93DF935B016C01C0E0AE
:10201000D0E0ECE1F3E0608561FF63C120813181B4
:1020200042815381E480F58006811781D601C50184
:10203000821B930BA40BB50B8E159F05A007B10750
:1020400008F44FC160FF03C06D7F608708C02E0D8C
:102050003F1D401F511F2083318342835383C23071
:1020600009F416C1C33030F4CC2359F0C13009F063
:102070005DC13EC1C33009F430C1C43009F056C15E
:102080002EC180910002882381F46FEF7FEF80E4FE
:1020900092E00E9487088AE080934B0240E160E46E
:1020A00072E080E00E948D0802C0109200028FB79B
:1020B000F894282F3327922F80913C02882311F522
:1020C00081E080933C02109273022FBF8FB7F89487
:1020D000C82FDD279C2F80911602813059F5809101
:1020E0003C02813021F486E10E94D40109C0823093
:1020F00009F5809173028093160283E080933C027D
:10210000CFBF19C080917302882311F42FBF13C071
:102110008091A7028F3F71F4E0911502EE2351F0F8
:10212000F3C01092140204C0FF27E955FD4F10823E
:10213000109215029FBF8FB7F894282F3327922F44
:1021400080913D02882311F581E080933D02109239
:102150003E022FBF8FB7F894C82FDD279C2F8091A8
:102160001902813059F580913D02813021F487E1D7
:102170000E94D40109C0823009F580913E0280930B
:10218000190283E080933D02CFBF19C080913E02C7
:10219000882311F42FBF13C0809178028F3F71F410
:1021A000E0911802EE2351F0B5C01092170204C05E
:1021B000FF27E858FD4F1082109218029FBF8FB77B
:1021C000F894282F3327922F80913402882311F519
:1021D00081E080933402109297022FBF8FB7F8945A
:1021E000C82FDD279C2F80911002813059F58091F6
:1021F0003402813021F480E10E94D40109C0823090
:1022000009F5809197028093100283E08093340255
:10221000CFBF19C080919702882311F42FBF13C03C
:102220008091C7028F3F71F4E0910F02EE2351F0CD
:1022300077C010920E0204C0FF27E953FD4F1082B1
:1022400010920F029FBF80913802882311F080E026
:1022500007C083EB92E09093EA038093E90381E067
:102260000E948E0E80913902882311F083E007C00E
:1022700088EB93E09093B0028093AF0284E00E94D9
:102280008E0E80E00E94510A81E00E94510A4EC0E9
:102290008091B7038F778093B703882369F180918A
:1022A0003A02882321F481E080933A0203C082E05D
:1022B0000E94040F80913502882321F481E08093ED
:1022C000350203C081E00E94040F80913002823009
:1022D00079F081E08093300229C081E00AC082E079
:1022E00008C021963996C530D10509F094CE1EC09C
:1022F00080E00E94040F1AC0899810923A0210924E
:1023000035021092300212C0809114028F3F09F002
:102310000BCF07CF809117028F3F09F049CF45CFF0
:1023200080910E028F3F09F087CF83CF8AE00E9411
:10233000D401DF91CF911F910F91FF90EF90DF902B
:10234000CF90BF90AF9008951F93182F0E945F0702
:1023500082E00E947207112311F485E103C01093FB
:10236000D70284E10E94D4011F9108950F931F9317
:10237000882341F08093A3020E945F0781E00E94BE
:10238000720730C080913502843079F0853028F4AE
:10239000823059F0833039F40FC0853069F08C30C9
:1023A00010F422E00AC020E008C00E945F0781E02C
:1023B0000E94720782E117C023E00AE912E047E7B2
:1023C00050E063E081E00E94CB0799278093A3024D
:1023D000882359F00E945F0781E00E94720781E024
:1023E0008093A30281E10E94D4011F910F9108956F
:1023F000EF92FF920F931F93F62EE22E9FB7F89461
:10240000292F332790910D02981711F02FBFA6C0E6
:102410002FBF8FB7F894282F332780913202813055
:1024200041F582E0809332022FBF8FB7F89499274D
:102430005093B2024093B1021093A00200939F0206
:10244000E0923F026093EB031092CD0310923302AF
:102450008FBF0E9449078FB7F894182F9091A70358
:10246000916C9F7E9093A7036F2D772760FD0BC023
:1024700011C0882321F42FBF84E090E079C02FBFE2
:1024800085E090E075C090629093A70384E080930C
:10249000320267C0EE2009F453C083E08093320219
:1024A0002091CD0340913F02241778F4E0919F02E0
:1024B000F091A002E20FF11D80818093BB002F5F9D
:1024C0002093CD039093BC0050C0292F2E7F2093E2
:1024D000A7038091EB0381FF07C08D7F8093EB03FF
:1024E00020612093A70303C09E779093A703809158
:1024F000A7038093BC0081E08093320220919F0269
:102500003091A0026091B1027091B20280910D02EF
:10251000813071F0813018F0823039F50DC00E94A1
:102520005F0780E00E9472078EE00E94D4011DC008
:1025300080E00E94B61119C080E00E94A41115C06D
:1025400061FF08C085E0809332029F7B9061909389
:10255000A70307C081E0809332021FBF81E090E0B3
:1025600007C08091A7038093BC001FBF80E090E06C
:102570001F910F91FF90EF9008950F931F93CF93AA
:10258000DF93E9018093A302882309F09DC0809125
:1025900035028730F1F1883048F4853009F494C071
:1025A000863020F5833009F081C08EC0893009F46F
:1025B00056C0893008F440C08A3009F463C08B30BB
:1025C00009F074C00E945F0781E00E947207E091E9
:1025D000AA03F091AB0388819927982F8827298136
:1025E0003327822B932B9387828773C0E091AA03B2
:1025F000F091AB0388819927982F88272981332769
:10260000822B932B9183808387E08093350284EA29
:102610004BC0E091AA03F091AB0388819927982FD2
:10262000882729813327822B932B9383828388E009
:102630008093350286EA38C0E091AA03F091AB039B
:1026400088819927982F882729813327822B932BDC
:102650009583848389E08093350288EA25C0E091E0
:10266000AA03F091AB0388819927982F88272981A5
:102670003327822B932B978386838AE080933502BE
:102680008AEA12C0E091AA03F091AB0388819927EE
:10269000982F882729813327822B932B9187808736
:1026A0008BE0809335028CEA80939A020AE912E06B
:1026B00021E047E750E061E081E00E94F8119927AE
:1026C0008093A302882341F00E945F0781E00E946B
:1026D000720781E10E94D401DF91CF911F910F9188
:1026E00008956F927F928F929F92AF92BF92CF92F6
:1026F000DF92EF92FF920F931F93CF93DF93CDB7AB
:10270000DEB7A8970FB6F894DEBF0FBECDBFE82F97
:10271000FF27EA31F10510F00C948E1CE057FF4FB3
:10272000EE0FFF1F0590F491E02D09948091E003D6
:10273000882311F40C948E1C20E0E1E0FE2E0C9412
:10274000531C0E94C90B9927882311F40C948E1CEA
:10275000893011F40C948E1C80E00CC00E94AC0BEC
:102760009927882311F40C948E1C893011F40C9451
:102770008E1C81E00E94D4010C948E1C8FB7F894BB
:102780001092E4032091AE0340E0283009F441E0C8
:1027900030E0293009F431E0442311F4332351F0BF
:1027A0001092AE03E0911903FF27EE0FFF1FE153D4
:1027B000FD4F108299278FBF442311F4332331F149
:1027C0009FB7F8948091D7038F5F8093D703809150
:1027D000C802833479F42091DA028091D9028217F9
:1027E00079F0822F8F5F8093DA02863048F0109262
:1027F000DA0206C0A0E0442309F4A1E071E002C0BF
:10280000A0E070E0892F99278FBF06C0222311F026
:10281000FF246DC0A0E070E08FB7F8949927209155
:102820001C028FBF222341F08FB7F89499272AE02A
:102830002093AE038FBF42C08FB7F8949927609161
:10284000CF024091D1028FBF8FB7F894282F332742
:1028500050E09091D9028091DA02981709F451E082
:102860002FBF552341F5662331F55FB7F89482E019
:102870008093CF028FB7F894282F332740E09091B0
:10288000D9028091DA02981709F441E02FBF44235E
:1028900011F080E006C0E091DA02FF27E752FD4F19
:1028A00082818093D00283E48093C802109219033E
:1028B000852F99270EC04150423010F0FF240CC0E4
:1028C0008FB7F894992725E42093C80221E020933C
:1028D00019038FBF61E0F62E772349F08FB7F89484
:1028E0009927A09325028FBF86E00E94D4018FB75D
:1028F000F894082F11278091AE038A3029F40E94A2
:1029000091020FBF0C948E1C0FBFFF2011F40C948A
:102910008E1C2FB7F89433271092ED031092EC031E
:102920001092C10281E08093AE032FBF0E94E804A1
:10293000882311F40C948E1C8FB7F894992729E002
:102940002093AE038FBF0E947D020C948E1C809159
:10295000C1008F7B8093C1008091C1008F778093ED
:10296000C1001092A9031092AC028091C10088604E
:102970008093C1008091C10080618093C1008FEF7E
:10298000809308028091C10080688093C1008FB756
:10299000F89499271092AE031092A9029BC085E08B
:1029A000E9CE8091C100877F8093C1008091C100F2
:1029B0008F7E8093C1008FEF809308020C948E1C51
:1029C00010922202109221028FB7F8949927409119
:1029D00025028FBF80912602811143E020911F02C2
:1029E0003091200280912702882321F0823709F05C
:1029F00095C712C080911A02823008F08FC7E82F65
:102A0000FF27EE0FFF1FEF51FD4F608171816217AD
:102A1000730709F083C77CC7442309F072C08FB7DE
:102A2000F89488E190E029E00FB6F894A895809397
:102A300060000FBE20936000FFCF8FB7F8949927F6
:102A400020912902E0902A02F0902B0230912C0272
:102A500010917C028FBF222321F0223791F0222394
:102A600019F5F70183858B30F9F4809100028823F2
:102A7000D9F44CE065EE72E08FEF9FEF0E94D10831
:102A800013C0333089F4F7018081823569F4818184
:102A9000833551F48281843539F4F0927702E092E3
:102AA000760288E00E94D4018FB7F894E12FFF27C7
:102AB000EE0FFF1FEE5FFD4FF182E08220911D02BD
:102AC000112311F02B7F01C02D7F20931D02109246
:102AD000280299278FBF22C7E0917602F0917702F2
:102AE0008AE5808382E4818380E582836091760237
:102AF0007091770243E082E70E94C306882309F4BD
:102B00000DC788E037CE80919902882361F5209126
:102B1000CF033091D0034091D1035091D203EFB74E
:102B2000F894FF276091C9027091CA028091CB028C
:102B30009091CC02E090C302F090C4020091C502D3
:102B40001091C6026E0D7F1D801F911FEFBF209355
:102B5000CF033093D0034093D1035093D20310920C
:102B600099020E94910B0E947D0641C00E947D0641
:102B70005B016C018091DF008E7F8093DF008FEF1F
:102B8000809308022FEF3FEF4FEF5FE760E0ECE14B
:102B9000F3E0808581FF1CC080819181A281B38197
:102BA00086017501E81AF90A0A0B1B0BD801C70147
:102BB000E480F58006811781E81AF90A0A0B1B0BDD
:102BC000E216F306040715071CF4A801970161E05B
:102BD000399603E0E934F007E1F6662309F49EC66E
:102BE00012161306140615062CF0C601B5010E9434
:102BF000FB0F94C62093CF033093D0034093D103AF
:102C00005093D20381E080939902C601B5010E94DE
:102C1000910B84C68FB7F89499272091B60320931F
:102C2000090223E020932F028FBF8091090288239D
:102C300021F0813009F072C606C081E08093D6028F
:102C40001092D80304C08093D6028093D8030E94C8
:102C5000A90964C61092D6020091AC031091AD038D
:102C60008091D803882319F0813049F404C080E0B2
:102C70000E941B0E0AC081E00E941B0E0FC0882319
:102C800021F0813009F04AC609C0E091D302F091E9
:102C9000D4020587812F9927848740C6E091D3020B
:102CA000F091D4020787812F9927868737C611E0D4
:102CB000F12EF09230020E94850DD090B203C090A8
:102CC000B303E090790200919E028FB7F894182F19
:102CD00080913402833089F580911002801769F564
:102CE00080910E0220E030E08F3F11F421E030E0CF
:102CF000232BF9F48F3F19F42FEF30E00EC0282F6B
:102D00003327F901E953FD4F808180930E028F3FF5
:102D100011F480930F028FEF8083209397028FEF3F
:102D20008093100281E08093340280E10E94D401FC
:102D300004C0F0921002109234021FBF002309F069
:102D4000EDC5EE2089F48D2D9927982F88272C2DFD
:102D50003327822B932BE091D302F091D402838707
:102D6000892F99278287DAC52FB7F894332785B141
:102D7000805885B92FBFD2C583E08093300244EBE1
:102D800050E060E070E081E036C52FB7F89433275B
:102D90008091AE0280930C0283E0809331022FBFBA
:102DA00020910C028FB7F894992720930D028FBFC2
:102DB000213071F1213020F0223009F0AFC564C01C
:102DC00080913002823069F480E28093B20302EB9A
:102DD00013E021E043E250E063E080E00E94F8115C
:102DE00009C002EB13E022E043E250E063E080E040
:102DF0000E94CB078093790280917902882309F49D
:102E00008DC50E945F0780E00E9472078DE0B2CC02
:102E100080913502843069F0853028F4823071F079
:102E2000833029F415C0853099F08630A1F060E038
:102E300016C0909136029F7088E405C090913602CA
:102E400092959F7088E5891B80939A0263E007C082
:102E500010929A0203C082EA80939A0261E00AE922
:102E600012E021E047E750E081E00E94F811992745
:102E70008093A302882309F451C50E945F0781E073
:102E80000E94720781E176CC80913A02833049F04A
:102E9000843018F48230A1F40EC0843071F0853093
:102EA00079F404E712E022E040E450E063E082E0DD
:102EB0000E94CB070EC083EF01C085EF80937402A0
:102EC00004E712E021E040E450E061E082E00E948B
:102ED000F81199278093D702882309F41FC570C47D
:102EE0002FB7F8943327809197028093100283E0E4
:102EF000809334022FBF8091100280939E02109124
:102F00003002812F8250823008F408C582E080931D
:102F100030020E94650D113009F000C580E0C0C488
:102F200080913502863038F4843008F047C0823012
:102F300008F4F4C46CC28D3008F0F0C481E08093D2
:102F400035020E94850D1091A3028091D802843031
:102F5000B9F0853041F1813009F0E0C40E944308A6
:102F6000112341F480E00E948E0E9927182F8823A8
:102F700009F4D4C440E050E060E070E0812F86C2E4
:102F800084E00E944308112341F483E00E948E0EE6
:102F90009927182F882309F4C1C440E050E060E06D
:102FA00070E0812F92C285E00E9443084CE065EEFC
:102FB00072E08FEF9FEF0E94D108B0C4C0909A02D8
:102FC000B0909B02E0909C0281E0809335020E94C9
:102FD000850DD090A3028091AF03823009F09EC48A
:102FE0000E944308DD2031F040E050E060E070E0F6
:102FF0008D2D0AC280916F0290917002A091710292
:10300000B09172023C014D01990C6608762C430187
:1030100089839A83AB83BC836D826E826F8268865C
:10302000FF2400271127102F0F2DFE2CEE242C2D0E
:10303000332744275527522F4427332722278B2D08
:103040009927AA27BB27DC0199278827282B392B0A
:103050004A2B5B2B2E293F29402B512B232F342F1A
:10306000452F552729873A874B875C871D861E8603
:103070001F86188A8091B3029091B402AA27BB27B9
:10308000DC0199278827898B9A8BAB8BBC8B1D8A97
:103090001E8A1F8A188E2091B7023091B80240E034
:1030A00050E060E070E080E0A22EB32EC42ED52E5A
:1030B000E62EF72E082F10E029813A814B815C81A2
:1030C000662D762D862D962D0E94BA2007E00E944F
:1030D000BE22822E932EA42EB52EC62ED72EE82EDB
:1030E000F92E2989280DB1E01989211708F0B0E0DF
:1030F0003A89390DA1E0EA893E1708F0A0E0EB2FEC
:10310000E30FF1E0E31708F0F0E0AF2B3E2F4B891F
:103110004A0DB1E0FB894F1708F0B0E0EA2FE40F49
:10312000F1E0E41708F0F0E0BF2B4E2F5C895B0D57
:10313000A1E00C89501708F0A0E0EB2FE50FF1E0BB
:10314000E51708F0F0E0AF2B5E2F6D896C0DB1E054
:103150001D89611708F0B0E0EA2FE60FF1E0E617ED
:1031600008F0F0E0BF2B6E2F7E897D0DA1E0EE8987
:103170007E1708F0A0E0EB2FE70FF1E0E71708F06B
:10318000F0E0AF2B7E2F8F898E0DB1E0FF898F1776
:1031900008F0B0E0EA2FE80F11E0E81708F010E0BF
:1031A0001B2B988D9F0D190FA22EB32EC42ED52E3A
:1031B000E62EF72E0E2F29853A854B855C856D8589
:1031C0007E858F8598890E94BA2005E10E94B821EA
:1031D000298F3A8F4B8F5C8F6D8F7E8F8F8F98A347
:1031E0008090B5029090B602AA24BB24CC24DD24A2
:1031F000EE24FF2401E1282D392D4A2D5B2D6C2D65
:103200007D2D8E2D90E00E943B2229A33AA34BA353
:103210005CA36DA37EA38FA398A72091B9023091E0
:10322000BA0280E0A22EB32E082F10E029813A8145
:103230004B815C816D817E818F8198850E94BA204F
:1032400006E00E94BE22A22EB32EC42ED52EE62E5C
:10325000F72E082F192F29A12A0DB1E0E9A12E1769
:1032600008F0B0E03AA13B0DA1E0FAA13F1708F049
:10327000A0E0EB2FE30FF1E0E31708F0F0E0AF2B55
:103280003E2F4BA14C0DB1E0EBA14E1708F0B0E082
:10329000EA2FE40FF1E0E41708F0F0E0BF2B4E2F27
:1032A0005CA15D0DA1E0FCA15F1708F0A0E0EB2F91
:1032B000E50FF1E0E51708F0F0E0AF2B5E2F6DA110
:1032C0006E0DB1E0EDA16E1708F0B0E0EA2FE60F49
:1032D000F1E0E61708F0F0E0BF2B6E2F7EA17F0D26
:1032E000A1E0FEA17F1708F0A0E0EB2FE70FF1E0CF
:1032F000E71708F0F0E0AF2B7E2F8FA1800FB1E031
:10330000EFA18E1708F0B0E0EA2FE80FA1E0E81770
:1033100008F0A0E0BA2B8E2F98A5910F9B0F898CF7
:10332000821AB1E0F98DF81508F0B0E09A8C931A82
:10333000A1E00A8D091508F0A0E0E92DEB1BF1E0F2
:103340009E1608F0F0E0AF2B9E2EAB8CA41AB1E0D5
:103350001B8D1A1508F0B0E0EA2DEA1BF1E0AE165D
:1033600008F0F0E0BF2BAE2EBC8CB51AA1E0EC8DBE
:10337000EB1508F0A0E0EB2DEB1BF1E0BE1608F01A
:10338000F0E0AF2BBE2ECD8CC61AB1E0FD8DFC1542
:1033900008F0B0E0EC2DEA1BF1E0CE1608F0F0E00A
:1033A000BF2BCE2EDE8CD71AA1E00E8D0D1508F0A6
:1033B000A0E0ED2DEB1BF1E0DE1608F0F0E0AF2B06
:1033C000DE2EEF8CE81AB1E01F8D1E1508F0B0E07C
:1033D000EE2DEA1BA1E0EE1608F0A0E0BA2BF8A053
:1033E000F91A9F2D9B1B0FE0282D392D4A2D5B2D9F
:1033F0006C2D7D2D8E2F0E94B821A22EB32EC42EAF
:10340000D52EB601A50180E00E94510987C2E09047
:103410009C02FF2400271127102F0F2DFE2CEE24D5
:1034200020919A02332744275527522F44273327C8
:10343000222780919B029927AA27BB27DC01992785
:103440008827282B392B4A2B5B2B2E293F29402BF1
:10345000512BE32EF42E052F112781E080933502A6
:103460000E94850DD090A3028091D903882321F07A
:10347000833009F053C21FC080E00E944308DD2062
:1034800041F040E050E060E070E08D2D0E94EA0ED7
:1034900045C28091BB029091BC02AA27BB27BA2FDC
:1034A000A92F982F8827E81AF90A0A0B1B0BB801D5
:1034B000A70180E0EBCF83E00E944308DD2041F0CC
:1034C00040E050E060E070E08D2D0E94FA0826C2D6
:1034D0008091C0039091C103AA27BB27BA2FA92FBF
:1034E000982F8827E81AF90A0A0B1B0BB801A701C5
:1034F00080E0EBCF9091360280913502823039F432
:1035000083E080933502892F82958F7005C085E016
:1035100080933502892F8F708430C1F0853030F46C
:10352000882351F0823009F0F9C10BC0863099F040
:10353000883009F0F3C114C04AE050E060E070E068
:1035400013C045E050E060E070E00EC043E050E0A2
:1035500060E070E009C042E050E060E070E004C06C
:1035600041E050E060E070E083E045C12FB7F8949F
:10357000332780911A038093130283E080933702EC
:103580002FBF209113022230C1F0233030F42223C8
:1035900061F0213009F0C2C10BC0243021F1243088
:1035A000E8F0253009F0BAC123C01092D90318C041
:1035B0008091E9039091EA031FC02093AF0310911B
:1035C0003502123008F0AAC184E0809335020E94CF
:1035D000650D113009F0A2C181E062C18093D90369
:1035E0000E94CA0F9BC18091AF029091B00204C0AB
:1035F0008091E6039091E7032093D8020E94E00FA8
:103600008DC1809174029927D82ECC2480917502A7
:103610008C7FC80ED11C10913A0280913B02882306
:1036200051F0153011F483E001C085E080933A0237
:1036300010923B020AC081E080933A020E945F0729
:1036400082E00E9472070E94850D133009F04DC080
:10365000F090D7020091E8038FB7F894182F80916B
:103660003C02833091F580911602801771F58091AC
:10367000140220E030E08F3F11F421E030E0232BF2
:10368000F9F48F3F19F42FEF30E00EC0282F3327C5
:10369000F901E955FD4F8081809314028F3F11F4A9
:1036A000809315028FEF8083209373028FEF8093B6
:1036B000160281E080933C0286E10E94D40105C09D
:1036C00081E08093160210923C021FBF002309F094
:1036D00061C0FF2009F057C0E091D302F091D402FD
:1036E000C7828D2D9927868355C0153009F052C0A9
:1036F000F090D7020091D6038FB7F894182F8091DD
:103700003D02833091F580911902801771F5809107
:10371000170220E030E08F3F11F421E030E0232B4E
:10372000F9F48F3F19F42FEF30E00EC0282F332724
:10373000F901E858FD4F8081809317028F3F11F403
:10374000809318028FEF808320933E028FEF809347
:10375000190281E080933D0287E10E94D40105C0F7
:1037600081E08093190210923D021FBF002391F463
:10377000FF2049F4E091D302F091D402C1868D2D4F
:103780009927808707C02FB7F894332785B18058D1
:1037900085B92FBF80913A02853019F0833009F046
:1037A000BDC004E712E022E040E450E063E082E0C4
:1037B0000E94CB0799278093D702882309F4AEC0D3
:1037C00084E10C94BA1380913A02823021F0843063
:1037D00009F0A4C008C083E080933A0245E550E0B8
:1037E00060E070E007C085E080933A0246E150E077
:1037F00060E070E084E00E94460D90C02FB7F8941E
:103800003327809173028093160283E080933C02F9
:103810002FBF809116028093E80310913A028091A5
:103820003B02882321F4812F8450823038F1812F8C
:103830008250823008F472C082E080933A020E9483
:10384000650D113009F06AC02AC02FB7F8943327EC
:1038500080913E028093190283E080933D022FBF46
:10386000809119028093D60310913A0280913B0215
:10387000882341F4812F8250823020F481E08093AC
:103880003B024CC0812F8450823008F447C084E052
:1038900080933A020E94650D113009F03FC082E02A
:1038A0000E94040F3BC09091E0038F2D892301F10A
:1038B000E22FFF27EE0FFF1FEF51FD4F1182108205
:1038C0008F2D809598239093E003213089F4809187
:1038D0000002882301F10E947D06AB01BC01EE24A9
:1038E00000E012E020E030E080E00E94270D13C0ED
:1038F0002F5F283098F4FF0CD6CF80911A02E82F62
:10390000FF27EE0FFF1FEF51FD4F6081718141E0F6
:103910000E94A40D03C0FF0C22E0C5CFA8960FB6ED
:10392000F894DEBF0FBECDBFDF91CF911F910F91F5
:10393000FF90EF90DF90CF90BF90AF909F908F90CF
:103940007F906F9008958091D3038F3FB1F0282F1F
:103950003327F901E358FD4F80818093D3038F3FD4
:1039600011F48093E5038FEF80832F3F31F0822F96
:103970000E94711381E090E0089580E090E0089546
:10398000FF920F931F93FFB6F89414BE88E10FB611
:10399000F89480936000109260000FBE4AE150E0FE
:1039A0006FEF70E08DE792E00E94E6238FEF809347
:1039B000D3038093E503819A8091350180618093E0
:1039C000350180913401806180933401809133010D
:1039D0008061809333018091320180618093320154
:1039E00085B7806885BF85B7806885BF80E880938C
:1039F00061008FE08093610091E09093810080E20C
:103A00008093B6009093B100AEEFE0E0F0E06FEF8E
:103A10007FEFB0E08091B2008823E1F7409184000D
:103A2000509185008091B2008034E1F720918400AC
:103A300030918500241B350B6217730708F4B90118
:103A40002E173F0708F4F901CF01861B970B029749
:103A500030F0B0E06FEF7FEFE0E0F0E003C0BF5F79
:103A6000B23310F4A150B1F63093D5032093D403B0
:103A70001092B1008091B10080938100809181000B
:103A80008093B6008091B600992783709070892B3F
:103A9000C9F780E28093B6008091DC008F7C806360
:103AA0008093DC008091DF0088608093DF0080914C
:103AB000DF008E7F8093DF008FEF8093080280917C
:103AC000DC008E7F8093DC00809180008C7F80936F
:103AD000800080918100807E82608093810080914F
:103AE0006F00816080936F0010927A00809139019D
:103AF000826080933901569A5E9A269A279A269A6E
:103B0000279A2E982F982E982F980E94A31C8823CE
:103B1000E1F71FEF109378021093A7026FE070E0B7
:103B20008FE090E00E94E10B46E050E06FEF70E024
:103B30008AED93E00E94E62363E070E083E090E08A
:103B40000E94E10B1093C70243E050E06FEF70E07A
:103B500084EA92E00E94E6236BE070E08BE090E064
:103B60000E94E10B10921B0312E006E06091D40367
:103B70007091D5038827992728E037E040E050E08E
:103B80000E945A23215030402093C400832F99274C
:103B90008093C5001093C0000093C2001092C10032
:103BA0002093CC008093CD001093C8000093CA00EE
:103BB0001092C9001092CF021092D1028AE0809335
:103BC000AE031092C1021092C8021092D703109255
:103BD000ED031092EC031092E4031092190310927B
:103BE000C5031092C40384E08093A9021092B1032C
:103BF0001092CE031092AD0210921603109215038C
:103C00001092DA021092D9021D9B0AC081E08093C3
:103C1000A80380E00E94D40185E00E94FB0108C057
:103C20001092A80381E00E94D40185E00E94140252
:103C30000E94A31C8823E1F78F2D99278FBF7894CA
:103C40000E94C90B21EF32E030937B0220937A026D
:103C50008CE492E09093D4028093D3023093E703F4
:103C60002093E60385E00E948E0E8FB7F894082F0C
:103C7000112767C08091080287FF5AC08091BC005D
:103C800082FF03C040E050E002C045E050E0809178
:103C90007A0087FF03C0A1E0B0E002C0A5E0B0E079
:103CA0008091DC0085FF03C063E070E002C065E046
:103CB00070E080916F008E7219F020E030E002C059
:103CC00025E030E08091C10083FD0FC08091C100EC
:103CD00084FD0BC08091C90083FD07C08091C9009D
:103CE00084FD03C0E5E0F0E002C0E0E0F0E0322F48
:103CF000262F8A2F4A1708F4842F9927821708F451
:103D0000282F822F9927831708F4382F832F99277C
:103D10008E1708F4E82FFF27E093080283B7FF27E8
:103D2000E7FDF095EC5AFC4FE491807F8E2B83BF2A
:103D300083B7816083BF78948895F89483B78E7F2A
:103D400083BF8091D3038F3F09F494CF282F33276B
:103D5000F901E358FD4F80818093D3038F3F11F425
:103D60008093E5038FEF80832F3F09F483CF0FBF4C
:103D7000822F0E94711379CF1F93182F0E94490739
:103D80008091A7038E7F8093A70380E00E94520753
:103D90008091A7038093BC000E94490781E00E94A4
:103DA00052078091A7038093BC0081E08093320288
:103DB0008091330220919F023091A00240913F02F6
:103DC0006091B1027091B20290910D028823C9F006
:103DD000913069F0913018F0923071F50CC0109369
:103DE00079020E945F0780E00E9472071AC0812F4B
:103DF0000E94BD1221C01093D70284E10E94D40119
:103E00001BC0913091F0913018F09230A9F411C09C
:103E10000E945F0780E00E947207112321F0109337
:103E200079028DE0EBCF8EE0E9CF812F0E94B611B1
:103E300003C0812F0E94A4111F9108951F920F9219
:103E40000FB60F9211242F933F934F935F936F936D
:103E50007F938F939F93AF93BF93EF93FF930E94B2
:103E6000490780913202843009F446C1863021F03E
:103E7000833009F06EC188C09091B900987F80911D
:103E80003302813009F043C0903409F07BC083E0F5
:103E9000809332022091CD0340913F02241708F411
:103EA0008CC02091A703322F3E7F3093A7038091CF
:103EB000EB0381FF09C08D7F8093EB03306130936A
:103EC000A7038091B90003C02E772093A7038091A8
:103ED000A7038093BC0081E08093320220919F026F
:103EE0003091A0026091B1027091B20280910D02F6
:103EF000813009F4AFC0813008F4A3C0823009F0EA
:103F000028C11092D70284E10E94D40122C19831C5
:103F1000C9F583E0809332029091CD0340913F0236
:103F20002091A703941708F49FC0922F9E7F90932F
:103F3000A7038091EB0381FF07C08D7F8093EB0384
:103F400090619093A70303C02E772093A7038091DD
:103F5000A7038093BC0081E08093320220919F02EE
:103F60003091A0026091B1027091B20280910D0275
:103F7000813009F4B9C0813008F4AFC0823009F053
:103F8000E8C0B6C084E0CDC0809133029091CD03EB
:103F9000813009F063C0E0919F02F091A002E90F27
:103FA000F11D8091BB0080832091CD032F5F209372
:103FB000CD0340913F022417A8F43327842F99277B
:103FC00001972817390749F48091EB0382FD05C05A
:103FD0008091A7038F7B8093A7038091A703809391
:103FE000BC00B7C02091A703322F3E7F3093A703B8
:103FF0008091EB0381FF09C08D7F8093EB033061DB
:104000003093A7038091B90003C02E772093A703B4
:104010008091A7038093BC0081E0809332022091BD
:104020009F023091A0026091B1027091B202809122
:104030000D02813079F0813020F0823009F089C0A2
:1040400060CF109279020E945F0780E00E947207A1
:104050008DE05ACF80E00E94BD127BC040913F02AC
:104060002091A703941778F4E0919F02F091A002A9
:10407000E90FF11D80818093BB009F5F9093CD037A
:104080002093BC0066C0922F9E7F9093A7038091DF
:10409000EB0381FF07C08D7F8093EB0390619093CA
:1040A000A70303C02E772093A7038091A7038093D3
:1040B000BC0081E08093320220919F023091A002E7
:1040C0006091B1027091B20280910D02813061F075
:1040D000813018F08230E9F50BC00E945F0780E064
:1040E0000E9472078EE010CF80E00E94B61131C0AE
:1040F00080E00E94A4112DC08091EB038E7F8093FD
:10410000EB039091A7039F7D9093A7038091B90043
:10411000887F883049F08091B900887F803121F014
:1041200081E00E94BC1E15C0392F30643093A70374
:104130009091B102990F20E080913302813009F40F
:1041400021E0922B9093BB0086E080933202309363
:10415000BC00FF91EF91BF91AF919F918F917F91A3
:104160006F915F914F913F912F910F900FBE0F90E4
:104170001F901895ACE2B0E0E0ECF0E20C94AF23B5
:10418000222E332E442E552E662E772E882E992ED3
:10419000FE013196A8E01192AA95E9F729823A82A8
:1041A0004B825C826D827E828F829886FE01399678
:1041B000B8E01192BA95E9F7A986BA86CB86DC8673
:1041C000ED86FE860F87188B89819A81AB81BC8131
:1041D00089A79AA7ABA7BCA77C018D018FEF9FEFA2
:1041E000A0E0B0E0E822F9220A231B2389A59AA5C2
:1041F000ABA5BCA51D014424552489859A85AB85B2
:10420000BC858DA39EA3AFA3B8A75C016D018FEF02
:104210009FEFA0E0B0E0A822B922CA22DB228DA144
:104220009EA1AFA1B8A53D0188249924C801B7017A
:10423000A60195010E947C2369A37AA38BA39CA36A
:10424000C801B701A40193010E947C237B018C016A
:10425000C201B101A60195010E947C235B016C01A2
:10426000C201B101A40193010E947C233B014C01D6
:10427000EA0CFB1C0C1D1D1D89A19AA1ABA1BCA1C0
:104280009D01442755272E0D3F1D401F511F2A1504
:104290003B054C055D0540F480E090E0A1E0B0E016
:1042A000680E791E8A1E9B1ECA01AA27BB27860D8F
:1042B000971DA81DB91D8D8F9E8FAF8FB8A3A90123
:1042C0003327222789A19AA1ABA1BCA1A070B0700D
:1042D000280F391F4A1F5B1F298F3A8F4B8F5C8F26
:1042E000A98CBA8CCB8CDC8CED8CFE8C0F8D18A13C
:1042F000FE01719698E011929A95E9F7ED8AFE8A8F
:104300000F8B188F2D813E814F8158856DA17EA125
:104310008FA198A50E947C233B014C012D853E85F1
:104320004F85588969A57AA58BA59CA50E947C23F9
:104330002D893E894F89588D260F371F481F591FD9
:10434000260D371D481D591D2D8B3E8B4F8B588FC9
:104350006D887E888F88988C2A2D3B2D4C2D5D2D65
:10436000662D772D882D992DE2E1AC960C94CB2308
:10437000A0E1B0E0EEEBF1E20C94AF23222E332E5D
:10438000442E552E662E772E882E992E002309F462
:1043900066C088E0FE01319611928A95E9F729837B
:1043A0003A834B835C836D837E838F829887E0E2C0
:1043B000E01B1E16CCF52D813E814F815885602F64
:1043C000772767FD7095DA01C901062E04C0B695FE
:1043D000A795979587950A94D2F78D879E87AF8783
:1043E000B88B04C0220F331F441F551FEA95D2F724
:1043F00089819A81AB81BC8104C0B695A7959795B8
:1044000087956A95D2F7282B392B4A2B5B2B298766
:104410003A874B875C8729843A844B845C846D841B
:104420007E848F8498881BC01D861E861F86188AEE
:104430002E2F332727FD3095309521953F4F8D81C5
:104440009E81AF81B88504C0B695A795979587954D
:104450002A95D2F789879A87AB87BC87DCCF222D34
:10446000332D442D552D662D772D882D992DE2E184
:1044700060960C94CB23A0E1B0E0E1E4F2E20C946E
:10448000AF23222E332E442E552E662E772E882EC5
:10449000992E002309F466C088E0FE01319611923E
:1044A0008A95E9F729833A834B835C836D837E8306
:1044B0008F829887E0E2E01B1E16CCF529813A81B5
:1044C0004B815C81602F772767FD7095DA01C90108
:1044D000062E04C0880F991FAA1FBB1F0A94D2F78B
:1044E00089879A87AB87BC8704C0569547953795CF
:1044F0002795EA95D2F78D819E81AF81B88504C05A
:10450000880F991FAA1FBB1F6A95D2F7282B392B3A
:104510004A2B5B2B2D873E874F87588B29843A8403
:104520004B845C846D847E848F8498881BC019863C
:104530001A861B861C862E2F332727FD3095309533
:1045400021953F4F89819A81AB81BC8104C0880F3E
:10455000991FAA1FBB1F2A95D2F78D879E87AF8709
:10456000B88BDCCF222D332D442D552D662D772D84
:10457000882D992DE2E160960C94CB23A0E1B0E068
:10458000E4ECF2E20C94AF23222E332E442E552E6F
:10459000662E772E882E992E002309F46CC088E0B1
:1045A000FE01319611928A95E9F729833A834B836C
:1045B0005C836D837E838F829887E0E2E01B1E160A
:1045C000CCF52D813E814F815885602F772767FD7F
:1045D0007095DA01C901062E04C0B595A795979587
:1045E00087950A94D2F78D879E87AF87B88B04C0D2
:1045F000220F331F441F551FEA95D2F789819A81F4
:10460000AB81BC8104C0B695A795979587956A95AF
:10461000D2F7282B392B4A2B5B2B29873A874B87DC
:104620005C8729843A844B845C846D847E848F8487
:10463000988821C08D819E81AF81B8859C01AD0194
:10464000550F220B322FA9012D873E874F87588B9C
:104650002E2F332727FD3095309521953F4F04C0ED
:10466000B595A795979587952A95D2F789879A87C3
:10467000AB87BC87D6CF222D332D442D552D662DEB
:10468000772D882D992DE2E160960C94CB2397FB32
:10469000092E07260AD077FD04D04DD006D0002081
:1046A0001AF4709561957F4F0895F6F7909581956E
:1046B0009F4F0895A1E21A2EAA1BBB1BFD010DC03E
:1046C000AA1FBB1FEE1FFF1FA217B307E407F507C2
:1046D00020F0A21BB30BE40BF50B661F771F881F9E
:1046E000991F1A9469F760957095809590959B0134
:1046F000AC01BD01CF010895629FD001739FF0010D
:10470000829FE00DF11D649FE00DF11D929FF00D61
:10471000839FF00D749FF00D659FF00D9927729F98
:10472000B00DE11DF91F639FB00DE11DF91FBD0123
:10473000CF0111240895AA1BBB1B51E107C0AA1F7A
:10474000BB1FA617B70710F0A61BB70B881F991F32
:104750005A95A9F780959095BC01CD0108952F92A7
:104760003F924F925F926F927F928F929F92AF9201
:10477000BF92CF92DF92EF92FF920F931F93CF934E
:10478000DF93CDB7DEB7CA1BDB0B0FB6F894DEBFE5
:104790000FBECDBF09942A88398848885F846E840B
:1047A0007D848C849B84AA84B984C884DF80EE8055
:1047B000FD800C811B81AA81B981CE0FD11D0FB65E
:1047C000F894DEBF0FBECDBFED010895DC0101C03E
:0C47D0006D9341505040E0F70895FFCF7A
:1047DC0001FF490378034903FF02FFFF03FFFFFFBB
:0C47EC0001FFFF06FFFF01FFFF010200BC
:00000001FF
